{"contracts/Escrow.sol":{"Escrow":{"abi":[{"inputs":[{"internalType":"address","name":"_arbiter","type":"address"},{"internalType":"address","name":"_beneficiary","type":"address"}],"stateMutability":"payable","type":"constructor"},{"anonymous":false,"inputs":[{"indexed":false,"internalType":"uint256","name":"amount","type":"uint256"}],"name":"Approved","type":"event"},{"inputs":[],"name":"approve","outputs":[],"stateMutability":"nonpayable","type":"function"},{"inputs":[],"name":"arbiter","outputs":[{"internalType":"address","name":"","type":"address"}],"stateMutability":"view","type":"function"},{"inputs":[],"name":"beneficiary","outputs":[{"internalType":"address","name":"","type":"address"}],"stateMutability":"view","type":"function"},{"inputs":[],"name":"depositor","outputs":[{"internalType":"address","name":"","type":"address"}],"stateMutability":"view","type":"function"}],"evm":{"assembly":"// RO data = 0/0 bytes\n// RW data = 72/65664 bytes\n// Stack size = 32768 bytes\n\n// Instructions = 1286\n// Code size = 4215 bytes\n\n      : @0 (gas: 2)\n     0: a1 = i32 [0x20050]\n     5: jump @38 if a1 == 0\n      : @1 (gas: 4)\n     9: a0 = 0x30080\n    14: i32 a0 = a0 + 0\n    16: ecalli 12 // 'set_immutable_data'\n    18: jump @38\n      : @2 (gas: 8)\n    21: sp = sp + 0xfffffffffffffff0\n    24: u64 [sp + 0x8] = ra\n    27: u64 [sp] = s0\n    29: a2 = a1\n    31: s0 = a0\n    33: a1 = 0x20\n    36: a0 = a2\n    38: ra = 2, jump @9\n      : @3 [@dyn 1] (gas: 100)\n    43: a1 = u8 [a0 + 0x1]\n    46: a2 = u8 [a0]\n    48: a3 = u8 [a0 + 0x2]\n    51: a4 = u8 [a0 + 0x3]\n    54: a1 = a1 << 0x8\n    57: a1 = a1 | a2\n    60: a3 = a3 << 0x10\n    63: a4 = a4 << 0x18\n    66: a3 = a3 | a4\n    69: a1 = a1 | a3\n    72: a2 = u8 [a0 + 0x5]\n    75: a3 = u8 [a0 + 0x4]\n    78: a4 = u8 [a0 + 0x6]\n    81: a5 = u8 [a0 + 0x7]\n    84: a2 = a2 << 0x8\n    87: a2 = a2 | a3\n    90: a4 = a4 << 0x10\n    93: a5 = a5 << 0x18\n    96: a4 = a4 | a5\n    99: a2 = a2 | a4\n   102: a2 = a2 << 0x20\n   105: t0 = a2 | a1\n   108: a2 = u8 [a0 + 0x9]\n   111: a3 = u8 [a0 + 0x8]\n   114: a4 = u8 [a0 + 0xa]\n   117: a5 = u8 [a0 + 0xb]\n   120: a2 = a2 << 0x8\n   123: a2 = a2 | a3\n   126: a4 = a4 << 0x10\n   129: a5 = a5 << 0x18\n   132: a4 = a4 | a5\n   135: a2 = a2 | a4\n   138: a3 = u8 [a0 + 0xd]\n   141: a4 = u8 [a0 + 0xc]\n   144: a5 = u8 [a0 + 0xe]\n   147: a1 = u8 [a0 + 0xf]\n   150: a3 = a3 << 0x8\n   153: a3 = a3 | a4\n   156: a5 = a5 << 0x10\n   159: a1 = a1 << 0x18\n   162: a1 = a1 | a5\n   165: a1 = a1 | a3\n   168: a1 = a1 << 0x20\n   171: t1 = a1 | a2\n   174: a1 = u8 [a0 + 0x11]\n   177: a3 = u8 [a0 + 0x10]\n   180: a4 = u8 [a0 + 0x12]\n   183: a5 = u8 [a0 + 0x13]\n   186: a1 = a1 << 0x8\n   189: a1 = a1 | a3\n   192: a4 = a4 << 0x10\n   195: a5 = a5 << 0x18\n   198: a4 = a4 | a5\n   201: a1 = a1 | a4\n   204: a3 = u8 [a0 + 0x15]\n   207: a4 = u8 [a0 + 0x14]\n   210: a5 = u8 [a0 + 0x16]\n   213: a2 = u8 [a0 + 0x17]\n   216: a3 = a3 << 0x8\n   219: a3 = a3 | a4\n   222: a5 = a5 << 0x10\n   225: a2 = a2 << 0x18\n   228: a2 = a2 | a5\n   231: a2 = a2 | a3\n   234: a2 = a2 << 0x20\n   237: a3 = a2 | a1\n   240: a1 = u8 [a0 + 0x19]\n   243: a2 = u8 [a0 + 0x18]\n   246: a4 = u8 [a0 + 0x1a]\n   249: a5 = u8 [a0 + 0x1b]\n   252: a1 = a1 << 0x8\n   255: a1 = a1 | a2\n   258: a4 = a4 << 0x10\n   261: a5 = a5 << 0x18\n   264: a4 = a4 | a5\n   267: a1 = a1 | a4\n   270: a2 = u8 [a0 + 0x1d]\n   273: a4 = u8 [a0 + 0x1c]\n   276: a5 = u8 [a0 + 0x1e]\n   279: a0 = u8 [a0 + 0x1f]\n   282: a2 = a2 << 0x8\n   285: a2 = a2 | a4\n   288: a5 = a5 << 0x10\n   291: a0 = a0 << 0x18\n   294: a0 = a0 | a5\n   297: a0 = a0 | a2\n   300: a0 = a0 << 0x20\n   303: a0 = a0 | a1\n   306: a0 = reverse a0\n   308: a1 = reverse a3\n   310: a2 = reverse t1\n   312: a3 = reverse t0\n   314: u64 [s0 + 0x18] = a3\n   317: u64 [s0 + 0x10] = a2\n   320: u64 [s0 + 0x8] = a1\n   323: u64 [s0] = a0\n   325: ra = u64 [sp + 0x8]\n   328: s0 = u64 [sp]\n   330: sp = sp + 0x10\n   333: ret\n      : @4 (gas: 12)\n   335: sp = sp + 0xffffffffffffffd8\n   338: u64 [sp + 0x20] = ra\n   341: u64 [sp + 0x18] = s0\n   344: u64 [sp + 0x10] = s1\n   347: a2 = u64 [a1]\n   349: u64 [sp + 0x8] = a2\n   352: a2 = u64 [a1 + 0x8]\n   355: u64 [sp] = a2\n   357: s0 = u64 [a1 + 0x10]\n   360: s1 = u64 [a1 + 0x18]\n   363: a1 = 0x20\n   366: ra = 4, jump @9\n      : @5 [@dyn 2] (gas: 71)\n   371: a1 = reverse s1\n   373: a2 = reverse s0\n   375: a3 = u64 [sp]\n   377: a3 = reverse a3\n   379: a4 = u64 [sp + 0x8]\n   382: a4 = reverse a4\n   384: u8 [a0 + 0x18] = a4\n   387: u8 [a0 + 0x10] = a3\n   390: u8 [a0 + 0x8] = a2\n   393: u8 [a0] = a1\n   395: a5 = a4 >> 0x38\n   398: u8 [a0 + 0x1f] = a5\n   401: a5 = a4 >> 0x30\n   404: u8 [a0 + 0x1e] = a5\n   407: a5 = a4 >> 0x28\n   410: u8 [a0 + 0x1d] = a5\n   413: a5 = a4 >> 0x20\n   416: u8 [a0 + 0x1c] = a5\n   419: a5 = a4 >> 0x18\n   422: u8 [a0 + 0x1b] = a5\n   425: a5 = a4 >> 0x10\n   428: u8 [a0 + 0x1a] = a5\n   431: a4 = a4 >> 0x8\n   434: u8 [a0 + 0x19] = a4\n   437: a4 = a3 >> 0x38\n   440: u8 [a0 + 0x17] = a4\n   443: a4 = a3 >> 0x30\n   446: u8 [a0 + 0x16] = a4\n   449: a4 = a3 >> 0x28\n   452: u8 [a0 + 0x15] = a4\n   455: a4 = a3 >> 0x20\n   458: u8 [a0 + 0x14] = a4\n   461: a4 = a3 >> 0x18\n   464: u8 [a0 + 0x13] = a4\n   467: a4 = a3 >> 0x10\n   470: u8 [a0 + 0x12] = a4\n   473: a3 = a3 >> 0x8\n   476: u8 [a0 + 0x11] = a3\n   479: a3 = a2 >> 0x38\n   482: u8 [a0 + 0xf] = a3\n   485: a3 = a2 >> 0x30\n   488: u8 [a0 + 0xe] = a3\n   491: a3 = a2 >> 0x28\n   494: u8 [a0 + 0xd] = a3\n   497: a3 = a2 >> 0x20\n   500: u8 [a0 + 0xc] = a3\n   503: a3 = a2 >> 0x18\n   506: u8 [a0 + 0xb] = a3\n   509: a3 = a2 >> 0x10\n   512: u8 [a0 + 0xa] = a3\n   515: a2 = a2 >> 0x8\n   518: u8 [a0 + 0x9] = a2\n   521: a2 = a1 >> 0x38\n   524: u8 [a0 + 0x7] = a2\n   527: a2 = a1 >> 0x30\n   530: u8 [a0 + 0x6] = a2\n   533: a2 = a1 >> 0x28\n   536: u8 [a0 + 0x5] = a2\n   539: a2 = a1 >> 0x20\n   542: u8 [a0 + 0x4] = a2\n   545: a2 = a1 >> 0x18\n   548: u8 [a0 + 0x3] = a2\n   551: a2 = a1 >> 0x10\n   554: u8 [a0 + 0x2] = a2\n   557: a1 = a1 >> 0x8\n   560: u8 [a0 + 0x1] = a1\n   563: ra = u64 [sp + 0x20]\n   566: s0 = u64 [sp + 0x18]\n   569: s1 = u64 [sp + 0x10]\n   572: sp = sp + 0x28\n   575: ret\n      : @6 (gas: 48)\n   577: sp = sp + 0xffffffffffffffa0\n   580: u64 [sp + 0x58] = ra\n   583: u64 [sp + 0x50] = s0\n   586: u64 [sp + 0x48] = s1\n   589: s0 = sp + 0x60\n   592: sp = sp & 0xffffffffffffffe0\n   595: s1 = a0\n   597: a0 = u64 [a1 + 0x18]\n   600: a2 = u64 [a1 + 0x10]\n   603: a3 = u64 [a1 + 0x8]\n   606: a1 = u64 [a1]\n   608: a0 = reverse a0\n   610: a2 = reverse a2\n   612: a3 = reverse a3\n   614: a1 = reverse a1\n   616: u64 [sp + 0x18] = a1\n   619: u64 [sp + 0x10] = a3\n   622: u64 [sp + 0x8] = a2\n   625: u64 [sp] = a0\n   627: u64 [sp + 56] = 0\n   630: u64 [sp + 48] = 0\n   633: u64 [sp + 40] = 0\n   636: u64 [sp + 32] = 0\n   639: u32 [sp + 64] = 0x20\n   643: i32 a1 = sp + 0\n   645: i32 a3 = sp + 0x20\n   648: i32 a4 = sp + 0x40\n   651: a2 = 0xffffffffffffffff\n   654: a0 = 0\n   656: ecalli 7 // 'get_storage'\n   658: a0 = u64 [sp + 0x38]\n   661: a1 = u64 [sp + 0x30]\n   664: a2 = u64 [sp + 0x28]\n   667: a3 = u64 [sp + 0x20]\n   670: a0 = reverse a0\n   672: a1 = reverse a1\n   674: a2 = reverse a2\n   676: a3 = reverse a3\n   678: u64 [s1 + 0x18] = a3\n   681: u64 [s1 + 0x10] = a2\n   684: u64 [s1 + 0x8] = a1\n   687: u64 [s1] = a0\n   689: sp = s0 + 0xffffffffffffffa0\n   692: ra = u64 [sp + 0x58]\n   695: s0 = u64 [sp + 0x50]\n   698: s1 = u64 [sp + 0x48]\n   701: sp = sp + 0x60\n   704: ret\n      : @7 (gas: 40)\n   706: sp = sp + 0xffffffffffffffa0\n   709: u64 [sp + 0x58] = ra\n   712: u64 [sp + 0x50] = s0\n   715: s0 = sp + 0x60\n   718: sp = sp & 0xffffffffffffffe0\n   721: t0 = u64 [a0]\n   723: a3 = u64 [a0 + 0x8]\n   726: a4 = u64 [a0 + 0x10]\n   729: a0 = u64 [a0 + 0x18]\n   732: t1 = u64 [a1]\n   734: a2 = u64 [a1 + 0x8]\n   737: a5 = u64 [a1 + 0x10]\n   740: a1 = u64 [a1 + 0x18]\n   743: t2 = reverse a0\n   745: a4 = reverse a4\n   747: a3 = reverse a3\n   749: a0 = reverse t0\n   751: t0 = reverse a1\n   753: a5 = reverse a5\n   755: a2 = reverse a2\n   757: a1 = reverse t1\n   759: u64 [sp + 0x18] = a0\n   762: u64 [sp + 0x10] = a3\n   765: u64 [sp + 0x8] = a4\n   768: u64 [sp] = t2\n   770: u64 [sp + 0x38] = a1\n   773: u64 [sp + 0x30] = a2\n   776: u64 [sp + 0x28] = a5\n   779: u64 [sp + 0x20] = t0\n   782: i32 a1 = sp + 0\n   784: i32 a3 = sp + 0x20\n   787: a2 = 0xffffffffffffffff\n   790: a4 = 0x20\n   793: a0 = 0\n   795: ecalli 13 // 'set_storage'\n   797: sp = s0 + 0xffffffffffffffa0\n   800: ra = u64 [sp + 0x58]\n   803: s0 = u64 [sp + 0x50]\n   806: sp = sp + 0x60\n   809: ret\n      : @8 [@dyn 3] (gas: 23)\n   811: a1 = u64 [sp]\n   813: a1 = reverse a1\n   815: a2 = u64 [sp + 0x8]\n   818: a2 = reverse a2\n   820: a3 = u64 [sp + 0x10]\n   823: a3 = reverse a3\n   825: a4 = u64 [sp + 0x18]\n   828: a4 = reverse a4\n   830: u64 [sp + 0x38] = a4\n   833: u64 [sp + 0x30] = a3\n   836: u64 [sp + 0x28] = a2\n   839: u64 [sp + 0x20] = a1\n   842: i32 a2 = a0 + 0\n   844: i32 a3 = s1 + 0\n   846: i32 a0 = sp + 0x20\n   849: a1 = 0x1\n   852: ecalli 6 // 'deposit_event'\n   854: sp = s0 + 0xffffffffffffffa0\n   857: ra = u64 [sp + 0x58]\n   860: s0 = u64 [sp + 0x50]\n   863: s1 = u64 [sp + 0x48]\n   866: sp = sp + 0x60\n   869: ret\n      : @9 (gas: 2)\n   871: i32 a2 = a0 >> 0x10\n   874: jump @14 if a2 != 0\n      : @10 (gas: 4)\n   877: a1 = a1 + a0\n   880: i32 a1 = a1 + 0x1f\n   883: a1 = a1 & 0xffffffffffffffe0\n   886: jump @14 if a1 >u 65536\n      : @11 (gas: 3)\n   892: a2 = 0x2004c\n   897: a3 = i32 [0x2004c]\n   902: jump @13 if a3 >=u a1\n      : @12 (gas: 2)\n   905: u32 [0x2004c] = a1\n   910: fallthrough\n      : @13 (gas: 4)\n   911: a1 = 0x20060\n   916: i32 a0 = a0 + 0\n   918: a0 = a0 + a1\n   921: ret\n      : @14 (gas: 1)\n   923: trap\n      : @15 (gas: 6)\n   924: sp = sp + 0xfffffffffffffff0\n   927: u64 [sp + 0x8] = ra\n   930: u64 [sp] = s0\n   932: s0 = a0 & 0x1\n   935: ecalli 4 // 'call_data_size'\n   937: fallthrough\n      : @16 (gas: 2)\n   938: u32 [0x20048] = a0\n   943: jump @18 if s0 == 0\n      : @17 (gas: 1)\n   946: ra = 8, jump @19\n      : @18 [@dyn 4] (gas: 1)\n   950: ra = 10, jump @40\n      : @19 [@dyn 5] (gas: 22)\n   955: sp = sp + 0xfffffffffffffd60\n   959: a0 = sp + 0x200\n   963: u64 [a0 + 0x98] = ra\n   967: u64 [a0 + 0x90] = s0\n   971: u64 [a0 + 0x88] = s1\n   975: s0 = sp + 0x2a0\n   979: sp = sp & 0xffffffffffffffe0\n   982: s1 = i32 [0x20048]\n   987: a0 = s1 << 0x20\n   990: a0 = a0 >> 0x20\n   993: a0 = a0 + 0x1f\n   996: a0 = a0 & 0xffffffffffffffe0\n   999: a1 = a0 + 0x80\n  1003: a0 = a1 <u a0\n  1006: u64 [sp + 344] = 0\n  1010: u64 [sp + 0x140] = a1\n  1014: u64 [sp + 0x148] = a0\n  1018: a0 = 0 if a0 != 0\n  1020: u64 [sp + 0x150] = a0\n  1024: a0 = 0x40\n  1027: a1 = sp + 0x140\n  1031: ra = 12, jump @4\n      : @20 [@dyn 6] (gas: 3)\n  1036: a0 = 0x80\n  1040: a1 = s1\n  1042: ra = 14, jump @9\n      : @21 [@dyn 7] (gas: 5)\n  1047: i32 a0 = a0 + 0\n  1049: a1 = s1\n  1051: a2 = 0\n  1053: ecalli 2 // 'call_data_copy'\n  1055: fallthrough\n      : @22 (gas: 1)\n  1056: jump @35 if s1 <u 64\n      : @23 (gas: 7)\n  1061: u64 [sp + 280] = 0\n  1065: u64 [sp + 272] = 0\n  1069: u64 [sp + 256] = 0x80\n  1075: a0 = sp + 0x120\n  1079: a1 = sp + 0x100\n  1083: u64 [sp + 264] = 0\n  1087: ra = 16, jump @135\n      : @24 [@dyn 8] (gas: 13)\n  1092: a0 = u64 [sp + 0x120]\n  1096: u64 [sp + 0x20] = a0\n  1099: a0 = u64 [sp + 0x128]\n  1103: u64 [sp + 0x18] = a0\n  1106: a0 = u32 [sp + 0x130]\n  1110: u64 [sp + 0x10] = a0\n  1113: u64 [sp + 216] = 0\n  1117: u64 [sp + 208] = 0\n  1121: u64 [sp + 192] = 0xa0\n  1127: a0 = sp + 0xe0\n  1131: a1 = sp + 0xc0\n  1135: u64 [sp + 200] = 0\n  1139: ra = 18, jump @135\n      : @25 [@dyn 9] (gas: 14)\n  1144: a0 = u64 [sp + 0xe0]\n  1148: u64 [sp + 0x38] = a0\n  1151: a0 = u64 [sp + 0xe8]\n  1155: u64 [sp + 0x30] = a0\n  1158: a0 = u32 [sp + 0xf0]\n  1162: u64 [sp + 0x28] = a0\n  1165: u64 [sp + 376] = 0\n  1169: u64 [sp + 368] = 0\n  1173: u64 [sp + 360] = 0\n  1177: s1 = 0x2\n  1180: u64 [sp + 0x160] = s1\n  1184: a0 = sp + 0xa0\n  1188: a1 = sp + 0x160\n  1192: ra = 20, jump @6\n      : @26 [@dyn 10] (gas: 18)\n  1197: a0 = u32 [sp + 0xb4]\n  1201: a0 = a0 << 0x20\n  1204: a1 = u64 [sp + 0xb8]\n  1208: a2 = u64 [sp + 0x10]\n  1211: a0 = a0 | a2\n  1214: u64 [sp + 408] = 0\n  1218: u64 [sp + 400] = 0\n  1222: u64 [sp + 392] = 0\n  1226: u64 [sp + 0x180] = s1\n  1230: a2 = u64 [sp + 0x18]\n  1233: u64 [sp + 0x1a8] = a2\n  1237: a2 = u64 [sp + 0x20]\n  1240: u64 [sp + 0x1a0] = a2\n  1244: u64 [sp + 0x1b8] = a1\n  1248: u64 [sp + 0x1b0] = a0\n  1252: a0 = sp + 0x180\n  1256: a1 = sp + 0x1a0\n  1260: ra = 22, jump @7\n      : @27 [@dyn 11] (gas: 8)\n  1265: u64 [sp + 472] = 0\n  1269: u64 [sp + 464] = 0\n  1273: u64 [sp + 456] = 0\n  1277: s1 = 0x1\n  1280: u64 [sp + 0x1c0] = s1\n  1284: a0 = sp + 0x80\n  1288: a1 = sp + 0x1c0\n  1292: ra = 24, jump @6\n      : @28 [@dyn 12] (gas: 19)\n  1297: a0 = u32 [sp + 0x94]\n  1301: a0 = a0 << 0x20\n  1304: a1 = u64 [sp + 0x98]\n  1308: a2 = u64 [sp + 0x28]\n  1311: a0 = a0 | a2\n  1314: u64 [sp + 504] = 0\n  1318: u64 [sp + 496] = 0\n  1322: u64 [sp + 488] = 0\n  1326: u64 [sp + 0x1e0] = s1\n  1330: a2 = u64 [sp + 0x30]\n  1333: a3 = sp + 0x200\n  1337: u64 [a3 + 0x8] = a2\n  1340: a2 = u64 [sp + 0x38]\n  1343: u64 [a3] = a2\n  1345: u64 [a3 + 0x18] = a1\n  1348: u64 [a3 + 0x10] = a0\n  1351: a0 = sp + 0x1e0\n  1355: a1 = sp + 0x200\n  1359: ra = 26, jump @7\n      : @29 [@dyn 13] (gas: 26)\n  1364: s1 = 0x30060\n  1369: i32 a0 = s1 + 0\n  1371: ecalli 5 // 'caller'\n  1373: a0 = u64 [0x30068]\n  1378: a1 = i32 [0x30070]\n  1383: a2 = u64 [0x30060]\n  1388: a0 = reverse a0\n  1390: a3 = a0 << 0x20\n  1393: a1 = reverse a1\n  1395: a1 = a1 >> 0x20\n  1398: a1 = a1 | a3\n  1401: u64 [sp + 0x38] = a1\n  1404: a0 = a0 >> 0x20\n  1407: a1 = reverse a2\n  1409: a2 = a1 << 0x20\n  1412: a0 = a0 | a2\n  1415: u64 [sp + 0x30] = a0\n  1418: s1 = a1 >> 0x20\n  1421: a0 = sp + 0x200\n  1425: u64 [a0 + 56] = 0\n  1428: u64 [a0 + 48] = 0\n  1431: u64 [a0 + 40] = 0\n  1434: u64 [a0 + 32] = 0\n  1437: a0 = sp + 0x60\n  1440: a1 = sp + 0x220\n  1444: ra = 28, jump @6\n      : @30 [@dyn 14] (gas: 18)\n  1449: a0 = u32 [sp + 0x74]\n  1452: a0 = a0 << 0x20\n  1455: a1 = u64 [sp + 0x78]\n  1458: a0 = a0 | s1\n  1461: a2 = sp + 0x200\n  1465: u64 [a2 + 88] = 0\n  1468: u64 [a2 + 80] = 0\n  1471: u64 [a2 + 72] = 0\n  1474: u64 [a2 + 64] = 0\n  1477: u64 [a2 + 0x78] = a1\n  1480: a1 = u64 [sp + 0x30]\n  1483: u64 [a2 + 0x68] = a1\n  1486: a1 = u64 [sp + 0x38]\n  1489: u64 [a2 + 0x60] = a1\n  1492: u64 [a2 + 0x70] = a0\n  1495: a0 = sp + 0x240\n  1499: a1 = sp + 0x260\n  1503: ra = 30, jump @7\n      : @31 [@dyn 15] (gas: 3)\n  1508: a0 = sp + 0x40\n  1511: a1 = 0x40\n  1514: ra = 32, jump @2\n      : @32 [@dyn 16] (gas: 5)\n  1519: a0 = u64 [sp + 0x58]\n  1522: a1 = u64 [sp + 0x50]\n  1525: a2 = u64 [sp + 0x48]\n  1528: s1 = u64 [sp + 0x40]\n  1531: t0 = 34, jump @143\n      : @33 [@dyn 17] (gas: 1)\n  1536: jump @36 if a0 == 0\n      : @34 (gas: 1)\n  1539: trap\n      : @35 (gas: 7)\n  1540: a1 = 0x20060\n  1545: i32 a1 = a1 + 0\n  1547: a0 = 0x1\n  1550: a2 = 0\n  1552: ra = 0x28\n  1555: ecalli 11 // 'seal_return'\n  1557: jump @40\n      : @36 (gas: 3)\n  1559: a0 = s1\n  1561: a1 = 0\n  1563: ra = 36, jump @9\n      : @37 [@dyn 18] (gas: 5)\n  1568: i32 a0 = a0 + 0\n  1570: a1 = 0\n  1572: a2 = 0\n  1574: ecalli 2 // 'call_data_copy'\n  1576: jump @0\n      : @38 (gas: 3)\n  1579: a0 = s1\n  1581: a1 = 0\n  1583: ra = 38, jump @9\n      : @39 [@dyn 19] (gas: 6)\n  1588: i32 a1 = a0 + 0\n  1590: a0 = 0\n  1592: a2 = 0\n  1594: ra = 0x28\n  1597: ecalli 11 // 'seal_return'\n  1599: fallthrough\n      : @40 [@dyn 20] (gas: 15)\n  1600: sp = sp + 0xfffffffffffffa20\n  1604: a0 = sp + 0x500\n  1608: u64 [a0 + 0xd8] = ra\n  1612: u64 [a0 + 0xd0] = s0\n  1616: u64 [a0 + 0xc8] = s1\n  1620: s0 = sp + 0x5e0\n  1624: sp = sp & 0xffffffffffffffe0\n  1627: a2 = sp + 0x300\n  1631: u64 [a2 + 216] = 0\n  1635: u64 [a2 + 208] = 0\n  1639: u64 [a2 + 192] = 0x80\n  1645: a0 = 0x40\n  1648: a1 = sp + 0x3c0\n  1652: u64 [a2 + 200] = 0\n  1656: ra = 42, jump @4\n      : @41 [@dyn 21] (gas: 3)\n  1661: s1 = 0x20048\n  1666: a0 = i32 [0x20048]\n  1671: jump @109 if a0 <u 4\n      : @42 (gas: 4)\n  1676: i32 a0 = sp + 0x3e0\n  1680: a1 = 0\n  1682: ecalli 3 // 'call_data_load'\n  1684: fallthrough\n      : @43 (gas: 2)\n  1685: a0 = i32 [sp + 0x3fc]\n  1689: jump @69 if a0 == 3351576390\n      : @44 (gas: 1)\n  1697: jump @61 if a0 == 4263895050\n      : @45 (gas: 1)\n  1705: jump @77 if a0 != 306335295\n      : @46 (gas: 8)\n  1713: a0 = sp + 0x400\n  1717: u64 [a0 + 24] = 0\n  1720: u64 [a0 + 16] = 0\n  1723: u64 [a0 + 8] = 0\n  1726: u64 [a0 + 0] = 0\n  1728: i32 a0 = sp + 0x400\n  1732: ecalli 14 // 'value_transferred'\n  1734: fallthrough\n      : @47 (gas: 9)\n  1735: a4 = sp + 0x400\n  1739: a0 = u64 [a4 + 0x10]\n  1742: a1 = u64 [a4 + 0x18]\n  1745: a2 = u64 [a4 + 0x8]\n  1748: a3 = u64 [a4]\n  1750: a1 = a1 | a2\n  1753: a0 = a0 | a3\n  1756: a0 = a0 | a1\n  1759: jump @115 if a0 != 0\n      : @48 (gas: 2)\n  1763: a0 = i32 [0x20048]\n  1768: jump @116 if a0 <=u 3\n      : @49 (gas: 8)\n  1773: a1 = sp + 0x400\n  1777: u64 [a1 + 56] = 0\n  1780: u64 [a1 + 48] = 0\n  1783: u64 [a1 + 40] = 0\n  1786: u64 [a1 + 32] = 0x2\n  1790: a0 = sp + 0x280\n  1794: a1 = sp + 0x420\n  1798: ra = 44, jump @6\n      : @50 [@dyn 22] (gas: 10)\n  1803: a0 = u64 [sp + 0x288]\n  1807: u64 [sp + 0x58] = a0\n  1810: a0 = u64 [sp + 0x280]\n  1814: u64 [sp + 0x50] = a0\n  1817: a0 = u32 [sp + 0x290]\n  1821: u64 [sp + 0x48] = a0\n  1824: s1 = 0x30060\n  1829: i32 a0 = s1 + 0\n  1831: ecalli 5 // 'caller'\n  1833: fallthrough\n      : @51 (gas: 22)\n  1834: a0 = u64 [0x30068]\n  1839: a1 = u64 [0x30060]\n  1844: a2 = i32 [0x30070]\n  1849: a0 = reverse a0\n  1851: a3 = a0 >> 0x20\n  1854: a1 = reverse a1\n  1856: a4 = a1 << 0x20\n  1859: a3 = a3 | a4\n  1862: a0 = a0 << 0x20\n  1865: a2 = reverse a2\n  1867: a2 = a2 >> 0x20\n  1870: a0 = a0 | a2\n  1873: a1 = a1 >> 0x20\n  1876: a2 = u64 [sp + 0x48]\n  1879: a1 = a1 ^ a2\n  1882: a2 = u64 [sp + 0x50]\n  1885: a0 = a0 ^ a2\n  1888: a0 = a0 | a1\n  1891: a1 = u64 [sp + 0x58]\n  1894: a1 = a1 ^ a3\n  1897: a0 = a0 | a1\n  1900: jump @117 if a0 != 0\n      : @52 (gas: 18)\n  1904: i32 a0 = sp + 0x440\n  1908: ecalli 0 // 'balance'\n  1909: a1 = sp + 0x400\n  1913: a0 = u64 [a1 + 0x58]\n  1916: u64 [sp + 0x58] = a0\n  1919: a0 = u64 [a1 + 0x50]\n  1922: u64 [sp + 0x50] = a0\n  1925: a0 = u64 [a1 + 0x48]\n  1928: u64 [sp + 0x48] = a0\n  1931: a0 = u64 [a1 + 0x40]\n  1934: u64 [sp + 0x40] = a0\n  1937: u64 [a1 + 120] = 0\n  1940: u64 [a1 + 112] = 0\n  1943: u64 [a1 + 104] = 0\n  1946: u64 [a1 + 96] = 0x1\n  1950: a0 = sp + 0x1e0\n  1954: a1 = sp + 0x460\n  1958: ra = 46, jump @6\n      : @53 [@dyn 23] (gas: 62)\n  1963: a0 = u64 [sp + 0x1e0]\n  1967: u64 [sp + 0x38] = a0\n  1970: a0 = u64 [sp + 0x1f0]\n  1974: u64 [sp + 0x30] = a0\n  1977: a0 = u64 [sp + 0x1e8]\n  1981: u64 [sp + 0x28] = a0\n  1984: ecalli 8 // 'ref_time_left'\n  1986: a1 = u64 [sp + 0x28]\n  1989: a1 = reverse a1\n  1991: a2 = a1 << 0x20\n  1994: a3 = u64 [sp + 0x30]\n  1997: a3 = reverse a3\n  1999: a3 = a3 >> 0x20\n  2002: a2 = a2 | a3\n  2005: a1 = a1 >> 0x20\n  2008: a3 = u64 [sp + 0x38]\n  2011: a3 = reverse a3\n  2013: a4 = a3 << 0x20\n  2016: a1 = a1 | a4\n  2019: a3 = a3 >> 0x20\n  2022: u32 [s1 + 0x10] = a3\n  2025: u64 [s1 + 0x8] = a1\n  2028: u64 [s1] = a2\n  2030: a1 = u64 [sp + 0x58]\n  2033: a2 = sp + 0x400\n  2037: u64 [a2 + 0x98] = a1\n  2041: a1 = u64 [sp + 0x50]\n  2044: u64 [a2 + 0x90] = a1\n  2048: a1 = u64 [sp + 0x48]\n  2051: u64 [a2 + 0x88] = a1\n  2055: a1 = u64 [sp + 0x40]\n  2058: u64 [a2 + 0x80] = a1\n  2062: u32 [sp + 1184] = 0\n  2066: a0 = a0 >u 0x8fc\n  2070: a1 = -a0\n  2072: u64 [a2 + 0xd8] = a1\n  2076: u64 [a2 + 0xd0] = a1\n  2080: u64 [a2 + 0xc8] = a1\n  2084: u64 [a2 + 0xc0] = a1\n  2088: s1 = s1 << 0x20\n  2091: s1 = s1 >> 0x20\n  2094: a0 = a0 << 0x23\n  2097: a0 = a0 | s1\n  2100: a1 = sp + 0x480\n  2104: a1 = a1 << 0x20\n  2107: a1 = a1 >> 0x20\n  2110: a4 = 0x20060\n  2115: a2 = sp + 0x4c0\n  2119: a2 = a2 << 0x20\n  2122: a3 = a2 | a1\n  2125: u64 [sp + 0x28] = a4\n  2128: a4 = a4 << 0x20\n  2131: a4 = a4 >> 0x20\n  2134: a1 = sp + 0x4a0\n  2138: a1 = a1 << 0x20\n  2141: a5 = a1 | a4\n  2144: a1 = 0xffffffffffffffff\n  2147: a2 = 0xffffffffffffffff\n  2150: ecalli 1 // 'call'\n  2152: s1 = a0\n  2154: ecalli 10 // 'return_data_size'\n  2156: fallthrough\n      : @54 (gas: 1)\n  2157: jump @86 if a0 != 0\n      : @55 (gas: 3)\n  2161: a0 = sp + 0x120\n  2165: a1 = 0x40\n  2168: ra = 48, jump @2\n      : @56 [@dyn 24] (gas: 6)\n  2173: a5 = u64 [sp + 0x138]\n  2177: a4 = u64 [sp + 0x130]\n  2181: a3 = u64 [sp + 0x128]\n  2185: a2 = u64 [sp + 0x120]\n  2189: a0 = a2 | a4\n  2192: jump @99 if s1 != 0\n      : @57 (gas: 7)\n  2196: a1 = a3 | a5\n  2199: a0 = a0 | a1\n  2202: a0 = a0 >> 0x20\n  2205: a1 = a1 | a4\n  2208: a1 = a1 << 0x20\n  2211: a0 = a0 | a1\n  2214: jump @85 if a0 != 0\n      : @58 (gas: 12)\n  2218: a0 = u64 [sp + 0x40]\n  2221: u64 [sp + 0x80] = a0\n  2225: a0 = u64 [sp + 0x48]\n  2228: u64 [sp + 0x88] = a0\n  2232: a0 = u64 [sp + 0x50]\n  2235: u64 [sp + 0x90] = a0\n  2239: a1 = sp + 0x80\n  2243: a0 = u64 [sp + 0x58]\n  2246: u64 [sp + 0x98] = a0\n  2250: a0 = a2\n  2252: s1 = a2\n  2254: ra = 50, jump @4\n      : @59 [@dyn 25] (gas: 29)\n  2259: a0 = u64 [0x20028]\n  2264: a1 = u64 [0x20030]\n  2269: u64 [sp + 0x78] = a0\n  2272: a0 = u64 [0x20038]\n  2277: u64 [sp + 0x70] = a1\n  2280: a3 = u64 [0x20040]\n  2285: u64 [sp + 0x68] = a0\n  2288: a1 = 0x20\n  2291: a2 = sp + 0x60\n  2294: u64 [sp + 0x60] = a3\n  2297: a0 = s1\n  2299: ra = 0x34\n  2302: sp = sp + 0xffffffffffffffa0\n  2305: u64 [sp + 0x58] = ra\n  2308: u64 [sp + 0x50] = s0\n  2311: u64 [sp + 0x48] = s1\n  2314: s0 = sp + 0x60\n  2317: sp = sp & 0xffffffffffffffe0\n  2320: a3 = u64 [a2]\n  2322: u64 [sp + 0x18] = a3\n  2325: a3 = u64 [a2 + 0x8]\n  2328: u64 [sp + 0x10] = a3\n  2331: a3 = u64 [a2 + 0x10]\n  2334: u64 [sp + 0x8] = a3\n  2337: a2 = u64 [a2 + 0x18]\n  2340: u64 [sp] = a2\n  2342: s1 = a1\n  2344: ra = 0x6\n  2347: jump @9\n      : @60 [@dyn 26] (gas: 6)\n  2350: a1 = i32 [sp + 0x28]\n  2353: a0 = 0\n  2355: a2 = 0\n  2357: ecalli 11 // 'seal_return'\n  2359: a1 = 0x20060\n  2364: jump @110\n      : @61 (gas: 8)\n  2367: a0 = sp + 0x500\n  2371: u64 [a0 + 152] = 0\n  2375: u64 [a0 + 144] = 0\n  2379: u64 [a0 + 136] = 0\n  2383: u64 [a0 + 128] = 0\n  2387: i32 a0 = sp + 0x580\n  2391: ecalli 14 // 'value_transferred'\n  2393: fallthrough\n      : @62 (gas: 9)\n  2394: a4 = sp + 0x500\n  2398: a0 = u64 [a4 + 0x90]\n  2402: a1 = u64 [a4 + 0x98]\n  2406: a2 = u64 [a4 + 0x88]\n  2410: a3 = u64 [a4 + 0x80]\n  2414: a1 = a1 | a2\n  2417: a0 = a0 | a3\n  2420: a0 = a0 | a1\n  2423: jump @111 if a0 != 0\n      : @63 (gas: 2)\n  2427: a0 = i32 [0x20048]\n  2432: jump @112 if a0 <=u 3\n      : @64 (gas: 8)\n  2437: a1 = sp + 0x500\n  2441: u64 [a1 + 184] = 0\n  2445: u64 [a1 + 176] = 0\n  2449: u64 [a1 + 168] = 0\n  2453: u64 [a1 + 160] = 0x2\n  2458: a0 = sp + 0x3a0\n  2462: a1 = sp + 0x5a0\n  2466: ra = 54, jump @6\n      : @65 [@dyn 27] (gas: 10)\n  2471: a1 = sp + 0x300\n  2475: a0 = u64 [a1 + 0xb0]\n  2479: u64 [sp + 0x48] = a0\n  2482: a0 = u64 [a1 + 0xa8]\n  2486: u64 [sp + 0x58] = a0\n  2489: a0 = u64 [a1 + 0xa0]\n  2493: u64 [sp + 0x50] = a0\n  2496: a0 = sp + 0x380\n  2500: a1 = 0x40\n  2503: ra = 56, jump @2\n      : @66 [@dyn 28] (gas: 6)\n  2508: a3 = sp + 0x300\n  2512: a0 = u64 [a3 + 0x98]\n  2516: a1 = u64 [a3 + 0x90]\n  2520: a2 = u64 [a3 + 0x88]\n  2524: s1 = u64 [a3 + 0x80]\n  2528: t0 = 58, jump @143\n      : @67 [@dyn 29] (gas: 1)\n  2533: jump @85 if a0 != 0\n      : @68 (gas: 14)\n  2537: a0 = u64 [sp + 0x48]\n  2540: a0 = a0 << 0x20\n  2543: a0 = a0 >> 0x20\n  2546: a2 = sp + 0x300\n  2550: u64 [a2 + 120] = 0\n  2553: a1 = u64 [sp + 0x50]\n  2556: u64 [a2 + 0x60] = a1\n  2559: a1 = u64 [sp + 0x58]\n  2562: u64 [a2 + 0x68] = a1\n  2565: a1 = sp + 0x360\n  2569: u64 [a2 + 0x70] = a0\n  2572: a0 = s1\n  2574: ra = 0x62\n  2577: jump @4\n      : @69 (gas: 8)\n  2580: a0 = sp + 0x500\n  2584: u64 [a0 + 88] = 0\n  2587: u64 [a0 + 80] = 0\n  2590: u64 [a0 + 72] = 0\n  2593: u64 [a0 + 64] = 0\n  2596: i32 a0 = sp + 0x540\n  2600: ecalli 14 // 'value_transferred'\n  2602: fallthrough\n      : @70 (gas: 9)\n  2603: a4 = sp + 0x500\n  2607: a0 = u64 [a4 + 0x50]\n  2610: a1 = u64 [a4 + 0x58]\n  2613: a2 = u64 [a4 + 0x48]\n  2616: a3 = u64 [a4 + 0x40]\n  2619: a1 = a1 | a2\n  2622: a0 = a0 | a3\n  2625: a0 = a0 | a1\n  2628: jump @113 if a0 != 0\n      : @71 (gas: 2)\n  2632: a0 = i32 [0x20048]\n  2637: jump @114 if a0 <=u 3\n      : @72 (gas: 8)\n  2642: a0 = sp + 0x500\n  2646: u64 [a0 + 120] = 0\n  2649: u64 [a0 + 112] = 0\n  2652: u64 [a0 + 104] = 0\n  2655: u64 [a0 + 96] = 0\n  2658: a0 = sp + 0x340\n  2662: a1 = sp + 0x560\n  2666: ra = 60, jump @6\n      : @73 [@dyn 30] (gas: 10)\n  2671: a1 = sp + 0x300\n  2675: a0 = u64 [a1 + 0x50]\n  2678: u64 [sp + 0x48] = a0\n  2681: a0 = u64 [a1 + 0x48]\n  2684: u64 [sp + 0x58] = a0\n  2687: a0 = u64 [a1 + 0x40]\n  2690: u64 [sp + 0x50] = a0\n  2693: a0 = sp + 0x320\n  2697: a1 = 0x40\n  2700: ra = 62, jump @2\n      : @74 [@dyn 31] (gas: 6)\n  2705: a3 = sp + 0x300\n  2709: a0 = u64 [a3 + 0x38]\n  2712: a1 = u64 [a3 + 0x30]\n  2715: a2 = u64 [a3 + 0x28]\n  2718: s1 = u64 [a3 + 0x20]\n  2721: t0 = 64, jump @143\n      : @75 [@dyn 32] (gas: 1)\n  2726: jump @85 if a0 != 0\n      : @76 (gas: 14)\n  2730: a0 = u64 [sp + 0x48]\n  2733: a0 = a0 << 0x20\n  2736: a0 = a0 >> 0x20\n  2739: a2 = sp + 0x300\n  2743: u64 [a2 + 24] = 0\n  2746: a1 = u64 [sp + 0x50]\n  2749: u64 [a2] = a1\n  2751: a1 = u64 [sp + 0x58]\n  2754: u64 [a2 + 0x8] = a1\n  2757: a1 = sp + 0x300\n  2761: u64 [a2 + 0x10] = a0\n  2764: a0 = s1\n  2766: ra = 0x62\n  2769: jump @4\n      : @77 (gas: 1)\n  2772: jump @109 if a0 != 951009005\n      : @78 (gas: 8)\n  2780: a0 = sp + 0x500\n  2784: u64 [a0 + 24] = 0\n  2787: u64 [a0 + 16] = 0\n  2790: u64 [a0 + 8] = 0\n  2793: u64 [a0 + 0] = 0\n  2795: i32 a0 = sp + 0x500\n  2799: ecalli 14 // 'value_transferred'\n  2801: fallthrough\n      : @79 (gas: 9)\n  2802: a4 = sp + 0x500\n  2806: a0 = u64 [a4 + 0x10]\n  2809: a1 = u64 [a4 + 0x18]\n  2812: a2 = u64 [a4 + 0x8]\n  2815: a3 = u64 [a4]\n  2817: a1 = a1 | a2\n  2820: a0 = a0 | a3\n  2823: a0 = a0 | a1\n  2826: jump @125 if a0 != 0\n      : @80 (gas: 2)\n  2830: a0 = i32 [0x20048]\n  2835: jump @126 if a0 <=u 3\n      : @81 (gas: 8)\n  2840: a1 = sp + 0x500\n  2844: u64 [a1 + 56] = 0\n  2847: u64 [a1 + 48] = 0\n  2850: u64 [a1 + 40] = 0\n  2853: u64 [a1 + 32] = 0x1\n  2857: a0 = sp + 0x2e0\n  2861: a1 = sp + 0x520\n  2865: ra = 66, jump @6\n      : @82 [@dyn 33] (gas: 10)\n  2870: a1 = sp + 0x200\n  2874: a0 = u64 [a1 + 0xf0]\n  2878: u64 [sp + 0x48] = a0\n  2881: a0 = u64 [a1 + 0xe8]\n  2885: u64 [sp + 0x58] = a0\n  2888: a0 = u64 [a1 + 0xe0]\n  2892: u64 [sp + 0x50] = a0\n  2895: a0 = sp + 0x2c0\n  2899: a1 = 0x40\n  2902: ra = 68, jump @2\n      : @83 [@dyn 34] (gas: 6)\n  2907: a3 = sp + 0x200\n  2911: a0 = u64 [a3 + 0xd8]\n  2915: a1 = u64 [a3 + 0xd0]\n  2919: a2 = u64 [a3 + 0xc8]\n  2923: s1 = u64 [a3 + 0xc0]\n  2927: t0 = 70, jump @143\n      : @84 [@dyn 35] (gas: 1)\n  2932: jump @127 if a0 == 0\n      : @85 (gas: 1)\n  2936: trap\n      : @86 (gas: 6)\n  2937: u64 [sp + 0x10] = s1\n  2940: ecalli 10 // 'return_data_size'\n  2942: s1 = a0\n  2944: a0 = sp + 0x1c0\n  2948: a1 = 0x40\n  2951: ra = 72, jump @2\n      : @87 [@dyn 36] (gas: 30)\n  2956: ra = u64 [sp + 0x1d8]\n  2960: a5 = u64 [sp + 0x1d0]\n  2964: t2 = u64 [sp + 0x1c8]\n  2968: t1 = u64 [sp + 0x1c0]\n  2972: a0 = s1 + 0x1f\n  2975: u64 [sp + 0x18] = s1\n  2978: a1 = a0 <u s1\n  2981: a0 = a0 & 0xffffffffffffffe0\n  2984: a2 = a0 + 0x3f\n  2987: a0 = a2 <u a0\n  2990: a3 = a1 + a0\n  2993: a2 = a2 & 0xffffffffffffffe0\n  2996: a1 = a3 + t2\n  2999: t0 = a2 + t1\n  3002: a2 = t0 <u a2\n  3005: a1 = a1 + a2\n  3008: a4 = a1 ^ a3\n  3011: a3 = a1 <u a3\n  3014: a3 = a2 if a4 == 0\n  3017: a3 = a3 + a5\n  3020: u64 [sp + 0x38] = a5\n  3023: a4 = a3 <u a5\n  3026: a2 = ra + a4\n  3029: a5 = a3 >u 0\n  3031: s1 = a2 >u 0\n  3033: s1 = a5 if a2 == 0\n  3036: a5 = a3 | a2\n  3039: a0 = a1 >u 0\n  3041: a0 = s1 if a5 != 0\n  3044: jump @130 if a0 != 0\n      : @88 (gas: 12)\n  3048: a0 = t0 <u t1\n  3051: a5 = a1 ^ t2\n  3054: s1 = a1 <u t2\n  3057: s1 = a0 if a5 == 0\n  3060: a0 = a2 ^ ra\n  3063: a5 = a2 <u ra\n  3066: a4 = a5 if a0 != 0\n  3069: a5 = u64 [sp + 0x38]\n  3072: a5 = a5 ^ a3\n  3075: a0 = a0 | a5\n  3078: a4 = s1 if a0 == 0\n  3081: jump @130 if a4 != 0\n      : @89 (gas: 10)\n  3085: u64 [sp + 0x1a0] = t0\n  3089: u64 [sp + 0x1a8] = a1\n  3093: u64 [sp + 0x1b0] = a3\n  3097: a0 = 0x40\n  3100: a1 = sp + 0x1a0\n  3104: u64 [sp + 0x1b8] = a2\n  3108: u64 [sp + 0x30] = t1\n  3111: s1 = t2\n  3113: u64 [sp + 0x20] = ra\n  3116: ra = 74, jump @4\n      : @90 [@dyn 37] (gas: 11)\n  3121: a4 = u64 [sp + 0x20]\n  3124: a0 = u64 [sp + 0x30]\n  3127: a5 = u64 [sp + 0x38]\n  3130: a2 = a0 | a5\n  3133: a1 = s1 | a4\n  3136: a2 = a2 | a1\n  3139: a2 = a2 >> 0x20\n  3142: a1 = a1 | a5\n  3145: a1 = a1 << 0x20\n  3148: a1 = a1 | a2\n  3151: jump @85 if a1 != 0\n      : @91 (gas: 9)\n  3155: u64 [sp + 408] = 0\n  3159: u64 [sp + 400] = 0\n  3163: u64 [sp + 392] = 0\n  3167: a1 = sp + 0x180\n  3171: a2 = u64 [sp + 0x18]\n  3174: u64 [sp + 0x180] = a2\n  3178: u64 [sp + 0x18] = s1\n  3181: s1 = a4\n  3183: ra = 76, jump @4\n      : @92 [@dyn 38] (gas: 2)\n  3188: ecalli 10 // 'return_data_size'\n  3190: fallthrough\n      : @93 (gas: 9)\n  3191: a3 = u64 [sp + 0x30]\n  3194: a1 = u64 [sp + 0x38]\n  3197: a1 = a1 | s1\n  3200: a2 = 0xffffffe0\n  3210: a2 = a3 <u a2\n  3213: a4 = u64 [sp + 0x18]\n  3216: a2 = 0 if a4 != 0\n  3218: a2 = 0 if a1 != 0\n  3220: jump @85 if a2 == 0\n      : @94 (gas: 3)\n  3224: s1 = a0\n  3226: a0 = a0 >> 0x20\n  3229: jump @85 if a0 != 0\n      : @95 (gas: 5)\n  3233: i32 a0 = a3 + 0x20\n  3236: i32 a1 = s1 + 0\n  3238: u64 [sp + 0x38] = a1\n  3241: a1 = s1\n  3243: ra = 78, jump @9\n      : @96 [@dyn 39] (gas: 6)\n  3248: u32 [sp + 0x4e0] = s1\n  3252: i32 a0 = a0 + 0\n  3254: i32 a1 = sp + 0x4e0\n  3258: a2 = 0\n  3260: ecalli 9 // 'return_data_copy'\n  3262: fallthrough\n      : @97 (gas: 4)\n  3263: a0 = i32 [sp + 0x4e0]\n  3267: s1 = u64 [sp + 0x10]\n  3270: a1 = u64 [sp + 0x38]\n  3273: jump @55 if a0 >=u a1\n      : @98 (gas: 1)\n  3277: jump @85\n      : @99 (gas: 7)\n  3280: a1 = a3 | a5\n  3283: a0 = a0 | a1\n  3286: a0 = a0 >> 0x20\n  3289: a1 = a1 | a4\n  3292: a1 = a1 << 0x20\n  3295: a0 = a0 | a1\n  3298: jump @85 if a0 != 0\n      : @100 (gas: 12)\n  3302: u64 [sp + 272] = 0\n  3306: u64 [sp + 264] = 0\n  3310: u64 [sp + 256] = 0\n  3314: a0 = 0x8c379a000000000\n  3324: a1 = sp + 0x100\n  3328: u64 [sp + 0x118] = a0\n  3332: a0 = a2\n  3334: u64 [sp + 0x58] = a2\n  3337: u64 [sp + 0x50] = a3\n  3340: u64 [sp + 0x48] = a4\n  3343: s1 = a5\n  3345: ra = 80, jump @4\n      : @101 [@dyn 40] (gas: 10)\n  3350: a1 = u64 [sp + 0x58]\n  3353: a3 = u64 [sp + 0x48]\n  3356: a3 = a3 | s1\n  3359: s1 = 0x100000000\n  3369: a0 = 0xfffffffc\n  3379: a0 = a1 <u a0\n  3382: a2 = u64 [sp + 0x50]\n  3385: a0 = 0 if a2 != 0\n  3387: a0 = 0 if a3 != 0\n  3389: jump @85 if a0 == 0\n      : @102 (gas: 8)\n  3393: i32 a0 = a1 + 0x4\n  3396: u64 [sp + 248] = 0\n  3400: u64 [sp + 240] = 0\n  3404: u64 [sp + 224] = 0x20\n  3409: a1 = sp + 0xe0\n  3413: u64 [sp + 232] = 0\n  3417: u64 [sp + 0x48] = a3\n  3420: ra = 82, jump @4\n      : @103 [@dyn 41] (gas: 8)\n  3425: a3 = u64 [sp + 0x48]\n  3428: a2 = u64 [sp + 0x50]\n  3431: a1 = u64 [sp + 0x58]\n  3434: a0 = s1 + 0xffffffffffffffdc\n  3437: a0 = a1 <u a0\n  3440: a0 = 0 if a2 != 0\n  3442: a0 = 0 if a3 != 0\n  3444: jump @85 if a0 == 0\n      : @104 (gas: 8)\n  3448: i32 a0 = a1 + 0x24\n  3451: u64 [sp + 216] = 0\n  3455: u64 [sp + 208] = 0\n  3459: u64 [sp + 192] = 0x14\n  3464: a1 = sp + 0xc0\n  3468: u64 [sp + 200] = 0\n  3472: s1 = a2\n  3474: ra = 84, jump @4\n      : @105 [@dyn 42] (gas: 7)\n  3479: a2 = u64 [sp + 0x58]\n  3482: a0 = 0xffffffbc\n  3492: a0 = a2 <u a0\n  3495: a0 = 0 if s1 != 0\n  3497: a1 = u64 [sp + 0x48]\n  3500: a0 = 0 if a1 != 0\n  3502: jump @85 if a0 == 0\n      : @106 (gas: 11)\n  3506: i32 a0 = a2 + 0x44\n  3509: a1 = u64 [0x20018]\n  3514: s1 = a2\n  3516: a2 = u64 [0x20020]\n  3521: u64 [sp + 0xb8] = a1\n  3525: u64 [sp + 0xb0] = a2\n  3529: a1 = 0x7468657200000000\n  3539: u64 [sp + 0xa8] = a1\n  3543: a1 = sp + 0xa0\n  3547: u64 [sp + 160] = 0\n  3551: ra = 86, jump @4\n      : @107 [@dyn 43] (gas: 3)\n  3556: a1 = 0x64\n  3559: a0 = s1\n  3561: ra = 88, jump @9\n      : @108 [@dyn 44] (gas: 2)\n  3566: i32 a1 = a0 + 0\n  3568: jump @124\n      : @109 (gas: 7)\n  3571: a1 = 0x20060\n  3576: i32 a1 = a1 + 0\n  3578: a0 = 0x1\n  3581: a2 = 0\n  3583: ecalli 11 // 'seal_return'\n  3585: a1 = 0x20060\n  3590: fallthrough\n      : @110 (gas: 6)\n  3591: i32 a1 = a1 + 0\n  3593: a0 = 0x1\n  3596: a2 = 0\n  3598: ecalli 11 // 'seal_return'\n  3600: a1 = 0x20060\n  3605: jump @110\n      : @111 (gas: 2)\n  3607: a1 = 0x20060\n  3612: jump @110\n      : @112 (gas: 2)\n  3614: a1 = 0x20060\n  3619: jump @110\n      : @113 (gas: 2)\n  3621: a1 = 0x20060\n  3626: jump @110\n      : @114 (gas: 2)\n  3628: a1 = 0x20060\n  3633: jump @110\n      : @115 (gas: 2)\n  3635: a1 = 0x20060\n  3640: jump @110\n      : @116 (gas: 2)\n  3642: a1 = 0x20060\n  3647: jump @110\n      : @117 (gas: 9)\n  3649: a2 = sp + 0x200\n  3653: u64 [a2 + 112] = 0\n  3656: u64 [a2 + 104] = 0\n  3659: a0 = 0x8c379a000000000\n  3669: u64 [a2 + 0x78] = a0\n  3672: a0 = 0x80\n  3676: a1 = sp + 0x260\n  3680: u64 [a2 + 96] = 0\n  3683: ra = 90, jump @4\n      : @118 [@dyn 45] (gas: 8)\n  3688: a2 = sp + 0x200\n  3692: u64 [a2 + 88] = 0\n  3695: u64 [a2 + 80] = 0\n  3698: u64 [a2 + 64] = 0x20\n  3702: a0 = 0x84\n  3706: a1 = sp + 0x240\n  3710: u64 [a2 + 72] = 0\n  3713: ra = 92, jump @4\n      : @119 [@dyn 46] (gas: 8)\n  3718: a2 = sp + 0x200\n  3722: u64 [a2 + 56] = 0\n  3725: u64 [a2 + 48] = 0\n  3728: u64 [a2 + 32] = 0x18\n  3732: a0 = 0xa4\n  3736: a1 = sp + 0x220\n  3740: u64 [a2 + 40] = 0\n  3743: ra = 94, jump @4\n      : @120 [@dyn 47] (gas: 11)\n  3748: a0 = u64 [0x20000]\n  3753: a1 = u64 [0x20008]\n  3758: a2 = u64 [0x20010]\n  3763: a3 = sp + 0x200\n  3767: u64 [a3 + 0x18] = a0\n  3770: u64 [a3 + 0x10] = a1\n  3773: u64 [a3 + 0x8] = a2\n  3776: a0 = 0xc4\n  3780: a1 = sp + 0x200\n  3784: u64 [a3 + 0] = 0\n  3786: ra = 96, jump @4\n      : @121 [@dyn 48] (gas: 2)\n  3791: a1 = i32 [0x2004c]\n  3796: jump @123 if a1 >u 255\n      : @122 (gas: 4)\n  3801: u32 [0x2004c] = 0x100\n  3808: a0 = 0x20060\n  3813: i32 a1 = a0 + 0x80\n  3817: jump @124\n      : @123 (gas: 3)\n  3819: a0 = 0x20060\n  3824: i32 a1 = a0 + 0x80\n  3828: fallthrough\n      : @124 (gas: 5)\n  3829: a0 = 0x1\n  3832: a2 = 0x64\n  3835: ecalli 11 // 'seal_return'\n  3837: a1 = 0x20060\n  3842: jump @110\n      : @125 (gas: 2)\n  3845: a1 = 0x20060\n  3850: jump @110\n      : @126 (gas: 2)\n  3853: a1 = 0x20060\n  3858: jump @110\n      : @127 (gas: 13)\n  3861: a0 = u64 [sp + 0x48]\n  3864: a0 = a0 << 0x20\n  3867: a0 = a0 >> 0x20\n  3870: a2 = sp + 0x200\n  3874: u64 [a2 + 184] = 0\n  3878: a1 = u64 [sp + 0x50]\n  3881: u64 [a2 + 0xa0] = a1\n  3885: a1 = u64 [sp + 0x58]\n  3888: u64 [a2 + 0xa8] = a1\n  3892: a1 = sp + 0x2a0\n  3896: u64 [a2 + 0xb0] = a0\n  3900: a0 = s1\n  3902: ra = 98, jump @4\n      : @128 [@dyn 49] (gas: 3)\n  3907: a1 = 0x20\n  3910: a0 = s1\n  3912: ra = 100, jump @9\n      : @129 [@dyn 50] (gas: 5)\n  3917: i32 a1 = a0 + 0\n  3919: a2 = 0x20\n  3922: a0 = 0\n  3924: ecalli 11 // 'seal_return'\n  3926: fallthrough\n      : @130 (gas: 8)\n  3927: u64 [sp + 368] = 0\n  3931: u64 [sp + 360] = 0\n  3935: u64 [sp + 352] = 0\n  3939: a0 = 0x4e487b7100000000\n  3949: a1 = sp + 0x160\n  3953: u64 [sp + 0x178] = a0\n  3957: a0 = 0\n  3959: ra = 102, jump @4\n      : @131 [@dyn 51] (gas: 7)\n  3964: u64 [sp + 344] = 0\n  3968: u64 [sp + 336] = 0\n  3972: u64 [sp + 320] = 0x41\n  3977: a0 = 0x4\n  3980: a1 = sp + 0x140\n  3984: u64 [sp + 328] = 0\n  3988: ra = 104, jump @4\n      : @132 [@dyn 52] (gas: 2)\n  3993: a1 = i32 [0x2004c]\n  3998: jump @134 if a1 >u 63\n      : @133 (gas: 2)\n  4002: u32 [0x2004c] = 0x40\n  4008: fallthrough\n      : @134 (gas: 6)\n  4009: a1 = i32 [sp + 0x28]\n  4012: a0 = 0x1\n  4015: a2 = 0x24\n  4018: ra = 0x6a\n  4021: ecalli 11 // 'seal_return'\n  4023: fallthrough\n      : @135 [@dyn 53] (gas: 18)\n  4024: sp = sp + 0xffffffffffffffc0\n  4027: u64 [sp + 0x38] = ra\n  4030: u64 [sp + 0x30] = s0\n  4033: u64 [sp + 0x28] = s1\n  4036: s0 = sp + 0x40\n  4039: sp = sp & 0xfffffffffffffff0\n  4042: a2 = u64 [a1 + 0x10]\n  4045: a3 = u64 [a1 + 0x18]\n  4048: a4 = u64 [a1 + 0x8]\n  4051: a1 = u64 [a1]\n  4053: a3 = a3 | a4\n  4056: a4 = a1 | a2\n  4059: a4 = a4 | a3\n  4062: a4 = a4 >> 0x20\n  4065: a2 = a2 | a3\n  4068: a2 = a2 << 0x20\n  4071: a2 = a2 | a4\n  4074: jump @139 if a2 != 0\n      : @136 (gas: 3)\n  4077: s1 = a0\n  4079: a0 = sp\n  4081: ra = 108, jump @2\n      : @137 [@dyn 54] (gas: 10)\n  4086: a0 = u64 [sp + 0x10]\n  4089: a1 = u64 [sp + 0x18]\n  4092: a2 = 0x100000000\n  4102: a2 = a2 ^ a0\n  4105: a2 = a2 | a1\n  4108: a3 = a0 >> 0x20\n  4111: a3 = a3 <u 0x1\n  4114: a3 = 0 if a1 != 0\n  4116: a3 = 0 if a2 == 0\n  4118: jump @140 if a3 == 0\n      : @138 (gas: 12)\n  4121: a2 = u64 [sp]\n  4123: a3 = u64 [sp + 0x8]\n  4126: u64 [s1] = a2\n  4128: u64 [s1 + 0x8] = a3\n  4131: u64 [s1 + 0x10] = a0\n  4134: u64 [s1 + 0x18] = a1\n  4137: sp = s0 + 0xffffffffffffffc0\n  4140: ra = u64 [sp + 0x38]\n  4143: s0 = u64 [sp + 0x30]\n  4146: s1 = u64 [sp + 0x28]\n  4149: sp = sp + 0x40\n  4152: ret\n      : @139 (gas: 1)\n  4154: trap\n      : @140 (gas: 8)\n  4155: a1 = 0x20060\n  4160: i32 a1 = a1 + 0\n  4162: a0 = 0x1\n  4165: a2 = 0\n  4167: ecalli 11 // 'seal_return'\n  4169: a0 = 0\n  4171: ra = 0x6e\n  4174: jump @15\n      : @141 [export #0: 'call'] (gas: 2)\n  4177: a0 = 0\n  4179: ra = 110, jump @15\n      : @142 [@dyn 55] [export #1: 'deploy'] (gas: 2)\n  4184: a0 = 0x1\n  4187: ra = 112, jump @15\n      : @143 [@dyn 56] (gas: 8)\n  4192: a0 = a0 | a2\n  4195: a2 = s1 | a1\n  4198: a2 = a2 | a0\n  4201: a2 = a2 >> 0x20\n  4204: a0 = a0 | a1\n  4207: a0 = a0 << 0x20\n  4210: a0 = a0 | a2\n  4213: jump [t0]\n","bytecode":{"object":"50564d00006a14000000000000010700c18000c00080034862726120796c6e4f6e6163207265746965766f7270706120742064656c6961464520646e6573206f7b96b73cf63ad93a287d7d0b50fbe4231f34cf5d321675b0cbc1829d95bfbe880480f60f00000000070000000b0000001900000027000000350000003b00000048000000530000006000000070000000800000008b0000009d000000a800000062616c616e636563616c6c63616c6c5f646174615f636f707963616c6c5f646174615f6c6f616463616c6c5f646174615f73697a6563616c6c65726465706f7369745f6576656e746765745f73746f726167657265665f74696d655f6c65667472657475726e5f646174615f636f707972657475726e5f646174615f73697a657365616c5f72657475726e7365745f696d6d757461626c655f646174617365745f73746f7261676576616c75655f7472616e7366657272656405110290510463616c6c9058066465706c6f790692fa380290772b0073012b03b603bb030c04170444047804ad04f10411055405a905e405ef0500062006340640067d060b07ab077d08d3082e09a709cc09e5096f0a910aa60a360b5b0b740b8c0b310c740cb00c160d610d970de40dee0d680e860ea40ecf0e430f4d0f7c0f990fb80ff60f58106010390850000251082606330780000383770a0c2819069511f07b10087b1564896475330820649750100241037c78017c797c7a027c7b03978808d4980897aa1097bb18d4ba0ad4a8087c79057c7a047c7b067c7c07979908d4a90997bb1097cc18d4cb0bd4b909979920d489027c79097c7a087c7b0a7c7c0b979908d4a90997bb1097cc18d4cb0bd4b9097c7a0d7c7b0c7c7c0e7c780f97aa08d4ba0a97cc10978818d4c808d4a808978820d498037c78117c7a107c7b127c7c13978808d4a80897bb1097cc18d4cb0bd4b8087c7a157c7b147c7c167c791797aa08d4ba0a97cc10979918d4c909d4a909979920d4890a7c78197c79187c7b1a7c7c1b978808d4980897bb1097cc18d4cb0bd4b8087c791d7c7b1c7c7c1e7c771f979908d4b90997cc10977718d4c707d49707977720d487076f776fa86f396f2a7b5a187b59107b58087b57821008821595111032009511d87b10207b15187b161082897b19088289087b19828510828618330820501004f9016f686f59821a6faa821b086fbb787b18787a10787908787898bc38787c1f98bc30787c1e98bc28787c1d98bc20787c1c98bc18787c1b98bc10787c1a98bb08787b1998ab38787b1798ab30787b1698ab28787b1598ab20787b1498ab18787b1398ab10787b1298aa08787a11989a38787a0f989a30787a0e989a28787a0d989a20787a0c989a18787a0b989a10787a0a98990878790998893878790798893078790698892878790598892078790498891878790398891078790298880878780182102082151882161095112832009511a07b10587b15507b16489515608411e06476828718828910828a0882886f776f996faa6f887b18187b1a107b19087b17491138491130491128491120481140208318831a20831b403309ff33070a07821738821830821928821a206f776f886f996faa7b6a187b69107b68087b679551a082105882155082164895116032009511a07b10587b15509515608411e08272827a08827b108277188283828908828c108288186f746fbb6faa6f276f826fcc6f996f387b17187b1a107b1b087b147b18387b19307b1c287b12208318831a203309ff330b2033070a0d9551a0821058821550951160320082186f888219086f99821a106faa821b186fbb7b1b387b1a307b19287b18208379836a8317203308010a069551a082105882155082164895116032008b7910520931c8780883881f8488e056380000012533094c0002390a4c0002ae8a093d084c00020133086000028377c887073200009511f07b10087b158475010a04013d074800025105075010080950100a8a02951160fd951700027b7098007b7590007b7688009515a0028411e0390648000297672098772095771f8477e095788000d87807492158017b1840017b17480194777b1750013307409518400150100c48fd33078000646850100e55ff8377646833090a0201531640e4014921180149211001492100018000951720019518000149210801501010790b821720017b1720821728017b1718801730017b17104921d8004921d0004921c000a0009517e0009518c0004921c800501012450b8217e0007b17388217e8007b17308017f0007b17284921780149217001492168013306027b1660019517a0009518600150101499fd8017b4009777208218b800821910d497074921980149219001492188017b1680018219187b19a8018219207b19a0017b18b8017b17b001951780019518a001501016d6fd4921d8014921d0014921c8013306017b16c001951780009518c00150101835fd8017940097772082189800821928d497074921f8014921f0014921e8017b16e001821930951a00027ba9088219387ba97ba8187ba7109517e0019518000250101a73fd330660000383670a053a0768000339087000033a096000036f77977a206f88988820d4a8087b18389877206f98978920d497077b1730988620951700024917384917304917284917209517609518200250101c9dfc801774977720821878d46707951900024919584919504919484919407b98788218307b98688218387b98607b9770951740029518600250101ee3fc9517403308405010202bfa821758821850821948821640501222650a510717003308600002838833070133093300280a0b282b646733085010244cfd8377330833090a0228d8f96467330850102638fd8378330733093300280a0b01951120fa951700057b70d8007b75d0007b76c8009515e0058411e0951900034929d8004929d0004929c00080003307409518c0034929c80050102ad7fa330648000239074800025317046c078317e00333080a03018117fc03514746ffc4c77b0351470ae025fe9e0252473f4e42122b04951700044917184917104917084907831700040a0e01951b000482b71082b81882b90882bad49808d4a707d4870752075407390748000254170352079518000449183849183049182849182002951780029518200450102c3bfb821788027b1758821780027b1750801790027b1748330660000383670a05013a076800033a0860000339097000036f77987a206f88978b20d4ba0a9777206f99989920d49707988820821948d39808821950d39707d48707821858d3a808d487075207d506831740040a951800048287587b17588287507b17508287487b17488287407b1740491878491870491868491860019517e0019518600450102e9bfa8217e0017b17388217f0017b17308217e8017b17280a088218286f88978920821a306faa98aa20d4a909988820821a386faa97ab20d4b80898aa207a6a107b68087b69821858951900047b9898008218507b9890008218487b9888008218407b9880004821a0048e77fc089a787b98d8007b98d0007b98c8007b98c000976620986620977723d4670795188004978820988820330b6000029519c004979920d4890a7b1b2897bb2098bb209518a004978820d4b80c3308ff3309ff0a0164760a0a0152070c03951720013308405010309df7821c3801821b3001821a280182192001d4b90752064004d4ca08d48707987720d4b808978820d487075207d2028217407b1780008217487b1788008217507b179000951880008217587b1798006497649650103281f83a072800023a083000027b17783a073800027b18703a0a4000027b17683308209519607b1a6064673300349511a07b10587b15507b16489515608411e0829a7b1a18829a087b1a10829a107b1a088299187b196486330006283cfa811828330733090a0b330860000228cb049517000549279800492790004927880049278000831780050a0e01951b000582b7900082b8980082b9880082ba8000d49808d4a707d487075207a00439074800025417039e04951800054928b8004928b0004928a8004928a000029517a0039518a0055010369ff8951800038287b0007b17488287a8007b17588287a0007b1750951780033308405010384ef6951a000382a7980082a8900082a9880082a6800050123a800652079301821748977720987720951900034919788218507b98608218587b9868951860037b97706467330062283ef795170005491758491750491748491740831740050a0e01951b000582b75082b85882b94882ba40d49808d4a707d487075207e1033907480002541703df0395170005491778491770491768491760951740039518600550103cd7f7951800038287507b17488287487b17588287407b17509517200333084050103e89f5951a000382a73882a83082a92882a620501240bf055207d200821748977720987720951900034919188218507b988218587b9808951800037b97106467330062287ef65247ed3eaf381f03951700054917184917104917084907831700050a0e01951b000582b71082b81882b90882bad49808d4a707d487075207fb033907480002541703fa0395180005491838491830491828491820019517e0029518200550104210f7951800028287f0007b17488287e8007b17588287e0007b17509517c002330840501044bff4951a000282a7d80082a8d00082a9c80082a6c000501246f1045107a103007b16100a0a64769517c0013308405010488ef48210d801821cd0018214c8018213c00195671f7b1618d867088477e095793fd87907c8780a8499e0c84a08c83902d89209c89808d3a80bd8a80adab90ac8ca0a7b1c38d8ca0bc8b0098eac8e96da9c06d49a0c8e87dbc60752077303d83207d3480cd84806dac706d30907d8090cdb7c0b821c38d3ac0cd4c707da760b520b4e037b12a0017b18a8017b1ab0013307409518a0017b19b8017b133064467b102050104a23f5821b20821730821c38d4c709d4b608d48909989920d4c808978820d49808520829ff492198014921900149218801951880018219187b1980017b161864b650104ce0f40a0a01821a30821838d468081409e0ffffff00000000d89a09821b1894b994895109e4fe64769877205207dbfe83a72083687b1838646850104ebcf67a16e00483778318e00433090a09018117e004821610821838ae87a8fb28abfed4ca08d48707987720d4b808978820d48707520796fe492110014921080149210001140700000000a079c308951800017b17180164977b19587b1a507b1b4864c65010503ef4821858821a48d46a0a140600000000010000001407fcffffff00000000d87807821950949794a751073bfe8387044921f8004921f0004921e000209518e0004921e8007b1a48501052f3f3821a488219508218589567dcd87807949794a7510704fe8387244921d8004921d0004921c000149518c0004921c8006496501054bdf38219581407bcffffff00000000d87907946782184894875107cafd8397443a0818000264963a092000027b18b8007b19b000140800000000726568747b18a8009518a0004921a00050105670f333086464675010587ef583782805013308600002838833070133090a0b330860000201838833070133090a0b330860000228f2330860000228eb330860000228e4330860000228dd330860000228d6330860000228cf330860000228c895190002491970491968140700000000a079c3087b9778330780009518600249196050105aecf29519000249195849195049194020330784009518400249194850105ccef295190002491938491930491920183307a4009518200249192850105eb0f23a070000023a080800023a09100002951a00027ba7187ba8107ba9083307c40095180002490a50106085f239084c00025628ff001720034c00020001330760000283788000280c330760000283788000013307013309640a0b33086000022805ff330860000228fdfe330860000228f5fe821748977720987720951900024929b8008218507b98a0008218587b98a8009518a0027b97b000646750106211f233082064675010641ff4837833092033070a0b01492170014921680149216001140700000000717b484e951860017b1778013307501066d8f1492158014921500149214001413307049518400149214801501068bbf139084c000256183f0b20034c0002400181182833070133092433006a0a0b019511c07b10387b15307b16289515408411f0828910828a18828b088288d4ba0ad4980bd4ab0b98bb20d4a909979920d4b9095209506476641750106c24f082171082181814090000000001000000d37909d48909987a2088aa01948a939a510a258219821a087b697b6a087b67107b68189551c08210388215308216289511403200003308600002838833070133090a0b330733006e284ef3330750106e49f333070150107041f3d49707d48609d47909989920d48707977720d497073202214225a952484992244992244992244992244992244992244992244992244992244992244992542529a524292949a84a494a922449922449922449922449922449922449922449929224294955494a92284925495592922425494a5292aaaa242549492a49aa945292545292a424491042c2509a948644888888484892484414891085aa2122888810894422828808914824221211211249444422111111222211112291444424929288102a84504a9292249224119224922449928890842409194aa90a55a950a511111189882011218410350202022249d14852920821924444884422a186104a494a9224491231922449924444884422a5a4242949522212894444111149124988244924493522212222912449241289485408212121494a922425495249aa9088888846444492082122224484884422911011112192449224521249128d2449122144924484489224122249422489a424521210498a46929244089124224244229148888888105391101191244992244992a4921249922449222212911292244992888848a4d02401241525520a51d44822499244440410519242920002482a1211221292241589081185049052241422028888904209a5c252a15028140a852209201109914444422411911042882411851002210a3129242424494422115148a1d4880820a210111211420493a4499224294992a442124092544a4992240da54a0a0949922400"},"methodIdentifiers":{"approve()":"12424e3f","arbiter()":"fe25e00a","beneficiary()":"38af3eed","depositor()":"c7c4ff46"}},"hash":"7af38a87a6fbb67ab05122d6abb1242928d4c5fb2941625d44a1e97038b0adff","factoryDependencies":{}}}}