{"contracts/SupplyChainVerifier.sol":{"SupplyChainVerifier":{"abi":[{"inputs":[],"stateMutability":"nonpayable","type":"constructor"},{"inputs":[],"name":"AccessControlBadConfirmation","type":"error"},{"inputs":[{"internalType":"address","name":"account","type":"address"},{"internalType":"bytes32","name":"neededRole","type":"bytes32"}],"name":"AccessControlUnauthorizedAccount","type":"error"},{"anonymous":false,"inputs":[{"indexed":false,"internalType":"uint256","name":"productId","type":"uint256"},{"indexed":false,"internalType":"string","name":"name","type":"string"},{"indexed":false,"internalType":"address","name":"manufacturer","type":"address"}],"name":"ProductRegistered","type":"event"},{"anonymous":false,"inputs":[{"indexed":false,"internalType":"uint256","name":"productId","type":"uint256"},{"indexed":false,"internalType":"address","name":"verifier","type":"address"}],"name":"ProductVerified","type":"event"},{"anonymous":false,"inputs":[{"indexed":true,"internalType":"bytes32","name":"role","type":"bytes32"},{"indexed":true,"internalType":"bytes32","name":"previousAdminRole","type":"bytes32"},{"indexed":true,"internalType":"bytes32","name":"newAdminRole","type":"bytes32"}],"name":"RoleAdminChanged","type":"event"},{"anonymous":false,"inputs":[{"indexed":true,"internalType":"bytes32","name":"role","type":"bytes32"},{"indexed":true,"internalType":"address","name":"account","type":"address"},{"indexed":true,"internalType":"address","name":"sender","type":"address"}],"name":"RoleGranted","type":"event"},{"anonymous":false,"inputs":[{"indexed":true,"internalType":"bytes32","name":"role","type":"bytes32"},{"indexed":true,"internalType":"address","name":"account","type":"address"},{"indexed":true,"internalType":"address","name":"sender","type":"address"}],"name":"RoleRevoked","type":"event"},{"inputs":[],"name":"DEFAULT_ADMIN_ROLE","outputs":[{"internalType":"bytes32","name":"","type":"bytes32"}],"stateMutability":"view","type":"function"},{"inputs":[],"name":"DISTRIBUTOR_ROLE","outputs":[{"internalType":"bytes32","name":"","type":"bytes32"}],"stateMutability":"view","type":"function"},{"inputs":[],"name":"MANUFACTURER_ROLE","outputs":[{"internalType":"bytes32","name":"","type":"bytes32"}],"stateMutability":"view","type":"function"},{"inputs":[],"name":"RETAILER_ROLE","outputs":[{"internalType":"bytes32","name":"","type":"bytes32"}],"stateMutability":"view","type":"function"},{"inputs":[{"internalType":"address","name":"account","type":"address"}],"name":"addDistributor","outputs":[],"stateMutability":"nonpayable","type":"function"},{"inputs":[{"internalType":"address","name":"account","type":"address"}],"name":"addRetailer","outputs":[],"stateMutability":"nonpayable","type":"function"},{"inputs":[{"internalType":"uint256","name":"productId","type":"uint256"}],"name":"getProduct","outputs":[{"components":[{"internalType":"uint256","name":"id","type":"uint256"},{"internalType":"string","name":"name","type":"string"},{"internalType":"string","name":"origin","type":"string"},{"internalType":"uint256","name":"manufacturingDate","type":"uint256"},{"internalType":"address","name":"manufacturer","type":"address"},{"internalType":"bool","name":"isVerified","type":"bool"},{"internalType":"string","name":"metadata","type":"string"}],"internalType":"struct SupplyChainVerifier.Product","name":"","type":"tuple"}],"stateMutability":"view","type":"function"},{"inputs":[],"name":"getProductCount","outputs":[{"internalType":"uint256","name":"","type":"uint256"}],"stateMutability":"view","type":"function"},{"inputs":[{"internalType":"bytes32","name":"role","type":"bytes32"}],"name":"getRoleAdmin","outputs":[{"internalType":"bytes32","name":"","type":"bytes32"}],"stateMutability":"view","type":"function"},{"inputs":[{"internalType":"bytes32","name":"role","type":"bytes32"},{"internalType":"address","name":"account","type":"address"}],"name":"grantRole","outputs":[],"stateMutability":"nonpayable","type":"function"},{"inputs":[{"internalType":"bytes32","name":"role","type":"bytes32"},{"internalType":"address","name":"account","type":"address"}],"name":"hasRole","outputs":[{"internalType":"bool","name":"","type":"bool"}],"stateMutability":"view","type":"function"},{"inputs":[{"internalType":"uint256","name":"","type":"uint256"}],"name":"products","outputs":[{"internalType":"uint256","name":"id","type":"uint256"},{"internalType":"string","name":"name","type":"string"},{"internalType":"string","name":"origin","type":"string"},{"internalType":"uint256","name":"manufacturingDate","type":"uint256"},{"internalType":"address","name":"manufacturer","type":"address"},{"internalType":"bool","name":"isVerified","type":"bool"},{"internalType":"string","name":"metadata","type":"string"}],"stateMutability":"view","type":"function"},{"inputs":[{"internalType":"string","name":"name","type":"string"},{"internalType":"string","name":"origin","type":"string"},{"internalType":"string","name":"metadata","type":"string"}],"name":"registerProduct","outputs":[{"internalType":"uint256","name":"","type":"uint256"}],"stateMutability":"nonpayable","type":"function"},{"inputs":[{"internalType":"bytes32","name":"role","type":"bytes32"},{"internalType":"address","name":"callerConfirmation","type":"address"}],"name":"renounceRole","outputs":[],"stateMutability":"nonpayable","type":"function"},{"inputs":[{"internalType":"bytes32","name":"role","type":"bytes32"},{"internalType":"address","name":"account","type":"address"}],"name":"revokeRole","outputs":[],"stateMutability":"nonpayable","type":"function"},{"inputs":[{"internalType":"bytes4","name":"interfaceId","type":"bytes4"}],"name":"supportsInterface","outputs":[{"internalType":"bool","name":"","type":"bool"}],"stateMutability":"view","type":"function"},{"inputs":[{"internalType":"uint256","name":"productId","type":"uint256"}],"name":"verifyProduct","outputs":[],"stateMutability":"nonpayable","type":"function"}],"evm":{"assembly":"// RO data = 0/0 bytes\n// RW data = 440/66032 bytes\n// Stack size = 32768 bytes\n\n// Instructions = 10314\n// Code size = 36313 bytes\n\n      : @0 (gas: 1)\n     0: jump @14 if a0 == a1\n      : @1 (gas: 9)\n     3: a3 = a1 << 0x20\n     6: a3 = a3 >> 0x20\n     9: a4 = a0 << 0x20\n    12: a4 = a4 >> 0x20\n    15: a4 = a4 + a2\n    18: a3 = a3 - a4\n    21: a4 = a2 << 0x1\n    24: a4 = -a4\n    26: jump @7 if a4 >=u a3\n      : @2 (gas: 1)\n    29: jump @11 if a0 >=u a1\n      : @3 (gas: 1)\n    32: jump @14 if a2 == 0\n      : @4 (gas: 3)\n    35: a2 = a2 + a0\n    38: a3 = a0\n    40: fallthrough\n      : @5 (gas: 6)\n    41: a4 = u8 [a1]\n    43: a1 = a1 + 0x1\n    46: a5 = a3 + 0x1\n    49: u8 [a3] = a4\n    51: a3 = a5\n    53: jump @5 if a5 != a2\n      : @6 (gas: 1)\n    56: jump @14\n      : @7 (gas: 1)\n    58: jump @14 if a2 == 0\n      : @8 (gas: 3)\n    61: a2 = a2 + a0\n    64: a3 = a0\n    66: fallthrough\n      : @9 (gas: 6)\n    67: a4 = u8 [a1]\n    69: a1 = a1 + 0x1\n    72: a5 = a3 + 0x1\n    75: u8 [a3] = a4\n    77: a3 = a5\n    79: jump @9 if a5 != a2\n      : @10 (gas: 1)\n    82: jump @14\n      : @11 (gas: 1)\n    84: jump @14 if a2 == 0\n      : @12 (gas: 2)\n    87: i32 a3 = a2 + 0xffffffffffffffff\n    90: fallthrough\n      : @13 (gas: 7)\n    91: a4 = a1 + a3\n    94: a4 = u8 [a4]\n    96: a2 = a2 + 0xffffffffffffffff\n    99: a5 = a0 + a3\n   102: u8 [a5] = a4\n   104: i32 a3 = a3 + 0xffffffffffffffff\n   107: jump @13 if a2 != 0\n      : @14 (gas: 1)\n   110: ret\n      : @15 (gas: 2)\n   112: a1 = i32 [0x201c0]\n   117: jump @50 if a1 == 0\n      : @16 (gas: 4)\n   121: a0 = 0x301f0\n   126: i32 a0 = a0 + 0\n   128: ecalli 9 // 'set_immutable_data'\n   130: jump @50\n      : @17 (gas: 8)\n   133: sp = sp + 0xfffffffffffffff0\n   136: u64 [sp + 0x8] = ra\n   139: u64 [sp] = s0\n   141: a2 = a1\n   143: s0 = a0\n   145: a1 = 0x20\n   148: a0 = a2\n   150: ra = 2, jump @30\n      : @18 [@dyn 1] (gas: 100)\n   155: a1 = u8 [a0 + 0x1]\n   158: a2 = u8 [a0]\n   160: a3 = u8 [a0 + 0x2]\n   163: a4 = u8 [a0 + 0x3]\n   166: a1 = a1 << 0x8\n   169: a1 = a1 | a2\n   172: a3 = a3 << 0x10\n   175: a4 = a4 << 0x18\n   178: a3 = a3 | a4\n   181: a1 = a1 | a3\n   184: a2 = u8 [a0 + 0x5]\n   187: a3 = u8 [a0 + 0x4]\n   190: a4 = u8 [a0 + 0x6]\n   193: a5 = u8 [a0 + 0x7]\n   196: a2 = a2 << 0x8\n   199: a2 = a2 | a3\n   202: a4 = a4 << 0x10\n   205: a5 = a5 << 0x18\n   208: a4 = a4 | a5\n   211: a2 = a2 | a4\n   214: a2 = a2 << 0x20\n   217: t0 = a2 | a1\n   220: a2 = u8 [a0 + 0x9]\n   223: a3 = u8 [a0 + 0x8]\n   226: a4 = u8 [a0 + 0xa]\n   229: a5 = u8 [a0 + 0xb]\n   232: a2 = a2 << 0x8\n   235: a2 = a2 | a3\n   238: a4 = a4 << 0x10\n   241: a5 = a5 << 0x18\n   244: a4 = a4 | a5\n   247: a2 = a2 | a4\n   250: a3 = u8 [a0 + 0xd]\n   253: a4 = u8 [a0 + 0xc]\n   256: a5 = u8 [a0 + 0xe]\n   259: a1 = u8 [a0 + 0xf]\n   262: a3 = a3 << 0x8\n   265: a3 = a3 | a4\n   268: a5 = a5 << 0x10\n   271: a1 = a1 << 0x18\n   274: a1 = a1 | a5\n   277: a1 = a1 | a3\n   280: a1 = a1 << 0x20\n   283: t1 = a1 | a2\n   286: a1 = u8 [a0 + 0x11]\n   289: a3 = u8 [a0 + 0x10]\n   292: a4 = u8 [a0 + 0x12]\n   295: a5 = u8 [a0 + 0x13]\n   298: a1 = a1 << 0x8\n   301: a1 = a1 | a3\n   304: a4 = a4 << 0x10\n   307: a5 = a5 << 0x18\n   310: a4 = a4 | a5\n   313: a1 = a1 | a4\n   316: a3 = u8 [a0 + 0x15]\n   319: a4 = u8 [a0 + 0x14]\n   322: a5 = u8 [a0 + 0x16]\n   325: a2 = u8 [a0 + 0x17]\n   328: a3 = a3 << 0x8\n   331: a3 = a3 | a4\n   334: a5 = a5 << 0x10\n   337: a2 = a2 << 0x18\n   340: a2 = a2 | a5\n   343: a2 = a2 | a3\n   346: a2 = a2 << 0x20\n   349: a3 = a2 | a1\n   352: a1 = u8 [a0 + 0x19]\n   355: a2 = u8 [a0 + 0x18]\n   358: a4 = u8 [a0 + 0x1a]\n   361: a5 = u8 [a0 + 0x1b]\n   364: a1 = a1 << 0x8\n   367: a1 = a1 | a2\n   370: a4 = a4 << 0x10\n   373: a5 = a5 << 0x18\n   376: a4 = a4 | a5\n   379: a1 = a1 | a4\n   382: a2 = u8 [a0 + 0x1d]\n   385: a4 = u8 [a0 + 0x1c]\n   388: a5 = u8 [a0 + 0x1e]\n   391: a0 = u8 [a0 + 0x1f]\n   394: a2 = a2 << 0x8\n   397: a2 = a2 | a4\n   400: a5 = a5 << 0x10\n   403: a0 = a0 << 0x18\n   406: a0 = a0 | a5\n   409: a0 = a0 | a2\n   412: a0 = a0 << 0x20\n   415: a0 = a0 | a1\n   418: a0 = reverse a0\n   420: a1 = reverse a3\n   422: a2 = reverse t1\n   424: a3 = reverse t0\n   426: u64 [s0 + 0x18] = a3\n   429: u64 [s0 + 0x10] = a2\n   432: u64 [s0 + 0x8] = a1\n   435: u64 [s0] = a0\n   437: ra = u64 [sp + 0x8]\n   440: s0 = u64 [sp]\n   442: sp = sp + 0x10\n   445: ret\n      : @19 (gas: 12)\n   447: sp = sp + 0xffffffffffffffd8\n   450: u64 [sp + 0x20] = ra\n   453: u64 [sp + 0x18] = s0\n   456: u64 [sp + 0x10] = s1\n   459: a2 = u64 [a1]\n   461: u64 [sp + 0x8] = a2\n   464: a2 = u64 [a1 + 0x8]\n   467: u64 [sp] = a2\n   469: s0 = u64 [a1 + 0x10]\n   472: s1 = u64 [a1 + 0x18]\n   475: a1 = 0x20\n   478: ra = 4, jump @30\n      : @20 [@dyn 2] (gas: 71)\n   483: a1 = reverse s1\n   485: a2 = reverse s0\n   487: a3 = u64 [sp]\n   489: a3 = reverse a3\n   491: a4 = u64 [sp + 0x8]\n   494: a4 = reverse a4\n   496: u8 [a0 + 0x18] = a4\n   499: u8 [a0 + 0x10] = a3\n   502: u8 [a0 + 0x8] = a2\n   505: u8 [a0] = a1\n   507: a5 = a4 >> 0x38\n   510: u8 [a0 + 0x1f] = a5\n   513: a5 = a4 >> 0x30\n   516: u8 [a0 + 0x1e] = a5\n   519: a5 = a4 >> 0x28\n   522: u8 [a0 + 0x1d] = a5\n   525: a5 = a4 >> 0x20\n   528: u8 [a0 + 0x1c] = a5\n   531: a5 = a4 >> 0x18\n   534: u8 [a0 + 0x1b] = a5\n   537: a5 = a4 >> 0x10\n   540: u8 [a0 + 0x1a] = a5\n   543: a4 = a4 >> 0x8\n   546: u8 [a0 + 0x19] = a4\n   549: a4 = a3 >> 0x38\n   552: u8 [a0 + 0x17] = a4\n   555: a4 = a3 >> 0x30\n   558: u8 [a0 + 0x16] = a4\n   561: a4 = a3 >> 0x28\n   564: u8 [a0 + 0x15] = a4\n   567: a4 = a3 >> 0x20\n   570: u8 [a0 + 0x14] = a4\n   573: a4 = a3 >> 0x18\n   576: u8 [a0 + 0x13] = a4\n   579: a4 = a3 >> 0x10\n   582: u8 [a0 + 0x12] = a4\n   585: a3 = a3 >> 0x8\n   588: u8 [a0 + 0x11] = a3\n   591: a3 = a2 >> 0x38\n   594: u8 [a0 + 0xf] = a3\n   597: a3 = a2 >> 0x30\n   600: u8 [a0 + 0xe] = a3\n   603: a3 = a2 >> 0x28\n   606: u8 [a0 + 0xd] = a3\n   609: a3 = a2 >> 0x20\n   612: u8 [a0 + 0xc] = a3\n   615: a3 = a2 >> 0x18\n   618: u8 [a0 + 0xb] = a3\n   621: a3 = a2 >> 0x10\n   624: u8 [a0 + 0xa] = a3\n   627: a2 = a2 >> 0x8\n   630: u8 [a0 + 0x9] = a2\n   633: a2 = a1 >> 0x38\n   636: u8 [a0 + 0x7] = a2\n   639: a2 = a1 >> 0x30\n   642: u8 [a0 + 0x6] = a2\n   645: a2 = a1 >> 0x28\n   648: u8 [a0 + 0x5] = a2\n   651: a2 = a1 >> 0x20\n   654: u8 [a0 + 0x4] = a2\n   657: a2 = a1 >> 0x18\n   660: u8 [a0 + 0x3] = a2\n   663: a2 = a1 >> 0x10\n   666: u8 [a0 + 0x2] = a2\n   669: a1 = a1 >> 0x8\n   672: u8 [a0 + 0x1] = a1\n   675: ra = u64 [sp + 0x20]\n   678: s0 = u64 [sp + 0x18]\n   681: s1 = u64 [sp + 0x10]\n   684: sp = sp + 0x28\n   687: ret\n      : @21 (gas: 43)\n   689: sp = sp + 0xffffffffffffffa0\n   692: u64 [sp + 0x58] = ra\n   695: u64 [sp + 0x50] = s0\n   698: u64 [sp + 0x48] = s1\n   701: s0 = sp + 0x60\n   704: sp = sp & 0xffffffffffffffe0\n   707: s1 = a0\n   709: a0 = u64 [a1 + 0x18]\n   712: a2 = u64 [a1 + 0x10]\n   715: a3 = u64 [a1 + 0x8]\n   718: a1 = u64 [a1]\n   720: a0 = reverse a0\n   722: a2 = reverse a2\n   724: a3 = reverse a3\n   726: a1 = reverse a1\n   728: u64 [sp + 0x18] = a1\n   731: u64 [sp + 0x10] = a3\n   734: u64 [sp + 0x8] = a2\n   737: u64 [sp] = a0\n   739: u64 [sp + 56] = 0\n   742: u64 [sp + 48] = 0\n   745: u64 [sp + 40] = 0\n   748: u64 [sp + 32] = 0\n   751: u32 [sp + 64] = 0x20\n   755: i32 a1 = sp + 0\n   757: i32 a3 = sp + 0x20\n   760: i32 a4 = sp + 0x40\n   763: a2 = 0xffffffffffffffff\n   766: a0 = 0\n   768: ecalli 5 // 'get_storage'\n   770: a0 = u64 [sp + 0x38]\n   773: a1 = u64 [sp + 0x30]\n   776: a2 = u64 [sp + 0x28]\n   779: a3 = u64 [sp + 0x20]\n   782: a0 = reverse a0\n   784: a1 = reverse a1\n   786: a2 = reverse a2\n   788: a3 = reverse a3\n   790: u64 [s1 + 0x18] = a3\n   793: u64 [s1 + 0x10] = a2\n   796: u64 [s1 + 0x8] = a1\n   799: u64 [s1] = a0\n   801: t0 = 6, jump @1340\n      : @22 [@dyn 3] (gas: 1)\n   807: ret\n      : @23 (gas: 40)\n   809: sp = sp + 0xffffffffffffffa0\n   812: u64 [sp + 0x58] = ra\n   815: u64 [sp + 0x50] = s0\n   818: s0 = sp + 0x60\n   821: sp = sp & 0xffffffffffffffe0\n   824: t0 = u64 [a0]\n   826: a3 = u64 [a0 + 0x8]\n   829: a4 = u64 [a0 + 0x10]\n   832: a0 = u64 [a0 + 0x18]\n   835: t1 = u64 [a1]\n   837: a2 = u64 [a1 + 0x8]\n   840: a5 = u64 [a1 + 0x10]\n   843: a1 = u64 [a1 + 0x18]\n   846: t2 = reverse a0\n   848: a4 = reverse a4\n   850: a3 = reverse a3\n   852: a0 = reverse t0\n   854: t0 = reverse a1\n   856: a5 = reverse a5\n   858: a2 = reverse a2\n   860: a1 = reverse t1\n   862: u64 [sp + 0x18] = a0\n   865: u64 [sp + 0x10] = a3\n   868: u64 [sp + 0x8] = a4\n   871: u64 [sp] = t2\n   873: u64 [sp + 0x38] = a1\n   876: u64 [sp + 0x30] = a2\n   879: u64 [sp + 0x28] = a5\n   882: u64 [sp + 0x20] = t0\n   885: i32 a1 = sp + 0\n   887: i32 a3 = sp + 0x20\n   890: a2 = 0xffffffffffffffff\n   893: a4 = 0x20\n   896: a0 = 0\n   898: ecalli 10 // 'set_storage'\n   900: sp = s0 + 0xffffffffffffffa0\n   903: ra = u64 [sp + 0x58]\n   906: s0 = u64 [sp + 0x50]\n   909: sp = sp + 0x60\n   912: ret\n      : @24 (gas: 16)\n   914: sp = sp + 0xffffffffffffffa0\n   917: u64 [sp + 0x58] = ra\n   920: u64 [sp + 0x50] = s0\n   923: u64 [sp + 0x48] = s1\n   926: s0 = sp + 0x60\n   929: sp = sp & 0xffffffffffffffe0\n   932: a3 = u64 [a2]\n   934: u64 [sp + 0x18] = a3\n   937: a3 = u64 [a2 + 0x8]\n   940: u64 [sp + 0x10] = a3\n   943: a3 = u64 [a2 + 0x10]\n   946: u64 [sp + 0x8] = a3\n   949: a2 = u64 [a2 + 0x18]\n   952: u64 [sp] = a2\n   954: s1 = a1\n   956: ra = 8, jump @30\n      : @25 [@dyn 4] (gas: 18)\n   961: a1 = u64 [sp]\n   963: a1 = reverse a1\n   965: a2 = u64 [sp + 0x8]\n   968: a2 = reverse a2\n   970: a3 = u64 [sp + 0x10]\n   973: a3 = reverse a3\n   975: a4 = u64 [sp + 0x18]\n   978: a4 = reverse a4\n   980: u64 [sp + 0x38] = a4\n   983: u64 [sp + 0x30] = a3\n   986: u64 [sp + 0x28] = a2\n   989: u64 [sp + 0x20] = a1\n   992: i32 a2 = a0 + 0\n   994: i32 a3 = s1 + 0\n   996: i32 a0 = sp + 0x20\n   999: a1 = 0x1\n  1002: ecalli 4 // 'deposit_event'\n  1004: t0 = 10, jump @1340\n      : @26 [@dyn 5] (gas: 1)\n  1010: ret\n      : @27 (gas: 41)\n  1012: sp = sp + 0xfffffffffffffee0\n  1016: u64 [sp + 0x118] = ra\n  1020: u64 [sp + 0x110] = s0\n  1024: u64 [sp + 0x108] = s1\n  1028: s0 = sp + 0x120\n  1032: sp = sp & 0xffffffffffffffe0\n  1035: s1 = u64 [a5]\n  1037: u64 [sp + 0x60] = s1\n  1040: s1 = u64 [a5 + 0x8]\n  1043: u64 [sp + 0x68] = s1\n  1046: s1 = u64 [a5 + 0x10]\n  1049: u64 [sp + 0x70] = s1\n  1052: a5 = u64 [a5 + 0x18]\n  1055: u64 [sp + 0x78] = a5\n  1058: a5 = u64 [a4]\n  1060: u64 [sp + 0x38] = a5\n  1063: a5 = u64 [a4 + 0x8]\n  1066: u64 [sp + 0x40] = a5\n  1069: a5 = u64 [a4 + 0x10]\n  1072: u64 [sp + 0x48] = a5\n  1075: a4 = u64 [a4 + 0x18]\n  1078: u64 [sp + 0x50] = a4\n  1081: t0 = 0xc\n  1084: a4 = u64 [a3]\n  1086: u64 [sp + 0x18] = a4\n  1089: a4 = u64 [a3 + 0x8]\n  1092: u64 [sp + 0x20] = a4\n  1095: a4 = u64 [a3 + 0x10]\n  1098: u64 [sp + 0x28] = a4\n  1101: a3 = u64 [a3 + 0x18]\n  1104: u64 [sp + 0x30] = a3\n  1107: s1 = u64 [a2]\n  1109: a3 = u64 [a2 + 0x8]\n  1112: u64 [sp] = a3\n  1114: a3 = u64 [a2 + 0x10]\n  1117: u64 [sp + 0x8] = a3\n  1120: a2 = u64 [a2 + 0x18]\n  1123: u64 [sp + 0x10] = a2\n  1126: u64 [sp + 88] = 0\n  1129: ra = 0xe\n  1132: jump @30\n      : @28 [@dyn 6] (gas: 2)\n  1135: u64 [sp + 0x58] = a1\n  1138: ra = 14, jump @30\n      : @29 [@dyn 7] (gas: 58)\n  1143: a1 = reverse s1\n  1145: u64 [sp + 0x98] = a1\n  1149: a1 = u64 [sp]\n  1151: a1 = reverse a1\n  1153: u64 [sp + 0x90] = a1\n  1157: a1 = u64 [sp + 0x8]\n  1160: a1 = reverse a1\n  1162: u64 [sp + 0x88] = a1\n  1166: a1 = u64 [sp + 0x10]\n  1169: a1 = reverse a1\n  1171: u64 [sp + 0x80] = a1\n  1175: a1 = u64 [sp + 0x18]\n  1178: a1 = reverse a1\n  1180: u64 [sp + 0xb8] = a1\n  1184: a1 = u64 [sp + 0x20]\n  1187: a1 = reverse a1\n  1189: u64 [sp + 0xb0] = a1\n  1193: a1 = u64 [sp + 0x28]\n  1196: a1 = reverse a1\n  1198: u64 [sp + 0xa8] = a1\n  1202: a1 = u64 [sp + 0x30]\n  1205: a1 = reverse a1\n  1207: u64 [sp + 0xa0] = a1\n  1211: a1 = u64 [sp + 0x38]\n  1214: a1 = reverse a1\n  1216: u64 [sp + 0xd8] = a1\n  1220: a1 = u64 [sp + 0x40]\n  1223: a1 = reverse a1\n  1225: u64 [sp + 0xd0] = a1\n  1229: a1 = u64 [sp + 0x48]\n  1232: a1 = reverse a1\n  1234: u64 [sp + 0xc8] = a1\n  1238: a1 = u64 [sp + 0x50]\n  1241: a1 = reverse a1\n  1243: u64 [sp + 0xc0] = a1\n  1247: a1 = u64 [sp + 0x60]\n  1250: a1 = reverse a1\n  1252: u64 [sp + 0xf8] = a1\n  1256: a1 = u64 [sp + 0x68]\n  1259: a1 = reverse a1\n  1261: u64 [sp + 0xf0] = a1\n  1265: a1 = u64 [sp + 0x70]\n  1268: a1 = reverse a1\n  1270: u64 [sp + 0xe8] = a1\n  1274: a1 = u64 [sp + 0x78]\n  1277: a1 = reverse a1\n  1279: u64 [sp + 0xe0] = a1\n  1283: i32 a2 = a0 + 0\n  1285: a3 = i32 [sp + 0x58]\n  1288: i32 a0 = sp + 0x80\n  1292: a1 = 0x4\n  1295: ecalli 4 // 'deposit_event'\n  1297: sp = s0 + 0xfffffffffffffee0\n  1301: ra = u64 [sp + 0x118]\n  1305: s0 = u64 [sp + 0x110]\n  1309: s1 = u64 [sp + 0x108]\n  1313: sp = sp + 0x120\n  1317: ret\n      : @30 (gas: 2)\n  1319: i32 a2 = a0 >> 0x10\n  1322: jump @35 if a2 != 0\n      : @31 (gas: 4)\n  1325: a1 = a1 + a0\n  1328: i32 a1 = a1 + 0x1f\n  1331: a1 = a1 & 0xffffffffffffffe0\n  1334: jump @35 if a1 >u 65536\n      : @32 (gas: 3)\n  1340: a2 = 0x201bc\n  1345: a3 = i32 [0x201bc]\n  1350: jump @34 if a3 >=u a1\n      : @33 (gas: 2)\n  1353: u32 [0x201bc] = a1\n  1358: fallthrough\n      : @34 (gas: 4)\n  1359: a1 = 0x201d0\n  1364: i32 a0 = a0 + 0\n  1366: a0 = a0 + a1\n  1369: ret\n      : @35 (gas: 1)\n  1371: trap\n      : @36 (gas: 6)\n  1372: sp = sp + 0xfffffffffffffff0\n  1375: u64 [sp + 0x8] = ra\n  1378: u64 [sp] = s0\n  1380: s0 = a0 & 0x1\n  1383: ecalli 2 // 'call_data_size'\n  1385: fallthrough\n      : @37 (gas: 2)\n  1386: u32 [0x201b8] = a0\n  1391: jump @39 if s0 == 0\n      : @38 (gas: 1)\n  1394: ra = 16, jump @40\n      : @39 [@dyn 8] (gas: 1)\n  1398: ra = 18, jump @52\n      : @40 [@dyn 9] (gas: 13)\n  1403: sp = sp + 0xffffffffffffff40\n  1407: u64 [sp + 0xb8] = ra\n  1411: u64 [sp + 0xb0] = s0\n  1415: u64 [sp + 0xa8] = s1\n  1419: s0 = sp + 0xc0\n  1423: sp = sp & 0xffffffffffffffe0\n  1426: u64 [sp + 120] = 0\n  1429: u64 [sp + 112] = 0\n  1432: u64 [sp + 96] = 0x80\n  1437: a0 = 0x40\n  1440: a1 = sp + 0x60\n  1443: u64 [sp + 104] = 0\n  1446: ra = 20, jump @19\n      : @41 [@dyn 10] (gas: 7)\n  1451: u64 [sp + 152] = 0\n  1455: u64 [sp + 144] = 0\n  1459: u64 [sp + 136] = 0\n  1463: u64 [sp + 128] = 0\n  1467: i32 a0 = sp + 0x80\n  1471: ecalli 11 // 'value_transferred'\n  1473: fallthrough\n      : @42 (gas: 8)\n  1474: a0 = u64 [sp + 0x90]\n  1478: a1 = u64 [sp + 0x98]\n  1482: a2 = u64 [sp + 0x88]\n  1486: a3 = u64 [sp + 0x80]\n  1490: a1 = a1 | a2\n  1493: a0 = a0 | a3\n  1496: a0 = a0 | a1\n  1499: jump @47 if a0 != 0\n      : @43 (gas: 25)\n  1503: s1 = 0x301d0\n  1508: i32 a0 = s1 + 0\n  1510: ecalli 3 // 'caller'\n  1512: a0 = u64 [0x301d8]\n  1517: a1 = i32 [0x301e0]\n  1522: a2 = u64 [0x301d0]\n  1527: a0 = reverse a0\n  1529: a3 = a0 << 0x20\n  1532: a1 = reverse a1\n  1534: a1 = a1 >> 0x20\n  1537: a3 = a3 | a1\n  1540: a0 = a0 >> 0x20\n  1543: a1 = reverse a2\n  1545: a2 = a1 << 0x20\n  1548: a0 = a0 | a2\n  1551: a1 = a1 >> 0x20\n  1554: u64 [sp + 56] = 0\n  1557: u64 [sp + 0x30] = a1\n  1560: u64 [sp + 0x28] = a0\n  1563: a0 = sp + 0x40\n  1566: a1 = sp + 0x20\n  1569: u64 [sp + 0x20] = a3\n  1572: ra = 0x16\n  1575: t0 = 0x39e\n  1579: jump @1339\n      : @44 [@dyn 11] (gas: 3)\n  1583: a0 = sp\n  1585: a1 = 0x40\n  1588: ra = 24, jump @17\n      : @45 [@dyn 12] (gas: 12)\n  1593: a0 = u64 [sp + 0x18]\n  1596: a1 = u64 [sp + 0x10]\n  1599: a2 = u64 [sp + 0x8]\n  1602: s1 = u64 [sp]\n  1604: a0 = a0 | a2\n  1607: a2 = s1 | a1\n  1610: a2 = a2 | a0\n  1613: a2 = a2 >> 0x20\n  1616: a0 = a0 | a1\n  1619: a0 = a0 << 0x20\n  1622: a0 = a0 | a2\n  1625: jump @48 if a0 == 0\n      : @46 (gas: 1)\n  1628: trap\n      : @47 (gas: 7)\n  1629: a1 = 0x201d0\n  1634: i32 a1 = a1 + 0\n  1636: a0 = 0x1\n  1639: a2 = 0\n  1641: ra = 0x1e\n  1644: ecalli 8 // 'seal_return'\n  1646: jump @52\n      : @48 (gas: 3)\n  1648: a0 = s1\n  1650: a1 = 0\n  1652: ra = 26, jump @30\n      : @49 [@dyn 13] (gas: 5)\n  1657: i32 a0 = a0 + 0\n  1659: a1 = 0\n  1661: a2 = 0\n  1663: ecalli 0 // 'call_data_copy'\n  1664: jump @15\n      : @50 (gas: 3)\n  1667: a0 = s1\n  1669: a1 = 0\n  1671: ra = 28, jump @30\n      : @51 [@dyn 14] (gas: 6)\n  1676: i32 a1 = a0 + 0\n  1678: a0 = 0\n  1680: a2 = 0\n  1682: ra = 0x1e\n  1685: ecalli 8 // 'seal_return'\n  1687: fallthrough\n      : @52 [@dyn 15] (gas: 16)\n  1688: sp = sp + 0xfffffffffffffe10\n  1692: u64 [sp + 0x1e8] = ra\n  1696: u64 [sp + 0x1e0] = s0\n  1700: u64 [sp + 0x1d8] = s1\n  1704: s0 = sp + 0x1f0\n  1708: sp = sp + 0xffffffffffffd890\n  1712: sp = sp & 0xffffffffffffffe0\n  1715: s1 = sp\n  1717: a2 = s1 + 0x2118\n  1721: u64 [a2 + 64] = 0\n  1724: u64 [a2 + 56] = 0\n  1727: u64 [a2 + 40] = 0x80\n  1732: a0 = 0x40\n  1735: a1 = s1 + 0x2140\n  1739: u64 [a2 + 48] = 0\n  1742: ra = 32, jump @19\n      : @53 [@dyn 16] (gas: 4)\n  1747: a0 = 0x201b8\n  1752: u64 [s1 + 0x198] = a0\n  1756: a0 = i32 [0x201b8]\n  1761: jump @55 if a0 >=u 4\n      : @54 (gas: 1)\n  1765: jump @835\n      : @55 (gas: 6)\n  1768: a0 = s1 + 0x2000\n  1772: i32 a0 = a0 + 0x160\n  1776: a1 = 0\n  1778: ra = 0x22\n  1781: ecalli 1 // 'call_data_load'\n  1783: fallthrough\n      : @56 [@dyn 17] (gas: 3)\n  1784: a2 = s1 + 0x2118\n  1788: a0 = i32 [a2 + 0x64]\n  1791: jump @58 if a0 != 2446411860\n      : @57 (gas: 1)\n  1798: jump @470\n      : @58 (gas: 1)\n  1801: jump @147 if a0 == 2521991344\n      : @59 (gas: 1)\n  1809: jump @61 if a0 != 2719481311\n      : @60 (gas: 1)\n  1816: jump @499\n      : @61 (gas: 1)\n  1819: jump @63 if a0 != 3118142900\n      : @62 (gas: 1)\n  1826: jump @266\n      : @63 (gas: 2)\n  1829: t1 = s1 + 0x2918\n  1833: jump @65 if a0 != 4038952908\n      : @64 (gas: 1)\n  1840: jump @461\n      : @65 (gas: 1)\n  1843: jump @67 if a0 != 555083711\n      : @66 (gas: 1)\n  1850: jump @453\n      : @67 (gas: 1)\n  1853: jump @136 if a0 == 613063843\n      : @68 (gas: 1)\n  1861: jump @169 if a0 == 872855320\n      : @69 (gas: 1)\n  1869: jump @158 if a0 == 1244958121\n      : @70 (gas: 1)\n  1877: jump @72 if a0 == 1380877410\n      : @71 (gas: 1)\n  1884: jump @399\n      : @72 (gas: 10)\n  1887: u64 [a2 + 1344] = 0\n  1891: u64 [a2 + 1336] = 0\n  1895: u64 [a2 + 1328] = 0\n  1899: u64 [a2 + 1320] = 0\n  1903: a0 = s1 + 0x2000\n  1907: i32 a0 = a0 + 0x640\n  1911: ra = 0x24\n  1914: ecalli 11 // 'value_transferred'\n  1916: t0 = 0x26\n  1919: jump @1351\n      : @73 [@dyn 18] (gas: 1)\n  1923: t0 = 38, jump @1351\n      : @74 [@dyn 19] (gas: 8)\n  1929: a0 = u64 [a4 + 0x38]\n  1932: a1 = u64 [a4 + 0x40]\n  1935: a2 = u64 [a4 + 0x30]\n  1938: a3 = u64 [a4 + 0x28]\n  1941: a1 = a1 | a2\n  1944: a0 = a0 | a3\n  1947: a0 = a0 | a1\n  1950: jump @76 if a0 == 0\n      : @75 (gas: 1)\n  1953: jump @737\n      : @76 (gas: 1)\n  1956: t0 = 40, jump @1349\n      : @77 [@dyn 20] (gas: 1)\n  1962: jump @79 if a1 <u a0\n      : @78 (gas: 1)\n  1965: jump @738\n      : @79 (gas: 27)\n  1968: a0 = s1 + 0x2000\n  1972: i32 a0 = a0 + 0x660\n  1976: a1 = 0x4\n  1979: ecalli 1 // 'call_data_load'\n  1981: a0 = s1 + 0x2118\n  1985: a2 = a0 + 0x500\n  1989: a1 = u64 [a2 + 0x60]\n  1992: a3 = s1 + 0x100\n  1996: u64 [a3 + 0x88] = a1\n  2000: a1 = u64 [a2 + 0x58]\n  2003: u64 [a3 + 0x80] = a1\n  2007: a1 = u64 [a2 + 0x50]\n  2010: u64 [a3 + 0x78] = a1\n  2013: a0 = u64 [a2 + 0x48]\n  2016: u64 [a3 + 0x70] = a0\n  2019: a0 = u64 [0x20000]\n  2024: a3 = s1 + 0x1118\n  2028: u64 [a3 + 0x100] = a0\n  2032: a0 = u64 [0x20008]\n  2037: a1 = u64 [0x20010]\n  2042: a2 = u64 [0x20018]\n  2047: u64 [a3 + 0xf8] = a0\n  2051: u64 [a3 + 0xf0] = a1\n  2055: a1 = s1 + 0x1200\n  2059: u64 [a3 + 0xe8] = a2\n  2063: a0 = 0\n  2065: ra = 42, jump @19\n      : @80 [@dyn 21] (gas: 9)\n  2070: a0 = s1 + 0x1118\n  2074: u64 [a0 + 224] = 0\n  2078: u64 [a0 + 216] = 0\n  2082: u64 [a0 + 208] = 0\n  2086: a2 = a0\n  2088: a0 = 0x20\n  2091: a1 = s1 + 0x11e0\n  2095: u64 [a2 + 200] = 0\n  2099: ra = 44, jump @19\n      : @81 [@dyn 22] (gas: 3)\n  2104: a1 = 0x201bc\n  2109: a0 = i32 [0x201bc]\n  2114: jump @83 if a0 >u 63\n      : @82 (gas: 2)\n  2118: u32 [0x201bc] = 0x40\n  2124: fallthrough\n      : @83 (gas: 15)\n  2125: a0 = sp + 0xffffffffffffffe0\n  2128: a2 = a0 & 0xffffffffffffffe0\n  2131: u64 [s1 + 0x168] = a2\n  2135: sp = a2\n  2137: a0 = 0x201d0\n  2142: i32 a0 = a0 + 0\n  2144: i32 a2 = a2 + 0\n  2146: u64 [s1 + 0x190] = a1\n  2150: a1 = 0x40\n  2153: u64 [s1 + 0x198] = a0\n  2157: ra = 0x2e\n  2160: ecalli 6 // 'hash_keccak_256'\n  2162: a3 = u64 [s1 + 0x168]\n  2166: t0 = 0x30\n  2169: jump @1296\n      : @84 [@dyn 23] (gas: 2)\n  2172: a3 = u64 [s1 + 0x168]\n  2176: t0 = 48, jump @1296\n      : @85 [@dyn 24] (gas: 8)\n  2181: a0 = 0x301d0\n  2186: u64 [s1 + 0x168] = a0\n  2190: i32 a0 = a0 + 0\n  2192: u64 [s1 + 0x138] = a0\n  2196: ra = 0x32\n  2199: ecalli 3 // 'caller'\n  2201: t0 = 0x34\n  2204: jump @1299\n      : @86 [@dyn 25] (gas: 1)\n  2207: t0 = 52, jump @1299\n      : @87 [@dyn 26] (gas: 7)\n  2212: u64 [a2 + 192] = 0\n  2216: u64 [a2 + 0xb8] = a1\n  2220: u64 [a2 + 0xb0] = a0\n  2224: a1 = s1 + 0x11c0\n  2228: u64 [a2 + 0xa8] = a3\n  2232: a0 = 0\n  2234: ra = 54, jump @19\n      : @88 [@dyn 27] (gas: 13)\n  2239: a0 = u64 [s1 + 0x140]\n  2243: a1 = s1 + 0x1118\n  2247: u64 [a1 + 0xa0] = a0\n  2251: a0 = u64 [s1 + 0x148]\n  2255: u64 [a1 + 0x98] = a0\n  2259: a0 = u64 [s1 + 0x150]\n  2263: u64 [a1 + 0x90] = a0\n  2267: a3 = a1\n  2269: a0 = 0x20\n  2272: a1 = s1 + 0x11a0\n  2276: a2 = u64 [s1 + 0x158]\n  2280: u64 [a3 + 0x88] = a2\n  2284: ra = 56, jump @19\n      : @89 [@dyn 28] (gas: 3)\n  2289: a1 = u64 [s1 + 0x190]\n  2293: a0 = i32 [a1]\n  2295: jump @91 if a0 >u 63\n      : @90 (gas: 2)\n  2299: u32 [a1 + 0] = 0x40\n  2302: fallthrough\n      : @91 (gas: 4)\n  2303: a0 = sp + 0xffffffffffffffe0\n  2306: a0 = a0 & 0xffffffffffffffe0\n  2309: u64 [s1 + 0x158] = a0\n  2313: t0 = 58, jump @1312\n      : @92 [@dyn 29] (gas: 4)\n  2319: ra = 0x3c\n  2322: ecalli 6 // 'hash_keccak_256'\n  2324: t0 = 0x3e\n  2327: jump @1305\n      : @93 [@dyn 30] (gas: 1)\n  2330: t0 = 62, jump @1305\n      : @94 [@dyn 31] (gas: 3)\n  2335: i32 a0 = a0 + 0x180\n  2339: a0 = a0 + s1\n  2342: ra = 64, jump @21\n      : @95 [@dyn 32] (gas: 3)\n  2347: a3 = s1 + 0x1118\n  2351: a0 = u8 [a3 + 0x68]\n  2354: jump @97 if a0 == 0\n      : @96 (gas: 1)\n  2357: jump @512\n      : @97 (gas: 11)\n  2360: a0 = u64 [0x20040]\n  2365: u64 [a3 + 0x60] = a0\n  2368: a0 = u64 [0x20048]\n  2373: a1 = u64 [0x20050]\n  2378: a2 = u64 [0x20058]\n  2383: u64 [a3 + 0x58] = a0\n  2386: u64 [a3 + 0x50] = a1\n  2389: a1 = s1 + 0x1160\n  2393: u64 [a3 + 0x48] = a2\n  2396: a0 = 0\n  2398: ra = 66, jump @19\n      : @98 [@dyn 33] (gas: 9)\n  2403: a0 = s1 + 0x1118\n  2407: u64 [a0 + 64] = 0\n  2410: u64 [a0 + 56] = 0\n  2413: u64 [a0 + 48] = 0\n  2416: a2 = a0\n  2418: a0 = 0x20\n  2421: a1 = s1 + 0x1140\n  2425: u64 [a2 + 40] = 0\n  2428: ra = 68, jump @19\n      : @99 [@dyn 34] (gas: 3)\n  2433: a1 = u64 [s1 + 0x190]\n  2437: a0 = i32 [a1]\n  2439: jump @101 if a0 >u 63\n      : @100 (gas: 2)\n  2443: u32 [a1 + 0] = 0x40\n  2446: fallthrough\n      : @101 (gas: 4)\n  2447: a0 = sp + 0xffffffffffffffe0\n  2450: a0 = a0 & 0xffffffffffffffe0\n  2453: u64 [s1 + 0x160] = a0\n  2457: t0 = 70, jump @1312\n      : @102 [@dyn 35] (gas: 5)\n  2463: ra = 0x48\n  2466: ecalli 6 // 'hash_keccak_256'\n  2468: a3 = u64 [s1 + 0x160]\n  2472: t0 = 0x4a\n  2475: jump @1296\n      : @103 [@dyn 36] (gas: 2)\n  2478: a3 = u64 [s1 + 0x160]\n  2482: t0 = 74, jump @1296\n      : @104 [@dyn 37] (gas: 5)\n  2487: a0 = u64 [s1 + 0x138]\n  2491: ra = 0x4c\n  2494: ecalli 3 // 'caller'\n  2496: t0 = 0x4e\n  2499: jump @1299\n      : @105 [@dyn 38] (gas: 1)\n  2502: t0 = 78, jump @1299\n      : @106 [@dyn 39] (gas: 7)\n  2507: u64 [a2 + 32] = 0\n  2510: u64 [a2 + 0x18] = a1\n  2513: u64 [a2 + 0x10] = a0\n  2516: a1 = s1 + 0x1120\n  2520: u64 [a2 + 0x8] = a3\n  2523: a0 = 0\n  2525: ra = 80, jump @19\n      : @107 [@dyn 40] (gas: 13)\n  2530: a0 = u64 [s1 + 0x140]\n  2534: a1 = s1 + 0x1118\n  2538: u64 [a1] = a0\n  2540: a0 = u64 [s1 + 0x148]\n  2544: u64 [a1 + 0xfffffffffffffff8] = a0\n  2547: a0 = u64 [s1 + 0x150]\n  2551: u64 [a1 + 0xfffffffffffffff0] = a0\n  2554: a3 = a1\n  2556: a0 = 0x20\n  2559: a1 = s1 + 0x1100\n  2563: a2 = u64 [s1 + 0x158]\n  2567: u64 [a3 + 0xffffffffffffffe8] = a2\n  2570: ra = 82, jump @19\n      : @108 [@dyn 41] (gas: 3)\n  2575: a1 = u64 [s1 + 0x190]\n  2579: a0 = i32 [a1]\n  2581: jump @110 if a0 >u 63\n      : @109 (gas: 2)\n  2585: u32 [a1 + 0] = 0x40\n  2588: fallthrough\n      : @110 (gas: 4)\n  2589: a0 = sp + 0xffffffffffffffe0\n  2592: a0 = a0 & 0xffffffffffffffe0\n  2595: u64 [s1 + 0x158] = a0\n  2599: t0 = 84, jump @1312\n      : @111 [@dyn 42] (gas: 4)\n  2604: ra = 0x56\n  2607: ecalli 6 // 'hash_keccak_256'\n  2609: t0 = 0x58\n  2612: jump @1305\n      : @112 [@dyn 43] (gas: 1)\n  2615: t0 = 88, jump @1305\n      : @113 [@dyn 44] (gas: 3)\n  2620: i32 a0 = a0 + 0xe0\n  2624: a0 = a0 + s1\n  2627: ra = 90, jump @21\n      : @114 [@dyn 45] (gas: 4)\n  2632: a0 = s1 + 0x7ff\n  2636: a0 = a0 + 0x119\n  2640: a0 = u8 [a0 + 0x7c8]\n  2644: jump @116 if a0 == 0\n      : @115 (gas: 1)\n  2647: jump @512\n      : @116 (gas: 4)\n  2650: a0 = s1 + 0x7ff\n  2654: a0 = a0 + 0x761\n  2658: a1 = 0x40\n  2661: ra = 92, jump @17\n      : @117 [@dyn 46] (gas: 15)\n  2666: a2 = s1 + 0x7ff\n  2670: a2 = a2 + 0x119\n  2674: t0 = u64 [a2 + 0x660]\n  2678: a1 = a2 + 0x600\n  2682: a5 = u64 [a1 + 0x58]\n  2685: a4 = u64 [a1 + 0x50]\n  2688: a0 = u64 [a1 + 0x48]\n  2691: a3 = a4 | t0\n  2694: a1 = a0 | a5\n  2697: a1 = a1 | a3\n  2700: a1 = a1 >> 0x20\n  2703: a3 = a3 | a5\n  2706: a3 = a3 << 0x20\n  2709: a1 = a1 | a3\n  2712: jump @119 if a1 == 0\n      : @118 (gas: 1)\n  2715: jump @534\n      : @119 (gas: 12)\n  2718: u64 [a2 + 1592] = 0\n  2722: u64 [a2 + 1584] = 0\n  2726: u64 [a2 + 1576] = 0\n  2730: a3 = 0x8c379a000000000\n  2740: a1 = s1 + 0x7ff\n  2744: a1 = a1 + 0x741\n  2748: u64 [a2 + 0x640] = a3\n  2752: u64 [s1 + 0x198] = a0\n  2756: u64 [s1 + 0x190] = a4\n  2760: u64 [s1 + 0x180] = t0\n  2764: u64 [s1 + 0x188] = a5\n  2768: ra = 94, jump @19\n      : @120 [@dyn 47] (gas: 8)\n  2773: a5 = s1 + 0x100\n  2777: a1 = u64 [a5 + 0x98]\n  2781: a0 = u64 [a5 + 0x88]\n  2785: a3 = u64 [a5 + 0x80]\n  2789: a3 = a3 | a0\n  2792: a4 = 0x100000000\n  2802: a0 = 0xfffffffc\n  2812: t0 = 96, jump @1341\n      : @121 [@dyn 48] (gas: 1)\n  2818: jump @123 if a0 != 0\n      : @122 (gas: 1)\n  2821: jump @534\n      : @123 (gas: 12)\n  2824: i32 a0 = a1 + 0x4\n  2827: a2 = s1 + 0x7ff\n  2831: a2 = a2 + 0x119\n  2835: u64 [a2 + 1568] = 0\n  2839: u64 [a2 + 1560] = 0\n  2843: u64 [a2 + 1544] = 0x20\n  2848: a1 = s1 + 0x7ff\n  2852: a1 = a1 + 0x721\n  2856: u64 [a2 + 1552] = 0\n  2860: u64 [s1 + 0x188] = a3\n  2864: u64 [s1 + 0x180] = a4\n  2868: ra = 98, jump @19\n      : @124 [@dyn 49] (gas: 5)\n  2873: a3 = s1 + 0x100\n  2877: a1 = u64 [a3 + 0x98]\n  2881: a0 = u64 [a3 + 0x80]\n  2885: a0 = a0 + 0xffffffffffffffdc\n  2888: t0 = 100, jump @1326\n      : @125 [@dyn 50] (gas: 1)\n  2893: jump @127 if a0 != 0\n      : @126 (gas: 1)\n  2896: jump @534\n      : @127 (gas: 10)\n  2899: i32 a0 = a1 + 0x24\n  2902: a2 = s1 + 0x7ff\n  2906: a2 = a2 + 0x119\n  2910: u64 [a2 + 1536] = 0\n  2914: u64 [a2 + 1528] = 0\n  2918: u64 [a2 + 1512] = 0x26\n  2923: a1 = s1 + 0x7ff\n  2927: a1 = a1 + 0x701\n  2931: u64 [a2 + 1520] = 0\n  2935: ra = 102, jump @19\n      : @128 [@dyn 51] (gas: 10)\n  2940: a0 = s1 + 0x100\n  2944: a3 = u64 [a0 + 0x88]\n  2948: a4 = u64 [a0 + 0x90]\n  2952: a1 = u64 [a0 + 0x98]\n  2956: a2 = 0x100000000\n  2966: a0 = 0xffffffbc\n  2976: a0 = a1 <u a0\n  2979: a0 = 0 if a4 != 0\n  2981: a0 = 0 if a3 != 0\n  2983: jump @130 if a0 != 0\n      : @129 (gas: 1)\n  2986: jump @534\n      : @130 (gas: 16)\n  2989: i32 a0 = a1 + 0x44\n  2992: a1 = u64 [0x20080]\n  2997: u64 [s1 + 0x180] = a2\n  3001: a5 = s1 + 0x7ff\n  3005: a5 = a5 + 0x119\n  3009: a4 = a5 + 0x500\n  3013: u64 [a4 + 0xe0] = a1\n  3017: a1 = u64 [0x20088]\n  3022: a2 = u64 [0x20090]\n  3027: a3 = u64 [0x20098]\n  3032: u64 [a4 + 0xd8] = a1\n  3036: u64 [a4 + 0xd0] = a2\n  3040: a1 = s1 + 0x7ff\n  3044: a1 = a1 + 0x6e1\n  3048: u64 [a4 + 0xc8] = a3\n  3052: ra = 104, jump @19\n      : @131 [@dyn 52] (gas: 10)\n  3057: a3 = s1 + 0x100\n  3061: a2 = u64 [a3 + 0x98]\n  3065: a0 = u64 [a3 + 0x80]\n  3069: a0 = a0 + 0xffffffffffffff9c\n  3072: a0 = a2 <u a0\n  3075: a1 = u64 [a3 + 0x90]\n  3079: a0 = 0 if a1 != 0\n  3081: a1 = u64 [a3 + 0x88]\n  3085: a0 = 0 if a1 != 0\n  3087: jump @133 if a0 != 0\n      : @132 (gas: 1)\n  3090: jump @534\n      : @133 (gas: 11)\n  3093: i32 a0 = a2 + 0x64\n  3096: a1 = u64 [0x200a0]\n  3101: a3 = s1 + 0x7ff\n  3105: a3 = a3 + 0x119\n  3109: u64 [a3 + 1464] = 0\n  3113: u64 [a3 + 1456] = 0\n  3117: u64 [a3 + 0x5c0] = a1\n  3121: a1 = s1 + 0x7ff\n  3125: a1 = a1 + 0x6c1\n  3129: u64 [a3 + 1448] = 0\n  3133: ra = 106, jump @19\n      : @134 [@dyn 53] (gas: 3)\n  3138: a1 = 0x84\n  3142: a0 = u64 [s1 + 0x198]\n  3146: ra = 108, jump @30\n      : @135 [@dyn 54] (gas: 5)\n  3151: i32 a1 = a0 + 0\n  3153: a0 = 0x1\n  3156: a2 = 0x84\n  3160: ecalli 8 // 'seal_return'\n  3162: fallthrough\n      : @136 (gas: 9)\n  3163: u64 [a2 + 224] = 0\n  3167: u64 [a2 + 216] = 0\n  3171: u64 [a2 + 208] = 0\n  3175: u64 [a2 + 200] = 0\n  3179: a0 = s1 + 0x2000\n  3183: i32 a0 = a0 + 0x1e0\n  3187: ra = 0x6e\n  3190: ecalli 11 // 'value_transferred'\n  3192: fallthrough\n      : @137 [@dyn 55] (gas: 9)\n  3193: a3 = s1 + 0x2118\n  3197: a0 = u64 [a3 + 0xd8]\n  3201: a1 = u64 [a3 + 0xe0]\n  3205: a2 = u64 [a3 + 0xd0]\n  3209: a3 = u64 [a3 + 0xc8]\n  3213: a1 = a1 | a2\n  3216: a0 = a0 | a3\n  3219: a0 = a0 | a1\n  3222: jump @139 if a0 == 0\n      : @138 (gas: 1)\n  3225: jump @739\n      : @139 (gas: 1)\n  3228: t0 = 112, jump @1349\n      : @140 [@dyn 56] (gas: 1)\n  3234: jump @142 if a1 <u a0\n      : @141 (gas: 1)\n  3237: jump @740\n      : @142 (gas: 16)\n  3240: a0 = s1 + 0x2000\n  3244: i32 a0 = a0 + 0x200\n  3248: a1 = 0x4\n  3251: ecalli 1 // 'call_data_load'\n  3253: a3 = s1 + 0x2118\n  3257: a2 = u64 [a3 + 0xe8]\n  3261: a0 = u64 [a3 + 0xf0]\n  3265: a1 = u64 [a3 + 0xf8]\n  3269: a3 = u64 [a3 + 0x100]\n  3273: u64 [s1 + 0x258] = a3\n  3277: u64 [s1 + 0x250] = a1\n  3281: u64 [s1 + 0x248] = a0\n  3285: a0 = s1 + 0x260\n  3289: a1 = s1 + 0x240\n  3293: u64 [s1 + 0x240] = a2\n  3297: ra = 114, jump @1023\n      : @143 [@dyn 57] (gas: 12)\n  3302: a0 = u64 [s1 + 0x278]\n  3306: a1 = s1 + 0x100\n  3310: u64 [a1 + 0x98] = a0\n  3314: a0 = u64 [s1 + 0x270]\n  3318: u64 [a1 + 0x90] = a0\n  3322: a0 = u64 [s1 + 0x268]\n  3326: u64 [a1 + 0x88] = a0\n  3330: a0 = u64 [s1 + 0x260]\n  3334: u64 [a1 + 0x80] = a0\n  3338: a0 = s1 + 0x220\n  3342: a1 = 0x40\n  3345: ra = 116, jump @17\n      : @144 [@dyn 58] (gas: 13)\n  3350: a4 = s1 + 0x200\n  3354: a0 = u64 [a4 + 0x38]\n  3357: a1 = u64 [a4 + 0x30]\n  3360: a2 = u64 [a4 + 0x28]\n  3363: a3 = u64 [a4 + 0x20]\n  3366: a0 = a0 | a2\n  3369: a2 = a3 | a1\n  3372: a2 = a2 | a0\n  3375: a2 = a2 >> 0x20\n  3378: a0 = a0 | a1\n  3381: a0 = a0 << 0x20\n  3384: a0 = a0 | a2\n  3387: jump @146 if a0 == 0\n      : @145 (gas: 1)\n  3390: jump @534\n      : @146 (gas: 15)\n  3393: a2 = s1 + 0x100\n  3397: a0 = u64 [a2 + 0x80]\n  3401: a4 = s1 + 0x200\n  3405: u64 [a4] = a0\n  3407: a0 = u64 [a2 + 0x88]\n  3411: u64 [a4 + 0x8] = a0\n  3414: a0 = u64 [a2 + 0x90]\n  3418: u64 [a4 + 0x10] = a0\n  3421: a1 = s1 + 0x200\n  3425: a0 = u64 [a2 + 0x98]\n  3429: u64 [a4 + 0x18] = a0\n  3432: a0 = a3\n  3434: u64 [s1 + 0x198] = a3\n  3438: ra = 0x1fe\n  3442: jump @19\n      : @147 (gas: 15)\n  3445: u64 [s1 + 0x178] = t0\n  3449: a0 = s1 + 0x100\n  3453: u64 [a0 + 0x80] = a5\n  3457: u64 [a0 + 0x88] = a4\n  3461: u64 [a0 + 0x90] = a3\n  3465: u64 [a2 + 1792] = 0\n  3469: u64 [a2 + 1784] = 0\n  3473: u64 [a2 + 1776] = 0\n  3477: u64 [a2 + 1768] = 0\n  3481: a0 = s1 + 0x3000\n  3485: i32 a0 = a0 + 0xfffffffffffff800\n  3489: ra = 0x76\n  3492: ecalli 11 // 'value_transferred'\n  3494: t0 = 0x78\n  3497: jump @1314\n      : @148 [@dyn 59] (gas: 1)\n  3500: t0 = 120, jump @1314\n      : @149 [@dyn 60] (gas: 8)\n  3505: a0 = u64 [a4 + 0xf8]\n  3509: a1 = u64 [a3 + 0x700]\n  3513: a2 = u64 [a4 + 0xf0]\n  3517: a3 = u64 [a4 + 0xe8]\n  3521: a1 = a1 | a2\n  3524: a0 = a0 | a3\n  3527: a0 = a0 | a1\n  3530: jump @151 if a0 == 0\n      : @150 (gas: 1)\n  3533: jump @741\n      : @151 (gas: 3)\n  3536: a0 = u64 [s1 + 0x198]\n  3540: a0 = i32 [a0]\n  3542: jump @153 if a0 >u 3\n      : @152 (gas: 1)\n  3546: jump @742\n      : @153 (gas: 3)\n  3549: a0 = s1 + 0x1880\n  3553: a1 = 0x40\n  3556: ra = 122, jump @17\n      : @154 [@dyn 61] (gas: 3)\n  3561: a3 = s1 + 0x1118\n  3565: a5 = a3 + 0x700\n  3569: t0 = 124, jump @1333\n      : @155 [@dyn 62] (gas: 1)\n  3574: jump @157 if a0 == 0\n      : @156 (gas: 1)\n  3577: jump @534\n      : @157 (gas: 14)\n  3580: a0 = u64 [0x20020]\n  3585: a1 = u64 [0x20028]\n  3590: a2 = u64 [0x20030]\n  3595: u64 [a3 + 0x760] = a0\n  3599: a0 = u64 [0x20038]\n  3604: a5 = a3 + 0x700\n  3608: u64 [a5 + 0x58] = a1\n  3611: u64 [a5 + 0x50] = a2\n  3614: a1 = s1 + 0x1860\n  3618: u64 [a5 + 0x48] = a0\n  3621: a0 = a4\n  3623: u64 [s1 + 0x198] = a4\n  3627: ra = 0x1fe\n  3631: jump @19\n      : @158 (gas: 8)\n  3634: u64 [a2 + 1280] = 0\n  3638: u64 [a2 + 1272] = 0\n  3642: u64 [a2 + 1264] = 0\n  3646: u64 [a2 + 1256] = 0\n  3650: a0 = s1 + 0x2000\n  3654: i32 a0 = a0 + 0x600\n  3658: ecalli 11 // 'value_transferred'\n  3660: fallthrough\n      : @159 (gas: 10)\n  3661: a3 = s1 + 0x2118\n  3665: a4 = a3 + 0x400\n  3669: a0 = u64 [a4 + 0xf8]\n  3673: a1 = u64 [a3 + 0x500]\n  3677: a2 = u64 [a4 + 0xf0]\n  3681: a3 = u64 [a4 + 0xe8]\n  3685: a1 = a1 | a2\n  3688: a0 = a0 | a3\n  3691: a0 = a0 | a1\n  3694: jump @161 if a0 == 0\n      : @160 (gas: 1)\n  3697: jump @743\n      : @161 (gas: 3)\n  3700: a0 = u64 [s1 + 0x198]\n  3704: a0 = i32 [a0]\n  3706: jump @163 if a0 >u 3\n      : @162 (gas: 1)\n  3710: jump @744\n      : @163 (gas: 9)\n  3713: a1 = s1 + 0x2118\n  3717: u64 [a1 + 1312] = 0\n  3721: u64 [a1 + 1304] = 0\n  3725: u64 [a1 + 1296] = 0\n  3729: u64 [a1 + 1288] = 0x2\n  3734: a0 = s1 + 0x7ff\n  3738: a0 = a0 + 0x6a1\n  3742: a1 = s1 + 0x2620\n  3746: ra = 126, jump @21\n      : @164 [@dyn 63] (gas: 16)\n  3751: a1 = s1 + 0x7ff\n  3755: a1 = a1 + 0x119\n  3759: a2 = a1 + 0x500\n  3763: a0 = u64 [a2 + 0xa0]\n  3767: a1 = s1 + 0x100\n  3771: u64 [a1 + 0x98] = a0\n  3775: a0 = u64 [a2 + 0x98]\n  3779: u64 [a1 + 0x90] = a0\n  3783: a0 = u64 [a2 + 0x90]\n  3787: u64 [a1 + 0x88] = a0\n  3791: a0 = u64 [a2 + 0x88]\n  3795: u64 [a1 + 0x80] = a0\n  3799: a0 = s1 + 0x7ff\n  3803: a0 = a0 + 0x681\n  3807: a1 = 0x40\n  3810: ra = 128, jump @17\n      : @165 [@dyn 64] (gas: 4)\n  3816: a3 = s1 + 0x7ff\n  3820: a3 = a3 + 0x119\n  3824: a5 = a3 + 0x500\n  3828: t0 = 130, jump @1333\n      : @166 [@dyn 65] (gas: 1)\n  3834: jump @168 if a0 == 0\n      : @167 (gas: 1)\n  3837: jump @534\n      : @168 (gas: 16)\n  3840: a2 = s1 + 0x100\n  3844: a0 = u64 [a2 + 0x80]\n  3848: a5 = a3 + 0x500\n  3852: u64 [a5 + 0x48] = a0\n  3855: a0 = u64 [a2 + 0x88]\n  3859: u64 [a5 + 0x50] = a0\n  3862: a0 = u64 [a2 + 0x90]\n  3866: u64 [a5 + 0x58] = a0\n  3869: a1 = s1 + 0x7ff\n  3873: a1 = a1 + 0x661\n  3877: a0 = u64 [a2 + 0x98]\n  3881: u64 [a5 + 0x60] = a0\n  3884: a0 = a4\n  3886: u64 [s1 + 0x198] = a4\n  3890: ra = 0x1fe\n  3894: jump @19\n      : @169 (gas: 13)\n  3897: u64 [s1 + 0x178] = t0\n  3901: a0 = s1 + 0x100\n  3905: u64 [a0 + 0x80] = a5\n  3909: u64 [a0 + 0x88] = a4\n  3913: u64 [a0 + 0x90] = a3\n  3917: u64 [a2 + 352] = 0\n  3921: u64 [a2 + 344] = 0\n  3925: u64 [a2 + 336] = 0\n  3929: u64 [a2 + 328] = 0\n  3933: a0 = s1 + 0x2000\n  3937: i32 a0 = a0 + 0x260\n  3941: ecalli 11 // 'value_transferred'\n  3943: fallthrough\n      : @170 (gas: 10)\n  3944: a3 = s1 + 0x2118\n  3948: a4 = a3 + 0x100\n  3952: a0 = u64 [a4 + 0x58]\n  3955: a1 = u64 [a4 + 0x60]\n  3958: a2 = u64 [a4 + 0x50]\n  3961: a3 = u64 [a4 + 0x48]\n  3964: a1 = a1 | a2\n  3967: a0 = a0 | a3\n  3970: a0 = a0 | a1\n  3973: jump @172 if a0 == 0\n      : @171 (gas: 1)\n  3976: jump @745\n      : @172 (gas: 3)\n  3979: a0 = u64 [s1 + 0x198]\n  3983: a0 = i32 [a0]\n  3985: jump @174 if a0 >u 99\n      : @173 (gas: 1)\n  3989: jump @746\n      : @174 (gas: 7)\n  3992: a0 = s1 + 0x2000\n  3996: i32 a0 = a0 + 0x280\n  4000: a1 = 0x4\n  4003: ra = 0x84\n  4007: ecalli 1 // 'call_data_load'\n  4009: t0 = 0x86\n  4013: jump @1353\n      : @175 [@dyn 66] (gas: 1)\n  4016: t0 = 134, jump @1353\n      : @176 [@dyn 67] (gas: 7)\n  4022: a0 = u64 [a3 + 0x80]\n  4026: a1 = u64 [a3 + 0x78]\n  4029: a2 = u64 [a3 + 0x70]\n  4032: a3 = a1 | a0\n  4035: a4 = a2 <u 0x1\n  4038: a4 = 0 if a3 != 0\n  4040: jump @178 if a4 != 0\n      : @177 (gas: 1)\n  4043: jump @747\n      : @178 (gas: 31)\n  4046: a3 = s1 + 0x2118\n  4050: a3 = u64 [a3 + 0x168]\n  4054: a4 = u64 [s1 + 0x198]\n  4058: t0 = u32 [a4]\n  4060: a5 = a3 + 0x4\n  4063: a3 = a5 <u a3\n  4066: a4 = a2 + a3\n  4069: a2 = a4 <u a2\n  4072: a2 = a3 if a3 == 0\n  4075: a2 = a2 + a1\n  4078: a1 = a2 <u a1\n  4081: a3 = a0 + a1\n  4084: a0 = s1 + 0x7ff\n  4088: a0 = a0 + 0x119\n  4092: u64 [a0 + 1120] = 0\n  4096: u64 [a0 + 1112] = 0\n  4100: u64 [a0 + 1104] = 0\n  4104: u64 [a0 + 0x448] = t0\n  4108: a1 = a0 + 0x400\n  4112: u64 [a1 + 0x68] = a5\n  4115: u64 [a1 + 0x70] = a4\n  4118: u64 [a1 + 0x78] = a2\n  4121: a4 = a0\n  4123: a0 = s1 + 0x7ff\n  4127: a0 = a0 + 0x5a1\n  4131: a1 = s1 + 0x7ff\n  4135: a1 = a1 + 0x581\n  4139: a2 = s1 + 0x7ff\n  4143: a2 = a2 + 0x561\n  4147: u64 [a4 + 0x480] = a3\n  4151: ra = 136, jump @952\n      : @179 [@dyn 68] (gas: 18)\n  4157: a1 = s1 + 0x7ff\n  4161: a1 = a1 + 0x119\n  4165: a2 = a1 + 0x400\n  4169: a0 = u64 [a2 + 0xa0]\n  4173: u64 [s1 + 0xb8] = a0\n  4177: a0 = u64 [a2 + 0x98]\n  4181: u64 [s1 + 0xc0] = a0\n  4185: a0 = u64 [a2 + 0x90]\n  4189: u64 [s1 + 0xc8] = a0\n  4193: a0 = u64 [a2 + 0x88]\n  4197: u64 [s1 + 0xd0] = a0\n  4201: a0 = s1 + 0x2000\n  4205: i32 a0 = a0 + 0x2a0\n  4209: a1 = 0x24\n  4212: ra = 0x8a\n  4216: ecalli 1 // 'call_data_load'\n  4218: t0 = 0x8c\n  4222: jump @1353\n      : @180 [@dyn 69] (gas: 1)\n  4225: t0 = 140, jump @1353\n      : @181 [@dyn 70] (gas: 7)\n  4231: a0 = u64 [a3 + 0xa0]\n  4235: a1 = u64 [a3 + 0x98]\n  4239: a2 = u64 [a3 + 0x90]\n  4243: a3 = a1 | a0\n  4246: a4 = a2 <u 0x1\n  4249: a4 = 0 if a3 != 0\n  4251: jump @183 if a4 != 0\n      : @182 (gas: 1)\n  4254: jump @748\n      : @183 (gas: 31)\n  4257: a3 = s1 + 0x2118\n  4261: a3 = u64 [a3 + 0x188]\n  4265: a4 = u64 [s1 + 0x198]\n  4269: t0 = u32 [a4]\n  4271: a5 = a3 + 0x4\n  4274: a3 = a5 <u a3\n  4277: a4 = a2 + a3\n  4280: a2 = a4 <u a2\n  4283: a2 = a3 if a3 == 0\n  4286: a2 = a2 + a1\n  4289: a1 = a2 <u a1\n  4292: a3 = a0 + a1\n  4295: a0 = s1 + 0x7ff\n  4299: a0 = a0 + 0x119\n  4303: u64 [a0 + 1024] = 0\n  4307: u64 [a0 + 1016] = 0\n  4311: u64 [a0 + 1008] = 0\n  4315: u64 [a0 + 0x3e8] = t0\n  4319: a1 = a0 + 0x400\n  4323: u64 [a1 + 0x8] = a5\n  4326: u64 [a1 + 0x10] = a4\n  4329: u64 [a1 + 0x18] = a2\n  4332: a4 = a0\n  4334: a0 = s1 + 0x7ff\n  4338: a0 = a0 + 0x541\n  4342: a1 = s1 + 0x7ff\n  4346: a1 = a1 + 0x521\n  4350: a2 = s1 + 0x7ff\n  4354: a2 = a2 + 0x501\n  4358: u64 [a4 + 0x420] = a3\n  4362: ra = 142, jump @952\n      : @184 [@dyn 71] (gas: 19)\n  4368: a1 = s1 + 0x7ff\n  4372: a1 = a1 + 0x119\n  4376: a2 = a1 + 0x400\n  4380: a0 = u64 [a2 + 0x40]\n  4383: a1 = s1 + 0x100\n  4387: u64 [a1 + 0x70] = a0\n  4390: a0 = u64 [a2 + 0x38]\n  4393: u64 [a1 + 0x68] = a0\n  4396: a0 = u64 [a2 + 0x30]\n  4399: u64 [a1 + 0x60] = a0\n  4402: a0 = u64 [a2 + 0x28]\n  4405: u64 [a1 + 0x58] = a0\n  4408: a0 = s1 + 0x2000\n  4412: i32 a0 = a0 + 0x2c0\n  4416: a1 = 0x44\n  4419: ra = 0x90\n  4423: ecalli 1 // 'call_data_load'\n  4425: t0 = 0x92\n  4429: jump @1353\n      : @185 [@dyn 72] (gas: 1)\n  4432: t0 = 146, jump @1353\n      : @186 [@dyn 73] (gas: 7)\n  4438: a0 = u64 [a3 + 0xc0]\n  4442: a1 = u64 [a3 + 0xb8]\n  4446: a2 = u64 [a3 + 0xb0]\n  4450: a3 = a1 | a0\n  4453: a4 = a2 <u 0x1\n  4456: a4 = 0 if a3 != 0\n  4458: jump @188 if a4 != 0\n      : @187 (gas: 1)\n  4461: jump @749\n      : @188 (gas: 31)\n  4464: a3 = s1 + 0x2118\n  4468: a3 = u64 [a3 + 0x1a8]\n  4472: a4 = u64 [s1 + 0x198]\n  4476: t0 = u32 [a4]\n  4478: a5 = a3 + 0x4\n  4481: a3 = a5 <u a3\n  4484: a4 = a2 + a3\n  4487: a2 = a4 <u a2\n  4490: a2 = a3 if a3 == 0\n  4493: a2 = a2 + a1\n  4496: a1 = a2 <u a1\n  4499: a3 = a0 + a1\n  4502: a0 = s1 + 0x7ff\n  4506: a0 = a0 + 0x119\n  4510: u64 [a0 + 928] = 0\n  4514: u64 [a0 + 920] = 0\n  4518: u64 [a0 + 912] = 0\n  4522: u64 [a0 + 0x388] = t0\n  4526: a1 = a0 + 0x300\n  4530: u64 [a1 + 0xa8] = a5\n  4534: u64 [a1 + 0xb0] = a4\n  4538: u64 [a1 + 0xb8] = a2\n  4542: a4 = a0\n  4544: a0 = s1 + 0x7ff\n  4548: a0 = a0 + 0x4e1\n  4552: a1 = s1 + 0x7ff\n  4556: a1 = a1 + 0x4c1\n  4560: a2 = s1 + 0x7ff\n  4564: a2 = a2 + 0x4a1\n  4568: u64 [a4 + 0x3c0] = a3\n  4572: ra = 148, jump @952\n      : @189 [@dyn 74] (gas: 28)\n  4578: a4 = s1 + 0x7ff\n  4582: a4 = a4 + 0x119\n  4586: a5 = a4 + 0x300\n  4590: a0 = u64 [a5 + 0xe0]\n  4594: a4 = s1 + 0x100\n  4598: u64 [a4 + 0x50] = a0\n  4601: a0 = u64 [a5 + 0xd8]\n  4605: u64 [a4 + 0x48] = a0\n  4608: a0 = u64 [a5 + 0xd0]\n  4612: u64 [a4 + 0x40] = a0\n  4615: a0 = u64 [a5 + 0xc8]\n  4619: u64 [a4 + 0x38] = a0\n  4622: a1 = u64 [0x20020]\n  4627: a2 = u64 [0x20028]\n  4632: a3 = u64 [0x20030]\n  4637: u64 [a4 + 0x28] = a1\n  4640: u64 [a5 + 0x80] = a1\n  4644: a0 = u64 [0x20038]\n  4649: u64 [a4 + 0x20] = a2\n  4652: u64 [a5 + 0x78] = a2\n  4655: u64 [a4 + 0x18] = a3\n  4658: u64 [a5 + 0x70] = a3\n  4661: a1 = s1 + 0x7ff\n  4665: a1 = a1 + 0x481\n  4669: u64 [a4 + 0x30] = a0\n  4672: u64 [a5 + 0x68] = a0\n  4675: a0 = 0\n  4677: ra = 150, jump @19\n      : @190 [@dyn 75] (gas: 11)\n  4683: a0 = s1 + 0x7ff\n  4687: a0 = a0 + 0x119\n  4691: u64 [a0 + 864] = 0\n  4695: u64 [a0 + 856] = 0\n  4699: u64 [a0 + 848] = 0\n  4703: a2 = a0\n  4705: a0 = 0x20\n  4708: a1 = s1 + 0x7ff\n  4712: a1 = a1 + 0x461\n  4716: u64 [a2 + 840] = 0\n  4720: ra = 152, jump @19\n      : @191 [@dyn 76] (gas: 3)\n  4726: a1 = 0x201bc\n  4731: a0 = i32 [0x201bc]\n  4736: jump @193 if a0 >u 63\n      : @192 (gas: 2)\n  4740: u32 [0x201bc] = 0x40\n  4746: fallthrough\n      : @193 (gas: 15)\n  4747: a0 = sp + 0xffffffffffffffe0\n  4750: a2 = a0 & 0xffffffffffffffe0\n  4753: u64 [s1 + 0x198] = a2\n  4757: sp = a2\n  4759: a0 = 0x201d0\n  4764: i32 a0 = a0 + 0\n  4766: u64 [s1 + 0x100] = a1\n  4770: i32 a2 = a2 + 0\n  4772: a1 = 0x40\n  4775: u64 [s1 + 0xf8] = a0\n  4779: ra = 0x9a\n  4783: ecalli 6 // 'hash_keccak_256'\n  4785: a3 = u64 [s1 + 0x198]\n  4789: t0 = 0x9c\n  4793: jump @1329\n      : @194 [@dyn 77] (gas: 2)\n  4796: a3 = u64 [s1 + 0x198]\n  4800: t0 = 156, jump @1329\n      : @195 [@dyn 78] (gas: 20)\n  4806: u64 [s1 + 0x190] = a0\n  4810: a0 = reverse a1\n  4812: u64 [s1 + 0x188] = a0\n  4816: a0 = reverse a2\n  4818: u64 [s1 + 0x180] = a0\n  4822: a0 = reverse a3\n  4824: u64 [s1 + 0x178] = a0\n  4828: a0 = sp + 0xffffffffffffffe0\n  4831: a0 = a0 & 0xffffffffffffffe0\n  4834: u64 [s1 + 0x198] = a0\n  4838: sp = a0\n  4840: a0 = 0x301d0\n  4845: u64 [s1 + 0x108] = a0\n  4849: i32 a0 = a0 + 0\n  4851: u64 [s1 + 0xb0] = a0\n  4855: ra = 0x9e\n  4859: ecalli 3 // 'caller'\n  4861: a2 = u64 [s1 + 0x108]\n  4865: t0 = 0xa0\n  4869: jump @1273\n      : @196 [@dyn 79] (gas: 2)\n  4872: a2 = u64 [s1 + 0x108]\n  4876: t0 = 160, jump @1273\n      : @197 [@dyn 80] (gas: 11)\n  4882: a2 = s1 + 0x7ff\n  4886: a2 = a2 + 0x119\n  4890: u64 [a2 + 832] = 0\n  4894: a4 = a2 + 0x300\n  4898: u64 [a4 + 0x38] = a1\n  4901: u64 [a4 + 0x30] = a0\n  4904: a1 = s1 + 0x7ff\n  4908: a1 = a1 + 0x441\n  4912: u64 [a4 + 0x28] = a3\n  4915: a0 = 0\n  4917: ra = 162, jump @19\n      : @198 [@dyn 81] (gas: 16)\n  4923: a0 = u64 [s1 + 0x178]\n  4927: a1 = s1 + 0x7ff\n  4931: a1 = a1 + 0x119\n  4935: a2 = a1 + 0x300\n  4939: u64 [a2 + 0x20] = a0\n  4942: a0 = u64 [s1 + 0x180]\n  4946: u64 [a2 + 0x18] = a0\n  4949: a0 = u64 [s1 + 0x188]\n  4953: u64 [a2 + 0x10] = a0\n  4956: a3 = a1\n  4958: a0 = 0x20\n  4961: a1 = s1 + 0x7ff\n  4965: a1 = a1 + 0x421\n  4969: a2 = u64 [s1 + 0x190]\n  4973: u64 [a3 + 0x308] = a2\n  4977: ra = 164, jump @19\n      : @199 [@dyn 82] (gas: 3)\n  4983: a1 = u64 [s1 + 0x100]\n  4987: a0 = i32 [a1]\n  4989: jump @201 if a0 >u 63\n      : @200 (gas: 2)\n  4993: u32 [a1 + 0] = 0x40\n  4996: fallthrough\n      : @201 (gas: 12)\n  4997: a0 = sp + 0xffffffffffffffe0\n  5000: a0 = a0 & 0xffffffffffffffe0\n  5003: u64 [s1 + 0x190] = a0\n  5007: sp = a0\n  5009: i32 a2 = a0 + 0\n  5011: a1 = 0x40\n  5014: a0 = u64 [s1 + 0xf8]\n  5018: ra = 0xa6\n  5022: ecalli 6 // 'hash_keccak_256'\n  5024: a3 = u64 [s1 + 0x190]\n  5028: t0 = 0xa8\n  5032: jump @1280\n      : @202 [@dyn 83] (gas: 2)\n  5035: a3 = u64 [s1 + 0x190]\n  5039: t0 = 168, jump @1280\n      : @203 [@dyn 84] (gas: 8)\n  5045: a1 = u64 [s1 + 0x198]\n  5049: u64 [a1 + 0x18] = a3\n  5052: u64 [a1 + 0x10] = a2\n  5055: u64 [a1 + 0x8] = a4\n  5058: u64 [a1] = a0\n  5060: a0 = s1 + 0x7ff\n  5064: a0 = a0 + 0x401\n  5068: ra = 170, jump @21\n      : @204 [@dyn 85] (gas: 4)\n  5074: a0 = s1 + 0x7ff\n  5078: a0 = a0 + 0x119\n  5082: a0 = u8 [a0 + 0x2e8]\n  5086: jump @206 if a0 != 0\n      : @205 (gas: 1)\n  5089: jump @750\n      : @206 (gas: 9)\n  5092: a0 = s1 + 0x2118\n  5096: u64 [a0 + 480] = 0\n  5100: u64 [a0 + 472] = 0\n  5104: u64 [a0 + 464] = 0\n  5108: u64 [a0 + 456] = 0x2\n  5113: a0 = s1 + 0x7ff\n  5117: a0 = a0 + 0x3e1\n  5121: a1 = s1 + 0x22e0\n  5125: ra = 172, jump @21\n      : @207 [@dyn 86] (gas: 30)\n  5131: a1 = s1 + 0x7ff\n  5135: a1 = a1 + 0x119\n  5139: a5 = a1 + 0x200\n  5143: a0 = u64 [a5 + 0xe0]\n  5147: a2 = u64 [a5 + 0xd8]\n  5151: a3 = u64 [a5 + 0xd0]\n  5155: a4 = u64 [a5 + 0xc8]\n  5159: a1 = sp + 0xffffffffffffffe0\n  5162: a1 = a1 & 0xffffffffffffffe0\n  5165: sp = a1\n  5167: a5 = a4 + 0x1\n  5170: a4 = a5 <u 0x1\n  5173: a4 = a4 + a3\n  5176: a3 = a5 | a4\n  5179: a3 = a3 <u 0x1\n  5182: a3 = a3 + a2\n  5185: a2 = a3 <u a2\n  5188: a0 = a0 + a2\n  5191: u64 [a1 + 0x10] = a3\n  5194: u64 [a1 + 0x8] = a4\n  5197: u64 [a1] = a5\n  5199: u64 [s1 + 0xe0] = a4\n  5203: a4 = a4 | a0\n  5206: u64 [s1 + 0xf0] = a5\n  5210: u64 [s1 + 0xd8] = a3\n  5214: a2 = a5 | a3\n  5217: a2 = a2 | a4\n  5220: u64 [s1 + 0xe8] = a0\n  5224: u64 [a1 + 0x18] = a0\n  5227: jump @209 if a2 != 0\n      : @208 (gas: 1)\n  5230: jump @758\n      : @209 (gas: 7)\n  5233: a0 = s1 + 0x2118\n  5237: u64 [a0 + 512] = 0\n  5241: u64 [a0 + 504] = 0\n  5245: u64 [a0 + 496] = 0\n  5249: u64 [a0 + 488] = 0x2\n  5254: a0 = s1 + 0x2300\n  5258: ra = 174, jump @23\n      : @210 [@dyn 87] (gas: 4)\n  5264: a0 = s1 + 0x7ff\n  5268: a0 = a0 + 0x3c1\n  5272: a1 = 0x40\n  5275: ra = 176, jump @17\n      : @211 [@dyn 88] (gas: 18)\n  5281: a1 = s1 + 0x7ff\n  5285: a1 = a1 + 0x119\n  5289: a5 = a1 + 0x200\n  5293: a0 = u64 [a5 + 0xc0]\n  5297: u64 [s1 + 0x188] = a0\n  5301: a2 = u64 [a5 + 0xb8]\n  5305: u64 [s1 + 0x180] = a2\n  5309: a3 = u64 [a5 + 0xb0]\n  5313: u64 [s1 + 0x190] = a3\n  5317: a4 = u64 [a5 + 0xa8]\n  5321: u64 [s1 + 0x198] = a4\n  5325: u64 [a5 + 0xa0] = a0\n  5329: u64 [a5 + 0x98] = a2\n  5333: u64 [a5 + 0x90] = a3\n  5337: a0 = s1 + 0x7ff\n  5341: a0 = a0 + 0x3a1\n  5345: u64 [a5 + 0x88] = a4\n  5349: ra = 178, jump @934\n      : @212 [@dyn 89] (gas: 13)\n  5355: a4 = s1 + 0x100\n  5359: a3 = u64 [a4 + 0x98]\n  5363: a0 = u64 [a4 + 0x88]\n  5367: a1 = u64 [a4 + 0x90]\n  5371: a0 = a0 | a1\n  5374: a2 = u64 [a4 + 0x80]\n  5378: a1 = a3 | a2\n  5381: a1 = a1 | a0\n  5384: a1 = a1 >> 0x20\n  5387: a0 = a0 | a2\n  5390: a0 = a0 << 0x20\n  5393: a0 = a0 | a1\n  5396: jump @214 if a0 == 0\n      : @213 (gas: 1)\n  5399: jump @534\n      : @214 (gas: 15)\n  5402: a0 = u64 [s1 + 0xf0]\n  5406: a2 = s1 + 0x7ff\n  5410: a2 = a2 + 0x119\n  5414: a4 = a2 + 0x200\n  5418: u64 [a4 + 0x68] = a0\n  5421: a0 = u64 [s1 + 0xe0]\n  5425: u64 [a4 + 0x70] = a0\n  5428: a0 = u64 [s1 + 0xd8]\n  5432: u64 [a4 + 0x78] = a0\n  5435: a1 = s1 + 0x7ff\n  5439: a1 = a1 + 0x381\n  5443: a0 = u64 [s1 + 0xe8]\n  5447: u64 [a4 + 0x80] = a0\n  5451: a0 = a3\n  5453: ra = 180, jump @19\n      : @215 [@dyn 90] (gas: 8)\n  5459: a5 = s1 + 0x100\n  5463: a1 = u64 [a5 + 0x98]\n  5467: a0 = u64 [a5 + 0x88]\n  5471: a3 = u64 [a5 + 0x80]\n  5475: a3 = a3 | a0\n  5478: a4 = 0x100000000\n  5488: a0 = 0xffffffe0\n  5498: t0 = 182, jump @1341\n      : @216 [@dyn 91] (gas: 1)\n  5504: jump @218 if a0 != 0\n      : @217 (gas: 1)\n  5507: jump @534\n      : @218 (gas: 19)\n  5510: u64 [s1 + 0x188] = a3\n  5514: i32 a3 = a1 + 0x20\n  5517: a0 = u64 [s1 + 0xd0]\n  5521: a2 = s1 + 0x7ff\n  5525: a2 = a2 + 0x119\n  5529: a5 = a2 + 0x200\n  5533: u64 [a5 + 0x48] = a0\n  5536: a0 = u64 [s1 + 0xc8]\n  5540: u64 [a5 + 0x50] = a0\n  5543: a0 = u64 [s1 + 0xc0]\n  5547: u64 [a5 + 0x58] = a0\n  5550: a1 = s1 + 0x7ff\n  5554: a1 = a1 + 0x361\n  5558: a0 = u64 [s1 + 0xb8]\n  5562: u64 [a5 + 0x60] = a0\n  5565: u64 [s1 + 0x178] = a3\n  5569: a0 = a3\n  5571: u64 [s1 + 0x180] = a4\n  5575: ra = 184, jump @19\n      : @219 [@dyn 92] (gas: 5)\n  5581: a3 = s1 + 0x100\n  5585: a1 = u64 [a3 + 0x98]\n  5589: a0 = u64 [a3 + 0x80]\n  5593: a0 = a0 + 0xffffffffffffffc0\n  5596: t0 = 186, jump @1326\n      : @220 [@dyn 93] (gas: 1)\n  5602: jump @222 if a0 != 0\n      : @221 (gas: 1)\n  5605: jump @534\n      : @222 (gas: 16)\n  5608: i32 a0 = a1 + 0x40\n  5611: a1 = u64 [s1 + 0x158]\n  5615: a3 = s1 + 0x7ff\n  5619: a3 = a3 + 0x119\n  5623: a4 = a3 + 0x200\n  5627: u64 [a4 + 0x28] = a1\n  5630: a1 = u64 [s1 + 0x160]\n  5634: u64 [a4 + 0x30] = a1\n  5637: a1 = u64 [s1 + 0x168]\n  5641: u64 [a4 + 0x38] = a1\n  5644: a1 = s1 + 0x7ff\n  5648: a1 = a1 + 0x341\n  5652: a2 = u64 [s1 + 0x170]\n  5656: u64 [a4 + 0x40] = a2\n  5659: u64 [s1 + 0xa8] = a0\n  5663: ra = 188, jump @19\n      : @223 [@dyn 94] (gas: 4)\n  5669: a0 = s1 + 0x2000\n  5673: i32 a0 = a0 + 0x320\n  5677: ecalli 7 // 'now'\n  5679: fallthrough\n      : @224 (gas: 10)\n  5680: a3 = s1 + 0x100\n  5684: a5 = u64 [a3 + 0x98]\n  5688: a2 = 0x100000000\n  5698: a0 = 0xffffffa0\n  5708: a0 = a5 <u a0\n  5711: a1 = u64 [a3 + 0x90]\n  5715: a0 = 0 if a1 != 0\n  5717: a1 = u64 [a3 + 0x88]\n  5721: a0 = 0 if a1 != 0\n  5723: jump @226 if a0 != 0\n      : @225 (gas: 1)\n  5726: jump @534\n      : @226 (gas: 19)\n  5729: a3 = s1 + 0x2118\n  5733: a0 = a3 + 0x200\n  5737: a4 = u64 [a0 + 0x8]\n  5740: a1 = u64 [a0 + 0x10]\n  5743: u64 [s1 + 0x180] = a2\n  5747: a2 = u64 [a0 + 0x18]\n  5750: a3 = u64 [a0 + 0x20]\n  5753: i32 a0 = a5 + 0x60\n  5756: a5 = s1 + 0x7ff\n  5760: a5 = a5 + 0x119\n  5764: u64 [a5 + 0x220] = a3\n  5768: a3 = a5 + 0x200\n  5772: u64 [a3 + 0x18] = a2\n  5775: u64 [a3 + 0x10] = a1\n  5778: a1 = s1 + 0x7ff\n  5782: a1 = a1 + 0x321\n  5786: u64 [a3 + 0x8] = a4\n  5789: u64 [s1 + 0xa0] = a0\n  5793: ra = 190, jump @19\n      : @227 [@dyn 95] (gas: 4)\n  5799: a0 = u64 [s1 + 0xb0]\n  5803: ra = 0xc0\n  5807: ecalli 3 // 'caller'\n  5809: fallthrough\n      : @228 [@dyn 96] (gas: 10)\n  5810: a2 = s1 + 0x100\n  5814: a4 = u64 [a2 + 0x98]\n  5818: a0 = u64 [a2 + 0x80]\n  5822: a0 = a0 + 0xffffffffffffff80\n  5825: a0 = a4 <u a0\n  5828: a1 = u64 [a2 + 0x90]\n  5832: a0 = 0 if a1 != 0\n  5834: a1 = u64 [a2 + 0x88]\n  5838: a0 = 0 if a1 != 0\n  5840: jump @230 if a0 != 0\n      : @229 (gas: 1)\n  5843: jump @534\n      : @230 (gas: 2)\n  5846: a2 = u64 [s1 + 0x108]\n  5850: t0 = 194, jump @1284\n      : @231 [@dyn 97] (gas: 12)\n  5856: i32 a0 = a4 + 0x80\n  5860: a4 = s1 + 0x7ff\n  5864: a4 = a4 + 0x119\n  5868: u64 [a4 + 512] = 0\n  5872: a5 = a4 + 0x100\n  5876: u64 [a5 + 0xf8] = a1\n  5880: u64 [a5 + 0xf0] = a2\n  5884: a1 = s1 + 0x7ff\n  5888: a1 = a1 + 0x301\n  5892: u64 [a5 + 0xe8] = a3\n  5896: u64 [s1 + 0x98] = a0\n  5900: ra = 196, jump @19\n      : @232 [@dyn 98] (gas: 6)\n  5906: a5 = s1 + 0x100\n  5910: a3 = u64 [a5 + 0x88]\n  5914: a1 = u64 [a5 + 0x98]\n  5918: a4 = 0x100000000\n  5928: a0 = 0xffffff60\n  5938: t0 = 198, jump @1341\n      : @233 [@dyn 99] (gas: 1)\n  5944: jump @235 if a0 != 0\n      : @234 (gas: 1)\n  5947: jump @534\n      : @235 (gas: 12)\n  5950: i32 a0 = a1 + 0xa0\n  5954: a2 = s1 + 0x7ff\n  5958: a2 = a2 + 0x119\n  5962: u64 [a2 + 480] = 0\n  5966: u64 [a2 + 472] = 0\n  5970: u64 [a2 + 464] = 0\n  5974: a1 = s1 + 0x7ff\n  5978: a1 = a1 + 0x2e1\n  5982: u64 [a2 + 456] = 0\n  5986: u64 [s1 + 0x68] = a0\n  5989: u64 [s1 + 0x180] = a4\n  5993: ra = 200, jump @19\n      : @236 [@dyn 100] (gas: 5)\n  5999: a3 = s1 + 0x100\n  6003: a1 = u64 [a3 + 0x98]\n  6007: a0 = u64 [a3 + 0x80]\n  6011: a0 = a0 + 0xffffffffffffff40\n  6015: t0 = 202, jump @1326\n      : @237 [@dyn 101] (gas: 1)\n  6021: jump @239 if a0 != 0\n      : @238 (gas: 1)\n  6024: jump @534\n      : @239 (gas: 16)\n  6027: i32 a0 = a1 + 0xc0\n  6031: a1 = u64 [s1 + 0x138]\n  6035: a3 = s1 + 0x7ff\n  6039: a3 = a3 + 0x119\n  6043: a4 = a3 + 0x100\n  6047: u64 [a4 + 0xa8] = a1\n  6051: a1 = u64 [s1 + 0x140]\n  6055: u64 [a4 + 0xb0] = a1\n  6059: a1 = u64 [s1 + 0x148]\n  6063: u64 [a4 + 0xb8] = a1\n  6067: a1 = s1 + 0x7ff\n  6071: a1 = a1 + 0x2c1\n  6075: a2 = u64 [s1 + 0x150]\n  6079: u64 [a4 + 0xc0] = a2\n  6083: u64 [s1 + 0x38] = a0\n  6086: ra = 204, jump @19\n      : @240 [@dyn 102] (gas: 15)\n  6092: a0 = u64 [s1 + 0xe8]\n  6096: a2 = s1 + 0x7ff\n  6100: a2 = a2 + 0x119\n  6104: a3 = a2 + 0x100\n  6108: u64 [a3 + 0xa0] = a0\n  6112: a0 = u64 [s1 + 0xd8]\n  6116: u64 [a3 + 0x98] = a0\n  6120: a0 = u64 [s1 + 0xe0]\n  6124: u64 [a3 + 0x90] = a0\n  6128: a1 = s1 + 0x7ff\n  6132: a1 = a1 + 0x2a1\n  6136: a0 = u64 [s1 + 0xf0]\n  6140: u64 [a3 + 0x88] = a0\n  6144: a0 = 0\n  6146: ra = 206, jump @19\n      : @241 [@dyn 103] (gas: 11)\n  6152: a1 = s1 + 0x7ff\n  6156: a1 = a1 + 0x119\n  6160: u64 [a1 + 384] = 0\n  6164: u64 [a1 + 376] = 0\n  6168: u64 [a1 + 360] = 0x1\n  6173: a2 = a1\n  6175: a0 = 0x20\n  6178: a1 = s1 + 0x7ff\n  6182: a1 = a1 + 0x281\n  6186: u64 [a2 + 368] = 0\n  6190: ra = 208, jump @19\n      : @242 [@dyn 104] (gas: 7)\n  6196: a0 = sp + 0xffffffffffffffe0\n  6199: a0 = a0 & 0xffffffffffffffe0\n  6202: u64 [s1 + 0x190] = a0\n  6206: sp = a0\n  6208: a2 = u64 [s1 + 0x100]\n  6212: a0 = i32 [a2]\n  6214: jump @244 if a0 >u 63\n      : @243 (gas: 2)\n  6218: u32 [a2 + 0] = 0x40\n  6221: fallthrough\n      : @244 (gas: 30)\n  6222: a0 = sp + 0xffffffffffffffe0\n  6225: a0 = a0 & 0xffffffffffffffe0\n  6228: u64 [s1 + 0x188] = a0\n  6232: sp = a0\n  6234: i32 a2 = a0 + 0\n  6236: a1 = 0x40\n  6239: a0 = u64 [s1 + 0xf8]\n  6243: ecalli 6 // 'hash_keccak_256'\n  6245: a3 = u64 [s1 + 0x188]\n  6249: a0 = u64 [a3 + 0x18]\n  6252: a1 = u64 [a3 + 0x10]\n  6255: a2 = u64 [a3 + 0x8]\n  6258: a3 = u64 [a3]\n  6260: a5 = reverse a0\n  6262: u64 [s1 + 0x78] = a5\n  6265: a4 = reverse a1\n  6267: u64 [s1 + 0x80] = a4\n  6271: a1 = reverse a2\n  6273: u64 [s1 + 0x90] = a1\n  6277: a0 = reverse a3\n  6279: u64 [s1 + 0x88] = a0\n  6283: a2 = u64 [s1 + 0x190]\n  6287: u64 [a2 + 0x18] = a0\n  6290: u64 [a2 + 0x10] = a1\n  6293: u64 [a2 + 0x8] = a4\n  6296: u64 [a2] = a5\n  6298: a0 = s1 + 0x7ff\n  6302: a0 = a0 + 0x261\n  6306: a1 = u64 [s1 + 0x198]\n  6310: ra = 210, jump @17\n      : @245 [@dyn 105] (gas: 16)\n  6316: a3 = s1 + 0x7ff\n  6320: a3 = a3 + 0x119\n  6324: a4 = a3 + 0x100\n  6328: a0 = u64 [a4 + 0x60]\n  6331: a1 = u64 [a4 + 0x58]\n  6334: a2 = u64 [a4 + 0x50]\n  6337: a3 = u64 [a4 + 0x48]\n  6340: a4 = s1 + 0x2118\n  6344: a5 = a4 + 0x200\n  6348: u64 [a5 + 0x40] = a0\n  6351: u64 [a5 + 0x38] = a1\n  6354: u64 [a5 + 0x30] = a2\n  6357: u64 [a5 + 0x28] = a3\n  6360: a1 = s1 + 0x2340\n  6364: a0 = u64 [s1 + 0x190]\n  6368: ra = 212, jump @23\n      : @246 [@dyn 106] (gas: 28)\n  6374: a0 = sp + 0xffffffffffffffe0\n  6377: a1 = a0 & 0xffffffffffffffe0\n  6380: sp = a1\n  6382: a2 = u64 [s1 + 0x78]\n  6385: a2 = a2 + 0x1\n  6388: a0 = a2 <u 0x1\n  6391: a3 = u64 [s1 + 0x80]\n  6395: a3 = a3 + a0\n  6398: a0 = a2 | a3\n  6401: a0 = a0 <u 0x1\n  6404: a5 = u64 [s1 + 0x90]\n  6408: a4 = a5 + a0\n  6411: a0 = a4 <u a5\n  6414: a5 = u64 [s1 + 0x88]\n  6418: a0 = a0 + a5\n  6421: u64 [s1 + 0x148] = a0\n  6425: u64 [a1 + 0x18] = a0\n  6428: u64 [s1 + 0x138] = a4\n  6432: u64 [a1 + 0x10] = a4\n  6435: u64 [s1 + 0x140] = a3\n  6439: u64 [a1 + 0x8] = a3\n  6442: u64 [s1 + 0x60] = a1\n  6445: u64 [s1 + 0x150] = a2\n  6449: u64 [a1] = a2\n  6451: a0 = s1 + 0x7ff\n  6455: a0 = a0 + 0x241\n  6459: a1 = u64 [s1 + 0x178]\n  6463: ra = 214, jump @17\n      : @247 [@dyn 107] (gas: 19)\n  6469: a0 = s1 + 0x7ff\n  6473: a0 = a0 + 0x119\n  6477: a5 = a0 + 0x100\n  6481: a3 = u64 [a5 + 0x40]\n  6484: a4 = u64 [a5 + 0x38]\n  6487: a2 = u64 [a5 + 0x30]\n  6490: a1 = u64 [a5 + 0x28]\n  6493: a5 = s1 + 0x100\n  6497: u64 [a5 + 0x30] = a2\n  6500: u64 [a5 + 0x28] = a3\n  6503: a0 = a2 | a3\n  6506: a2 = a1 | a4\n  6509: a2 = a2 | a0\n  6512: a2 = a2 >> 0x20\n  6515: u64 [a5 + 0x20] = a4\n  6518: a0 = a0 | a4\n  6521: a0 = a0 << 0x20\n  6524: a0 = a0 | a2\n  6527: jump @249 if a0 == 0\n      : @248 (gas: 1)\n  6530: jump @534\n      : @249 (gas: 4)\n  6533: a0 = s1 + 0x7ff\n  6537: a0 = a0 + 0x221\n  6541: u64 [s1 + 0x118] = a1\n  6545: ra = 216, jump @17\n      : @250 [@dyn 108] (gas: 19)\n  6551: a2 = s1 + 0x7ff\n  6555: a2 = a2 + 0x119\n  6559: a0 = a2 + 0x100\n  6563: a4 = u64 [a0 + 0x20]\n  6566: a1 = u64 [a0 + 0x18]\n  6569: a3 = u64 [a0 + 0x10]\n  6572: a0 = a4 >u 0\n  6574: a5 = a1 >u 0\n  6576: a5 = a0 if a4 != 0\n  6579: u64 [s1 + 0x110] = a3\n  6583: a0 = a3 >u 0\n  6585: u64 [s1 + 0x58] = a1\n  6588: u64 [s1 + 0x50] = a4\n  6591: a1 = a1 | a4\n  6594: u64 [s1 + 0x28] = a0\n  6597: u64 [s1 + 0x30] = a5\n  6600: u64 [s1 + 0x48] = a1\n  6603: a0 = a5 if a1 != 0\n  6606: jump @252 if a0 == 0\n      : @251 (gas: 1)\n  6609: jump @861\n      : @252 (gas: 6)\n  6612: a0 = u64 [a2 + 0x108]\n  6616: u64 [s1 + 0x70] = a0\n  6619: a0 = s1 + 0x7ff\n  6623: a0 = a0 + 0x201\n  6627: a1 = u64 [s1 + 0x60]\n  6630: ra = 218, jump @21\n      : @253 [@dyn 109] (gas: 15)\n  6636: a4 = s1 + 0x7ff\n  6640: a4 = a4 + 0x119\n  6644: a2 = u64 [a4 + 0xe8]\n  6648: a0 = u64 [a4 + 0xf0]\n  6652: a1 = u64 [a4 + 0xf8]\n  6656: a3 = u64 [a4 + 0x100]\n  6660: u64 [a4 + 0xc0] = a3\n  6664: u64 [a4 + 0xb8] = a1\n  6668: u64 [a4 + 0xb0] = a0\n  6672: a0 = s1 + 0x7ff\n  6676: a0 = a0 + 0x1e1\n  6680: a1 = s1 + 0x7ff\n  6684: a1 = a1 + 0x1c1\n  6688: u64 [a4 + 0xa8] = a2\n  6692: ra = 220, jump @978\n      : @254 [@dyn 110] (gas: 19)\n  6698: a0 = s1 + 0x7ff\n  6702: a0 = a0 + 0x119\n  6706: a3 = u64 [a0 + 0xe0]\n  6710: a4 = u64 [a0 + 0xd8]\n  6714: a5 = u64 [a0 + 0xd0]\n  6718: t0 = u64 [a0 + 0xc8]\n  6722: a0 = a3 >u 0\n  6724: a1 = a4 >u 0\n  6726: a1 = a0 if a3 != 0\n  6729: a0 = a5 >u 0\n  6731: a2 = t0 <u 0x20\n  6734: a2 = a2 ^ 0x1\n  6737: a2 = a0 if a5 != 0\n  6740: a0 = a4 | a3\n  6743: a2 = a1 if a0 != 0\n  6746: a0 = u64 [s1 + 0x70]\n  6749: a0 = a0 <u 0x20\n  6752: u64 [s1 + 0x40] = a0\n  6755: jump @256 if a2 != 0\n      : @255 (gas: 1)\n  6758: jump @535\n      : @256 (gas: 18)\n  6761: u64 [s1 + 0x170] = t0\n  6765: u64 [s1 + 0x178] = a5\n  6769: u64 [s1 + 0x190] = a4\n  6773: u64 [s1 + 0x180] = a3\n  6777: a0 = s1 + 0x7ff\n  6781: a0 = a0 + 0x119\n  6785: a1 = u64 [s1 + 0x150]\n  6789: u64 [a0 + 0x88] = a1\n  6793: a1 = u64 [s1 + 0x140]\n  6797: u64 [a0 + 0x90] = a1\n  6801: a1 = u64 [s1 + 0x138]\n  6805: u64 [a0 + 0x98] = a1\n  6809: a1 = s1 + 0x7ff\n  6813: a1 = a1 + 0x1a1\n  6817: a2 = u64 [s1 + 0x148]\n  6821: u64 [a0 + 0xa0] = a2\n  6825: a0 = 0\n  6827: ra = 222, jump @19\n      : @257 [@dyn 111] (gas: 3)\n  6833: a2 = u64 [s1 + 0x100]\n  6837: a0 = i32 [a2]\n  6839: jump @259 if a0 >u 31\n      : @258 (gas: 2)\n  6843: u32 [a2 + 0] = 0x20\n  6846: fallthrough\n      : @259 (gas: 12)\n  6847: a0 = sp + 0xffffffffffffffe0\n  6850: a0 = a0 & 0xffffffffffffffe0\n  6853: u64 [s1 + 0x188] = a0\n  6857: sp = a0\n  6859: i32 a2 = a0 + 0\n  6861: a1 = 0x20\n  6864: a0 = u64 [s1 + 0xf8]\n  6868: ra = 0xe0\n  6872: ecalli 6 // 'hash_keccak_256'\n  6874: a0 = u64 [s1 + 0x70]\n  6877: t0 = 0xe2\n  6881: jump @1335\n      : @260 [@dyn 112] (gas: 2)\n  6884: a0 = u64 [s1 + 0x70]\n  6887: t0 = 226, jump @1335\n      : @261 [@dyn 113] (gas: 102)\n  6893: a4 = u64 [s1 + 0x58]\n  6896: a3 = a3 + a4\n  6899: u64 [s1 + 0x168] = a3\n  6903: a3 = a3 << 0x3b\n  6906: a4 = a2 >> 0x5\n  6909: a4 = a4 | a3\n  6912: a0 = u64 [s1 + 0x188]\n  6916: t0 = u64 [a0 + 0x18]\n  6919: a2 = a2 << 0x3b\n  6922: a0 = u64 [a0 + 0x10]\n  6925: a1 = a1 >> 0x5\n  6928: a2 = a2 | a1\n  6931: t2 = reverse t0\n  6933: a0 = reverse a0\n  6935: a1 = u64 [s1 + 0x40]\n  6938: a1 = 0 if a5 != 0\n  6940: a3 = u64 [s1 + 0x48]\n  6943: a1 = 0 if a3 != 0\n  6945: a4 = 0 if a1 != 0\n  6947: a2 = 0 if a1 != 0\n  6949: t0 = t2 + a2\n  6952: a2 = t0 <u t2\n  6955: a5 = a0 + a2\n  6958: a4 = a4 + a5\n  6961: u64 [s1 + 0x198] = a4\n  6965: a5 = a4 ^ a0\n  6968: a3 = a4 <u a0\n  6971: a3 = a2 if a5 == 0\n  6974: u64 [s1 + 0x160] = a3\n  6978: a2 = u64 [s1 + 0x170]\n  6982: ra = a2 + 0x1f\n  6985: a4 = ra <u a2\n  6988: a3 = u64 [s1 + 0x178]\n  6992: a2 = a3 + a4\n  6995: a5 = a2 <u a3\n  6998: a5 = a4 if a4 == 0\n  7001: t1 = u64 [s1 + 0x190]\n  7005: t1 = t1 + a5\n  7008: a4 = t1 << 0x3b\n  7011: a3 = a2 >> 0x5\n  7014: a3 = a3 | a4\n  7017: a2 = a2 << 0x3b\n  7020: a4 = ra >> 0x5\n  7023: a2 = a2 | a4\n  7026: a2 = a2 + t2\n  7029: u64 [s1 + 0x178] = a2\n  7033: a4 = a2 <u t2\n  7036: t2 = t0\n  7038: a2 = a0 + a4\n  7041: a2 = a2 + a3\n  7044: a3 = a2 ^ a0\n  7047: u64 [s1 + 0x170] = a2\n  7051: a2 = a2 <u a0\n  7054: a2 = a4 if a3 == 0\n  7057: a4 = u64 [s1 + 0x168]\n  7061: a0 = u64 [s1 + 0x58]\n  7064: a0 = a4 <u a0\n  7067: a3 = u64 [s1 + 0x50]\n  7070: a0 = a0 + a3\n  7073: a3 = a4 >> 0x5\n  7076: a4 = a0 << 0x3b\n  7079: a3 = a3 | a4\n  7082: a4 = u64 [s1 + 0x188]\n  7086: t0 = u64 [a4]\n  7088: a4 = u64 [a4 + 0x8]\n  7091: a0 = a0 >> 0x5\n  7094: a3 = 0 if a1 != 0\n  7096: a0 = 0 if a1 != 0\n  7098: a1 = reverse a4\n  7100: a4 = reverse t0\n  7102: a0 = a0 + a4\n  7105: a3 = a3 + a1\n  7108: a5 = a3 <u a1\n  7111: a0 = a0 + a5\n  7114: ra = u64 [s1 + 0x160]\n  7118: ra = ra + a3\n  7121: a3 = ra <u a3\n  7124: t0 = a0 + a3\n  7127: a0 = u64 [s1 + 0x190]\n  7131: a0 = t1 <u a0\n  7134: a3 = u64 [s1 + 0x180]\n  7138: a0 = a0 + a3\n  7141: a3 = t1 >> 0x5\n  7144: a5 = a0 << 0x3b\n  7147: a3 = a3 | a5\n  7150: a0 = a0 >> 0x5\n  7153: a0 = a0 + a4\n  7156: a5 = s1 + 0x100\n  7160: a4 = u64 [a5 + 0x98]\n  7164: a3 = a3 + a1\n  7167: a1 = a3 <u a1\n  7170: a0 = a0 + a1\n  7173: a2 = a2 + a3\n  7176: u64 [a5 + 0x68] = a2\n  7179: a1 = a2 <u a3\n  7182: a0 = a0 + a1\n  7185: u64 [a5 + 0x60] = a0\n  7188: a0 = sp + 0xffffffffffffffe0\n  7191: t1 = a0 & 0xffffffffffffffe0\n  7194: sp = t1\n  7196: u64 [s1 + 0x158] = t1\n  7200: fallthrough\n      : @262 (gas: 20)\n  7201: a0 = u64 [s1 + 0x178]\n  7205: a0 = t2 <u a0\n  7208: a2 = u64 [s1 + 0x170]\n  7212: a1 = a4 ^ a2\n  7215: a2 = a4 <u a2\n  7218: a2 = a0 if a1 == 0\n  7221: a5 = u64 [s1 + 0x168]\n  7225: a0 = ra <u a5\n  7228: a3 = u64 [s1 + 0x160]\n  7232: a1 = t0 ^ a3\n  7235: a3 = t0 <u a3\n  7238: a3 = a0 if a1 == 0\n  7241: a0 = ra ^ a5\n  7244: a0 = a0 | a1\n  7247: a3 = a2 if a0 == 0\n  7250: u64 [t1] = t2\n  7252: u64 [t1 + 0x8] = a4\n  7255: u64 [t1 + 0x10] = ra\n  7258: u64 [t1 + 0x18] = t0\n  7261: jump @264 if a3 != 0\n      : @263 (gas: 1)\n  7264: jump @535\n      : @264 (gas: 12)\n  7267: a0 = s1 + 0x2118\n  7271: u64 [a0 + 608] = 0\n  7275: u64 [a0 + 600] = 0\n  7279: u64 [a0 + 592] = 0\n  7283: u64 [a0 + 584] = 0\n  7287: a1 = s1 + 0x2360\n  7291: a0 = t1\n  7293: u64 [s1 + 0x190] = t2\n  7297: u64 [s1 + 0x198] = a4\n  7301: u64 [s1 + 0x188] = t0\n  7305: u64 [s1 + 0x180] = ra\n  7309: ra = 228, jump @23\n      : @265 [@dyn 114] (gas: 15)\n  7315: t1 = u64 [s1 + 0x158]\n  7319: t0 = u64 [s1 + 0x188]\n  7323: a4 = u64 [s1 + 0x198]\n  7327: t2 = u64 [s1 + 0x190]\n  7331: t2 = t2 + 0x1\n  7334: a0 = t2 <u 0x1\n  7337: a4 = a4 + a0\n  7340: a0 = t2 | a4\n  7343: a0 = a0 <u 0x1\n  7346: a1 = u64 [s1 + 0x180]\n  7350: a0 = a0 + a1\n  7353: a1 = a0 <u a1\n  7356: t0 = t0 + a1\n  7359: ra = a0\n  7361: jump @262\n      : @266 (gas: 10)\n  7364: u64 [a2 + 1856] = 0\n  7368: u64 [a2 + 1848] = 0\n  7372: u64 [a2 + 1840] = 0\n  7376: u64 [a2 + 1832] = 0\n  7380: a0 = s1 + 0x3000\n  7384: i32 a0 = a0 + 0xfffffffffffff840\n  7388: ra = 0xe6\n  7392: ecalli 11 // 'value_transferred'\n  7394: t0 = 0xe8\n  7398: jump @1352\n      : @267 [@dyn 115] (gas: 1)\n  7401: t0 = 232, jump @1352\n      : @268 [@dyn 116] (gas: 8)\n  7407: a0 = u64 [a4 + 0x38]\n  7410: a1 = u64 [a4 + 0x40]\n  7413: a2 = u64 [a4 + 0x30]\n  7416: a3 = u64 [a4 + 0x28]\n  7419: a1 = a1 | a2\n  7422: a0 = a0 | a3\n  7425: a0 = a0 | a1\n  7428: jump @270 if a0 == 0\n      : @269 (gas: 1)\n  7431: jump @763\n      : @270 (gas: 1)\n  7434: t0 = 234, jump @1349\n      : @271 [@dyn 117] (gas: 1)\n  7440: jump @273 if a1 <u a0\n      : @272 (gas: 1)\n  7443: jump @764\n      : @273 (gas: 17)\n  7446: a0 = s1 + 0x3000\n  7450: i32 a0 = a0 + 0xfffffffffffff860\n  7454: a1 = 0x4\n  7457: ecalli 1 // 'call_data_load'\n  7459: a0 = s1 + 0x2118\n  7463: a2 = a0 + 0x700\n  7467: a1 = u64 [a2 + 0x60]\n  7470: u64 [s1 + 0x160] = a1\n  7474: a1 = u64 [a2 + 0x58]\n  7477: u64 [s1 + 0x168] = a1\n  7481: a1 = u64 [a2 + 0x50]\n  7484: u64 [s1 + 0x170] = a1\n  7488: a0 = u64 [a2 + 0x48]\n  7491: u64 [s1 + 0x178] = a0\n  7495: a0 = s1 + 0x2000\n  7499: a1 = 0x40\n  7502: ra = 236, jump @17\n      : @274 [@dyn 118] (gas: 16)\n  7508: a1 = s1 + 0x1918\n  7512: a0 = u64 [a1 + 0x700]\n  7516: u64 [s1 + 0x188] = a0\n  7520: a5 = a1 + 0x600\n  7524: a2 = u64 [a5 + 0xf8]\n  7528: u64 [s1 + 0x180] = a2\n  7532: a4 = u64 [a5 + 0xf0]\n  7536: u64 [s1 + 0x190] = a4\n  7540: a3 = u64 [a5 + 0xe8]\n  7544: u64 [s1 + 0x198] = a3\n  7548: u64 [a5 + 0xe0] = a0\n  7552: u64 [a5 + 0xd8] = a2\n  7556: u64 [a5 + 0xd0] = a4\n  7560: a0 = s1 + 0x1fe0\n  7564: u64 [a5 + 0xc8] = a3\n  7568: ra = 238, jump @934\n      : @275 [@dyn 119] (gas: 13)\n  7574: a3 = s1 + 0x100\n  7578: a0 = u64 [a3 + 0x88]\n  7582: a1 = u64 [a3 + 0x90]\n  7586: a0 = a0 | a1\n  7589: a2 = u64 [a3 + 0x80]\n  7593: a1 = u64 [a3 + 0x98]\n  7597: a1 = a1 | a2\n  7600: a1 = a1 | a0\n  7603: a1 = a1 >> 0x20\n  7606: a0 = a0 | a2\n  7609: a0 = a0 << 0x20\n  7612: a0 = a0 | a1\n  7615: jump @277 if a0 == 0\n      : @276 (gas: 1)\n  7618: jump @534\n      : @277 (gas: 8)\n  7621: a0 = s1 + 0x1918\n  7625: u64 [a0 + 1728] = 0\n  7629: u64 [a0 + 1720] = 0\n  7633: u64 [a0 + 1712] = 0\n  7637: a1 = s1 + 0x1fc0\n  7641: u64 [a0 + 1704] = 0\n  7645: a0 = u64 [s1 + 0x198]\n  7649: ra = 240, jump @19\n      : @278 [@dyn 120] (gas: 12)\n  7655: a4 = s1 + 0x100\n  7659: a0 = u64 [a4 + 0x88]\n  7663: a2 = u64 [a4 + 0x80]\n  7667: a2 = a2 | a0\n  7670: a3 = 0x100000000\n  7680: a0 = 0xffffffe0\n  7690: a1 = u64 [a4 + 0x98]\n  7694: a0 = a1 <u a0\n  7697: a1 = u64 [a4 + 0x90]\n  7701: a0 = 0 if a1 != 0\n  7703: a0 = 0 if a2 != 0\n  7705: jump @280 if a0 != 0\n      : @279 (gas: 1)\n  7708: jump @534\n      : @280 (gas: 13)\n  7711: a0 = u64 [s1 + 0x198]\n  7715: i32 a0 = a0 + 0x20\n  7718: a1 = s1 + 0x1918\n  7722: u64 [s1 + 0x188] = a2\n  7726: a2 = a1\n  7728: u64 [a1 + 1696] = 0\n  7732: u64 [a1 + 1688] = 0\n  7736: u64 [a1 + 1680] = 0\n  7740: a4 = 0x60\n  7743: a1 = s1 + 0x1fa0\n  7747: u64 [a2 + 0x688] = a4\n  7751: u64 [s1 + 0x180] = a3\n  7755: ra = 242, jump @19\n      : @281 [@dyn 121] (gas: 4)\n  7761: a2 = s1 + 0x100\n  7765: a0 = u64 [a2 + 0x80]\n  7769: a0 = a0 + 0xffffffffffffffc0\n  7772: t0 = 244, jump @1321\n      : @282 [@dyn 122] (gas: 1)\n  7778: jump @284 if a0 != 0\n      : @283 (gas: 1)\n  7781: jump @534\n      : @284 (gas: 9)\n  7784: a0 = u64 [s1 + 0x198]\n  7788: i32 a0 = a0 + 0x40\n  7791: a2 = s1 + 0x1918\n  7795: u64 [a2 + 1664] = 0\n  7799: u64 [a2 + 1656] = 0\n  7803: u64 [a2 + 1640] = 0x60\n  7808: a1 = s1 + 0x1f80\n  7812: u64 [a2 + 1648] = 0\n  7816: ra = 246, jump @19\n      : @285 [@dyn 123] (gas: 10)\n  7822: a2 = 0x100000000\n  7832: a0 = 0xffffffa0\n  7842: a3 = s1 + 0x100\n  7846: a1 = u64 [a3 + 0x98]\n  7850: a0 = a1 <u a0\n  7853: a1 = u64 [a3 + 0x90]\n  7857: a0 = 0 if a1 != 0\n  7859: a1 = u64 [a3 + 0x88]\n  7863: a0 = 0 if a1 != 0\n  7865: jump @287 if a0 != 0\n      : @286 (gas: 1)\n  7868: jump @534\n      : @287 (gas: 11)\n  7871: a0 = u64 [s1 + 0x198]\n  7875: i32 a0 = a0 + 0x60\n  7878: a1 = s1 + 0x1918\n  7882: u64 [s1 + 0x180] = a2\n  7886: a2 = a1\n  7888: u64 [a1 + 1632] = 0\n  7892: u64 [a1 + 1624] = 0\n  7896: u64 [a1 + 1616] = 0\n  7900: a1 = s1 + 0x1f60\n  7904: u64 [a2 + 1608] = 0\n  7908: ra = 248, jump @19\n      : @288 [@dyn 124] (gas: 4)\n  7914: a2 = s1 + 0x100\n  7918: a0 = u64 [a2 + 0x80]\n  7922: a0 = a0 + 0xffffffffffffff80\n  7925: t0 = 250, jump @1321\n      : @289 [@dyn 125] (gas: 1)\n  7931: jump @291 if a0 != 0\n      : @290 (gas: 1)\n  7934: jump @534\n      : @291 (gas: 9)\n  7937: a0 = u64 [s1 + 0x198]\n  7941: i32 a0 = a0 + 0x80\n  7945: a2 = s1 + 0x1918\n  7949: u64 [a2 + 1600] = 0\n  7953: u64 [a2 + 1592] = 0\n  7957: u64 [a2 + 1584] = 0\n  7961: a1 = s1 + 0x1f40\n  7965: u64 [a2 + 1576] = 0\n  7969: ra = 252, jump @19\n      : @292 [@dyn 126] (gas: 10)\n  7975: a4 = s1 + 0x100\n  7979: a2 = u64 [a4 + 0x88]\n  7983: a3 = 0x100000000\n  7993: a0 = 0xffffff60\n  8003: a1 = u64 [a4 + 0x98]\n  8007: a0 = a1 <u a0\n  8010: a1 = u64 [a4 + 0x90]\n  8014: a0 = 0 if a1 != 0\n  8016: a0 = 0 if a2 != 0\n  8018: jump @294 if a0 != 0\n      : @293 (gas: 1)\n  8021: jump @534\n      : @294 (gas: 10)\n  8024: a0 = u64 [s1 + 0x198]\n  8028: i32 a0 = a0 + 0xa0\n  8032: a2 = s1 + 0x1918\n  8036: u64 [a2 + 1568] = 0\n  8040: u64 [a2 + 1560] = 0\n  8044: u64 [a2 + 1552] = 0\n  8048: a1 = s1 + 0x1f20\n  8052: u64 [a2 + 1544] = 0\n  8056: u64 [s1 + 0x180] = a3\n  8060: ra = 254, jump @19\n      : @295 [@dyn 127] (gas: 4)\n  8066: a2 = s1 + 0x100\n  8070: a0 = u64 [a2 + 0x80]\n  8074: a0 = a0 + 0xffffffffffffff40\n  8078: t0 = 256, jump @1321\n      : @296 [@dyn 128] (gas: 1)\n  8084: jump @298 if a0 != 0\n      : @297 (gas: 1)\n  8087: jump @534\n      : @298 (gas: 9)\n  8090: a0 = u64 [s1 + 0x198]\n  8094: i32 a0 = a0 + 0xc0\n  8098: a2 = s1 + 0x1918\n  8102: u64 [a2 + 1536] = 0\n  8106: u64 [a2 + 1528] = 0\n  8110: u64 [a2 + 1512] = 0x60\n  8115: a1 = s1 + 0x1f00\n  8119: u64 [a2 + 1520] = 0\n  8123: ra = 258, jump @19\n      : @299 [@dyn 129] (gas: 14)\n  8129: a3 = s1 + 0x100\n  8133: a0 = u64 [a3 + 0x60]\n  8136: a2 = s1 + 0x1918\n  8140: a4 = a2 + 0x500\n  8144: u64 [a4 + 0xe0] = a0\n  8148: a0 = u64 [a3 + 0x68]\n  8151: u64 [a4 + 0xd8] = a0\n  8155: a0 = u64 [a3 + 0x70]\n  8158: u64 [a4 + 0xd0] = a0\n  8162: a1 = s1 + 0x1ee0\n  8166: a0 = u64 [a3 + 0x78]\n  8169: u64 [a4 + 0xc8] = a0\n  8173: a0 = 0\n  8175: ra = 260, jump @19\n      : @300 [@dyn 130] (gas: 9)\n  8181: a0 = s1 + 0x1918\n  8185: u64 [a0 + 1472] = 0\n  8189: u64 [a0 + 1464] = 0\n  8193: u64 [a0 + 1456] = 0\n  8197: a3 = a0\n  8199: a0 = 0x20\n  8202: a1 = s1 + 0x1ec0\n  8206: u64 [a3 + 1448] = 0x1\n  8211: ra = 262, jump @19\n      : @301 [@dyn 131] (gas: 3)\n  8217: a1 = 0x201bc\n  8222: a0 = i32 [0x201bc]\n  8227: jump @303 if a0 >u 63\n      : @302 (gas: 2)\n  8231: u32 [0x201bc] = 0x40\n  8237: fallthrough\n      : @303 (gas: 15)\n  8238: a0 = sp + 0xffffffffffffffe0\n  8241: a2 = a0 & 0xffffffffffffffe0\n  8244: u64 [s1 + 0x190] = a2\n  8248: sp = a2\n  8250: a0 = 0x201d0\n  8255: i32 a0 = a0 + 0\n  8257: i32 a2 = a2 + 0\n  8259: u64 [s1 + 0x198] = a1\n  8263: a1 = 0x40\n  8266: u64 [s1 + 0x188] = a0\n  8270: ra = 0x108\n  8274: ecalli 6 // 'hash_keccak_256'\n  8276: a3 = u64 [s1 + 0x190]\n  8280: t0 = 0x10a\n  8284: jump @1313\n      : @304 [@dyn 132] (gas: 2)\n  8287: a3 = u64 [s1 + 0x190]\n  8291: t0 = 266, jump @1313\n      : @305 [@dyn 133] (gas: 8)\n  8297: a5 = a4 + 0x700\n  8301: u64 [a5 + 0x80] = a3\n  8305: u64 [a5 + 0x78] = a2\n  8308: u64 [a5 + 0x70] = a1\n  8311: u64 [a5 + 0x68] = a0\n  8314: a0 = s1 + 0x1ea0\n  8318: a1 = s1 + 0x2880\n  8322: ra = 268, jump @21\n      : @306 [@dyn 134] (gas: 16)\n  8328: a4 = s1 + 0x1918\n  8332: a5 = a4 + 0x500\n  8336: a0 = u64 [a5 + 0x98]\n  8340: a1 = u64 [a5 + 0xa0]\n  8344: a2 = u64 [a5 + 0x90]\n  8348: a3 = u64 [a5 + 0x88]\n  8352: a1 = a1 | a2\n  8355: a0 = a0 | a3\n  8358: a0 = a0 | a1\n  8361: a0 = a0 >u 0\n  8363: u64 [a4 + 1408] = 0\n  8367: u64 [a4 + 1400] = 0\n  8371: u64 [a5 + 0x68] = a0\n  8374: a0 = s1 + 0x1e80\n  8378: u64 [a4 + 1392] = 0\n  8382: ra = 270, jump @1029\n      : @307 [@dyn 135] (gas: 13)\n  8388: a0 = u64 [s1 + 0x160]\n  8392: a2 = s1 + 0x1918\n  8396: a3 = a2 + 0x500\n  8400: u64 [a3 + 0x60] = a0\n  8403: a0 = u64 [s1 + 0x168]\n  8407: u64 [a3 + 0x58] = a0\n  8410: a0 = u64 [s1 + 0x170]\n  8414: u64 [a3 + 0x50] = a0\n  8417: a1 = s1 + 0x1e60\n  8421: a0 = u64 [s1 + 0x178]\n  8425: u64 [a3 + 0x48] = a0\n  8428: a0 = 0\n  8430: ra = 272, jump @19\n      : @308 [@dyn 136] (gas: 2)\n  8436: a1 = s1 + 0x1918\n  8440: t0 = 274, jump @1348\n      : @309 [@dyn 137] (gas: 3)\n  8446: a1 = s1 + 0x1e40\n  8450: u64 [a2 + 1328] = 0\n  8454: ra = 276, jump @19\n      : @310 [@dyn 138] (gas: 7)\n  8460: a1 = u64 [s1 + 0x198]\n  8464: a0 = sp + 0xffffffffffffffe0\n  8467: a0 = a0 & 0xffffffffffffffe0\n  8470: u64 [s1 + 0x190] = a0\n  8474: sp = a0\n  8476: a0 = i32 [a1]\n  8478: jump @312 if a0 >u 63\n      : @311 (gas: 3)\n  8482: u32 [a1 + 0] = 0x40\n  8485: t0 = 0x116\n  8489: jump @1345\n      : @312 (gas: 1)\n  8492: t0 = 278, jump @1345\n      : @313 [@dyn 139] (gas: 23)\n  8498: a0 = u64 [s1 + 0x188]\n  8502: ecalli 6 // 'hash_keccak_256'\n  8504: a3 = u64 [s1 + 0x198]\n  8508: a0 = u64 [a3 + 0x18]\n  8511: a1 = u64 [a3 + 0x10]\n  8514: a2 = u64 [a3 + 0x8]\n  8517: a3 = u64 [a3]\n  8519: a5 = reverse a0\n  8521: a4 = reverse a1\n  8523: a0 = reverse a2\n  8525: a1 = reverse a3\n  8527: u64 [s1 + 0x168] = a1\n  8531: a2 = u64 [s1 + 0x190]\n  8535: u64 [a2 + 0x18] = a1\n  8538: u64 [s1 + 0x170] = a0\n  8542: u64 [a2 + 0x10] = a0\n  8545: u64 [s1 + 0x160] = a4\n  8549: u64 [a2 + 0x8] = a4\n  8552: u64 [s1 + 0x158] = a5\n  8556: u64 [a2] = a5\n  8558: a0 = s1 + 0x1e20\n  8562: a1 = 0x40\n  8565: ra = 280, jump @17\n      : @314 [@dyn 140] (gas: 17)\n  8571: a1 = s1 + 0x1918\n  8575: a5 = a1 + 0x500\n  8579: a0 = u64 [a5 + 0x20]\n  8582: u64 [s1 + 0x180] = a0\n  8586: a2 = u64 [a5 + 0x18]\n  8589: u64 [s1 + 0x178] = a2\n  8593: a4 = u64 [a5 + 0x10]\n  8596: u64 [s1 + 0x188] = a4\n  8600: a3 = u64 [a5 + 0x8]\n  8603: u64 [s1 + 0x198] = a3\n  8607: u64 [a5] = a0\n  8609: a5 = a1 + 0x400\n  8613: u64 [a5 + 0xf8] = a2\n  8617: u64 [a5 + 0xf0] = a4\n  8621: a0 = s1 + 0x1e00\n  8625: u64 [a5 + 0xe8] = a3\n  8629: ra = 282, jump @934\n      : @315 [@dyn 141] (gas: 3)\n  8635: a0 = s1 + 0x1de0\n  8639: a1 = u64 [s1 + 0x190]\n  8643: ra = 284, jump @21\n      : @316 [@dyn 142] (gas: 13)\n  8649: a3 = s1 + 0x100\n  8653: a0 = u64 [a3 + 0x80]\n  8657: a1 = u64 [a3 + 0x88]\n  8661: a0 = a0 | a1\n  8664: a2 = u64 [a3 + 0x78]\n  8667: a1 = u64 [a3 + 0x98]\n  8671: a1 = a1 | a2\n  8674: a1 = a1 | a0\n  8677: a1 = a1 >> 0x20\n  8680: a0 = a0 | a2\n  8683: a0 = a0 << 0x20\n  8686: a0 = a0 | a1\n  8689: jump @318 if a0 == 0\n      : @317 (gas: 1)\n  8692: jump @534\n      : @318 (gas: 13)\n  8695: a4 = s1 + 0x1918\n  8699: a5 = a4 + 0x400\n  8703: a0 = u64 [a5 + 0xe0]\n  8707: a1 = u64 [a5 + 0xd8]\n  8711: a2 = u64 [a5 + 0xd0]\n  8715: a3 = u64 [a5 + 0xc8]\n  8719: u64 [a5 + 0xa8] = a3\n  8723: u64 [a5 + 0xb0] = a2\n  8727: u64 [a5 + 0xb8] = a1\n  8731: a1 = s1 + 0x1dc0\n  8735: u64 [a5 + 0xc0] = a0\n  8739: a0 = u64 [s1 + 0x198]\n  8743: ra = 286, jump @19\n      : @319 [@dyn 143] (gas: 23)\n  8749: a0 = u64 [s1 + 0x158]\n  8753: a0 = a0 + 0x1\n  8756: a1 = a0 <u 0x1\n  8759: a2 = u64 [s1 + 0x160]\n  8763: a1 = a1 + a2\n  8766: a2 = a0 | a1\n  8769: a2 = a2 <u 0x1\n  8772: a3 = u64 [s1 + 0x170]\n  8776: a2 = a2 + a3\n  8779: a3 = a2 <u a3\n  8782: a4 = u64 [s1 + 0x168]\n  8786: a3 = a3 + a4\n  8789: a4 = s1 + 0x1918\n  8793: a5 = a4 + 0x400\n  8797: u64 [a5 + 0x78] = a2\n  8800: u64 [a5 + 0x70] = a1\n  8803: u64 [a5 + 0x68] = a0\n  8806: a0 = s1 + 0x1da0\n  8810: a1 = s1 + 0x1d80\n  8814: u64 [a5 + 0x80] = a3\n  8818: ra = 0x120\n  8822: t0 = 0x412\n  8826: jump @1339\n      : @320 [@dyn 144] (gas: 13)\n  8829: a4 = s1 + 0x100\n  8833: a0 = u64 [a4 + 0x80]\n  8837: a2 = u64 [a4 + 0x78]\n  8840: a2 = a2 | a0\n  8843: a3 = 0x100000000\n  8853: a0 = 0xffffffe0\n  8863: a1 = u64 [a4 + 0x98]\n  8867: a0 = a1 <u a0\n  8870: a1 = u64 [a4 + 0x88]\n  8874: a0 = 0 if a1 != 0\n  8876: u64 [a4 + 0x90] = a2\n  8880: a0 = 0 if a2 != 0\n  8882: jump @322 if a0 != 0\n      : @321 (gas: 1)\n  8885: jump @534\n      : @322 (gas: 16)\n  8888: a4 = s1 + 0x1918\n  8892: t0 = u64 [a4 + 0x4a0]\n  8896: a5 = a4 + 0x400\n  8900: a1 = u64 [a5 + 0x98]\n  8904: a2 = u64 [a5 + 0x90]\n  8908: u64 [s1 + 0x180] = a3\n  8912: a3 = u64 [a5 + 0x88]\n  8916: a0 = u64 [s1 + 0x198]\n  8920: i32 a0 = a0 + 0x20\n  8923: u64 [a5 + 0x48] = a3\n  8926: u64 [a5 + 0x50] = a2\n  8929: u64 [a5 + 0x58] = a1\n  8932: a1 = s1 + 0x1d60\n  8936: u64 [a4 + 0x460] = t0\n  8940: u64 [s1 + 0x178] = a0\n  8944: ra = 290, jump @19\n      : @323 [@dyn 145] (gas: 3)\n  8950: a1 = u64 [s1 + 0x158]\n  8954: a0 = a1 + 0x2\n  8957: t0 = 292, jump @1303\n      : @324 [@dyn 146] (gas: 11)\n  8963: a5 = a1 + 0x400\n  8967: u64 [a5 + 0x18] = a3\n  8970: u64 [a5 + 0x10] = a2\n  8973: u64 [a5 + 0x8] = a0\n  8976: a2 = a1\n  8978: a0 = s1 + 0x1d40\n  8982: a1 = s1 + 0x1d20\n  8986: u64 [a2 + 0x420] = a4\n  8990: ra = 0x126\n  8994: t0 = 0x412\n  8998: jump @1339\n      : @325 [@dyn 147] (gas: 4)\n  9001: a2 = s1 + 0x100\n  9005: a0 = u64 [a2 + 0x80]\n  9009: a0 = a0 + 0xffffffffffffffc0\n  9012: t0 = 296, jump @1300\n      : @326 [@dyn 148] (gas: 1)\n  9018: jump @328 if a0 != 0\n      : @327 (gas: 1)\n  9021: jump @534\n      : @328 (gas: 16)\n  9024: a5 = s1 + 0x1918\n  9028: t0 = u64 [a5 + 0x440]\n  9032: a0 = a5 + 0x400\n  9036: a1 = u64 [a0 + 0x38]\n  9039: a2 = u64 [a0 + 0x30]\n  9042: a3 = u64 [a0 + 0x28]\n  9045: a0 = u64 [s1 + 0x198]\n  9049: i32 a0 = a0 + 0x40\n  9052: a4 = a5 + 0x300\n  9056: u64 [a4 + 0xe8] = a3\n  9060: u64 [a4 + 0xf0] = a2\n  9064: u64 [a4 + 0xf8] = a1\n  9068: a1 = s1 + 0x1d00\n  9072: u64 [a5 + 0x400] = t0\n  9076: u64 [s1 + 0x150] = a0\n  9080: ra = 298, jump @19\n      : @329 [@dyn 149] (gas: 3)\n  9086: a1 = u64 [s1 + 0x158]\n  9090: a0 = a1 + 0x3\n  9093: t0 = 300, jump @1301\n      : @330 [@dyn 150] (gas: 7)\n  9099: u64 [a5 + 0x90] = a2\n  9103: u64 [a5 + 0x88] = a0\n  9107: u64 [a5 + 0x98] = a3\n  9111: u64 [a5 + 0xa0] = a1\n  9115: a0 = s1 + 0x1ce0\n  9119: a1 = s1 + 0x28a0\n  9123: ra = 302, jump @21\n      : @331 [@dyn 151] (gas: 5)\n  9129: a0 = 0x100000000\n  9139: a2 = s1 + 0x100\n  9143: u64 [a2 + 0x80] = a0\n  9147: a0 = 0xffffffa0\n  9157: t0 = 304, jump @1300\n      : @332 [@dyn 152] (gas: 1)\n  9163: jump @334 if a0 != 0\n      : @333 (gas: 1)\n  9166: jump @534\n      : @334 (gas: 15)\n  9169: a5 = s1 + 0x1918\n  9173: t0 = u64 [a5 + 0x3e0]\n  9177: a4 = a5 + 0x300\n  9181: a1 = u64 [a4 + 0xd8]\n  9185: a2 = u64 [a4 + 0xd0]\n  9189: a3 = u64 [a4 + 0xc8]\n  9193: a0 = u64 [s1 + 0x198]\n  9197: i32 a0 = a0 + 0x60\n  9200: u64 [a4 + 0xa8] = a3\n  9204: u64 [a4 + 0xb0] = a2\n  9208: u64 [a4 + 0xb8] = a1\n  9212: a1 = s1 + 0x1cc0\n  9216: u64 [a5 + 0x3c0] = t0\n  9220: u64 [s1 + 0x148] = a0\n  9224: ra = 306, jump @19\n      : @335 [@dyn 153] (gas: 3)\n  9230: a1 = u64 [s1 + 0x158]\n  9234: a0 = a1 + 0x4\n  9237: t0 = 308, jump @1301\n      : @336 [@dyn 154] (gas: 7)\n  9243: u64 [a5 + 0xb0] = a2\n  9247: u64 [a5 + 0xa8] = a0\n  9251: u64 [a5 + 0xb8] = a3\n  9255: u64 [a5 + 0xc0] = a1\n  9259: a0 = s1 + 0x1ca0\n  9263: a1 = s1 + 0x28c0\n  9267: ra = 310, jump @21\n      : @337 [@dyn 155] (gas: 4)\n  9273: a2 = s1 + 0x100\n  9277: a0 = u64 [a2 + 0x80]\n  9281: a0 = a0 + 0xffffffffffffff80\n  9284: t0 = 312, jump @1300\n      : @338 [@dyn 156] (gas: 1)\n  9290: jump @340 if a0 != 0\n      : @339 (gas: 1)\n  9293: jump @534\n      : @340 (gas: 17)\n  9296: a3 = s1 + 0x1918\n  9300: a5 = a3 + 0x300\n  9304: a2 = u64 [a5 + 0x98]\n  9308: a4 = u64 [a5 + 0x90]\n  9312: a1 = u64 [a5 + 0x88]\n  9316: u64 [s1 + 0x140] = a2\n  9320: a2 = a2 << 0x20\n  9323: a2 = a2 >> 0x20\n  9326: a0 = u64 [s1 + 0x198]\n  9330: i32 a0 = a0 + 0x80\n  9334: u64 [a3 + 896] = 0\n  9338: u64 [a5 + 0x68] = a1\n  9341: u64 [a5 + 0x70] = a4\n  9344: a1 = s1 + 0x1c80\n  9348: u64 [a5 + 0x78] = a2\n  9351: u64 [s1 + 0x138] = a0\n  9355: ra = 314, jump @19\n      : @341 [@dyn 157] (gas: 5)\n  9361: a0 = 0x100000000\n  9371: a2 = s1 + 0x100\n  9375: u64 [a2 + 0x80] = a0\n  9379: a0 = 0xffffff60\n  9389: t0 = 316, jump @1300\n      : @342 [@dyn 158] (gas: 1)\n  9395: jump @344 if a0 != 0\n      : @343 (gas: 1)\n  9398: jump @534\n      : @344 (gas: 14)\n  9401: a0 = 0xff00000000\n  9411: a1 = u64 [s1 + 0x140]\n  9415: a0 = a0 & a1\n  9418: a2 = a0 >u 0\n  9420: a0 = u64 [s1 + 0x198]\n  9424: i32 a0 = a0 + 0xa0\n  9428: a3 = s1 + 0x1918\n  9432: u64 [a3 + 864] = 0\n  9436: u64 [a3 + 856] = 0\n  9440: u64 [a3 + 848] = 0\n  9444: a1 = s1 + 0x1c60\n  9448: u64 [a3 + 0x348] = a2\n  9452: u64 [s1 + 0x140] = a0\n  9456: ra = 318, jump @19\n      : @345 [@dyn 159] (gas: 3)\n  9462: a1 = u64 [s1 + 0x158]\n  9466: a0 = a1 + 0x5\n  9469: t0 = 320, jump @1303\n      : @346 [@dyn 160] (gas: 11)\n  9475: a5 = a1 + 0x300\n  9479: u64 [a5 + 0x18] = a3\n  9482: u64 [a5 + 0x10] = a2\n  9485: u64 [a5 + 0x8] = a0\n  9488: a2 = a1\n  9490: a0 = s1 + 0x1c40\n  9494: a1 = s1 + 0x1c20\n  9498: u64 [a2 + 0x320] = a4\n  9502: ra = 0x142\n  9506: t0 = 0x412\n  9510: jump @1339\n      : @347 [@dyn 161] (gas: 4)\n  9513: a2 = s1 + 0x100\n  9517: a0 = u64 [a2 + 0x80]\n  9521: a0 = a0 + 0xffffffffffffff40\n  9525: t0 = 324, jump @1300\n      : @348 [@dyn 162] (gas: 1)\n  9531: jump @350 if a0 != 0\n      : @349 (gas: 1)\n  9534: jump @534\n      : @350 (gas: 14)\n  9537: a5 = s1 + 0x1918\n  9541: a4 = u64 [a5 + 0x340]\n  9545: a1 = u64 [a5 + 0x338]\n  9549: a2 = u64 [a5 + 0x330]\n  9553: a3 = u64 [a5 + 0x328]\n  9557: a0 = u64 [s1 + 0x198]\n  9561: i32 a0 = a0 + 0xc0\n  9565: u64 [a5 + 0x2e8] = a3\n  9569: u64 [a5 + 0x2f0] = a2\n  9573: u64 [a5 + 0x2f8] = a1\n  9577: a1 = s1 + 0x1c00\n  9581: u64 [a5 + 0x300] = a4\n  9585: u64 [s1 + 0x168] = a0\n  9589: ra = 326, jump @19\n      : @351 [@dyn 163] (gas: 3)\n  9595: a0 = s1 + 0x1be0\n  9599: a1 = 0x40\n  9602: ra = 328, jump @17\n      : @352 [@dyn 164] (gas: 3)\n  9608: t0 = 0x14a\n  9612: a1 = s1 + 0x1918\n  9616: fallthrough\n      : @353 [@dyn 165] (gas: 18)\n  9617: a4 = a1 + 0x200\n  9621: a2 = u64 [a4 + 0xe0]\n  9625: a3 = u64 [a4 + 0xd8]\n  9629: a0 = u64 [a4 + 0xd0]\n  9633: a1 = u64 [a4 + 0xc8]\n  9637: a4 = s1 + 0x100\n  9641: u64 [a4 + 0x88] = a0\n  9645: u64 [a4 + 0x80] = a2\n  9649: a0 = a0 | a2\n  9652: u64 [a4 + 0x90] = a1\n  9656: a1 = a1 | a3\n  9659: a1 = a1 | a0\n  9662: a1 = a1 >> 0x20\n  9665: u64 [a4 + 0x70] = a3\n  9668: a0 = a0 | a3\n  9671: a0 = a0 << 0x20\n  9674: a0 = a0 | a1\n  9677: jump @355 if a0 == 0\n      : @354 (gas: 1)\n  9680: jump @534\n      : @355 (gas: 8)\n  9683: a2 = s1 + 0x1918\n  9687: u64 [a2 + 704] = 0\n  9691: u64 [a2 + 696] = 0\n  9695: u64 [a2 + 688] = 0\n  9699: a1 = s1 + 0x1bc0\n  9703: u64 [a2 + 680] = 0x20\n  9708: a0 = u64 [s1 + 0x190]\n  9712: ra = 332, jump @19\n      : @356 [@dyn 166] (gas: 3)\n  9718: a0 = s1 + 0x1ba0\n  9722: a1 = u64 [s1 + 0x198]\n  9726: ra = 334, jump @17\n      : @357 [@dyn 167] (gas: 14)\n  9732: a3 = s1 + 0x100\n  9736: a0 = u64 [a3 + 0x80]\n  9740: a1 = u64 [a3 + 0x70]\n  9743: a2 = a1 | a0\n  9746: a0 = 0x100000000\n  9756: u64 [a3 + 0x60] = a0\n  9759: a0 = 0xffffffe0\n  9769: a1 = u64 [a3 + 0x90]\n  9773: a0 = a1 <u a0\n  9776: a1 = u64 [a3 + 0x88]\n  9780: a0 = 0 if a1 != 0\n  9782: u64 [a3 + 0x98] = a2\n  9786: a0 = 0 if a2 != 0\n  9788: jump @359 if a0 != 0\n      : @358 (gas: 1)\n  9791: jump @534\n      : @359 (gas: 14)\n  9794: a5 = s1 + 0x1918\n  9798: t0 = u64 [a5 + 0x2a0]\n  9802: a2 = a5 + 0x200\n  9806: a1 = u64 [a2 + 0x98]\n  9810: a3 = u64 [a2 + 0x90]\n  9814: a4 = u64 [a2 + 0x88]\n  9818: a0 = u64 [s1 + 0x190]\n  9822: i32 a0 = a0 + 0x20\n  9825: u64 [a2 + 0x68] = a4\n  9828: u64 [a2 + 0x70] = a3\n  9831: u64 [a2 + 0x78] = a1\n  9834: a1 = s1 + 0x1b80\n  9838: u64 [a5 + 0x280] = t0\n  9842: ra = 336, jump @19\n      : @360 [@dyn 168] (gas: 3)\n  9848: a0 = s1 + 0x1b60\n  9852: a1 = u64 [s1 + 0x178]\n  9856: ra = 338, jump @17\n      : @361 [@dyn 169] (gas: 4)\n  9862: a2 = s1 + 0x100\n  9866: a0 = u64 [a2 + 0x60]\n  9869: a0 = a0 + 0xffffffffffffffc0\n  9872: t0 = 340, jump @1289\n      : @362 [@dyn 170] (gas: 1)\n  9878: jump @364 if a0 != 0\n      : @363 (gas: 1)\n  9881: jump @534\n      : @364 (gas: 18)\n  9884: a2 = s1 + 0x1918\n  9888: a3 = a2 + 0x200\n  9892: a0 = u64 [a3 + 0x60]\n  9895: u64 [s1 + 0x130] = a0\n  9899: a0 = u64 [a3 + 0x58]\n  9902: u64 [s1 + 0x158] = a0\n  9906: a0 = u64 [a3 + 0x50]\n  9909: u64 [s1 + 0x160] = a0\n  9913: a0 = u64 [a3 + 0x48]\n  9916: u64 [s1 + 0x178] = a0\n  9920: a0 = u64 [s1 + 0x190]\n  9924: i32 a0 = a0 + 0x40\n  9927: u64 [a2 + 576] = 0\n  9931: u64 [a2 + 568] = 0\n  9935: u64 [a3 + 40] = 0xe0\n  9940: a1 = s1 + 0x1b40\n  9944: u64 [a2 + 560] = 0\n  9948: ra = 342, jump @19\n      : @365 [@dyn 171] (gas: 31)\n  9954: a1 = u64 [s1 + 0x190]\n  9958: a0 = a1 + 0x100\n  9962: a1 = a0 <u a1\n  9965: a3 = u64 [s1 + 0x188]\n  9969: a2 = a3 + a1\n  9972: a3 = a2 <u a3\n  9975: a3 = a1 if a1 == 0\n  9978: a1 = u64 [s1 + 0x170]\n  9982: a3 = a3 + a1\n  9985: a1 = a3 <u a1\n  9988: a4 = u64 [s1 + 0x180]\n  9992: a4 = a4 + a1\n  9995: a1 = s1 + 0x1918\n  9999: a5 = a1 + 0x100\n 10003: u64 [a5 + 0xd0] = a2\n 10007: u64 [a5 + 0xc8] = a0\n 10011: a0 = u64 [s1 + 0x130]\n 10015: u64 [a1 + 0x200] = a0\n 10019: a0 = u64 [s1 + 0x158]\n 10023: u64 [a5 + 0xf8] = a0\n 10027: a0 = u64 [s1 + 0x160]\n 10031: u64 [a5 + 0xf0] = a0\n 10035: a0 = u64 [s1 + 0x178]\n 10039: u64 [a5 + 0xe8] = a0\n 10043: u64 [a5 + 0xd8] = a3\n 10047: a3 = a1\n 10049: a0 = s1 + 0x1b20\n 10053: a1 = s1 + 0x1b00\n 10057: a2 = s1 + 0x1ae0\n 10061: u64 [a3 + 0x1e0] = a4\n 10065: ra = 344, jump @1009\n      : @366 [@dyn 172] (gas: 3)\n 10071: t0 = 0x15a\n 10075: a1 = s1 + 0x1918\n 10079: fallthrough\n      : @367 [@dyn 173] (gas: 12)\n 10080: a2 = a1 + 0x200\n 10084: a0 = u64 [a2 + 0x20]\n 10087: u64 [s1 + 0x130] = a0\n 10091: a0 = u64 [a2 + 0x18]\n 10094: u64 [s1 + 0x158] = a0\n 10098: a0 = u64 [a2 + 0x10]\n 10101: u64 [s1 + 0x160] = a0\n 10105: a0 = u64 [a2 + 0x8]\n 10108: u64 [s1 + 0x178] = a0\n 10112: a0 = s1 + 0x1ac0\n 10116: a1 = u64 [s1 + 0x150]\n 10120: ra = 348, jump @17\n      : @368 [@dyn 174] (gas: 5)\n 10126: a0 = 0x100000000\n 10136: a2 = s1 + 0x100\n 10140: u64 [a2 + 0x50] = a0\n 10143: a0 = 0xffffffa0\n 10153: t0 = 350, jump @1289\n      : @369 [@dyn 175] (gas: 1)\n 10159: jump @371 if a0 != 0\n      : @370 (gas: 1)\n 10162: jump @534\n      : @371 (gas: 54)\n 10165: a1 = s1 + 0x1918\n 10169: a0 = u64 [a1 + 0x1c0]\n 10173: u64 [s1 + 0x120] = a0\n 10177: a0 = u64 [a1 + 0x1b8]\n 10181: u64 [s1 + 0x128] = a0\n 10185: a0 = u64 [s1 + 0x190]\n 10189: a1 = u64 [s1 + 0x178]\n 10193: a2 = a1 <u a0\n 10196: t2 = a0\n 10198: a3 = u64 [s1 + 0x188]\n 10202: a4 = u64 [s1 + 0x160]\n 10206: t0 = a4 ^ a3\n 10209: a0 = a4 <u a3\n 10212: a0 = a2 if t0 == 0\n 10215: t1 = u64 [s1 + 0x170]\n 10219: t0 = u64 [s1 + 0x158]\n 10223: ra = t0 - t1\n 10226: a3 = a4 - a3\n 10229: a4 = a3 - a2\n 10232: a3 = a1 - t2\n 10235: a2 = a3 + 0xffffffffffffffe0\n 10238: a5 = a2 <u a3\n 10241: a3 = a4 + a5\n 10244: a3 = a3 + 0xffffffffffffffff\n 10247: a1 = a3 ^ a4\n 10250: a4 = a3 <u a4\n 10253: a4 = a5 if a1 == 0\n 10256: t0 = t0 <u t1\n 10259: a5 = u64 [s1 + 0x180]\n 10263: a1 = u64 [s1 + 0x130]\n 10267: a5 = a1 - a5\n 10270: a5 = a5 - t0\n 10273: a1 = ra <u a0\n 10276: a5 = a5 - a1\n 10279: t0 = s1 + 0x1918\n 10283: a1 = u64 [t0 + 0x1b0]\n 10287: u64 [s1 + 0x110] = a1\n 10291: a0 = ra - a0\n 10294: a1 = a0 <u 0x1\n 10297: a5 = a5 - a1\n 10300: a1 = u64 [t0 + 0x1a8]\n 10304: u64 [s1 + 0x118] = a1\n 10308: a0 = a0 + 0xffffffffffffffff\n 10311: a4 = a4 + a0\n 10314: a0 = a4 <u a0\n 10317: a5 = a5 + a0\n 10320: i32 a0 = t2 + 0x60\n 10323: u64 [t0 + 0x188] = a2\n 10327: a2 = t0 + 0x100\n 10331: u64 [a2 + 0x90] = a3\n 10335: u64 [a2 + 0x98] = a4\n 10339: a1 = s1 + 0x1aa0\n 10343: u64 [a2 + 0xa0] = a5\n 10347: ra = 352, jump @19\n      : @372 [@dyn 176] (gas: 23)\n 10353: a0 = s1 + 0x1918\n 10357: a1 = u64 [s1 + 0x130]\n 10361: a2 = a0 + 0x100\n 10365: u64 [a2 + 0x40] = a1\n 10368: a1 = u64 [s1 + 0x158]\n 10372: u64 [a2 + 0x38] = a1\n 10375: a1 = u64 [s1 + 0x160]\n 10379: u64 [a2 + 0x30] = a1\n 10382: a1 = u64 [s1 + 0x178]\n 10386: u64 [a2 + 0x28] = a1\n 10389: a1 = u64 [s1 + 0x120]\n 10393: u64 [a2 + 0x60] = a1\n 10396: a1 = u64 [s1 + 0x128]\n 10400: u64 [a2 + 0x58] = a1\n 10403: a1 = u64 [s1 + 0x110]\n 10407: u64 [a2 + 0x50] = a1\n 10410: a4 = a0\n 10412: a0 = s1 + 0x1a80\n 10416: a1 = s1 + 0x1a60\n 10420: a2 = s1 + 0x1a40\n 10424: a3 = u64 [s1 + 0x118]\n 10428: u64 [a4 + 0x148] = a3\n 10432: ra = 354, jump @1009\n      : @373 [@dyn 177] (gas: 3)\n 10438: t0 = 0x164\n 10442: a1 = s1 + 0x1918\n 10446: fallthrough\n      : @374 [@dyn 178] (gas: 12)\n 10447: a2 = a1 + 0x100\n 10451: a0 = u64 [a2 + 0x80]\n 10455: u64 [s1 + 0x130] = a0\n 10459: a0 = u64 [a2 + 0x78]\n 10462: u64 [s1 + 0x158] = a0\n 10466: a0 = u64 [a2 + 0x70]\n 10469: u64 [s1 + 0x160] = a0\n 10473: a0 = u64 [a2 + 0x68]\n 10476: u64 [s1 + 0x178] = a0\n 10480: a0 = s1 + 0x1a20\n 10484: a1 = u64 [s1 + 0x148]\n 10488: ra = 358, jump @17\n      : @375 [@dyn 179] (gas: 4)\n 10494: a2 = s1 + 0x100\n 10498: a0 = u64 [a2 + 0x50]\n 10501: a0 = a0 + 0xffffffffffffff80\n 10504: t0 = 360, jump @1289\n      : @376 [@dyn 180] (gas: 1)\n 10510: jump @378 if a0 != 0\n      : @377 (gas: 1)\n 10513: jump @534\n      : @378 (gas: 14)\n 10516: a5 = s1 + 0x1918\n 10520: t0 = u64 [a5 + 0x120]\n 10524: a0 = a5 + 0x100\n 10528: a1 = u64 [a0 + 0x18]\n 10531: a3 = u64 [a0 + 0x10]\n 10534: a4 = u64 [a0 + 0x8]\n 10537: a0 = u64 [s1 + 0x190]\n 10541: i32 a0 = a0 + 0x80\n 10545: u64 [a5 + 0xe8] = a4\n 10549: u64 [a5 + 0xf0] = a3\n 10553: u64 [a5 + 0xf8] = a1\n 10557: a1 = s1 + 0x1a00\n 10561: u64 [a5 + 0x100] = t0\n 10565: ra = 362, jump @19\n      : @379 [@dyn 181] (gas: 3)\n 10571: a0 = s1 + 0x19e0\n 10575: a1 = u64 [s1 + 0x138]\n 10579: ra = 364, jump @17\n      : @380 [@dyn 182] (gas: 5)\n 10585: a0 = 0x100000000\n 10595: a2 = s1 + 0x100\n 10599: u64 [a2 + 0x50] = a0\n 10602: a0 = 0xffffff60\n 10612: t0 = 366, jump @1289\n      : @381 [@dyn 183] (gas: 1)\n 10618: jump @383 if a0 != 0\n      : @382 (gas: 1)\n 10621: jump @534\n      : @383 (gas: 16)\n 10624: a5 = s1 + 0x1918\n 10628: a1 = u64 [a5 + 0xd8]\n 10632: a2 = u64 [a5 + 0xd0]\n 10636: a3 = u64 [a5 + 0xc8]\n 10640: a4 = 0xffffffff\n 10650: a4 = a4 & a1\n 10653: a2 = a2 & 0xffffffffffffffff\n 10656: a3 = a3 & 0xffffffffffffffff\n 10659: a0 = u64 [s1 + 0x190]\n 10663: i32 a0 = a0 + 0xa0\n 10667: u64 [a5 + 192] = 0\n 10671: u64 [a5 + 0xa8] = a3\n 10675: u64 [a5 + 0xb0] = a2\n 10679: a1 = s1 + 0x19c0\n 10683: u64 [a5 + 0xb8] = a4\n 10687: ra = 368, jump @19\n      : @384 [@dyn 184] (gas: 3)\n 10693: a0 = s1 + 0x19a0\n 10697: a1 = u64 [s1 + 0x140]\n 10701: ra = 370, jump @17\n      : @385 [@dyn 185] (gas: 4)\n 10707: a2 = s1 + 0x100\n 10711: a0 = u64 [a2 + 0x50]\n 10714: a0 = a0 + 0xffffffffffffff40\n 10718: t0 = 372, jump @1289\n      : @386 [@dyn 186] (gas: 1)\n 10724: jump @388 if a0 != 0\n      : @387 (gas: 1)\n 10727: jump @534\n      : @388 (gas: 17)\n 10730: a4 = s1 + 0x1918\n 10734: a0 = u64 [a4 + 0xa0]\n 10738: a1 = u64 [a4 + 0x98]\n 10742: a2 = u64 [a4 + 0x88]\n 10746: a3 = u64 [a4 + 0x90]\n 10750: a1 = a1 | a2\n 10753: a0 = a0 | a3\n 10756: a0 = a0 | a1\n 10759: a1 = a0 >u 0\n 10761: a0 = u64 [s1 + 0x190]\n 10765: i32 a0 = a0 + 0xc0\n 10769: u64 [a4 + 128] = 0\n 10773: u64 [a4 + 120] = 0\n 10776: u64 [a4 + 0x68] = a1\n 10779: a1 = s1 + 0x1980\n 10783: u64 [a4 + 112] = 0\n 10786: ra = 374, jump @19\n      : @389 [@dyn 187] (gas: 3)\n 10792: a0 = s1 + 0x1960\n 10796: a1 = u64 [s1 + 0x168]\n 10800: ra = 376, jump @17\n      : @390 [@dyn 188] (gas: 3)\n 10806: a0 = 0xffffff20\n 10816: a2 = s1 + 0x100\n 10820: t0 = 378, jump @1289\n      : @391 [@dyn 189] (gas: 1)\n 10826: jump @393 if a0 != 0\n      : @392 (gas: 1)\n 10829: jump @534\n      : @393 (gas: 55)\n 10832: a1 = s1 + 0x1918\n 10836: a0 = u64 [a1 + 0x60]\n 10839: u64 [s1 + 0x168] = a0\n 10843: a0 = u64 [a1 + 0x58]\n 10846: u64 [s1 + 0x198] = a0\n 10850: a0 = u64 [s1 + 0x190]\n 10854: a1 = u64 [s1 + 0x178]\n 10858: a2 = a1 <u a0\n 10861: a5 = a1\n 10863: t2 = a0\n 10865: a3 = u64 [s1 + 0x188]\n 10869: a4 = u64 [s1 + 0x160]\n 10873: a1 = a4 ^ a3\n 10876: a0 = a4 <u a3\n 10879: a0 = a2 if a1 == 0\n 10882: t1 = u64 [s1 + 0x170]\n 10886: t0 = u64 [s1 + 0x158]\n 10890: ra = t0 - t1\n 10893: a3 = a4 - a3\n 10896: a4 = a3 - a2\n 10899: a3 = a5 - t2\n 10902: a2 = a3 + 0xffffffffffffffe0\n 10905: a5 = a2 <u a3\n 10908: a3 = a4 + a5\n 10911: a3 = a3 + 0xffffffffffffffff\n 10914: a1 = a3 ^ a4\n 10917: a4 = a3 <u a4\n 10920: a4 = a5 if a1 == 0\n 10923: t0 = t0 <u t1\n 10926: a5 = u64 [s1 + 0x180]\n 10930: a1 = u64 [s1 + 0x130]\n 10934: a5 = a1 - a5\n 10937: a5 = a5 - t0\n 10940: a1 = ra <u a0\n 10943: a5 = a5 - a1\n 10946: t0 = s1 + 0x1918\n 10950: a1 = u64 [t0 + 0x50]\n 10953: u64 [s1 + 0x148] = a1\n 10957: a0 = ra - a0\n 10960: a1 = a0 <u 0x1\n 10963: a5 = a5 - a1\n 10966: a1 = u64 [t0 + 0x48]\n 10969: u64 [s1 + 0x150] = a1\n 10973: a0 = a0 + 0xffffffffffffffff\n 10976: a4 = a4 + a0\n 10979: a0 = a4 <u a0\n 10982: a5 = a5 + a0\n 10985: i32 a0 = t2 + 0xe0\n 10989: u64 [t0 + 0x28] = a2\n 10992: a2 = t0\n 10994: u64 [a2 + 0x30] = a3\n 10997: u64 [a2 + 0x38] = a4\n 11000: a1 = s1 + 0x1940\n 11004: u64 [a2 + 0x40] = a5\n 11007: ra = 380, jump @19\n      : @394 [@dyn 190] (gas: 24)\n 11013: a0 = s1 + 0x1118\n 11017: a1 = u64 [s1 + 0x130]\n 11021: a2 = a0 + 0x700\n 11025: u64 [a2 + 0xe0] = a1\n 11029: a1 = u64 [s1 + 0x158]\n 11033: u64 [a2 + 0xd8] = a1\n 11037: a1 = u64 [s1 + 0x160]\n 11041: u64 [a2 + 0xd0] = a1\n 11045: a1 = u64 [s1 + 0x178]\n 11049: u64 [a2 + 0xc8] = a1\n 11053: a0 = s1 + 0x1918\n 11057: a1 = u64 [s1 + 0x168]\n 11061: u64 [a0] = a1\n 11063: a1 = u64 [s1 + 0x198]\n 11067: u64 [a0 + 0xfffffffffffffff8] = a1\n 11070: a1 = u64 [s1 + 0x148]\n 11074: u64 [a0 + 0xfffffffffffffff0] = a1\n 11077: a4 = a0\n 11079: a0 = s1 + 0x1920\n 11083: a1 = s1 + 0x1900\n 11087: a2 = s1 + 0x18e0\n 11091: a3 = u64 [s1 + 0x150]\n 11095: u64 [a4 + 0xffffffffffffffe8] = a3\n 11098: ra = 382, jump @1009\n      : @395 [@dyn 191] (gas: 2)\n 11104: a1 = s1 + 0x1918\n 11108: fallthrough\n      : @396 (gas: 32)\n 11109: a0 = u64 [a1 + 0x10]\n 11112: t0 = u64 [a1 + 0x20]\n 11115: t1 = u64 [a1 + 0x8]\n 11118: a3 = u64 [a1 + 0x18]\n 11121: a1 = u64 [s1 + 0x188]\n 11125: a4 = a0 ^ a1\n 11128: a5 = a0 <u a1\n 11131: ra = a1\n 11133: t2 = u64 [s1 + 0x190]\n 11137: a1 = t1 <u t2\n 11140: a5 = a1 if a4 == 0\n 11143: a2 = u64 [s1 + 0x170]\n 11147: a4 = a3 - a2\n 11150: a3 = a3 <u a2\n 11153: a2 = u64 [s1 + 0x180]\n 11157: a2 = t0 - a2\n 11160: a2 = a2 - a3\n 11163: a3 = a4 <u a5\n 11166: a2 = a2 - a3\n 11169: a4 = a4 - a5\n 11172: a0 = a0 - ra\n 11175: a0 = a0 - a1\n 11178: a1 = t1 - t2\n 11181: a0 = a0 | a2\n 11184: a2 = a1\n 11186: a1 = a1 | a4\n 11189: a1 = a1 | a0\n 11192: a0 = a0 | a4\n 11195: a1 = a1 >> 0x20\n 11198: a0 = a0 << 0x20\n 11201: a0 = a0 | a1\n 11204: jump @398 if a0 == 0\n      : @397 (gas: 1)\n 11207: jump @534\n      : @398 (gas: 5)\n 11210: a0 = u64 [s1 + 0x190]\n 11214: a1 = a2\n 11216: u64 [s1 + 0x198] = a2\n 11220: ra = 0x1c8\n 11224: jump @30\n      : @399 (gas: 1)\n 11227: jump @401 if a0 == 2060192544\n      : @400 (gas: 1)\n 11234: jump @765\n      : @401 (gas: 10)\n 11237: u64 [a2 + 1536] = 0\n 11241: u64 [a2 + 1528] = 0\n 11245: u64 [a2 + 1520] = 0\n 11249: u64 [a2 + 1512] = 0\n 11253: a0 = s1 + 0x2000\n 11257: i32 a0 = a0 + 0x700\n 11261: ra = 0x180\n 11265: ecalli 11 // 'value_transferred'\n 11267: t0 = 0x182\n 11271: jump @1351\n      : @402 [@dyn 192] (gas: 1)\n 11274: t0 = 386, jump @1351\n      : @403 [@dyn 193] (gas: 8)\n 11280: a0 = u64 [a4 + 0xf8]\n 11284: a1 = u64 [a3 + 0x600]\n 11288: a2 = u64 [a4 + 0xf0]\n 11292: a3 = u64 [a4 + 0xe8]\n 11296: a1 = a1 | a2\n 11299: a0 = a0 | a3\n 11302: a0 = a0 | a1\n 11305: jump @405 if a0 == 0\n      : @404 (gas: 1)\n 11308: jump @770\n      : @405 (gas: 1)\n 11311: t0 = 388, jump @1349\n      : @406 [@dyn 194] (gas: 1)\n 11317: jump @408 if a1 <u a0\n      : @407 (gas: 1)\n 11320: jump @771\n      : @408 (gas: 7)\n 11323: a0 = s1 + 0x2000\n 11327: i32 a0 = a0 + 0x720\n 11331: a1 = 0x4\n 11334: ra = 0x186\n 11338: ecalli 1 // 'call_data_load'\n 11340: t0 = 0x188\n 11344: jump @1314\n      : @409 [@dyn 195] (gas: 1)\n 11347: t0 = 392, jump @1314\n      : @410 [@dyn 196] (gas: 13)\n 11353: a0 = u64 [a4 + 0x8]\n 11356: a1 = u64 [a4 + 0x10]\n 11359: a2 = u64 [a4 + 0x18]\n 11362: a3 = u64 [a4 + 0x20]\n 11365: a4 = s1 + 0x1118\n 11369: a5 = a4 + 0x500\n 11373: u64 [a5 + 0x60] = a3\n 11376: u64 [a5 + 0x58] = a2\n 11379: u64 [a5 + 0x50] = a1\n 11382: a1 = s1 + 0x1660\n 11386: u64 [a5 + 0x48] = a0\n 11389: a0 = 0\n 11391: ra = 394, jump @19\n      : @411 [@dyn 197] (gas: 2)\n 11397: a1 = s1 + 0x1118\n 11401: t0 = 396, jump @1348\n      : @412 [@dyn 198] (gas: 3)\n 11407: a1 = s1 + 0x1640\n 11411: u64 [a2 + 1328] = 0\n 11415: ra = 398, jump @19\n      : @413 [@dyn 199] (gas: 6)\n 11421: a0 = sp + 0xffffffffffffffe0\n 11424: a0 = a0 & 0xffffffffffffffe0\n 11427: u64 [s1 + 0x178] = a0\n 11431: sp = a0\n 11433: a1 = i32 [0x201bc]\n 11438: jump @415 if a1 >u 63\n      : @414 (gas: 2)\n 11442: u32 [0x201bc] = 0x40\n 11448: fallthrough\n      : @415 (gas: 29)\n 11449: a0 = sp + 0xffffffffffffffe0\n 11452: a2 = a0 & 0xffffffffffffffe0\n 11455: u64 [s1 + 0x198] = a2\n 11459: sp = a2\n 11461: a0 = 0x201d0\n 11466: i32 a0 = a0 + 0\n 11468: i32 a2 = a2 + 0\n 11470: a1 = 0x40\n 11473: ecalli 6 // 'hash_keccak_256'\n 11475: a3 = u64 [s1 + 0x198]\n 11479: a0 = u64 [a3 + 0x18]\n 11482: a1 = u64 [a3 + 0x10]\n 11485: a2 = u64 [a3 + 0x8]\n 11488: a3 = u64 [a3]\n 11490: a5 = reverse a0\n 11492: u64 [s1 + 0x188] = a5\n 11496: a4 = reverse a1\n 11498: u64 [s1 + 0x190] = a4\n 11502: a2 = reverse a2\n 11504: u64 [s1 + 0x180] = a2\n 11508: a0 = reverse a3\n 11510: u64 [s1 + 0x198] = a0\n 11514: a1 = u64 [s1 + 0x178]\n 11518: u64 [a1 + 0x18] = a0\n 11521: u64 [a1 + 0x10] = a2\n 11524: u64 [a1 + 0x8] = a4\n 11527: u64 [a1] = a5\n 11529: a0 = s1 + 0x1620\n 11533: ra = 400, jump @21\n      : @416 [@dyn 200] (gas: 32)\n 11539: a4 = s1 + 0x1118\n 11543: a1 = a4 + 0x500\n 11547: a0 = u64 [a1 + 0x20]\n 11550: u64 [s1 + 0x178] = a0\n 11554: a0 = u64 [a1 + 0x18]\n 11557: u64 [s1 + 0x170] = a0\n 11561: a0 = u64 [a1 + 0x10]\n 11564: u64 [s1 + 0x168] = a0\n 11568: a0 = u64 [a1 + 0x8]\n 11571: u64 [s1 + 0x160] = a0\n 11575: a0 = u64 [s1 + 0x188]\n 11579: a0 = a0 + 0x1\n 11582: a1 = a0 <u 0x1\n 11585: a2 = u64 [s1 + 0x190]\n 11589: a1 = a1 + a2\n 11592: a2 = a0 | a1\n 11595: a2 = a2 <u 0x1\n 11598: a3 = u64 [s1 + 0x180]\n 11602: a2 = a2 + a3\n 11605: a3 = a2 <u a3\n 11608: a5 = u64 [s1 + 0x198]\n 11612: a3 = a3 + a5\n 11615: a5 = a4 + 0x400\n 11619: u64 [a5 + 0xd0] = a1\n 11623: u64 [a5 + 0xc8] = a0\n 11627: u64 [a5 + 0xd8] = a2\n 11631: a0 = s1 + 0x1600\n 11635: a1 = s1 + 0x15e0\n 11639: u64 [a5 + 0xe0] = a3\n 11643: ra = 0x192\n 11647: t0 = 0x412\n 11651: jump @1339\n      : @417 [@dyn 201] (gas: 12)\n 11654: a5 = s1 + 0x1118\n 11658: a0 = u64 [a5 + 0x500]\n 11662: u64 [s1 + 0x140] = a0\n 11666: a0 = u64 [a5 + 0x4f8]\n 11670: u64 [s1 + 0x148] = a0\n 11674: a0 = u64 [a5 + 0x4f0]\n 11678: u64 [s1 + 0x150] = a0\n 11682: a0 = u64 [a5 + 0x4e8]\n 11686: u64 [s1 + 0x158] = a0\n 11690: a0 = u64 [s1 + 0x188]\n 11694: a2 = a0 + 0x2\n 11697: t0 = 404, jump @1306\n      : @418 [@dyn 202] (gas: 9)\n 11703: u64 [a4 + 0xa0] = a0\n 11707: u64 [a4 + 0x98] = a3\n 11711: u64 [a4 + 0x90] = a1\n 11715: a0 = s1 + 0x15c0\n 11719: a1 = s1 + 0x15a0\n 11723: u64 [a4 + 0x88] = a2\n 11727: ra = 0x196\n 11731: t0 = 0x412\n 11735: jump @1339\n      : @419 [@dyn 203] (gas: 1)\n 11738: t0 = 408, jump @1347\n      : @420 [@dyn 204] (gas: 11)\n 11744: a0 = u64 [a2 + 0xc0]\n 11748: u64 [s1 + 0x120] = a0\n 11752: a0 = u64 [a2 + 0xb8]\n 11756: u64 [s1 + 0x128] = a0\n 11760: a0 = u64 [a2 + 0xb0]\n 11764: u64 [s1 + 0x130] = a0\n 11768: a0 = u64 [a2 + 0xa8]\n 11772: u64 [s1 + 0x138] = a0\n 11776: a1 = u64 [s1 + 0x188]\n 11780: a0 = a1 + 0x3\n 11783: t0 = 410, jump @1302\n      : @421 [@dyn 205] (gas: 7)\n 11789: u64 [a5 + 0x40] = a1\n 11792: u64 [a5 + 0x38] = a3\n 11795: u64 [a5 + 0x30] = a2\n 11798: u64 [a5 + 0x28] = a0\n 11801: a0 = s1 + 0x1580\n 11805: a1 = s1 + 0x2740\n 11809: ra = 412, jump @21\n      : @422 [@dyn 206] (gas: 1)\n 11815: t0 = 414, jump @1347\n      : @423 [@dyn 207] (gas: 11)\n 11821: a0 = u64 [a2 + 0x80]\n 11825: u64 [s1 + 0x118] = a0\n 11829: a0 = u64 [a2 + 0x78]\n 11832: u64 [s1 + 0x110] = a0\n 11836: a0 = u64 [a2 + 0x70]\n 11839: u64 [s1 + 0x108] = a0\n 11843: a0 = u64 [a2 + 0x68]\n 11846: u64 [s1 + 0x100] = a0\n 11850: a1 = u64 [s1 + 0x188]\n 11854: a0 = a1 + 0x4\n 11857: t0 = 416, jump @1302\n      : @424 [@dyn 208] (gas: 7)\n 11863: u64 [a5 + 0x60] = a1\n 11866: u64 [a5 + 0x58] = a3\n 11869: u64 [a5 + 0x50] = a2\n 11872: u64 [a5 + 0x48] = a0\n 11875: a0 = s1 + 0x1560\n 11879: a1 = s1 + 0x2760\n 11883: ra = 418, jump @21\n      : @425 [@dyn 209] (gas: 10)\n 11889: a5 = s1 + 0x1118\n 11893: a0 = u64 [a5 + 0x458]\n 11897: u64 [s1 + 0xf8] = a0\n 11901: a0 = u64 [a5 + 0x450]\n 11905: u64 [s1 + 0xf0] = a0\n 11909: a0 = u64 [a5 + 0x448]\n 11913: u64 [s1 + 0xe8] = a0\n 11917: a0 = u64 [s1 + 0x188]\n 11921: a2 = a0 + 0x5\n 11924: t0 = 420, jump @1306\n      : @426 [@dyn 210] (gas: 9)\n 11930: u64 [a4 + 0x20] = a0\n 11933: u64 [a4 + 0x18] = a3\n 11936: u64 [a4 + 0x10] = a1\n 11939: a0 = s1 + 0x1540\n 11943: a1 = s1 + 0x1520\n 11947: u64 [a4 + 0x8] = a2\n 11950: ra = 0x1a6\n 11954: t0 = 0x412\n 11958: jump @1339\n      : @427 [@dyn 211] (gas: 1)\n 11961: t0 = 424, jump @1347\n      : @428 [@dyn 212] (gas: 11)\n 11967: a0 = u64 [a2 + 0x40]\n 11970: u64 [s1 + 0xc8] = a0\n 11974: a0 = u64 [a2 + 0x38]\n 11977: u64 [s1 + 0xd0] = a0\n 11981: a0 = u64 [a2 + 0x30]\n 11984: u64 [s1 + 0xd8] = a0\n 11988: a0 = u64 [a2 + 0x28]\n 11991: u64 [s1 + 0xe0] = a0\n 11995: a0 = s1 + 0x1500\n 11999: a1 = 0x40\n 12002: ra = 426, jump @17\n      : @429 [@dyn 213] (gas: 15)\n 12008: a2 = s1 + 0x1118\n 12012: a4 = u64 [a2 + 0x400]\n 12016: a3 = a2 + 0x300\n 12020: a5 = u64 [a3 + 0xf8]\n 12024: a1 = u64 [a3 + 0xf0]\n 12028: a0 = u64 [a3 + 0xe8]\n 12032: u64 [s1 + 0x198] = a1\n 12036: a3 = a1 | a4\n 12039: a1 = a0 | a5\n 12042: a1 = a1 | a3\n 12045: a1 = a1 >> 0x20\n 12048: a3 = a3 | a5\n 12051: a3 = a3 << 0x20\n 12054: a1 = a1 | a3\n 12057: jump @534 if a1 != 0\n      : @430 (gas: 13)\n 12061: a1 = u64 [s1 + 0x160]\n 12065: u64 [a2 + 0x3c8] = a1\n 12069: a1 = u64 [s1 + 0x168]\n 12073: u64 [a2 + 0x3d0] = a1\n 12077: a1 = u64 [s1 + 0x170]\n 12081: u64 [a2 + 0x3d8] = a1\n 12085: a1 = s1 + 0x14e0\n 12089: a3 = u64 [s1 + 0x178]\n 12093: u64 [a2 + 0x3e0] = a3\n 12097: u64 [s1 + 0x190] = a0\n 12101: u64 [s1 + 0x188] = a4\n 12105: u64 [s1 + 0x180] = a5\n 12109: ra = 428, jump @19\n      : @431 [@dyn 214] (gas: 11)\n 12115: t0 = u64 [s1 + 0x180]\n 12119: a3 = u64 [s1 + 0x188]\n 12123: a1 = u64 [s1 + 0x190]\n 12127: a5 = t0 | a3\n 12130: a4 = 0x100000000\n 12140: a0 = 0xffffffe0\n 12150: a0 = a1 <u a0\n 12153: a2 = u64 [s1 + 0x198]\n 12157: a0 = 0 if a2 != 0\n 12159: a0 = 0 if a5 != 0\n 12161: jump @534 if a0 == 0\n      : @432 (gas: 10)\n 12165: i32 a0 = a1 + 0x20\n 12168: a2 = s1 + 0x1118\n 12172: u64 [a2 + 960] = 0\n 12176: u64 [a2 + 952] = 0\n 12180: u64 [a2 + 936] = 0xe0\n 12186: a1 = s1 + 0x14c0\n 12190: u64 [a2 + 944] = 0\n 12194: u64 [s1 + 0x178] = a5\n 12198: u64 [s1 + 0x170] = a4\n 12202: ra = 430, jump @19\n      : @433 [@dyn 215] (gas: 6)\n 12208: a0 = u64 [s1 + 0x190]\n 12212: a0 = a0 + 0xe0\n 12216: a1 = u64 [s1 + 0x190]\n 12220: a1 = a0 <u a1\n 12223: a3 = u64 [s1 + 0x198]\n 12227: t0 = 432, jump @1318\n      : @434 [@dyn 216] (gas: 19)\n 12233: a1 = s1 + 0x1118\n 12237: a5 = a1 + 0x300\n 12241: u64 [a5 + 0x50] = a2\n 12244: u64 [a5 + 0x48] = a0\n 12247: a0 = u64 [s1 + 0x140]\n 12251: u64 [a5 + 0x80] = a0\n 12255: a0 = u64 [s1 + 0x148]\n 12259: u64 [a5 + 0x78] = a0\n 12262: a0 = u64 [s1 + 0x150]\n 12266: u64 [a5 + 0x70] = a0\n 12269: a0 = u64 [s1 + 0x158]\n 12273: u64 [a5 + 0x68] = a0\n 12276: u64 [a5 + 0x58] = a3\n 12279: a3 = a1\n 12281: a0 = s1 + 0x14a0\n 12285: a1 = s1 + 0x1480\n 12289: a2 = s1 + 0x1460\n 12293: u64 [a3 + 0x360] = a4\n 12297: ra = 434, jump @1009\n      : @435 [@dyn 217] (gas: 5)\n 12303: a3 = s1 + 0x100\n 12307: a1 = u64 [a3 + 0x90]\n 12311: a0 = u64 [a3 + 0x70]\n 12314: a0 = a0 + 0xffffffffffffffc0\n 12317: t0 = 436, jump @1325\n      : @436 [@dyn 218] (gas: 1)\n 12323: jump @534 if a0 == 0\n      : @437 (gas: 39)\n 12327: a0 = s1 + 0x1118\n 12331: t1 = u64 [a0 + 0x388]\n 12335: a4 = u64 [a0 + 0x390]\n 12339: t2 = u64 [a0 + 0x3a0]\n 12343: u64 [s1 + 0x168] = t2\n 12347: ra = u64 [a0 + 0x398]\n 12351: t0 = t1 <u a1\n 12354: u64 [s1 + 0x158] = t1\n 12358: a3 = u64 [s1 + 0x198]\n 12362: a1 = a4 ^ a3\n 12365: a2 = a4 <u a3\n 12368: a0 = a4\n 12370: u64 [s1 + 0x160] = a4\n 12374: a5 = a3\n 12376: a2 = t0 if a1 == 0\n 12379: a3 = u64 [s1 + 0x180]\n 12383: u64 [s1 + 0x170] = ra\n 12387: a1 = ra - a3\n 12390: a3 = ra <u a3\n 12393: a4 = u64 [s1 + 0x188]\n 12397: a4 = t2 - a4\n 12400: a4 = a4 - a3\n 12403: a3 = a1 <u a2\n 12406: a4 = a4 - a3\n 12409: a1 = a1 - a2\n 12412: a2 = a0 - a5\n 12415: a2 = a2 - t0\n 12418: a0 = u64 [s1 + 0x190]\n 12422: a3 = t1 - a0\n 12425: a0 = u64 [s1 + 0x190]\n 12429: i32 a0 = a0 + 0x40\n 12432: a5 = s1 + 0x1118\n 12436: u64 [a5 + 0x328] = a3\n 12440: a3 = a5 + 0x300\n 12444: u64 [a3 + 0x30] = a2\n 12447: u64 [a3 + 0x38] = a1\n 12450: a1 = s1 + 0x1440\n 12454: u64 [a3 + 0x40] = a4\n 12457: ra = 438, jump @19\n      : @438 [@dyn 219] (gas: 23)\n 12463: a1 = s1 + 0x1118\n 12467: a0 = u64 [s1 + 0x168]\n 12471: a2 = a1 + 0x200\n 12475: u64 [a2 + 0xe0] = a0\n 12479: a0 = u64 [s1 + 0x170]\n 12483: u64 [a2 + 0xd8] = a0\n 12487: a0 = u64 [s1 + 0x160]\n 12491: u64 [a2 + 0xd0] = a0\n 12495: a0 = u64 [s1 + 0x158]\n 12499: u64 [a2 + 0xc8] = a0\n 12503: a0 = u64 [s1 + 0x120]\n 12507: u64 [a1 + 0x300] = a0\n 12511: a0 = u64 [s1 + 0x128]\n 12515: u64 [a2 + 0xf8] = a0\n 12519: a0 = u64 [s1 + 0x130]\n 12523: u64 [a2 + 0xf0] = a0\n 12527: a4 = a1\n 12529: a0 = s1 + 0x1420\n 12533: a1 = s1 + 0x1400\n 12537: a2 = s1 + 0x13e0\n 12541: a3 = u64 [s1 + 0x138]\n 12545: u64 [a4 + 0x2e8] = a3\n 12549: ra = 440, jump @1009\n      : @439 [@dyn 220] (gas: 10)\n 12555: a4 = s1 + 0x100\n 12559: a1 = u64 [a4 + 0x90]\n 12563: a3 = 0x100000000\n 12573: a0 = 0xffffffa0\n 12583: a0 = a1 <u a0\n 12586: a2 = u64 [a4 + 0x98]\n 12590: a0 = 0 if a2 != 0\n 12592: a2 = u64 [a4 + 0x78]\n 12595: a0 = 0 if a2 != 0\n 12597: jump @534 if a0 == 0\n      : @440 (gas: 23)\n 12601: a2 = s1 + 0x1118\n 12605: a4 = a2 + 0x300\n 12609: a0 = u64 [a4 + 0x20]\n 12612: u64 [s1 + 0x150] = a0\n 12616: a0 = u64 [a4 + 0x18]\n 12619: u64 [s1 + 0x158] = a0\n 12623: a0 = u64 [a4 + 0x10]\n 12626: u64 [s1 + 0x160] = a0\n 12630: a0 = u64 [a4 + 0x8]\n 12633: u64 [s1 + 0x168] = a0\n 12637: i32 a0 = a1 + 0x60\n 12640: a1 = u64 [s1 + 0x100]\n 12644: a4 = a2 + 0x200\n 12648: u64 [a4 + 0xa8] = a1\n 12652: a1 = u64 [s1 + 0x108]\n 12656: u64 [a4 + 0xb0] = a1\n 12660: a1 = u64 [s1 + 0x110]\n 12664: u64 [a4 + 0xb8] = a1\n 12668: a1 = s1 + 0x13c0\n 12672: u64 [s1 + 0x170] = a3\n 12676: a3 = u64 [s1 + 0x118]\n 12680: u64 [a4 + 0xc0] = a3\n 12684: ra = 442, jump @19\n      : @441 [@dyn 221] (gas: 5)\n 12690: a3 = s1 + 0x100\n 12694: a1 = u64 [a3 + 0x90]\n 12698: a0 = u64 [a3 + 0x70]\n 12701: a0 = a0 + 0xffffffffffffff80\n 12704: t0 = 444, jump @1325\n      : @442 [@dyn 222] (gas: 1)\n 12710: jump @534 if a0 == 0\n      : @443 (gas: 14)\n 12714: a0 = u64 [s1 + 0xf8]\n 12718: a0 = a0 << 0x20\n 12721: a2 = a0 >> 0x20\n 12724: i32 a0 = a1 + 0x80\n 12728: a3 = s1 + 0x1118\n 12732: u64 [a3 + 672] = 0\n 12736: a1 = u64 [s1 + 0xe8]\n 12740: a4 = a3 + 0x200\n 12744: u64 [a4 + 0x88] = a1\n 12748: a1 = u64 [s1 + 0xf0]\n 12752: u64 [a4 + 0x90] = a1\n 12756: a1 = s1 + 0x13a0\n 12760: u64 [a4 + 0x98] = a2\n 12764: ra = 446, jump @19\n      : @444 [@dyn 223] (gas: 10)\n 12770: a5 = s1 + 0x100\n 12774: a3 = u64 [a5 + 0x78]\n 12777: a2 = u64 [a5 + 0x90]\n 12781: a4 = 0x100000000\n 12791: a0 = 0xffffff60\n 12801: a0 = a2 <u a0\n 12804: a1 = u64 [a5 + 0x98]\n 12808: a0 = 0 if a1 != 0\n 12810: a0 = 0 if a3 != 0\n 12812: jump @534 if a0 == 0\n      : @445 (gas: 13)\n 12816: a0 = 0xff00000000\n 12826: a1 = u64 [s1 + 0xf8]\n 12830: a0 = a0 & a1\n 12833: a1 = a0 >u 0\n 12835: i32 a0 = a2 + 0xa0\n 12839: a2 = s1 + 0x1118\n 12843: u64 [a2 + 640] = 0\n 12847: u64 [a2 + 632] = 0\n 12851: u64 [a2 + 0x268] = a1\n 12855: a1 = s1 + 0x1380\n 12859: u64 [a2 + 624] = 0\n 12863: u64 [s1 + 0x170] = a4\n 12867: ra = 448, jump @19\n      : @446 [@dyn 224] (gas: 5)\n 12873: a3 = s1 + 0x100\n 12877: a1 = u64 [a3 + 0x90]\n 12881: a0 = u64 [a3 + 0x70]\n 12884: a0 = a0 + 0xffffffffffffff40\n 12888: t0 = 450, jump @1325\n      : @447 [@dyn 225] (gas: 1)\n 12894: jump @534 if a0 == 0\n      : @448 (gas: 35)\n 12898: a2 = u64 [s1 + 0x168]\n 12902: t1 = a2 <u a1\n 12905: t0 = a2\n 12907: a3 = u64 [s1 + 0x198]\n 12911: a4 = u64 [s1 + 0x160]\n 12915: a1 = a4 ^ a3\n 12918: a2 = a4 <u a3\n 12921: a0 = a4\n 12923: a5 = a3\n 12925: a2 = t1 if a1 == 0\n 12928: a3 = u64 [s1 + 0x180]\n 12932: a4 = u64 [s1 + 0x158]\n 12936: a1 = a4 - a3\n 12939: t2 = a4 <u a3\n 12942: a4 = u64 [s1 + 0x188]\n 12946: a3 = u64 [s1 + 0x150]\n 12950: a4 = a3 - a4\n 12953: a4 = a4 - t2\n 12956: a3 = a1 <u a2\n 12959: a4 = a4 - a3\n 12962: a1 = a1 - a2\n 12965: a2 = a0 - a5\n 12968: a2 = a2 - t1\n 12971: a0 = u64 [s1 + 0x190]\n 12975: a3 = t0 - a0\n 12978: a0 = u64 [s1 + 0x190]\n 12982: i32 a0 = a0 + 0xc0\n 12986: a5 = s1 + 0x1118\n 12990: u64 [a5 + 0x248] = a3\n 12994: a3 = a5 + 0x200\n 12998: u64 [a3 + 0x50] = a2\n 13001: u64 [a3 + 0x58] = a1\n 13004: a1 = s1 + 0x1360\n 13008: u64 [a3 + 0x60] = a4\n 13011: ra = 452, jump @19\n      : @449 [@dyn 226] (gas: 24)\n 13017: a1 = s1 + 0x1118\n 13021: a0 = u64 [s1 + 0x150]\n 13025: a2 = a1 + 0x200\n 13029: u64 [a2] = a0\n 13031: a0 = u64 [s1 + 0x158]\n 13035: a3 = a1 + 0x100\n 13039: u64 [a3 + 0xf8] = a0\n 13043: a0 = u64 [s1 + 0x160]\n 13047: u64 [a3 + 0xf0] = a0\n 13051: a0 = u64 [s1 + 0x168]\n 13055: u64 [a3 + 0xe8] = a0\n 13059: a0 = u64 [s1 + 0xc8]\n 13063: u64 [a2 + 0x20] = a0\n 13066: a0 = u64 [s1 + 0xd0]\n 13070: u64 [a2 + 0x18] = a0\n 13073: a0 = u64 [s1 + 0xd8]\n 13077: u64 [a2 + 0x10] = a0\n 13080: a4 = a1\n 13082: a0 = s1 + 0x1340\n 13086: a1 = s1 + 0x1320\n 13090: a2 = s1 + 0x1300\n 13094: a3 = u64 [s1 + 0xe0]\n 13098: u64 [a4 + 0x208] = a3\n 13102: ra = 454, jump @1009\n      : @450 [@dyn 227] (gas: 33)\n 13108: a0 = s1 + 0x1118\n 13112: a1 = u64 [a0 + 0x230]\n 13116: t0 = u64 [a0 + 0x240]\n 13120: t1 = u64 [a0 + 0x228]\n 13124: a3 = u64 [a0 + 0x238]\n 13128: a0 = u64 [s1 + 0x198]\n 13132: a4 = a1 ^ a0\n 13135: a5 = a1 <u a0\n 13138: ra = a0\n 13140: a0 = u64 [s1 + 0x190]\n 13144: t2 = t1 <u a0\n 13147: a5 = t2 if a4 == 0\n 13150: a0 = u64 [s1 + 0x180]\n 13154: a4 = a3 - a0\n 13157: a3 = a3 <u a0\n 13160: a0 = u64 [s1 + 0x188]\n 13164: a2 = t0 - a0\n 13167: a2 = a2 - a3\n 13170: a3 = a4 <u a5\n 13173: a2 = a2 - a3\n 13176: a0 = u64 [s1 + 0x190]\n 13180: a4 = a4 - a5\n 13183: a1 = a1 - ra\n 13186: a3 = a1 - t2\n 13189: a1 = t1 - a0\n 13192: a2 = a2 | a3\n 13195: a3 = a1 | a4\n 13198: a3 = a3 | a2\n 13201: a2 = a2 | a4\n 13204: a3 = a3 >> 0x20\n 13207: a2 = a2 << 0x20\n 13210: a2 = a2 | a3\n 13213: jump @534 if a2 != 0\n      : @451 (gas: 2)\n 13217: u64 [s1 + 0x198] = a1\n 13221: ra = 456, jump @30\n      : @452 [@dyn 228] (gas: 5)\n 13227: i32 a1 = a0 + 0\n 13229: a2 = i32 [s1 + 0x198]\n 13233: a0 = 0\n 13235: ecalli 8 // 'seal_return'\n 13237: jump @512\n      : @453 (gas: 8)\n 13240: u64 [a2 + 192] = 0\n 13244: u64 [a2 + 184] = 0\n 13248: u64 [a2 + 176] = 0\n 13252: u64 [a2 + 168] = 0\n 13256: a0 = s1 + 0x2000\n 13260: i32 a0 = a0 + 0x1c0\n 13264: ecalli 11 // 'value_transferred'\n 13266: fallthrough\n      : @454 (gas: 9)\n 13267: a3 = s1 + 0x2118\n 13271: a0 = u64 [a3 + 0xb8]\n 13275: a1 = u64 [a3 + 0xc0]\n 13279: a2 = u64 [a3 + 0xb0]\n 13283: a3 = u64 [a3 + 0xa8]\n 13287: a1 = a1 | a2\n 13290: a0 = a0 | a3\n 13293: a0 = a0 | a1\n 13296: jump @456 if a0 == 0\n      : @455 (gas: 1)\n 13299: jump @772\n      : @456 (gas: 3)\n 13302: a0 = u64 [s1 + 0x198]\n 13306: a0 = i32 [a0]\n 13308: jump @458 if a0 >u 3\n      : @457 (gas: 1)\n 13312: jump @773\n      : @458 (gas: 3)\n 13315: a0 = s1 + 0x1e0\n 13319: a1 = 0x40\n 13322: ra = 458, jump @17\n      : @459 [@dyn 229] (gas: 13)\n 13328: a4 = s1 + 0x100\n 13332: a3 = u64 [a4 + 0xf8]\n 13336: a1 = u64 [a4 + 0xf0]\n 13340: a2 = u64 [a4 + 0xe8]\n 13344: a0 = u64 [a4 + 0xe0]\n 13348: a3 = a3 | a2\n 13351: a2 = a0 | a1\n 13354: a2 = a2 | a3\n 13357: a2 = a2 >> 0x20\n 13360: a1 = a1 | a3\n 13363: a1 = a1 << 0x20\n 13366: a1 = a1 | a2\n 13369: jump @534 if a1 != 0\n      : @460 (gas: 13)\n 13373: a1 = u64 [0x20040]\n 13378: a4 = s1 + 0x100\n 13382: u64 [a4 + 0xd8] = a1\n 13386: a3 = u64 [0x20048]\n 13391: a1 = u64 [0x20050]\n 13396: a2 = u64 [0x20058]\n 13401: u64 [a4 + 0xd0] = a3\n 13405: u64 [a4 + 0xc8] = a1\n 13409: a1 = s1 + 0x1c0\n 13413: u64 [a4 + 0xc0] = a2\n 13417: u64 [s1 + 0x198] = a0\n 13421: ra = 0x1fe\n 13425: jump @19\n      : @461 (gas: 8)\n 13428: u64 [t1 + 32] = 0\n 13431: u64 [t1 + 24] = 0\n 13434: u64 [t1 + 16] = 0\n 13437: u64 [t1 + 8] = 0\n 13440: a0 = s1 + 0x3000\n 13444: i32 a0 = a0 + 0xfffffffffffff920\n 13448: ecalli 11 // 'value_transferred'\n 13450: fallthrough\n      : @462 (gas: 9)\n 13451: a3 = s1 + 0x2918\n 13455: a0 = u64 [a3 + 0x18]\n 13458: a1 = u64 [a3 + 0x20]\n 13461: a2 = u64 [a3 + 0x10]\n 13464: a3 = u64 [a3 + 0x8]\n 13467: a1 = a1 | a2\n 13470: a0 = a0 | a3\n 13473: a0 = a0 | a1\n 13476: jump @464 if a0 == 0\n      : @463 (gas: 1)\n 13479: jump @774\n      : @464 (gas: 3)\n 13482: a0 = u64 [s1 + 0x198]\n 13486: a0 = i32 [a0]\n 13488: jump @466 if a0 >u 3\n      : @465 (gas: 1)\n 13492: jump @775\n      : @466 (gas: 3)\n 13495: a0 = s1 + 0x2120\n 13499: a1 = 0x40\n 13502: ra = 460, jump @17\n      : @467 [@dyn 230] (gas: 6)\n 13508: a3 = s1 + 0x2118\n 13512: a4 = u64 [a3 + 0x20]\n 13515: a1 = u64 [a3 + 0x18]\n 13518: a2 = u64 [a3 + 0x10]\n 13521: a0 = u64 [a3 + 0x8]\n 13524: t0 = 462, jump @1327\n      : @468 [@dyn 231] (gas: 1)\n 13530: jump @534 if a1 != 0\n      : @469 (gas: 13)\n 13534: a1 = u64 [0x20000]\n 13539: u64 [a3] = a1\n 13541: a4 = u64 [0x20008]\n 13546: a1 = u64 [0x20010]\n 13551: a2 = u64 [0x20018]\n 13556: a5 = a3 + 0xffffffffffffff00\n 13560: u64 [a5 + 0xf8] = a4\n 13564: u64 [a5 + 0xf0] = a1\n 13568: a1 = s1 + 0x2100\n 13572: u64 [a5 + 0xe8] = a2\n 13576: u64 [s1 + 0x198] = a0\n 13580: ra = 0x1fe\n 13584: jump @19\n      : @470 (gas: 10)\n 13587: u64 [a2 + 1728] = 0\n 13591: u64 [a2 + 1720] = 0\n 13595: u64 [a2 + 1712] = 0\n 13599: u64 [a2 + 1704] = 0\n 13603: a0 = s1 + 0x2000\n 13607: i32 a0 = a0 + 0x7c0\n 13611: ra = 0x1d0\n 13615: ecalli 11 // 'value_transferred'\n 13617: t0 = 0x1d2\n 13621: jump @1314\n      : @471 [@dyn 232] (gas: 1)\n 13624: t0 = 466, jump @1314\n      : @472 [@dyn 233] (gas: 1)\n 13630: t0 = 468, jump @1342\n      : @473 [@dyn 234] (gas: 1)\n 13636: jump @475 if a0 == 0\n      : @474 (gas: 1)\n 13639: jump @776\n      : @475 (gas: 4)\n 13642: a0 = u64 [s1 + 0x198]\n 13646: a0 = i32 [a0]\n 13648: a1 = 0x43\n 13651: jump @477 if a1 <u a0\n      : @476 (gas: 1)\n 13654: jump @777\n      : @477 (gas: 4)\n 13657: a0 = s1 + 0x1840\n 13661: ra = 0x1d6\n 13665: t0 = 0x3d2\n 13669: jump @1355\n      : @478 [@dyn 235] (gas: 16)\n 13672: a1 = s1 + 0x1118\n 13676: a2 = a1 + 0x700\n 13680: a0 = u64 [a2 + 0x38]\n 13683: a1 = s1 + 0x100\n 13687: u64 [a1 + 0x88] = a0\n 13691: a0 = u64 [a2 + 0x30]\n 13694: u64 [a1 + 0x90] = a0\n 13698: a0 = u64 [a2 + 0x28]\n 13701: u64 [a1 + 0x98] = a0\n 13705: a0 = s1 + 0x2000\n 13709: i32 a0 = a0 + 0x7e0\n 13713: a1 = 0x4\n 13716: ra = 0x1d8\n 13720: ecalli 1 // 'call_data_load'\n 13722: t0 = 0x1da\n 13726: jump @1314\n      : @479 [@dyn 236] (gas: 1)\n 13729: t0 = 474, jump @1314\n      : @480 [@dyn 237] (gas: 13)\n 13735: a0 = u64 [a4 + 0xc8]\n 13739: a1 = u64 [a4 + 0xd0]\n 13743: a2 = u64 [a4 + 0xd8]\n 13747: a3 = u64 [a4 + 0xe0]\n 13751: a4 = s1 + 0x1118\n 13755: a5 = a4 + 0x700\n 13759: u64 [a5 + 0x20] = a3\n 13762: u64 [a5 + 0x18] = a2\n 13765: u64 [a5 + 0x10] = a1\n 13768: a1 = s1 + 0x1820\n 13772: u64 [a5 + 0x8] = a0\n 13775: a0 = 0\n 13777: ra = 476, jump @19\n      : @481 [@dyn 238] (gas: 9)\n 13783: a0 = s1 + 0x1118\n 13787: u64 [a0 + 1792] = 0\n 13791: u64 [a0 + 1784] = 0\n 13795: u64 [a0 + 1776] = 0\n 13799: a2 = a0\n 13801: a0 = 0x20\n 13804: a1 = s1 + 0x1800\n 13808: u64 [a2 + 1768] = 0\n 13812: ra = 478, jump @19\n      : @482 [@dyn 239] (gas: 3)\n 13818: a1 = 0x201bc\n 13823: a0 = i32 [0x201bc]\n 13828: jump @484 if a0 >u 63\n      : @483 (gas: 3)\n 13832: u32 [0x201bc] = 0x40\n 13838: t0 = 0x1e0\n 13842: jump @1343\n      : @484 (gas: 1)\n 13845: t0 = 480, jump @1343\n      : @485 [@dyn 240] (gas: 11)\n 13851: a0 = 0x201d0\n 13856: i32 a0 = a0 + 0\n 13858: i32 a2 = a2 + 0\n 13860: u64 [s1 + 0x180] = a1\n 13864: a1 = 0x40\n 13867: u64 [s1 + 0x178] = a0\n 13871: ra = 0x1e2\n 13875: ecalli 6 // 'hash_keccak_256'\n 13877: a3 = u64 [s1 + 0x170]\n 13881: t0 = 0x1e4\n 13885: jump @1329\n      : @486 [@dyn 241] (gas: 2)\n 13888: a3 = u64 [s1 + 0x170]\n 13892: t0 = 484, jump @1329\n      : @487 [@dyn 242] (gas: 25)\n 13898: u64 [s1 + 0x168] = a0\n 13902: a0 = reverse a1\n 13904: u64 [s1 + 0x160] = a0\n 13908: a0 = reverse a2\n 13910: u64 [s1 + 0x158] = a0\n 13914: a0 = reverse a3\n 13916: u64 [s1 + 0x150] = a0\n 13920: a0 = sp + 0xffffffffffffffe0\n 13923: a0 = a0 & 0xffffffffffffffe0\n 13926: u64 [s1 + 0x170] = a0\n 13930: sp = a0\n 13932: a0 = u64 [s1 + 0x188]\n 13936: a0 = a0 << 0x20\n 13939: a0 = a0 >> 0x20\n 13942: a2 = s1 + 0x1118\n 13946: u64 [a2 + 1760] = 0\n 13950: a3 = a2 + 0x600\n 13954: u64 [a3 + 0xd8] = a0\n 13958: a0 = u64 [s1 + 0x190]\n 13962: u64 [a3 + 0xd0] = a0\n 13966: a1 = s1 + 0x17e0\n 13970: a0 = u64 [s1 + 0x198]\n 13974: u64 [a3 + 0xc8] = a0\n 13978: a0 = 0\n 13980: ra = 486, jump @19\n      : @488 [@dyn 243] (gas: 14)\n 13986: a0 = u64 [s1 + 0x150]\n 13990: a1 = s1 + 0x1118\n 13994: a2 = a1 + 0x600\n 13998: u64 [a2 + 0xc0] = a0\n 14002: a0 = u64 [s1 + 0x158]\n 14006: u64 [a2 + 0xb8] = a0\n 14010: a0 = u64 [s1 + 0x160]\n 14014: u64 [a2 + 0xb0] = a0\n 14018: a3 = a1\n 14020: a0 = 0x20\n 14023: a1 = s1 + 0x17c0\n 14027: a2 = u64 [s1 + 0x168]\n 14031: u64 [a3 + 0x6a8] = a2\n 14035: ra = 488, jump @19\n      : @489 [@dyn 244] (gas: 3)\n 14041: a1 = u64 [s1 + 0x180]\n 14045: a0 = i32 [a1]\n 14047: jump @491 if a0 >u 63\n      : @490 (gas: 3)\n 14051: u32 [a1 + 0] = 0x40\n 14054: t0 = 0x1ea\n 14058: jump @1345\n      : @491 (gas: 1)\n 14061: t0 = 490, jump @1345\n      : @492 [@dyn 245] (gas: 6)\n 14067: a0 = u64 [s1 + 0x178]\n 14071: ra = 0x1ec\n 14075: ecalli 6 // 'hash_keccak_256'\n 14077: a3 = u64 [s1 + 0x198]\n 14081: t0 = 0x1ee\n 14085: jump @1280\n      : @493 [@dyn 246] (gas: 2)\n 14088: a3 = u64 [s1 + 0x198]\n 14092: t0 = 494, jump @1280\n      : @494 [@dyn 247] (gas: 7)\n 14098: a1 = u64 [s1 + 0x170]\n 14102: u64 [a1 + 0x18] = a3\n 14105: u64 [a1 + 0x10] = a2\n 14108: u64 [a1 + 0x8] = a4\n 14111: u64 [a1] = a0\n 14113: a0 = s1 + 0x17a0\n 14117: ra = 496, jump @21\n      : @495 [@dyn 248] (gas: 6)\n 14123: a0 = s1 + 0x1118\n 14127: a0 = u64 [a0 + 0x688]\n 14131: u64 [s1 + 0x198] = a0\n 14135: a0 = s1 + 0x1780\n 14139: a1 = 0x40\n 14142: ra = 498, jump @17\n      : @496 [@dyn 249] (gas: 7)\n 14148: a3 = s1 + 0x1118\n 14152: a5 = a3 + 0x600\n 14156: a4 = u64 [a5 + 0x80]\n 14160: a1 = u64 [a5 + 0x78]\n 14163: a2 = u64 [a5 + 0x70]\n 14166: a0 = u64 [a5 + 0x68]\n 14169: t0 = 500, jump @1327\n      : @497 [@dyn 250] (gas: 1)\n 14175: jump @534 if a1 != 0\n      : @498 (gas: 10)\n 14179: a1 = u8 [s1 + 0x198]\n 14183: a1 = a1 >u 0\n 14185: u64 [a3 + 1632] = 0\n 14189: u64 [a3 + 1624] = 0\n 14193: u64 [a3 + 0x648] = a1\n 14197: a1 = s1 + 0x1760\n 14201: u64 [a3 + 1616] = 0\n 14205: u64 [s1 + 0x198] = a0\n 14209: ra = 0x1fe\n 14213: jump @19\n      : @499 (gas: 10)\n 14216: u64 [a2 + 1824] = 0\n 14220: u64 [a2 + 1816] = 0\n 14224: u64 [a2 + 1808] = 0\n 14228: u64 [a2 + 1800] = 0\n 14232: a0 = s1 + 0x3000\n 14236: i32 a0 = a0 + 0xfffffffffffff820\n 14240: ra = 0x1f6\n 14244: ecalli 11 // 'value_transferred'\n 14246: t0 = 0x1f8\n 14250: jump @1352\n      : @500 [@dyn 251] (gas: 1)\n 14253: t0 = 504, jump @1352\n      : @501 [@dyn 252] (gas: 8)\n 14259: a0 = u64 [a4 + 0x18]\n 14262: a1 = u64 [a4 + 0x20]\n 14265: a2 = u64 [a4 + 0x10]\n 14268: a3 = u64 [a4 + 0x8]\n 14271: a1 = a1 | a2\n 14274: a0 = a0 | a3\n 14277: a0 = a0 | a1\n 14280: jump @503 if a0 == 0\n      : @502 (gas: 1)\n 14283: jump @778\n      : @503 (gas: 3)\n 14286: a0 = u64 [s1 + 0x198]\n 14290: a0 = i32 [a0]\n 14292: jump @505 if a0 >u 3\n      : @504 (gas: 1)\n 14296: jump @779\n      : @505 (gas: 3)\n 14299: a0 = s1 + 0x18c0\n 14303: a1 = 0x40\n 14306: ra = 506, jump @17\n      : @506 [@dyn 253] (gas: 7)\n 14312: a3 = s1 + 0x1118\n 14316: a5 = a3 + 0x700\n 14320: a4 = u64 [a5 + 0xc0]\n 14324: a1 = u64 [a5 + 0xb8]\n 14328: a2 = u64 [a5 + 0xb0]\n 14332: a0 = u64 [a5 + 0xa8]\n 14336: t0 = 508, jump @1327\n      : @507 [@dyn 254] (gas: 1)\n 14342: jump @534 if a1 != 0\n      : @508 (gas: 7)\n 14346: u64 [a3 + 1952] = 0\n 14350: u64 [a3 + 1944] = 0\n 14354: u64 [a3 + 1936] = 0\n 14358: a1 = s1 + 0x18a0\n 14362: u64 [a3 + 1928] = 0\n 14366: u64 [s1 + 0x198] = a0\n 14370: ra = 510, jump @19\n      : @509 [@dyn 255] (gas: 3)\n 14376: a1 = 0x20\n 14379: a0 = u64 [s1 + 0x198]\n 14383: ra = 512, jump @30\n      : @510 [@dyn 256] (gas: 5)\n 14389: i32 a1 = a0 + 0\n 14391: a2 = 0x20\n 14394: a0 = 0\n 14396: ecalli 8 // 'seal_return'\n 14398: jump @512\n      : @511 (gas: 4)\n 14400: a2 = 0x20\n 14403: a0 = 0\n 14405: ecalli 8 // 'seal_return'\n 14407: fallthrough\n      : @512 (gas: 14)\n 14408: a2 = s1 + 0x7ff\n 14412: a2 = a2 + 0x119\n 14416: a0 = u64 [s1 + 0x170]\n 14420: a3 = a2 + 0x700\n 14424: u64 [a3 + 0xa8] = a0\n 14428: a0 = u64 [s1 + 0x178]\n 14432: u64 [a3 + 0xb0] = a0\n 14436: a0 = u64 [s1 + 0x180]\n 14440: u64 [a3 + 0xb8] = a0\n 14444: a1 = s1 + 0x10c0\n 14448: a0 = u64 [s1 + 0x188]\n 14452: u64 [a3 + 0xc0] = a0\n 14456: a0 = 0\n 14458: ra = 514, jump @19\n      : @513 [@dyn 257] (gas: 10)\n 14464: a0 = s1 + 0x7ff\n 14468: a0 = a0 + 0x119\n 14472: u64 [a0 + 1952] = 0\n 14476: u64 [a0 + 1944] = 0\n 14480: u64 [a0 + 1936] = 0\n 14484: a3 = a0\n 14486: a0 = 0x20\n 14489: a1 = s1 + 0x10a0\n 14493: u64 [a3 + 1928] = 0x1\n 14498: ra = 516, jump @19\n      : @514 [@dyn 258] (gas: 3)\n 14504: a1 = u64 [s1 + 0x190]\n 14508: a0 = i32 [a1]\n 14510: jump @516 if a0 >u 63\n      : @515 (gas: 2)\n 14514: u32 [a1 + 0] = 0x40\n 14517: fallthrough\n      : @516 (gas: 4)\n 14518: a0 = sp + 0xffffffffffffffe0\n 14521: a0 = a0 & 0xffffffffffffffe0\n 14524: u64 [s1 + 0x160] = a0\n 14528: t0 = 518, jump @1312\n      : @517 [@dyn 259] (gas: 5)\n 14534: ra = 0x208\n 14538: ecalli 6 // 'hash_keccak_256'\n 14540: a3 = u64 [s1 + 0x160]\n 14544: t0 = 0x20a\n 14548: jump @1313\n      : @518 [@dyn 260] (gas: 2)\n 14551: a3 = u64 [s1 + 0x160]\n 14555: t0 = 522, jump @1313\n      : @519 [@dyn 261] (gas: 8)\n 14561: a5 = a4 + 0x500\n 14565: u64 [a5 + 0x80] = a3\n 14569: u64 [a5 + 0x78] = a2\n 14572: u64 [a5 + 0x70] = a1\n 14575: u64 [a5 + 0x68] = a0\n 14578: a0 = s1 + 0x1080\n 14582: a1 = s1 + 0x2680\n 14586: ra = 524, jump @21\n      : @520 [@dyn 262] (gas: 17)\n 14592: a4 = s1 + 0x7ff\n 14596: a4 = a4 + 0x119\n 14600: a5 = a4 + 0x700\n 14604: a0 = u64 [a5 + 0x78]\n 14607: a1 = u64 [a5 + 0x80]\n 14611: a2 = u64 [a5 + 0x70]\n 14614: a3 = u64 [a5 + 0x68]\n 14617: a1 = a1 | a2\n 14620: a0 = a0 | a3\n 14623: a0 = a0 | a1\n 14626: a0 = a0 >u 0\n 14628: u64 [a4 + 1888] = 0\n 14632: u64 [a4 + 1880] = 0\n 14636: u64 [a5 + 0x48] = a0\n 14639: a0 = s1 + 0x1060\n 14643: u64 [a4 + 1872] = 0\n 14647: ra = 526, jump @1029\n      : @521 [@dyn 263] (gas: 14)\n 14653: a0 = u64 [s1 + 0x188]\n 14657: a2 = s1 + 0x7ff\n 14661: a2 = a2 + 0x119\n 14665: a3 = a2 + 0x700\n 14669: u64 [a3 + 0x40] = a0\n 14672: a0 = u64 [s1 + 0x180]\n 14676: u64 [a3 + 0x38] = a0\n 14679: a0 = u64 [s1 + 0x178]\n 14683: u64 [a3 + 0x30] = a0\n 14686: a1 = s1 + 0x1040\n 14690: a0 = u64 [s1 + 0x170]\n 14694: u64 [a3 + 0x28] = a0\n 14697: a0 = 0\n 14699: ra = 528, jump @19\n      : @522 [@dyn 264] (gas: 10)\n 14705: a1 = s1 + 0x7ff\n 14709: a1 = a1 + 0x119\n 14713: u64 [a1 + 1824] = 0\n 14717: u64 [a1 + 1816] = 0\n 14721: u64 [a1 + 1800] = 0x1\n 14726: a2 = a1\n 14728: a0 = 0x20\n 14731: a1 = s1 + 0x1020\n 14735: u64 [a2 + 1808] = 0\n 14739: ra = 530, jump @19\n      : @523 [@dyn 265] (gas: 7)\n 14745: a1 = u64 [s1 + 0x190]\n 14749: a0 = sp + 0xffffffffffffffe0\n 14752: a0 = a0 & 0xffffffffffffffe0\n 14755: u64 [s1 + 0x160] = a0\n 14759: sp = a0\n 14761: a0 = i32 [a1]\n 14763: jump @525 if a0 >u 63\n      : @524 (gas: 2)\n 14767: u32 [a1 + 0] = 0x40\n 14770: fallthrough\n      : @525 (gas: 4)\n 14771: a0 = sp + 0xffffffffffffffe0\n 14774: a0 = a0 & 0xffffffffffffffe0\n 14777: u64 [s1 + 0x190] = a0\n 14781: t0 = 532, jump @1312\n      : @526 [@dyn 266] (gas: 25)\n 14787: ecalli 6 // 'hash_keccak_256'\n 14789: a3 = u64 [s1 + 0x190]\n 14793: a0 = u64 [a3]\n 14795: a1 = u64 [a3 + 0x8]\n 14798: a2 = u64 [a3 + 0x10]\n 14801: a3 = u64 [a3 + 0x18]\n 14804: a0 = reverse a0\n 14806: a1 = reverse a1\n 14808: a2 = reverse a2\n 14810: a3 = reverse a3\n 14812: a4 = a3 + 0x4\n 14815: a3 = a4 <u a3\n 14818: a5 = a2 + a3\n 14821: a2 = a5 <u a2\n 14824: a2 = a3 if a3 == 0\n 14827: a2 = a2 + a1\n 14830: a1 = a2 <u a1\n 14833: a0 = a0 + a1\n 14836: a1 = u64 [s1 + 0x160]\n 14840: u64 [a1] = a4\n 14842: u64 [a1 + 0x8] = a5\n 14845: u64 [a1 + 0x10] = a2\n 14848: u64 [a1 + 0x18] = a0\n 14851: a0 = s1 + 0x1000\n 14855: ra = 534, jump @21\n      : @527 [@dyn 267] (gas: 21)\n 14861: a3 = s1 + 0x7ff\n 14865: a3 = a3 + 0x119\n 14869: a4 = a3 + 0x600\n 14873: a0 = u64 [a4 + 0xe8]\n 14877: a1 = u64 [a4 + 0xf0]\n 14881: a2 = u64 [a4 + 0xf8]\n 14885: a3 = u64 [a3 + 0x700]\n 14889: a4 = 0xffffff00ffffffff\n 14899: a2 = a2 & a4\n 14902: a4 = 0x100000000\n 14912: u64 [s1 + 0x190] = a4\n 14916: a2 = a2 | a4\n 14919: a4 = s1 + 0x2118\n 14923: a5 = a4 + 0x500\n 14927: u64 [a5 + 0xa0] = a3\n 14931: u64 [a5 + 0x90] = a1\n 14935: u64 [a5 + 0x88] = a0\n 14939: u64 [a5 + 0x98] = a2\n 14943: a1 = s1 + 0x26a0\n 14947: a0 = u64 [s1 + 0x160]\n 14951: ra = 536, jump @23\n      : @528 [@dyn 268] (gas: 4)\n 14957: a0 = s1 + 0x7ff\n 14961: a0 = a0 + 0x7e1\n 14965: a1 = 0x40\n 14968: ra = 538, jump @17\n      : @529 [@dyn 269] (gas: 15)\n 14974: a2 = s1 + 0x7ff\n 14978: a2 = a2 + 0x119\n 14982: t0 = u64 [a2 + 0x6e0]\n 14986: a0 = a2 + 0x600\n 14990: a5 = u64 [a0 + 0xd8]\n 14994: a4 = u64 [a0 + 0xd0]\n 14998: a3 = u64 [a0 + 0xc8]\n 15002: a0 = a4 | t0\n 15005: a1 = a3 | a5\n 15008: a1 = a1 | a0\n 15011: a1 = a1 >> 0x20\n 15014: a0 = a0 | a5\n 15017: a0 = a0 << 0x20\n 15020: a0 = a0 | a1\n 15023: jump @534 if a0 != 0\n      : @530 (gas: 16)\n 15026: a0 = u64 [s1 + 0x170]\n 15030: u64 [a2 + 0x6a8] = a0\n 15034: a0 = u64 [s1 + 0x178]\n 15038: u64 [a2 + 0x6b0] = a0\n 15042: a0 = u64 [s1 + 0x180]\n 15046: u64 [a2 + 0x6b8] = a0\n 15050: a1 = s1 + 0x7ff\n 15054: a1 = a1 + 0x7c1\n 15058: a0 = u64 [s1 + 0x188]\n 15062: u64 [a2 + 0x6c0] = a0\n 15066: a0 = a3\n 15068: u64 [s1 + 0x160] = a3\n 15072: u64 [s1 + 0x188] = a4\n 15076: u64 [s1 + 0x180] = t0\n 15080: u64 [s1 + 0x178] = a5\n 15084: ra = 540, jump @19\n      : @531 [@dyn 270] (gas: 4)\n 15090: a0 = u64 [s1 + 0x138]\n 15094: ra = 0x21e\n 15098: ecalli 3 // 'caller'\n 15100: fallthrough\n      : @532 [@dyn 271] (gas: 12)\n 15101: a3 = s1 + 0x100\n 15105: a4 = u64 [a3 + 0x60]\n 15108: a0 = u64 [a3 + 0x80]\n 15112: a1 = u64 [a3 + 0x78]\n 15115: a0 = a0 | a1\n 15118: a1 = u64 [a3 + 0x90]\n 15122: a1 = a1 + 0xffffffffffffffe0\n 15125: a1 = a4 <u a1\n 15128: a2 = u64 [a3 + 0x88]\n 15132: a1 = 0 if a2 != 0\n 15134: a1 = 0 if a0 != 0\n 15136: jump @534 if a1 == 0\n      : @533 (gas: 1)\n 15139: jump @785\n      : @534 (gas: 1)\n 15142: trap\n      : @535 (gas: 23)\n 15143: a0 = u64 [s1 + 0x40]\n 15146: a0 = a0 ^ 0x1\n 15149: a4 = u64 [s1 + 0x110]\n 15153: a1 = u64 [s1 + 0x28]\n 15156: a0 = a1 if a4 != 0\n 15159: a1 = u64 [s1 + 0x30]\n 15162: a2 = u64 [s1 + 0x48]\n 15165: a0 = a1 if a2 != 0\n 15168: t1 = u64 [s1 + 0x50]\n 15171: t2 = a4 | t1\n 15174: a2 = u64 [s1 + 0x58]\n 15177: a1 = a2 >> 0x3f\n 15180: u64 [s1 + 0x48] = a1\n 15183: t1 = t1 << 0x1\n 15186: a5 = a4 >> 0x3f\n 15189: t0 = a2 << 0x1\n 15192: a1 = u64 [s1 + 0x70]\n 15195: ra = a1 >> 0x3f\n 15198: a4 = a4 << 0x1\n 15201: a3 = a1 << 0x1\n 15204: u64 [s1 + 0x50] = a3\n 15207: u64 [s1 + 0x40] = a5\n 15210: jump @549 if a0 == 0\n      : @536 (gas: 21)\n 15214: u64 [s1 + 0x10] = t2\n 15217: u64 [s1 + 0x18] = t0\n 15220: u64 [s1 + 0x20] = a4\n 15223: u64 [s1 + 0x28] = ra\n 15226: u64 [s1 + 0x30] = t1\n 15229: a1 = a1 & 0xffffffffffffffe0\n 15232: u64 [s1 + 0x110] = a1\n 15236: a0 = s1 + 0x7ff\n 15240: a0 = a0 + 0x119\n 15244: a1 = u64 [s1 + 0x150]\n 15248: u64 [a0 + 0x48] = a1\n 15251: a1 = u64 [s1 + 0x140]\n 15255: u64 [a0 + 0x50] = a1\n 15258: a1 = u64 [s1 + 0x138]\n 15262: u64 [a0 + 0x58] = a1\n 15265: a1 = s1 + 0x7ff\n 15269: a1 = a1 + 0x161\n 15273: a2 = u64 [s1 + 0x148]\n 15277: u64 [a0 + 0x60] = a2\n 15280: a0 = 0\n 15282: ra = 544, jump @19\n      : @537 [@dyn 272] (gas: 1)\n 15288: t0 = 546, jump @1319\n      : @538 [@dyn 273] (gas: 1)\n 15294: ra = 548, jump @30\n      : @539 [@dyn 274] (gas: 1)\n 15300: t0 = 550, jump @1308\n      : @540 [@dyn 275] (gas: 7)\n 15306: ecalli 6 // 'hash_keccak_256'\n 15308: u64 [s1 + 400] = 0x20\n 15313: a5 = 0\n 15315: u64 [s1 + 408] = 0\n 15319: u64 [s1 + 392] = 0\n 15323: u64 [s1 + 376] = 0\n 15327: t0 = 552, jump @1279\n      : @541 [@dyn 276] (gas: 9)\n 15333: t0 = a0\n 15335: a1 = u64 [s1 + 0x170]\n 15339: u64 [a1 + 0x18] = a0\n 15342: u64 [s1 + 0x150] = ra\n 15346: u64 [a1 + 0x10] = ra\n 15349: u64 [a1 + 0x8] = t2\n 15352: u64 [a1] = t1\n 15354: u64 [s1 + 0x168] = t0\n 15358: t0 = 554, jump @1304\n      : @542 [@dyn 277] (gas: 12)\n 15364: a0 = u64 [s1 + 0x190]\n 15368: a1 = a1 + a0\n 15371: a3 = u64 [s1 + 0x130]\n 15375: ra = a5 + a3\n 15378: a2 = u64 [s1 + 0x120]\n 15382: a0 = u64 [s1 + 0x198]\n 15386: a2 = a2 + a0\n 15389: a0 = u64 [s1 + 0x128]\n 15393: a3 = a5\n 15395: a5 = u64 [s1 + 0x188]\n 15399: a0 = a0 + a5\n 15402: jump @551 if a4 != 0\n      : @543 (gas: 14)\n 15406: a4 = u64 [s1 + 0x190]\n 15410: a4 = a1 <u a4\n 15413: ra = ra + a4\n 15416: t0 = ra ^ a3\n 15419: u64 [s1 + 0x138] = a3\n 15423: a5 = ra <u a3\n 15426: a5 = a4 if t0 == 0\n 15429: a5 = a5 + a2\n 15432: t0 = a5 <u a2\n 15435: a3 = u64 [s1 + 0x198]\n 15439: a2 = a2 <u a3\n 15442: a0 = a0 + a2\n 15445: a0 = a0 + t0\n 15448: t0 = 556, jump @1324\n      : @544 [@dyn 278] (gas: 1)\n 15454: jump @534 if a0 != 0\n      : @545 (gas: 2)\n 15458: a0 = s1 + 0x440\n 15462: ra = 558, jump @17\n      : @546 [@dyn 279] (gas: 14)\n 15468: a4 = s1 + 0x400\n 15472: a0 = u64 [a4 + 0x58]\n 15475: a1 = u64 [a4 + 0x50]\n 15478: a2 = u64 [a4 + 0x48]\n 15481: a3 = u64 [a4 + 0x40]\n 15484: a4 = s1 + 0x2118\n 15488: a5 = a4 + 0x200\n 15492: u64 [a5 + 0x80] = a0\n 15496: u64 [a5 + 0x78] = a1\n 15499: u64 [a5 + 0x70] = a2\n 15502: u64 [a5 + 0x68] = a3\n 15505: a1 = s1 + 0x2380\n 15509: a0 = u64 [s1 + 0x170]\n 15513: ra = 560, jump @23\n      : @547 [@dyn 280] (gas: 41)\n 15519: t1 = u64 [s1 + 0x148]\n 15523: t1 = t1 + 0x1\n 15526: a0 = t1 <u 0x1\n 15529: t2 = u64 [s1 + 0x140]\n 15533: t2 = t2 + a0\n 15536: a0 = t1 | t2\n 15539: a0 = a0 <u 0x1\n 15542: a1 = u64 [s1 + 0x150]\n 15546: ra = a1 + a0\n 15549: a1 = ra <u a1\n 15552: a0 = u64 [s1 + 0x168]\n 15556: a0 = a0 + a1\n 15559: a1 = u64 [s1 + 0x190]\n 15563: a2 = a1 + 0x20\n 15566: u64 [s1 + 0x168] = a2\n 15570: a3 = a2 <u a1\n 15573: a1 = u64 [s1 + 0x138]\n 15577: a2 = a1 + a3\n 15580: u64 [s1 + 0x148] = a2\n 15584: a4 = a2 <u a1\n 15587: a4 = a3 if a3 == 0\n 15590: a1 = u64 [s1 + 0x198]\n 15594: a3 = a1 + a4\n 15597: a4 = a3 <u a1\n 15600: a1 = u64 [s1 + 0x188]\n 15604: a1 = a1 + a4\n 15607: u64 [s1 + 0x188] = a1\n 15611: a1 = u64 [s1 + 0x178]\n 15615: a4 = a1 + 0x20\n 15618: a5 = a4 <u a1\n 15621: a2 = u64 [s1 + 0x158]\n 15625: a1 = a2 + a5\n 15628: a2 = a1 <u a2\n 15631: a2 = a5 if a5 == 0\n 15634: a5 = u64 [s1 + 0x160]\n 15638: a2 = a2 + a5\n 15641: a5 = a2 <u a5\n 15644: t0 = u64 [s1 + 0x180]\n 15648: t0 = t0 + a5\n 15651: u64 [s1 + 0x180] = t0\n 15655: t0 = 562, jump @1331\n      : @548 [@dyn 281] (gas: 11)\n 15661: t0 = a0\n 15663: u64 [a5 + 0x18] = a0\n 15666: u64 [s1 + 0x150] = ra\n 15670: a0 = u64 [s1 + 0x168]\n 15674: u64 [s1 + 0x190] = a0\n 15678: a5 = u64 [s1 + 0x148]\n 15682: u64 [s1 + 0x198] = a3\n 15686: a3 = a1\n 15688: u64 [s1 + 0x168] = t0\n 15692: t0 = 0x22a\n 15696: jump @1304\n      : @549 (gas: 4)\n 15699: a5 = u64 [s1 + 0x48]\n 15702: a0 = a1 | a2\n 15705: a0 = a0 | t2\n 15708: jump @564 if a0 != 0\n      : @550 (gas: 7)\n 15712: u64 [s1 + 384] = 0\n 15716: u64 [s1 + 376] = 0\n 15720: u64 [s1 + 392] = 0\n 15724: u64 [s1 + 400] = 0\n 15728: t2 = a5\n 15730: a0 = u64 [s1 + 0x40]\n 15733: jump @567\n      : @551 (gas: 8)\n 15736: a4 = u64 [s1 + 0x70]\n 15739: a5 = u64 [s1 + 0x110]\n 15743: a4 = a4 ^ a5\n 15746: a5 = u64 [s1 + 0x58]\n 15749: a4 = a4 | a5\n 15752: a5 = u64 [s1 + 0x10]\n 15755: a4 = a4 | a5\n 15758: jump @563 if a4 == 0\n      : @552 (gas: 14)\n 15762: t1 = a3\n 15764: a4 = u64 [s1 + 0x190]\n 15768: a4 = a1 <u a4\n 15771: a3 = ra + a4\n 15774: t0 = a3 ^ t1\n 15777: a5 = a3 <u t1\n 15780: a5 = a4 if t0 == 0\n 15783: a5 = a5 + a2\n 15786: t0 = a5 <u a2\n 15789: a4 = u64 [s1 + 0x198]\n 15793: a2 = a2 <u a4\n 15796: a0 = a0 + a2\n 15799: a0 = a0 + t0\n 15802: t0 = 564, jump @1316\n      : @553 [@dyn 282] (gas: 1)\n 15808: jump @534 if a0 != 0\n      : @554 (gas: 3)\n 15812: a0 = s1 + 0x7ff\n 15816: a0 = a0 + 0x141\n 15820: ra = 566, jump @17\n      : @555 [@dyn 283] (gas: 12)\n 15826: a0 = s1 + 0x7ff\n 15830: a0 = a0 + 0x119\n 15834: a1 = u64 [a0 + 0x40]\n 15837: u64 [s1 + 0x190] = a1\n 15841: a1 = u64 [a0 + 0x38]\n 15844: u64 [s1 + 0x188] = a1\n 15848: a1 = u64 [a0 + 0x30]\n 15851: u64 [s1 + 0x180] = a1\n 15855: a0 = u64 [a0 + 0x28]\n 15858: u64 [s1 + 0x178] = a0\n 15862: a0 = u64 [s1 + 0x70]\n 15865: t0 = 568, jump @1310\n      : @556 [@dyn 284] (gas: 1)\n 15871: ra = 570, jump @1361\n      : @557 [@dyn 285] (gas: 1)\n 15877: t0 = 572, jump @1328\n      : @558 [@dyn 286] (gas: 1)\n 15883: ra = 574, jump @1356\n      : @559 [@dyn 287] (gas: 1)\n 15889: t0 = 576, jump @1295\n      : @560 [@dyn 288] (gas: 1)\n 15895: ra = 578, jump @1356\n      : @561 [@dyn 289] (gas: 1)\n 15901: t0 = 580, jump @1272\n      : @562 [@dyn 290] (gas: 8)\n 15907: a5 = a4 + 0x200\n 15911: u64 [a5 + 0xa0] = a3\n 15915: u64 [a5 + 0x98] = a2\n 15919: u64 [a5 + 0x90] = a1\n 15923: u64 [a5 + 0x88] = a0\n 15927: a1 = s1 + 0x23a0\n 15931: a0 = u64 [s1 + 0x170]\n 15935: ra = 582, jump @23\n      : @563 [@dyn 291] (gas: 19)\n 15941: a0 = u64 [s1 + 0x48]\n 15944: a1 = u64 [s1 + 0x30]\n 15947: a0 = a0 | a1\n 15950: a1 = u64 [s1 + 0x40]\n 15953: a2 = u64 [s1 + 0x18]\n 15956: a1 = a1 | a2\n 15959: a2 = u64 [s1 + 0x28]\n 15962: a3 = u64 [s1 + 0x20]\n 15965: a2 = a2 | a3\n 15968: a3 = u64 [s1 + 0x50]\n 15971: a3 = a3 + 0x1\n 15974: a4 = s1 + 0x2118\n 15978: a5 = a4 + 0x200\n 15982: u64 [a5 + 0xa8] = a3\n 15986: u64 [a5 + 0xb0] = a2\n 15990: u64 [a5 + 0xb8] = a1\n 15994: u64 [a5 + 0xc0] = a0\n 15998: a0 = 0x23c0\n 16002: jump @574\n      : @564 (gas: 15)\n 16005: u64 [s1 + 0x18] = t0\n 16008: u64 [s1 + 0x20] = a4\n 16011: u64 [s1 + 0x28] = ra\n 16014: u64 [s1 + 0x30] = t1\n 16017: a4 = s1 + 0x100\n 16021: a0 = u64 [a4 + 0x28]\n 16024: a1 = u64 [a4 + 0x20]\n 16027: a0 = a0 | a1\n 16030: a1 = 0xffffffe0\n 16040: a2 = u64 [a4 + 0x18]\n 16043: a1 = a2 <u a1\n 16046: a3 = u64 [a4 + 0x30]\n 16049: a1 = 0 if a3 != 0\n 16051: a1 = 0 if a0 != 0\n 16053: jump @534 if a1 == 0\n      : @565 (gas: 4)\n 16057: i32 a1 = a2 + 0x20\n 16060: a0 = s1 + 0x7ff\n 16064: a0 = a0 + 0x181\n 16068: ra = 584, jump @17\n      : @566 [@dyn 292] (gas: 19)\n 16074: a0 = s1 + 0x7ff\n 16078: a0 = a0 + 0x119\n 16082: a1 = u64 [a0 + 0x80]\n 16086: a2 = s1 + 0x100\n 16090: u64 [a2 + 0x90] = a1\n 16094: a1 = u64 [a0 + 0x78]\n 16097: u64 [a2 + 0x88] = a1\n 16101: a1 = u64 [a0 + 0x70]\n 16104: u64 [a2 + 0x78] = a1\n 16107: a0 = u64 [a0 + 0x68]\n 16110: u64 [a2 + 0x80] = a0\n 16114: a1 = u64 [s1 + 0x70]\n 16117: t2 = u64 [s1 + 0x48]\n 16120: t1 = u64 [s1 + 0x30]\n 16123: ra = u64 [s1 + 0x28]\n 16126: a0 = u64 [s1 + 0x40]\n 16129: a4 = u64 [s1 + 0x20]\n 16132: t0 = u64 [s1 + 0x18]\n 16135: fallthrough\n      : @567 (gas: 12)\n 16136: a0 = t0 | a0\n 16139: u64 [s1 + 0x170] = a0\n 16143: a0 = t1 | t2\n 16146: u64 [s1 + 0x168] = a0\n 16150: a0 = a4 | ra\n 16153: u64 [s1 + 0x160] = a0\n 16157: a2 = a1 << 0x3\n 16160: u64 [s1 + 0x198] = a2\n 16164: i32 a2 = 0x80 - a2\n 16168: a0 = 0xffffffffffffffff\n 16171: a1 = 0xffffffffffffffff\n 16174: ra = 586, jump @1361\n      : @568 [@dyn 293] (gas: 7)\n 16180: u64 [s1 + 0x140] = a0\n 16184: u64 [s1 + 0x158] = a1\n 16188: a0 = u64 [s1 + 0x70]\n 16191: i32 a2 = a0 << 0x3\n 16194: a0 = 0xffffffffffffffff\n 16197: a1 = 0xffffffffffffffff\n 16200: ra = 588, jump @1356\n      : @569 [@dyn 294] (gas: 1)\n 16206: t0 = 590, jump @1317\n      : @570 [@dyn 295] (gas: 1)\n 16212: ra = 592, jump @1356\n      : @571 [@dyn 296] (gas: 1)\n 16218: t0 = 594, jump @1277\n      : @572 [@dyn 297] (gas: 4)\n 16224: a4 = u64 [s1 + 0x50]\n 16227: a0 = a0 | a4\n 16230: a5 = s1 + 0x100\n 16234: t0 = 596, jump @1315\n      : @573 [@dyn 298] (gas: 7)\n 16240: a5 = a4 + 0x200\n 16244: u64 [a5 + 0xd8] = a2\n 16248: u64 [a5 + 0xe0] = a3\n 16252: u64 [a5 + 0xd0] = a1\n 16256: u64 [a5 + 0xc8] = a0\n 16260: a0 = 0x23e0\n 16264: fallthrough\n      : @574 (gas: 3)\n 16265: a1 = s1 + a0\n 16268: a0 = u64 [s1 + 0x60]\n 16271: ra = 598, jump @23\n      : @575 [@dyn 299] (gas: 6)\n 16277: a0 = sp + 0xffffffffffffffe0\n 16280: a2 = a0 & 0xffffffffffffffe0\n 16283: sp = a2\n 16285: a0 = u64 [s1 + 0x78]\n 16288: a3 = a0 + 0x2\n 16291: t0 = 600, jump @1354\n      : @576 [@dyn 300] (gas: 17)\n 16297: a5 = a0 + a1\n 16300: a0 = a5 <u a0\n 16303: a1 = u64 [s1 + 0x88]\n 16307: a0 = a0 + a1\n 16310: u64 [s1 + 0x138] = a5\n 16314: u64 [a2 + 0x10] = a5\n 16317: u64 [s1 + 0x148] = a4\n 16321: u64 [a2 + 0x8] = a4\n 16324: u64 [s1 + 0x150] = a3\n 16328: u64 [a2] = a3\n 16330: u64 [s1 + 0x60] = a2\n 16333: u64 [s1 + 0x140] = a0\n 16337: u64 [a2 + 0x18] = a0\n 16340: a0 = s1 + 0x7ff\n 16344: a0 = a0 + 0x121\n 16348: a1 = u64 [s1 + 0xa8]\n 16352: ra = 602, jump @17\n      : @577 [@dyn 301] (gas: 18)\n 16358: a1 = s1 + 0x7ff\n 16362: a1 = a1 + 0x119\n 16366: a2 = u64 [a1 + 0x20]\n 16369: a3 = u64 [a1 + 0x18]\n 16372: a0 = u64 [a1 + 0x10]\n 16375: a1 = u64 [a1 + 0x8]\n 16378: a4 = s1 + 0x100\n 16382: u64 [a4 + 0x30] = a0\n 16385: u64 [a4 + 0x28] = a2\n 16388: a0 = a0 | a2\n 16391: a2 = a1 | a3\n 16394: a2 = a2 | a0\n 16397: a2 = a2 >> 0x20\n 16400: u64 [a4 + 0x20] = a3\n 16403: a0 = a0 | a3\n 16406: a0 = a0 << 0x20\n 16409: a0 = a0 | a2\n 16412: jump @534 if a0 != 0\n      : @578 (gas: 4)\n 16416: a0 = s1 + 0x7ff\n 16420: a0 = a0 + 0x101\n 16424: u64 [s1 + 0x118] = a1\n 16428: ra = 604, jump @17\n      : @579 [@dyn 302] (gas: 19)\n 16434: a0 = s1 + 0x7ff\n 16438: a0 = a0 + 0x119\n 16442: a3 = u64 [a0]\n 16444: a1 = u64 [a0 + 0xfffffffffffffff8]\n 16447: a0 = s1 + 0x1000\n 16451: a2 = u64 [a0 + 0xfffffffffffff908]\n 16455: a0 = a3 >u 0\n 16457: a4 = a1 >u 0\n 16459: a4 = a0 if a3 != 0\n 16462: u64 [s1 + 0x110] = a2\n 16466: a0 = a2 >u 0\n 16468: u64 [s1 + 0x70] = a1\n 16471: u64 [s1 + 0x58] = a3\n 16474: a1 = a1 | a3\n 16477: u64 [s1 + 0x30] = a0\n 16480: u64 [s1 + 0x40] = a4\n 16483: u64 [s1 + 0x50] = a1\n 16486: a0 = a4 if a1 != 0\n 16489: jump @581 if a0 == 0\n      : @580 (gas: 1)\n 16492: jump @880\n      : @581 (gas: 7)\n 16495: a0 = s1 + 0x1000\n 16499: a0 = u64 [a0 + 0xfffffffffffff900]\n 16503: u64 [s1 + 0xa8] = a0\n 16507: a0 = s1 + 0x7ff\n 16511: a0 = a0 + 0xe1\n 16515: a1 = u64 [s1 + 0x60]\n 16518: ra = 606, jump @21\n      : @582 [@dyn 303] (gas: 21)\n 16524: a0 = s1 + 0x1000\n 16528: a2 = u64 [a0 + 0xfffffffffffff8e0]\n 16532: a0 = s1 + 0x1000\n 16536: a0 = u64 [a0 + 0xfffffffffffff8e8]\n 16540: a1 = s1 + 0x1000\n 16544: a1 = u64 [a1 + 0xfffffffffffff8f0]\n 16548: a3 = s1 + 0x1000\n 16552: a3 = u64 [a3 + 0xfffffffffffff8f8]\n 16556: a4 = s1 + 0x1000\n 16560: u64 [a4 + 0xfffffffffffff8b8] = a3\n 16564: a3 = s1 + 0x1000\n 16568: u64 [a3 + 0xfffffffffffff8b0] = a1\n 16572: a1 = s1 + 0x1000\n 16576: u64 [a1 + 0xfffffffffffff8a8] = a0\n 16580: a0 = s1 + 0x7ff\n 16584: a0 = a0 + 0xc1\n 16588: a1 = s1 + 0x7ff\n 16592: a1 = a1 + 0xa1\n 16596: a3 = s1 + 0x1000\n 16600: u64 [a3 + 0xfffffffffffff8a0] = a2\n 16604: ra = 608, jump @978\n      : @583 [@dyn 304] (gas: 9)\n 16610: a0 = s1 + 0x1000\n 16614: a3 = u64 [a0 + 0xfffffffffffff8d8]\n 16618: a0 = s1 + 0x1000\n 16622: a4 = u64 [a0 + 0xfffffffffffff8d0]\n 16626: a0 = s1 + 0x1000\n 16630: a5 = u64 [a0 + 0xfffffffffffff8c8]\n 16634: a0 = s1 + 0x1000\n 16638: a2 = u64 [a0 + 0xfffffffffffff8c0]\n 16642: t0 = 610, jump @1290\n      : @584 [@dyn 305] (gas: 2)\n 16648: u64 [s1 + 0x48] = a0\n 16651: jump @598 if a2 == 0\n      : @585 (gas: 16)\n 16655: a0 = u64 [s1 + 0x150]\n 16659: a1 = s1 + 0x1000\n 16663: u64 [a1 + 0xfffffffffffff880] = a0\n 16667: a0 = u64 [s1 + 0x148]\n 16671: a1 = s1 + 0x1000\n 16675: u64 [a1 + 0xfffffffffffff888] = a0\n 16679: a0 = u64 [s1 + 0x138]\n 16683: a1 = s1 + 0x1000\n 16687: u64 [a1 + 0xfffffffffffff890] = a0\n 16691: a1 = s1 + 0x7ff\n 16695: a1 = a1 + 0x81\n 16699: a0 = u64 [s1 + 0x140]\n 16703: a2 = s1 + 0x1000\n 16707: u64 [a2 + 0xfffffffffffff898] = a0\n 16711: a0 = 0\n 16713: ra = 612, jump @19\n      : @586 [@dyn 306] (gas: 3)\n 16719: a0 = u64 [s1 + 0x100]\n 16723: a0 = i32 [a0]\n 16725: jump @588 if a0 >u 31\n      : @587 (gas: 4)\n 16729: a1 = u64 [s1 + 0x100]\n 16733: u32 [a1 + 0] = 0x20\n 16736: t0 = 0x266\n 16740: jump @1338\n      : @588 (gas: 1)\n 16743: t0 = 614, jump @1338\n      : @589 [@dyn 307] (gas: 5)\n 16749: ra = 0x268\n 16753: ecalli 6 // 'hash_keccak_256'\n 16755: a0 = u64 [s1 + 0xa8]\n 16759: t0 = 0x26a\n 16763: jump @1335\n      : @590 [@dyn 308] (gas: 2)\n 16766: a0 = u64 [s1 + 0xa8]\n 16770: t0 = 618, jump @1335\n      : @591 [@dyn 309] (gas: 2)\n 16776: a4 = u64 [s1 + 0x70]\n 16779: t0 = 620, jump @1307\n      : @592 [@dyn 310] (gas: 35)\n 16785: a1 = u64 [s1 + 0x48]\n 16788: a1 = 0 if a5 != 0\n 16790: a3 = u64 [s1 + 0x50]\n 16793: a1 = 0 if a3 != 0\n 16795: a4 = 0 if a1 != 0\n 16797: a0 = 0 if a1 != 0\n 16799: t0 = t2 + a0\n 16802: a0 = t0 <u t2\n 16805: a5 = a2 + a0\n 16808: a4 = a4 + a5\n 16811: u64 [s1 + 0x198] = a4\n 16815: a5 = a4 ^ a2\n 16818: a3 = a4 <u a2\n 16821: a3 = a0 if a5 == 0\n 16824: u64 [s1 + 0x28] = a3\n 16827: a0 = u64 [s1 + 0x178]\n 16831: ra = a0 + 0x1f\n 16834: a4 = ra <u a0\n 16837: a3 = u64 [s1 + 0x180]\n 16841: a0 = a3 + a4\n 16844: a5 = a0 <u a3\n 16847: a5 = a4 if a4 == 0\n 16850: t1 = u64 [s1 + 0x190]\n 16854: t1 = t1 + a5\n 16857: a4 = t1 << 0x3b\n 16860: a3 = a0 >> 0x5\n 16863: a3 = a3 | a4\n 16866: a0 = a0 << 0x3b\n 16869: a4 = ra >> 0x5\n 16872: a0 = a0 | a4\n 16875: a0 = a0 + t2\n 16878: u64 [s1 + 0x170] = a0\n 16882: a0 = a0 <u t2\n 16885: t2 = t0\n 16887: t0 = 622, jump @1322\n      : @593 [@dyn 311] (gas: 47)\n 16893: a0 = u64 [s1 + 0x70]\n 16896: a0 = a4 <u a0\n 16899: a3 = u64 [s1 + 0x58]\n 16902: a0 = a0 + a3\n 16905: a3 = a4 >> 0x5\n 16908: a4 = a0 << 0x3b\n 16911: a3 = a3 | a4\n 16914: a4 = u64 [s1 + 0x160]\n 16918: t0 = u64 [a4]\n 16920: a4 = u64 [a4 + 0x8]\n 16923: a0 = a0 >> 0x5\n 16926: a3 = 0 if a1 != 0\n 16928: a0 = 0 if a1 != 0\n 16930: a1 = reverse a4\n 16932: a4 = reverse t0\n 16934: a0 = a0 + a4\n 16937: a3 = a3 + a1\n 16940: a5 = a3 <u a1\n 16943: a0 = a0 + a5\n 16946: ra = u64 [s1 + 0x28]\n 16949: ra = ra + a3\n 16952: a3 = ra <u a3\n 16955: t0 = a0 + a3\n 16958: a0 = u64 [s1 + 0x190]\n 16962: a0 = t1 <u a0\n 16965: a3 = u64 [s1 + 0x188]\n 16969: a0 = a0 + a3\n 16972: a3 = t1 >> 0x5\n 16975: a5 = a0 << 0x3b\n 16978: a3 = a3 | a5\n 16981: a0 = a0 >> 0x5\n 16984: a0 = a0 + a4\n 16987: a5 = s1 + 0x100\n 16991: a4 = u64 [a5 + 0x98]\n 16995: a3 = a3 + a1\n 16998: a1 = a3 <u a1\n 17001: a0 = a0 + a1\n 17004: a2 = a2 + a3\n 17007: u64 [a5 + 0x60] = a2\n 17010: a1 = a2 <u a3\n 17013: a0 = a0 + a1\n 17016: u64 [a5 + 0x58] = a0\n 17019: a0 = sp + 0xffffffffffffffe0\n 17022: a0 = a0 & 0xffffffffffffffe0\n 17025: u64 [a5 + 0x90] = a0\n 17029: sp = a0\n 17031: fallthrough\n      : @594 (gas: 25)\n 17032: a0 = u64 [s1 + 0x170]\n 17036: a0 = t2 <u a0\n 17039: a2 = u64 [s1 + 0x168]\n 17043: a1 = a4 ^ a2\n 17046: a2 = a4 <u a2\n 17049: a2 = a0 if a1 == 0\n 17052: a5 = u64 [s1 + 0x160]\n 17056: a0 = ra <u a5\n 17059: a3 = u64 [s1 + 0x158]\n 17063: a1 = t0 ^ a3\n 17066: a3 = t0 <u a3\n 17069: a3 = a0 if a1 == 0\n 17072: a0 = ra ^ a5\n 17075: a0 = a0 | a1\n 17078: a3 = a2 if a0 == 0\n 17081: u64 [s1 + 0x188] = t2\n 17085: a0 = u64 [s1 + 0x190]\n 17089: u64 [a0] = t2\n 17091: u64 [s1 + 0x198] = a4\n 17095: u64 [a0 + 0x8] = a4\n 17098: u64 [s1 + 0x178] = ra\n 17102: u64 [a0 + 0x10] = ra\n 17105: u64 [s1 + 0x180] = t0\n 17109: u64 [a0 + 0x18] = t0\n 17112: jump @598 if a3 == 0\n      : @595 (gas: 8)\n 17115: a0 = s1 + 0x2118\n 17119: u64 [a0 + 768] = 0\n 17123: u64 [a0 + 760] = 0\n 17127: u64 [a0 + 752] = 0\n 17131: u64 [a0 + 744] = 0\n 17135: a1 = s1 + 0x2400\n 17139: a0 = u64 [s1 + 0x190]\n 17143: ra = 624, jump @23\n      : @596 [@dyn 312] (gas: 1)\n 17149: t0 = 626, jump @1311\n      : @597 [@dyn 313] (gas: 4)\n 17155: t0 = u64 [s1 + 0x180]\n 17159: t0 = t0 + a1\n 17162: ra = a0\n 17164: jump @594\n      : @598 (gas: 28)\n 17167: a0 = u64 [s1 + 0x48]\n 17170: a0 = a0 ^ 0x1\n 17173: a3 = u64 [s1 + 0x110]\n 17177: a1 = u64 [s1 + 0x30]\n 17180: a0 = a1 if a3 != 0\n 17183: a1 = u64 [s1 + 0x40]\n 17186: a2 = u64 [s1 + 0x50]\n 17189: a0 = a1 if a2 != 0\n 17192: a4 = u64 [s1 + 0x58]\n 17195: a1 = a3 | a4\n 17198: u64 [s1 + 0x50] = a1\n 17201: a1 = u64 [s1 + 0x70]\n 17204: a2 = a1 >> 0x3f\n 17207: u64 [s1 + 0x48] = a2\n 17210: a2 = a4 << 0x1\n 17213: u64 [s1 + 0x40] = a2\n 17216: a2 = a3 >> 0x3f\n 17219: u64 [s1 + 0x28] = a2\n 17222: a1 = a1 << 0x1\n 17225: u64 [s1 + 0x18] = a1\n 17228: a1 = u64 [s1 + 0xa8]\n 17232: a2 = a1 >> 0x3f\n 17235: u64 [s1 + 0x30] = a2\n 17238: a2 = a3 << 0x1\n 17241: u64 [s1 + 0x20] = a2\n 17244: a2 = a1 << 0x1\n 17247: u64 [s1 + 0x58] = a2\n 17250: jump @615 if a0 == 0\n      : @599 (gas: 18)\n 17254: a1 = a1 & 0xffffffffffffffe0\n 17257: u64 [s1 + 0x110] = a1\n 17261: a0 = u64 [s1 + 0x150]\n 17265: a1 = s1 + 0x1000\n 17269: u64 [a1 + 0xfffffffffffff840] = a0\n 17273: a0 = u64 [s1 + 0x148]\n 17277: a1 = s1 + 0x1000\n 17281: u64 [a1 + 0xfffffffffffff848] = a0\n 17285: a0 = u64 [s1 + 0x138]\n 17289: a1 = s1 + 0x1000\n 17293: u64 [a1 + 0xfffffffffffff850] = a0\n 17297: a1 = s1 + 0x7ff\n 17301: a1 = a1 + 0x41\n 17304: a0 = u64 [s1 + 0x140]\n 17308: a2 = s1 + 0x1000\n 17312: u64 [a2 + 0xfffffffffffff858] = a0\n 17316: a0 = 0\n 17318: ra = 628, jump @19\n      : @600 [@dyn 314] (gas: 1)\n 17324: t0 = 630, jump @1319\n      : @601 [@dyn 315] (gas: 1)\n 17330: ra = 632, jump @30\n      : @602 [@dyn 316] (gas: 1)\n 17336: t0 = 634, jump @1308\n      : @603 [@dyn 317] (gas: 4)\n 17342: ra = 0x27c\n 17346: ecalli 6 // 'hash_keccak_256'\n 17348: t0 = 0x27e\n 17352: jump @1336\n      : @604 [@dyn 318] (gas: 1)\n 17355: t0 = 638, jump @1336\n      : @605 [@dyn 319] (gas: 1)\n 17361: t0 = 640, jump @1279\n      : @606 [@dyn 320] (gas: 9)\n 17367: t0 = a0\n 17369: a1 = u64 [s1 + 0x170]\n 17373: u64 [a1 + 0x18] = a0\n 17376: u64 [s1 + 0x150] = ra\n 17380: u64 [a1 + 0x10] = ra\n 17383: u64 [a1 + 0x8] = t2\n 17386: u64 [a1] = t1\n 17388: u64 [s1 + 0x168] = t0\n 17392: t0 = 642, jump @1304\n      : @607 [@dyn 321] (gas: 12)\n 17398: a0 = u64 [s1 + 0x198]\n 17402: a1 = a1 + a0\n 17405: a3 = u64 [s1 + 0x130]\n 17409: ra = a5 + a3\n 17412: a2 = u64 [s1 + 0x120]\n 17416: a0 = u64 [s1 + 0x190]\n 17420: a2 = a2 + a0\n 17423: a0 = u64 [s1 + 0x128]\n 17427: a3 = a5\n 17429: a5 = u64 [s1 + 0x188]\n 17433: a0 = a0 + a5\n 17436: jump @617 if a4 != 0\n      : @608 (gas: 14)\n 17440: a4 = u64 [s1 + 0x198]\n 17444: a4 = a1 <u a4\n 17447: ra = ra + a4\n 17450: t0 = ra ^ a3\n 17453: u64 [s1 + 0x138] = a3\n 17457: a5 = ra <u a3\n 17460: a5 = a4 if t0 == 0\n 17463: a5 = a5 + a2\n 17466: t0 = a5 <u a2\n 17469: a3 = u64 [s1 + 0x190]\n 17473: a2 = a2 <u a3\n 17476: a0 = a0 + a2\n 17479: a0 = a0 + t0\n 17482: t0 = 644, jump @1324\n      : @609 [@dyn 322] (gas: 1)\n 17488: jump @534 if a0 != 0\n      : @610 (gas: 2)\n 17492: a0 = s1 + 0x4a0\n 17496: ra = 646, jump @17\n      : @611 [@dyn 323] (gas: 14)\n 17502: a4 = s1 + 0x400\n 17506: a0 = u64 [a4 + 0xb8]\n 17510: a1 = u64 [a4 + 0xb0]\n 17514: a2 = u64 [a4 + 0xa8]\n 17518: a3 = u64 [a4 + 0xa0]\n 17522: a4 = s1 + 0x2118\n 17526: a5 = a4 + 0x300\n 17530: u64 [a5 + 0x20] = a0\n 17533: u64 [a5 + 0x18] = a1\n 17536: u64 [a5 + 0x10] = a2\n 17539: u64 [a5 + 0x8] = a3\n 17542: a1 = s1 + 0x2420\n 17546: a0 = u64 [s1 + 0x170]\n 17550: ra = 648, jump @23\n      : @612 [@dyn 324] (gas: 1)\n 17556: t0 = 650, jump @1275\n      : @613 [@dyn 325] (gas: 4)\n 17562: t0 = u64 [s1 + 0x180]\n 17566: t0 = t0 + a5\n 17569: u64 [s1 + 0x180] = t0\n 17573: t0 = 652, jump @1331\n      : @614 [@dyn 326] (gas: 11)\n 17579: t0 = a0\n 17581: u64 [a5 + 0x18] = a0\n 17584: u64 [s1 + 0x150] = ra\n 17588: a0 = u64 [s1 + 0x168]\n 17592: u64 [s1 + 0x198] = a0\n 17596: a5 = u64 [s1 + 0x148]\n 17600: u64 [s1 + 0x190] = a3\n 17604: a3 = a1\n 17606: u64 [s1 + 0x168] = t0\n 17610: t0 = 0x282\n 17614: jump @1304\n      : @615 (gas: 5)\n 17617: a0 = u64 [s1 + 0x70]\n 17620: a0 = a0 | a1\n 17623: a1 = u64 [s1 + 0x50]\n 17626: a0 = a0 | a1\n 17629: jump @630 if a0 != 0\n      : @616 (gas: 5)\n 17633: u64 [s1 + 384] = 0\n 17637: u64 [s1 + 376] = 0\n 17641: u64 [s1 + 392] = 0\n 17645: u64 [s1 + 400] = 0\n 17649: jump @633\n      : @617 (gas: 10)\n 17652: t1 = u64 [s1 + 0x190]\n 17656: t0 = u64 [s1 + 0x198]\n 17660: a4 = u64 [s1 + 0xa8]\n 17664: a5 = u64 [s1 + 0x110]\n 17668: a4 = a4 ^ a5\n 17671: a5 = u64 [s1 + 0x70]\n 17674: a4 = a4 | a5\n 17677: a5 = u64 [s1 + 0x50]\n 17680: a4 = a4 | a5\n 17683: jump @629 if a4 == 0\n      : @618 (gas: 12)\n 17687: t2 = a3\n 17689: a4 = a1 <u t0\n 17692: a3 = ra + a4\n 17695: t0 = a3 ^ t2\n 17698: a5 = a3 <u t2\n 17701: a5 = a4 if t0 == 0\n 17704: a5 = a5 + a2\n 17707: a4 = a5 <u a2\n 17710: a2 = a2 <u t1\n 17713: a0 = a0 + a2\n 17716: a0 = a0 + a4\n 17719: t0 = 654, jump @1316\n      : @619 [@dyn 327] (gas: 1)\n 17725: jump @534 if a0 != 0\n      : @620 (gas: 3)\n 17729: a0 = s1 + 0x7ff\n 17733: a0 = a0 + 0x21\n 17736: ra = 656, jump @17\n      : @621 [@dyn 328] (gas: 14)\n 17742: a0 = s1 + 0x1000\n 17746: a0 = u64 [a0 + 0xfffffffffffff838]\n 17750: u64 [s1 + 0x190] = a0\n 17754: a0 = s1 + 0x1000\n 17758: a0 = u64 [a0 + 0xfffffffffffff830]\n 17762: u64 [s1 + 0x188] = a0\n 17766: a0 = s1 + 0x1000\n 17770: a0 = u64 [a0 + 0xfffffffffffff828]\n 17774: u64 [s1 + 0x180] = a0\n 17778: a0 = s1 + 0x1000\n 17782: a0 = u64 [a0 + 0xfffffffffffff820]\n 17786: u64 [s1 + 0x178] = a0\n 17790: a0 = u64 [s1 + 0xa8]\n 17794: t0 = 658, jump @1310\n      : @622 [@dyn 329] (gas: 1)\n 17800: ra = 660, jump @1361\n      : @623 [@dyn 330] (gas: 1)\n 17806: t0 = 662, jump @1328\n      : @624 [@dyn 331] (gas: 1)\n 17812: ra = 664, jump @1356\n      : @625 [@dyn 332] (gas: 1)\n 17818: t0 = 666, jump @1295\n      : @626 [@dyn 333] (gas: 1)\n 17824: ra = 668, jump @1356\n      : @627 [@dyn 334] (gas: 1)\n 17830: t0 = 670, jump @1272\n      : @628 [@dyn 335] (gas: 8)\n 17836: a5 = a4 + 0x300\n 17840: u64 [a5 + 0x40] = a3\n 17843: u64 [a5 + 0x38] = a2\n 17846: u64 [a5 + 0x30] = a1\n 17849: u64 [a5 + 0x28] = a0\n 17852: a1 = s1 + 0x2440\n 17856: a0 = u64 [s1 + 0x170]\n 17860: ra = 672, jump @23\n      : @629 [@dyn 336] (gas: 19)\n 17866: a0 = u64 [s1 + 0x48]\n 17869: a1 = u64 [s1 + 0x40]\n 17872: a0 = a0 | a1\n 17875: a1 = u64 [s1 + 0x28]\n 17878: a2 = u64 [s1 + 0x18]\n 17881: a1 = a1 | a2\n 17884: a2 = u64 [s1 + 0x30]\n 17887: a3 = u64 [s1 + 0x20]\n 17890: a2 = a2 | a3\n 17893: a3 = u64 [s1 + 0x58]\n 17896: a3 = a3 + 0x1\n 17899: a4 = s1 + 0x2118\n 17903: a5 = a4 + 0x300\n 17907: u64 [a5 + 0x48] = a3\n 17910: u64 [a5 + 0x50] = a2\n 17913: u64 [a5 + 0x58] = a1\n 17916: u64 [a5 + 0x60] = a0\n 17919: a0 = 0x2460\n 17923: jump @640\n      : @630 (gas: 11)\n 17926: a3 = s1 + 0x100\n 17930: a0 = u64 [a3 + 0x28]\n 17933: a1 = u64 [a3 + 0x20]\n 17936: a0 = a0 | a1\n 17939: a1 = 0xffffffe0\n 17949: a2 = u64 [a3 + 0x18]\n 17952: a1 = a2 <u a1\n 17955: a2 = u64 [a3 + 0x30]\n 17958: a1 = 0 if a2 != 0\n 17960: a1 = 0 if a0 != 0\n 17962: jump @534 if a1 == 0\n      : @631 (gas: 5)\n 17966: a0 = u64 [s1 + 0x118]\n 17970: i32 a1 = a0 + 0x20\n 17973: a0 = s1 + 0x7ff\n 17977: a0 = a0 + 0x61\n 17980: ra = 674, jump @17\n      : @632 [@dyn 337] (gas: 14)\n 17986: a0 = s1 + 0x1000\n 17990: a0 = u64 [a0 + 0xfffffffffffff878]\n 17994: a1 = s1 + 0x100\n 17998: u64 [a1 + 0x90] = a0\n 18002: a0 = s1 + 0x1000\n 18006: a0 = u64 [a0 + 0xfffffffffffff870]\n 18010: u64 [a1 + 0x88] = a0\n 18014: a0 = s1 + 0x1000\n 18018: a0 = u64 [a0 + 0xfffffffffffff868]\n 18022: u64 [a1 + 0x78] = a0\n 18025: a0 = s1 + 0x1000\n 18029: a0 = u64 [a0 + 0xfffffffffffff860]\n 18033: u64 [a1 + 0x80] = a0\n 18037: fallthrough\n      : @633 (gas: 19)\n 18038: a0 = u64 [s1 + 0x28]\n 18041: a1 = u64 [s1 + 0x18]\n 18044: a0 = a0 | a1\n 18047: u64 [s1 + 0x170] = a0\n 18051: a0 = u64 [s1 + 0x48]\n 18054: a1 = u64 [s1 + 0x40]\n 18057: a0 = a0 | a1\n 18060: u64 [s1 + 0x168] = a0\n 18064: a0 = u64 [s1 + 0x30]\n 18067: a1 = u64 [s1 + 0x20]\n 18070: a0 = a0 | a1\n 18073: u64 [s1 + 0x160] = a0\n 18077: a1 = u64 [s1 + 0xa8]\n 18081: a1 = a1 << 0x3\n 18084: u64 [s1 + 0x198] = a1\n 18088: i32 a2 = 0x80 - a1\n 18092: a0 = 0xffffffffffffffff\n 18095: a1 = 0xffffffffffffffff\n 18098: ra = 676, jump @1361\n      : @634 [@dyn 338] (gas: 7)\n 18104: u64 [s1 + 0x140] = a0\n 18108: u64 [s1 + 0x158] = a1\n 18112: a0 = u64 [s1 + 0xa8]\n 18116: i32 a2 = a0 << 0x3\n 18119: a0 = 0xffffffffffffffff\n 18122: a1 = 0xffffffffffffffff\n 18125: ra = 678, jump @1356\n      : @635 [@dyn 339] (gas: 1)\n 18131: t0 = 680, jump @1317\n      : @636 [@dyn 340] (gas: 1)\n 18137: ra = 682, jump @1356\n      : @637 [@dyn 341] (gas: 1)\n 18143: t0 = 684, jump @1277\n      : @638 [@dyn 342] (gas: 4)\n 18149: a4 = u64 [s1 + 0x58]\n 18152: a0 = a0 | a4\n 18155: a5 = s1 + 0x100\n 18159: t0 = 686, jump @1315\n      : @639 [@dyn 343] (gas: 7)\n 18165: a5 = a4 + 0x300\n 18169: u64 [a5 + 0x78] = a2\n 18172: u64 [a5 + 0x80] = a3\n 18176: u64 [a5 + 0x70] = a1\n 18179: u64 [a5 + 0x68] = a0\n 18182: a0 = 0x2480\n 18186: fallthrough\n      : @640 (gas: 3)\n 18187: a1 = s1 + a0\n 18190: a0 = u64 [s1 + 0x60]\n 18193: ra = 688, jump @23\n      : @641 [@dyn 344] (gas: 4)\n 18199: a0 = s1 + 0x7ff\n 18203: a0 = a0 + 0x1\n 18206: a1 = u64 [s1 + 0xa0]\n 18210: ra = 690, jump @17\n      : @642 [@dyn 345] (gas: 33)\n 18216: a0 = s1 + 0x1000\n 18220: t0 = u64 [a0 + 0xfffffffffffff800]\n 18224: a0 = s1 + 0x1000\n 18228: t1 = u64 [a0 + 0xfffffffffffff808]\n 18232: a0 = s1 + 0x1000\n 18236: t2 = u64 [a0 + 0xfffffffffffff810]\n 18240: a0 = u64 [s1 + 0x78]\n 18243: a3 = a0 + 0x3\n 18246: a4 = a3 <u a0\n 18249: a0 = u64 [s1 + 0x80]\n 18253: a5 = a0 + a4\n 18256: a0 = a5 <u a0\n 18259: a0 = a4 if a4 == 0\n 18262: a1 = s1 + 0x1000\n 18266: a4 = u64 [a1 + 0xfffffffffffff818]\n 18270: a2 = s1 + 0x2118\n 18274: u64 [a2 + 0x390] = a5\n 18278: a5 = a2 + 0x300\n 18282: u64 [a5 + 0x88] = a3\n 18286: a1 = u64 [s1 + 0x90]\n 18290: a0 = a0 + a1\n 18293: u64 [a5 + 0x98] = a0\n 18297: a0 = a0 <u a1\n 18300: a1 = u64 [s1 + 0x88]\n 18304: a0 = a0 + a1\n 18307: u64 [a5 + 0xa0] = a0\n 18311: u64 [a5 + 0xc0] = a4\n 18315: u64 [a2 + 0x3b8] = t2\n 18319: u64 [a2 + 0x3b0] = t1\n 18323: u64 [a2 + 0x3a8] = t0\n 18327: a0 = s1 + 0x24a0\n 18331: a1 = s1 + 0x24c0\n 18335: ra = 692, jump @23\n      : @643 [@dyn 346] (gas: 23)\n 18341: a0 = sp + 0xffffffffffffffe0\n 18344: a5 = a0 & 0xffffffffffffffe0\n 18347: sp = a5\n 18349: a1 = u64 [s1 + 0x78]\n 18352: a0 = a1 + 0x4\n 18355: a1 = a0 <u a1\n 18358: a3 = u64 [s1 + 0x80]\n 18362: a2 = a3 + a1\n 18365: a3 = a2 <u a3\n 18368: a3 = a1 if a1 == 0\n 18371: a1 = u64 [s1 + 0x90]\n 18375: a3 = a3 + a1\n 18378: a1 = a3 <u a1\n 18381: a4 = u64 [s1 + 0x88]\n 18385: a1 = a1 + a4\n 18388: u64 [s1 + 0x198] = a5\n 18392: u64 [a5 + 0x18] = a1\n 18395: u64 [a5 + 0x10] = a3\n 18398: u64 [a5 + 0x8] = a2\n 18401: u64 [a5] = a0\n 18403: a0 = s1 + 0x7e0\n 18407: a1 = u64 [s1 + 0x98]\n 18411: ra = 694, jump @17\n      : @644 [@dyn 347] (gas: 9)\n 18417: a0 = u64 [s1 + 0x7e0]\n 18421: u64 [s1 + 0x190] = a0\n 18425: a0 = u64 [s1 + 0x7e8]\n 18429: u64 [s1 + 0x188] = a0\n 18433: a0 = u32 [s1 + 0x7f0]\n 18437: u64 [s1 + 0x180] = a0\n 18441: a0 = s1 + 0x7c0\n 18445: a1 = u64 [s1 + 0x198]\n 18449: ra = 696, jump @21\n      : @645 [@dyn 348] (gas: 16)\n 18455: a0 = u32 [s1 + 0x7d4]\n 18459: a0 = a0 << 0x20\n 18462: a1 = u64 [s1 + 0x7d8]\n 18466: a2 = u64 [s1 + 0x180]\n 18470: a0 = a0 | a2\n 18473: a2 = s1 + 0x2118\n 18477: a3 = u64 [s1 + 0x188]\n 18481: a4 = a2 + 0x300\n 18485: u64 [a4 + 0xd0] = a3\n 18489: a3 = u64 [s1 + 0x190]\n 18493: u64 [a4 + 0xc8] = a3\n 18497: u64 [a4 + 0xe0] = a1\n 18501: u64 [a4 + 0xd8] = a0\n 18505: a1 = s1 + 0x24e0\n 18509: a0 = u64 [s1 + 0x198]\n 18513: ra = 698, jump @23\n      : @646 [@dyn 349] (gas: 3)\n 18519: a0 = s1 + 0x7a0\n 18523: a1 = u64 [s1 + 0x68]\n 18526: ra = 700, jump @17\n      : @647 [@dyn 350] (gas: 12)\n 18532: a0 = u64 [s1 + 0x7b8]\n 18536: a1 = u64 [s1 + 0x7a8]\n 18540: a2 = u64 [s1 + 0x7b0]\n 18544: a3 = u64 [s1 + 0x7a0]\n 18548: a0 = a0 | a1\n 18551: a2 = a2 | a3\n 18554: a0 = a0 | a2\n 18557: a0 = a0 >u 0\n 18559: u64 [s1 + 0x190] = a0\n 18563: a0 = s1 + 0x780\n 18567: a1 = u64 [s1 + 0x198]\n 18571: ra = 702, jump @21\n      : @648 [@dyn 351] (gas: 18)\n 18577: a0 = u64 [s1 + 0x780]\n 18581: a1 = u64 [s1 + 0x788]\n 18585: a2 = u64 [s1 + 0x798]\n 18589: a3 = u64 [s1 + 0x790]\n 18593: a4 = u64 [s1 + 0x190]\n 18597: a4 = a4 << 0x20\n 18600: a5 = 0xffffff00ffffffff\n 18610: a3 = a3 & a5\n 18613: a3 = a3 | a4\n 18616: a4 = s1 + 0x2118\n 18620: u64 [a4 + 0x400] = a2\n 18624: a2 = a4 + 0x300\n 18628: u64 [a2 + 0xf0] = a1\n 18632: u64 [a2 + 0xe8] = a0\n 18636: u64 [a2 + 0xf8] = a3\n 18640: a1 = s1 + 0x2500\n 18644: a0 = u64 [s1 + 0x198]\n 18648: ra = 704, jump @23\n      : @649 [@dyn 352] (gas: 6)\n 18654: a0 = sp + 0xffffffffffffffe0\n 18657: a2 = a0 & 0xffffffffffffffe0\n 18660: sp = a2\n 18662: a0 = u64 [s1 + 0x78]\n 18665: a3 = a0 + 0x5\n 18668: t0 = 706, jump @1354\n      : @650 [@dyn 353] (gas: 16)\n 18674: a1 = a1 + a0\n 18677: a0 = a1 <u a0\n 18680: a5 = u64 [s1 + 0x88]\n 18684: a0 = a0 + a5\n 18687: u64 [s1 + 0x140] = a0\n 18691: u64 [a2 + 0x18] = a0\n 18694: u64 [s1 + 0x138] = a1\n 18698: u64 [a2 + 0x10] = a1\n 18701: u64 [s1 + 0x148] = a4\n 18705: u64 [a2 + 0x8] = a4\n 18708: u64 [s1 + 0x98] = a2\n 18712: u64 [s1 + 0x150] = a3\n 18716: u64 [a2] = a3\n 18718: a0 = s1 + 0x760\n 18722: a1 = u64 [s1 + 0x38]\n 18725: ra = 708, jump @17\n      : @651 [@dyn 354] (gas: 18)\n 18731: a4 = s1 + 0x700\n 18735: a2 = u64 [a4 + 0x78]\n 18738: a3 = u64 [a4 + 0x70]\n 18741: a0 = u64 [a4 + 0x68]\n 18744: a1 = u64 [a4 + 0x60]\n 18747: a4 = s1 + 0x100\n 18751: u64 [a4 + 0x28] = a0\n 18754: u64 [a4 + 0x20] = a2\n 18757: a0 = a0 | a2\n 18760: u64 [a4 + 0x30] = a1\n 18763: a1 = a1 | a3\n 18766: a1 = a1 | a0\n 18769: a1 = a1 >> 0x20\n 18772: u64 [a4 + 0x18] = a3\n 18775: a0 = a0 | a3\n 18778: a0 = a0 << 0x20\n 18781: a0 = a0 | a1\n 18784: jump @653 if a0 == 0\n      : @652 (gas: 1)\n 18787: jump @534\n      : @653 (gas: 3)\n 18790: a0 = s1 + 0x740\n 18794: a1 = u64 [s1 + 0x130]\n 18798: ra = 710, jump @17\n      : @654 [@dyn 355] (gas: 17)\n 18804: a0 = s1 + 0x700\n 18808: a3 = u64 [a0 + 0x58]\n 18811: a2 = u64 [a0 + 0x50]\n 18814: a1 = u64 [a0 + 0x48]\n 18817: a0 = a3 >u 0\n 18819: a4 = a2 >u 0\n 18821: a4 = a0 if a3 != 0\n 18824: u64 [s1 + 0xa0] = a1\n 18828: a0 = a1 >u 0\n 18830: u64 [s1 + 0x90] = a2\n 18834: u64 [s1 + 0x88] = a3\n 18838: a2 = a2 | a3\n 18841: u64 [s1 + 0x70] = a0\n 18844: u64 [s1 + 0x78] = a4\n 18847: u64 [s1 + 0x110] = a2\n 18851: a0 = a4 if a2 != 0\n 18854: jump @656 if a0 == 0\n      : @655 (gas: 1)\n 18857: jump @882\n      : @656 (gas: 5)\n 18860: a0 = u64 [s1 + 0x740]\n 18864: u64 [s1 + 0xa8] = a0\n 18868: a0 = s1 + 0x720\n 18872: a1 = u64 [s1 + 0x98]\n 18876: ra = 712, jump @21\n      : @657 [@dyn 356] (gas: 12)\n 18882: a2 = u64 [s1 + 0x720]\n 18886: a0 = u64 [s1 + 0x728]\n 18890: a1 = u64 [s1 + 0x730]\n 18894: a3 = u64 [s1 + 0x738]\n 18898: a4 = s1 + 0x600\n 18902: u64 [a4 + 0xf8] = a3\n 18906: u64 [a4 + 0xf0] = a1\n 18910: u64 [a4 + 0xe8] = a0\n 18914: a0 = s1 + 0x700\n 18918: a1 = s1 + 0x6e0\n 18922: u64 [a4 + 0xe0] = a2\n 18926: ra = 714, jump @978\n      : @658 [@dyn 357] (gas: 6)\n 18932: a0 = s1 + 0x700\n 18936: a3 = u64 [a0 + 0x18]\n 18939: a4 = u64 [a0 + 0x10]\n 18942: a5 = u64 [a0 + 0x8]\n 18945: a2 = u64 [a0]\n 18947: t0 = 716, jump @1290\n      : @659 [@dyn 358] (gas: 2)\n 18953: u64 [s1 + 0x80] = a0\n 18957: jump @672 if a2 == 0\n      : @660 (gas: 12)\n 18961: a0 = u64 [s1 + 0x150]\n 18965: a2 = s1 + 0x600\n 18969: u64 [a2 + 0xc0] = a0\n 18973: a0 = u64 [s1 + 0x148]\n 18977: u64 [a2 + 0xc8] = a0\n 18981: a0 = u64 [s1 + 0x138]\n 18985: u64 [a2 + 0xd0] = a0\n 18989: a1 = s1 + 0x6c0\n 18993: a0 = u64 [s1 + 0x140]\n 18997: u64 [a2 + 0xd8] = a0\n 19001: a0 = 0\n 19003: ra = 718, jump @19\n      : @661 [@dyn 359] (gas: 3)\n 19009: a0 = u64 [s1 + 0x100]\n 19013: a0 = i32 [a0]\n 19015: jump @663 if a0 >u 31\n      : @662 (gas: 4)\n 19019: a1 = u64 [s1 + 0x100]\n 19023: u32 [a1 + 0] = 0x20\n 19026: t0 = 0x2d0\n 19030: jump @1338\n      : @663 (gas: 1)\n 19033: t0 = 720, jump @1338\n      : @664 [@dyn 360] (gas: 3)\n 19039: ra = 0x2d2\n 19043: ecalli 6 // 'hash_keccak_256'\n 19045: fallthrough\n      : @665 [@dyn 361] (gas: 9)\n 19046: a0 = u64 [s1 + 0xa8]\n 19050: a1 = a0 + 0x1f\n 19053: a0 = a1 <u a0\n 19056: a5 = u64 [s1 + 0xa0]\n 19060: a2 = a5 + a0\n 19063: a3 = a2 <u a5\n 19066: a3 = a0 if a0 == 0\n 19069: a4 = u64 [s1 + 0x90]\n 19073: t0 = 724, jump @1307\n      : @666 [@dyn 362] (gas: 35)\n 19079: a1 = u64 [s1 + 0x80]\n 19083: a1 = 0 if a5 != 0\n 19085: a3 = u64 [s1 + 0x110]\n 19089: a1 = 0 if a3 != 0\n 19091: a4 = 0 if a1 != 0\n 19093: a0 = 0 if a1 != 0\n 19095: t0 = t2 + a0\n 19098: a0 = t0 <u t2\n 19101: a5 = a2 + a0\n 19104: a4 = a4 + a5\n 19107: u64 [s1 + 0x198] = a4\n 19111: a5 = a4 ^ a2\n 19114: a3 = a4 <u a2\n 19117: a3 = a0 if a5 == 0\n 19120: u64 [s1 + 0x100] = a3\n 19124: a0 = u64 [s1 + 0x178]\n 19128: ra = a0 + 0x1f\n 19131: a4 = ra <u a0\n 19134: a3 = u64 [s1 + 0x180]\n 19138: a0 = a3 + a4\n 19141: a5 = a0 <u a3\n 19144: a5 = a4 if a4 == 0\n 19147: t1 = u64 [s1 + 0x190]\n 19151: t1 = t1 + a5\n 19154: a4 = t1 << 0x3b\n 19157: a3 = a0 >> 0x5\n 19160: a3 = a3 | a4\n 19163: a0 = a0 << 0x3b\n 19166: a4 = ra >> 0x5\n 19169: a0 = a0 | a4\n 19172: a0 = a0 + t2\n 19175: u64 [s1 + 0x170] = a0\n 19179: a0 = a0 <u t2\n 19182: t2 = t0\n 19184: t0 = 726, jump @1322\n      : @667 [@dyn 363] (gas: 47)\n 19190: a0 = u64 [s1 + 0x90]\n 19194: a0 = a4 <u a0\n 19197: a3 = u64 [s1 + 0x88]\n 19201: a0 = a0 + a3\n 19204: a3 = a4 >> 0x5\n 19207: a4 = a0 << 0x3b\n 19210: a3 = a3 | a4\n 19213: a4 = u64 [s1 + 0x160]\n 19217: t0 = u64 [a4]\n 19219: a4 = u64 [a4 + 0x8]\n 19222: a0 = a0 >> 0x5\n 19225: a3 = 0 if a1 != 0\n 19227: a0 = 0 if a1 != 0\n 19229: a1 = reverse a4\n 19231: a4 = reverse t0\n 19233: a0 = a0 + a4\n 19236: a3 = a3 + a1\n 19239: a5 = a3 <u a1\n 19242: a0 = a0 + a5\n 19245: ra = u64 [s1 + 0x100]\n 19249: ra = ra + a3\n 19252: a3 = ra <u a3\n 19255: t0 = a0 + a3\n 19258: a0 = u64 [s1 + 0x190]\n 19262: a0 = t1 <u a0\n 19265: a3 = u64 [s1 + 0x188]\n 19269: a0 = a0 + a3\n 19272: a3 = t1 >> 0x5\n 19275: a5 = a0 << 0x3b\n 19278: a3 = a3 | a5\n 19281: a0 = a0 >> 0x5\n 19284: a0 = a0 + a4\n 19287: a5 = s1 + 0x100\n 19291: a4 = u64 [a5 + 0x98]\n 19295: a3 = a3 + a1\n 19298: a1 = a3 <u a1\n 19301: a0 = a0 + a1\n 19304: a2 = a2 + a3\n 19307: u64 [a5 + 0x60] = a2\n 19310: a1 = a2 <u a3\n 19313: a0 = a0 + a1\n 19316: u64 [a5 + 0x58] = a0\n 19319: a0 = sp + 0xffffffffffffffe0\n 19322: a0 = a0 & 0xffffffffffffffe0\n 19325: u64 [a5 + 0x90] = a0\n 19329: sp = a0\n 19331: fallthrough\n      : @668 (gas: 25)\n 19332: a0 = u64 [s1 + 0x170]\n 19336: a0 = t2 <u a0\n 19339: a2 = u64 [s1 + 0x168]\n 19343: a1 = a4 ^ a2\n 19346: a2 = a4 <u a2\n 19349: a2 = a0 if a1 == 0\n 19352: a5 = u64 [s1 + 0x160]\n 19356: a0 = ra <u a5\n 19359: a3 = u64 [s1 + 0x158]\n 19363: a1 = t0 ^ a3\n 19366: a3 = t0 <u a3\n 19369: a3 = a0 if a1 == 0\n 19372: a0 = ra ^ a5\n 19375: a0 = a0 | a1\n 19378: a3 = a2 if a0 == 0\n 19381: u64 [s1 + 0x188] = t2\n 19385: a0 = u64 [s1 + 0x190]\n 19389: u64 [a0] = t2\n 19391: u64 [s1 + 0x198] = a4\n 19395: u64 [a0 + 0x8] = a4\n 19398: u64 [s1 + 0x178] = ra\n 19402: u64 [a0 + 0x10] = ra\n 19405: u64 [s1 + 0x180] = t0\n 19409: u64 [a0 + 0x18] = t0\n 19412: jump @672 if a3 == 0\n      : @669 (gas: 8)\n 19415: a0 = s1 + 0x2118\n 19419: u64 [a0 + 1056] = 0\n 19423: u64 [a0 + 1048] = 0\n 19427: u64 [a0 + 1040] = 0\n 19431: u64 [a0 + 1032] = 0\n 19435: a1 = s1 + 0x2520\n 19439: a0 = u64 [s1 + 0x190]\n 19443: ra = 728, jump @23\n      : @670 [@dyn 364] (gas: 1)\n 19449: t0 = 730, jump @1311\n      : @671 [@dyn 365] (gas: 4)\n 19455: t0 = u64 [s1 + 0x180]\n 19459: t0 = t0 + a1\n 19462: ra = a0\n 19464: jump @668\n      : @672 (gas: 9)\n 19467: a0 = u64 [s1 + 0x80]\n 19471: a0 = a0 ^ 0x1\n 19474: a1 = u64 [s1 + 0xa0]\n 19478: a2 = u64 [s1 + 0x70]\n 19481: a0 = a2 if a1 != 0\n 19484: a1 = u64 [s1 + 0x78]\n 19487: a2 = u64 [s1 + 0x110]\n 19491: a0 = a1 if a2 != 0\n 19494: jump @690 if a0 == 0\n      : @673 (gas: 15)\n 19498: a0 = u64 [s1 + 0xa8]\n 19502: a0 = a0 & 0xffffffffffffffe0\n 19505: u64 [s1 + 0x110] = a0\n 19509: a0 = u64 [s1 + 0x150]\n 19513: a2 = s1 + 0x600\n 19517: u64 [a2 + 0x80] = a0\n 19521: a0 = u64 [s1 + 0x148]\n 19525: u64 [a2 + 0x88] = a0\n 19529: a0 = u64 [s1 + 0x138]\n 19533: u64 [a2 + 0x90] = a0\n 19537: a1 = s1 + 0x680\n 19541: a0 = u64 [s1 + 0x140]\n 19545: u64 [a2 + 0x98] = a0\n 19549: a0 = 0\n 19551: ra = 732, jump @19\n      : @674 [@dyn 366] (gas: 1)\n 19557: t0 = 734, jump @1319\n      : @675 [@dyn 367] (gas: 1)\n 19563: ra = 736, jump @30\n      : @676 [@dyn 368] (gas: 1)\n 19569: t0 = 738, jump @1308\n      : @677 [@dyn 369] (gas: 4)\n 19575: ra = 0x2e4\n 19579: ecalli 6 // 'hash_keccak_256'\n 19581: t0 = 0x2e6\n 19585: jump @1336\n      : @678 [@dyn 370] (gas: 1)\n 19588: t0 = 742, jump @1336\n      : @679 [@dyn 371] (gas: 1)\n 19594: t0 = 744, jump @1279\n      : @680 [@dyn 372] (gas: 8)\n 19600: t0 = a0\n 19602: a1 = u64 [s1 + 0x170]\n 19606: u64 [a1 + 0x18] = a0\n 19609: u64 [s1 + 0x150] = ra\n 19613: u64 [a1 + 0x10] = ra\n 19616: u64 [a1 + 0x8] = t2\n 19619: u64 [a1] = t1\n 19621: fallthrough\n      : @681 (gas: 24)\n 19622: u64 [s1 + 0x168] = t0\n 19626: a0 = u64 [s1 + 0x110]\n 19630: u64 [s1 + 0x178] = a4\n 19634: a0 = a4 <u a0\n 19637: a4 = a0 ^ 0x1\n 19640: u64 [s1 + 0x158] = a3\n 19644: a4 = 0x1 if a3 != 0\n 19647: u64 [s1 + 0x160] = a2\n 19651: a0 = u64 [s1 + 0x180]\n 19655: a0 = a0 | a2\n 19658: a4 = 0x1 if a0 != 0\n 19661: a1 = u64 [s1 + 0x130]\n 19665: a0 = u64 [s1 + 0x198]\n 19669: a1 = a1 + a0\n 19672: a3 = u64 [s1 + 0x128]\n 19676: a3 = a3 + a5\n 19679: a2 = u64 [s1 + 0x118]\n 19683: a0 = u64 [s1 + 0x190]\n 19687: a2 = a2 + a0\n 19690: a0 = u64 [s1 + 0x120]\n 19694: ra = a5\n 19696: a5 = u64 [s1 + 0x188]\n 19700: a0 = a0 + a5\n 19703: jump @692 if a4 != 0\n      : @682 (gas: 14)\n 19707: a4 = u64 [s1 + 0x198]\n 19711: a4 = a1 <u a4\n 19714: a3 = a3 + a4\n 19717: t0 = a3 ^ ra\n 19720: u64 [s1 + 0x138] = ra\n 19724: a5 = a3 <u ra\n 19727: a5 = a4 if t0 == 0\n 19730: a5 = a5 + a2\n 19733: t0 = a5 <u a2\n 19736: a4 = u64 [s1 + 0x190]\n 19740: a2 = a2 <u a4\n 19743: a0 = a0 + a2\n 19746: a0 = a0 + t0\n 19749: t0 = 746, jump @1316\n      : @683 [@dyn 373] (gas: 3)\n 19755: u64 [s1 + 0x148] = t1\n 19759: u64 [s1 + 0x140] = t2\n 19763: jump @685 if a0 == 0\n      : @684 (gas: 1)\n 19766: jump @534\n      : @685 (gas: 2)\n 19769: a0 = s1 + 0x500\n 19773: ra = 748, jump @17\n      : @686 [@dyn 374] (gas: 14)\n 19779: a4 = s1 + 0x500\n 19783: a0 = u64 [a4 + 0x18]\n 19786: a1 = u64 [a4 + 0x10]\n 19789: a2 = u64 [a4 + 0x8]\n 19792: a3 = u64 [a4]\n 19794: a4 = s1 + 0x2118\n 19798: a5 = a4 + 0x400\n 19802: u64 [a5 + 0x40] = a0\n 19805: u64 [a5 + 0x38] = a1\n 19808: u64 [a5 + 0x30] = a2\n 19811: u64 [a5 + 0x28] = a3\n 19814: a1 = s1 + 0x2540\n 19818: a0 = u64 [s1 + 0x170]\n 19822: ra = 750, jump @23\n      : @687 [@dyn 375] (gas: 1)\n 19828: t0 = 752, jump @1275\n      : @688 [@dyn 376] (gas: 4)\n 19834: t0 = u64 [s1 + 0x180]\n 19838: t0 = t0 + a5\n 19841: u64 [s1 + 0x180] = t0\n 19845: t0 = 754, jump @1331\n      : @689 [@dyn 377] (gas: 9)\n 19851: t0 = a0\n 19853: u64 [a5 + 0x18] = a0\n 19856: u64 [s1 + 0x150] = ra\n 19860: a0 = u64 [s1 + 0x168]\n 19864: u64 [s1 + 0x198] = a0\n 19868: a5 = u64 [s1 + 0x148]\n 19872: u64 [s1 + 0x190] = a3\n 19876: a3 = a1\n 19878: jump @681\n      : @690 (gas: 8)\n 19881: a0 = u64 [s1 + 0xa8]\n 19885: a1 = u64 [s1 + 0x90]\n 19889: a0 = a0 | a1\n 19892: a1 = u64 [s1 + 0xa0]\n 19896: a2 = u64 [s1 + 0x88]\n 19900: a1 = a1 | a2\n 19903: a0 = a0 | a1\n 19906: jump @706 if a0 != 0\n      : @691 (gas: 5)\n 19910: u64 [s1 + 384] = 0\n 19914: u64 [s1 + 376] = 0\n 19918: u64 [s1 + 392] = 0\n 19922: u64 [s1 + 400] = 0\n 19926: jump @710\n      : @692 (gas: 12)\n 19929: t2 = u64 [s1 + 0x190]\n 19933: t1 = u64 [s1 + 0x198]\n 19937: a4 = u64 [s1 + 0xa8]\n 19941: a5 = u64 [s1 + 0x110]\n 19945: a4 = a4 ^ a5\n 19948: a5 = u64 [s1 + 0x90]\n 19952: t0 = a4 | a5\n 19955: a5 = u64 [s1 + 0xa0]\n 19959: a4 = u64 [s1 + 0x88]\n 19963: a5 = a5 | a4\n 19966: a4 = t0 | a5\n 19969: jump @705 if a4 == 0\n      : @693 (gas: 11)\n 19973: a4 = a1 <u t1\n 19976: a3 = a3 + a4\n 19979: t0 = a3 ^ ra\n 19982: a5 = a3 <u ra\n 19985: a5 = a4 if t0 == 0\n 19988: a5 = a5 + a2\n 19991: a4 = a5 <u a2\n 19994: a2 = a2 <u t2\n 19997: a0 = a0 + a2\n 20000: a0 = a0 + a4\n 20003: t0 = 756, jump @1316\n      : @694 [@dyn 378] (gas: 1)\n 20009: jump @696 if a0 == 0\n      : @695 (gas: 1)\n 20012: jump @534\n      : @696 (gas: 2)\n 20015: a0 = s1 + 0x660\n 20019: ra = 758, jump @17\n      : @697 [@dyn 379] (gas: 11)\n 20025: a1 = s1 + 0x600\n 20029: a0 = u64 [a1 + 0x78]\n 20032: u64 [s1 + 0x190] = a0\n 20036: a0 = u64 [a1 + 0x70]\n 20039: u64 [s1 + 0x188] = a0\n 20043: a0 = u64 [a1 + 0x68]\n 20046: u64 [s1 + 0x180] = a0\n 20050: a0 = u64 [a1 + 0x60]\n 20053: u64 [s1 + 0x178] = a0\n 20057: a0 = u64 [s1 + 0xa8]\n 20061: t0 = 760, jump @1310\n      : @698 [@dyn 380] (gas: 1)\n 20067: ra = 762, jump @1361\n      : @699 [@dyn 381] (gas: 1)\n 20073: t0 = 764, jump @1328\n      : @700 [@dyn 382] (gas: 1)\n 20079: ra = 766, jump @1356\n      : @701 [@dyn 383] (gas: 1)\n 20085: t0 = 768, jump @1295\n      : @702 [@dyn 384] (gas: 1)\n 20091: ra = 770, jump @1356\n      : @703 [@dyn 385] (gas: 1)\n 20097: t0 = 772, jump @1272\n      : @704 [@dyn 386] (gas: 8)\n 20103: a5 = a4 + 0x400\n 20107: u64 [a5 + 0x60] = a3\n 20110: u64 [a5 + 0x58] = a2\n 20113: u64 [a5 + 0x50] = a1\n 20116: u64 [a5 + 0x48] = a0\n 20119: a1 = s1 + 0x2560\n 20123: a0 = u64 [s1 + 0x170]\n 20127: ra = 774, jump @23\n      : @705 [@dyn 387] (gas: 23)\n 20133: a2 = u64 [s1 + 0x90]\n 20137: a0 = a2 >> 0x3f\n 20140: a1 = u64 [s1 + 0x88]\n 20144: a1 = a1 << 0x1\n 20147: a0 = a0 | a1\n 20150: a3 = u64 [s1 + 0xa0]\n 20154: a1 = a3 >> 0x3f\n 20157: a2 = a2 << 0x1\n 20160: a1 = a1 | a2\n 20163: a4 = u64 [s1 + 0xa8]\n 20167: a2 = a4 >> 0x3f\n 20170: a3 = a3 << 0x1\n 20173: a2 = a2 | a3\n 20176: a3 = a4 << 0x1\n 20179: a3 = a3 + 0x1\n 20182: a4 = s1 + 0x2118\n 20186: a5 = a4 + 0x400\n 20190: u64 [a5 + 0x68] = a3\n 20193: u64 [a5 + 0x70] = a2\n 20196: u64 [a5 + 0x78] = a1\n 20199: u64 [a5 + 0x80] = a0\n 20203: a0 = 0x2580\n 20207: jump @715\n      : @706 (gas: 11)\n 20210: a3 = s1 + 0x100\n 20214: a0 = u64 [a3 + 0x20]\n 20217: a1 = u64 [a3 + 0x18]\n 20220: a0 = a0 | a1\n 20223: a1 = 0xffffffe0\n 20233: a2 = u64 [a3 + 0x30]\n 20236: a1 = a2 <u a1\n 20239: a2 = u64 [a3 + 0x28]\n 20242: a1 = 0 if a2 != 0\n 20244: a1 = 0 if a0 != 0\n 20246: jump @708 if a1 != 0\n      : @707 (gas: 1)\n 20249: jump @534\n      : @708 (gas: 4)\n 20252: a0 = u64 [s1 + 0x130]\n 20256: i32 a1 = a0 + 0x20\n 20259: a0 = s1 + 0x6a0\n 20263: ra = 776, jump @17\n      : @709 [@dyn 388] (gas: 11)\n 20269: a1 = s1 + 0x600\n 20273: a0 = u64 [a1 + 0xb8]\n 20277: a2 = s1 + 0x100\n 20281: u64 [a2 + 0x90] = a0\n 20285: a0 = u64 [a1 + 0xb0]\n 20289: u64 [a2 + 0x88] = a0\n 20293: a0 = u64 [a1 + 0xa8]\n 20297: u64 [a2 + 0x78] = a0\n 20300: a0 = u64 [a1 + 0xa0]\n 20304: u64 [a2 + 0x80] = a0\n 20308: fallthrough\n      : @710 (gas: 24)\n 20309: a2 = u64 [s1 + 0xa0]\n 20313: a0 = a2 >> 0x3f\n 20316: a3 = u64 [s1 + 0x90]\n 20320: a1 = a3 << 0x1\n 20323: a0 = a0 | a1\n 20326: u64 [s1 + 0x170] = a0\n 20330: a0 = a3 >> 0x3f\n 20333: a1 = u64 [s1 + 0x88]\n 20337: a1 = a1 << 0x1\n 20340: a0 = a0 | a1\n 20343: u64 [s1 + 0x168] = a0\n 20347: a3 = u64 [s1 + 0xa8]\n 20351: a0 = a3 >> 0x3f\n 20354: a1 = a2 << 0x1\n 20357: a0 = a0 | a1\n 20360: u64 [s1 + 0x160] = a0\n 20364: a0 = a3 << 0x1\n 20367: u64 [s1 + 0x158] = a0\n 20371: a1 = a3 << 0x3\n 20374: u64 [s1 + 0x198] = a1\n 20378: i32 a2 = 0x80 - a1\n 20382: a0 = 0xffffffffffffffff\n 20385: a1 = 0xffffffffffffffff\n 20388: ra = 778, jump @1361\n      : @711 [@dyn 389] (gas: 7)\n 20394: u64 [s1 + 0x138] = a0\n 20398: u64 [s1 + 0x150] = a1\n 20402: a0 = u64 [s1 + 0xa8]\n 20406: i32 a2 = a0 << 0x3\n 20409: a0 = 0xffffffffffffffff\n 20412: a1 = 0xffffffffffffffff\n 20415: ra = 780, jump @1356\n      : @712 [@dyn 390] (gas: 10)\n 20421: u64 [s1 + 0x148] = a0\n 20425: u64 [s1 + 0x140] = a1\n 20429: a1 = u64 [s1 + 0x138]\n 20433: a0 = a0 | a1\n 20436: u64 [s1 + 0x138] = a0\n 20440: a0 = u64 [s1 + 0x198]\n 20444: i32 a2 = a0 + 0xffffffffffffff80\n 20447: a0 = 0xffffffffffffffff\n 20450: a1 = 0xffffffffffffffff\n 20453: ra = 782, jump @1356\n      : @713 [@dyn 391] (gas: 25)\n 20459: a4 = u64 [s1 + 0x198]\n 20463: a2 = a4 <u 0x80\n 20467: a3 = u64 [s1 + 0x138]\n 20471: a0 = a3 if a2 != 0\n 20474: a5 = u64 [s1 + 0x140]\n 20478: a3 = u64 [s1 + 0x150]\n 20482: a3 = a3 | a5\n 20485: a3 = a1 if a2 == 0\n 20488: a0 = 0xffffffffffffffff if a4 == 0\n 20491: a3 = 0xffffffffffffffff if a4 == 0\n 20494: a5 = 0 if a2 == 0\n 20496: a4 = u64 [s1 + 0x148]\n 20500: a4 = 0 if a2 == 0\n 20502: a1 = u64 [s1 + 0x178]\n 20506: a1 = a1 & ~a3\n 20509: a2 = u64 [s1 + 0x180]\n 20513: a0 = a2 & ~a0\n 20516: a2 = u64 [s1 + 0x188]\n 20520: a2 = a2 & ~a4\n 20523: a3 = u64 [s1 + 0x190]\n 20527: a3 = a3 & ~a5\n 20530: a5 = s1 + 0x100\n 20534: a4 = u64 [a5 + 0x58]\n 20537: a0 = a0 | a4\n 20540: t0 = 784, jump @1315\n      : @714 [@dyn 392] (gas: 7)\n 20546: a5 = a4 + 0x400\n 20550: u64 [a5 + 0x98] = a2\n 20554: u64 [a5 + 0xa0] = a3\n 20558: u64 [a5 + 0x90] = a1\n 20562: u64 [a5 + 0x88] = a0\n 20566: a0 = 0x25a0\n 20570: fallthrough\n      : @715 (gas: 3)\n 20571: a1 = s1 + a0\n 20574: a0 = u64 [s1 + 0x98]\n 20578: ra = 786, jump @23\n      : @716 [@dyn 393] (gas: 3)\n 20584: a0 = s1 + 0x640\n 20588: a1 = 0x40\n 20591: ra = 788, jump @17\n      : @717 [@dyn 394] (gas: 18)\n 20597: a4 = s1 + 0x600\n 20601: a2 = u64 [a4 + 0x58]\n 20604: a3 = u64 [a4 + 0x50]\n 20607: a0 = u64 [a4 + 0x48]\n 20610: a1 = u64 [a4 + 0x40]\n 20613: a4 = s1 + 0x100\n 20617: u64 [a4 + 0x90] = a0\n 20621: u64 [a4 + 0x88] = a2\n 20625: a0 = a0 | a2\n 20628: u64 [a4 + 0x98] = a1\n 20632: a1 = a1 | a3\n 20635: a1 = a1 | a0\n 20638: a1 = a1 >> 0x20\n 20641: u64 [a4 + 0x80] = a3\n 20645: a0 = a0 | a3\n 20648: a0 = a0 << 0x20\n 20651: a0 = a0 | a1\n 20654: jump @719 if a0 == 0\n      : @718 (gas: 1)\n 20657: jump @534\n      : @719 (gas: 12)\n 20660: a0 = u64 [s1 + 0xf0]\n 20664: a2 = s1 + 0x600\n 20668: u64 [a2 + 0x20] = a0\n 20671: a0 = u64 [s1 + 0xe0]\n 20675: u64 [a2 + 0x28] = a0\n 20678: a0 = u64 [s1 + 0xd8]\n 20682: u64 [a2 + 0x30] = a0\n 20685: a1 = s1 + 0x620\n 20689: a0 = u64 [s1 + 0xe8]\n 20693: u64 [a2 + 0x38] = a0\n 20696: a0 = u64 [s1 + 0x198]\n 20700: ra = 790, jump @19\n      : @720 [@dyn 395] (gas: 14)\n 20706: a3 = s1 + 0x100\n 20710: a0 = u64 [a3 + 0x88]\n 20714: a1 = u64 [a3 + 0x80]\n 20718: a2 = a1 | a0\n 20721: a0 = 0x100000000\n 20731: u64 [a3 + 0x70] = a0\n 20734: a0 = 0xffffffe0\n 20744: a1 = u64 [a3 + 0x98]\n 20748: a0 = a1 <u a0\n 20751: a1 = u64 [a3 + 0x90]\n 20755: a0 = 0 if a1 != 0\n 20757: u64 [a3 + 0x78] = a2\n 20760: a0 = 0 if a2 != 0\n 20762: jump @722 if a0 != 0\n      : @721 (gas: 1)\n 20765: jump @534\n      : @722 (gas: 8)\n 20768: a0 = u64 [s1 + 0x198]\n 20772: i32 a0 = a0 + 0x20\n 20775: u64 [s1 + 1560] = 0\n 20779: u64 [s1 + 1552] = 0\n 20783: u64 [s1 + 1536] = 0x60\n 20788: a1 = s1 + 0x600\n 20792: u64 [s1 + 1544] = 0\n 20796: ra = 792, jump @19\n      : @723 [@dyn 396] (gas: 5)\n 20802: a1 = u64 [s1 + 0x198]\n 20806: a0 = a1 + 0x60\n 20809: a1 = a0 <u a1\n 20812: a3 = u64 [s1 + 0x190]\n 20816: t0 = 794, jump @1318\n      : @724 [@dyn 397] (gas: 16)\n 20822: u64 [s1 + 0x5a8] = a2\n 20826: u64 [s1 + 0x5a0] = a0\n 20830: a0 = u64 [s1 + 0xb8]\n 20834: u64 [s1 + 0x5d8] = a0\n 20838: a0 = u64 [s1 + 0xc0]\n 20842: u64 [s1 + 0x5d0] = a0\n 20846: a0 = u64 [s1 + 0xc8]\n 20850: u64 [s1 + 0x5c8] = a0\n 20854: a0 = u64 [s1 + 0xd0]\n 20858: u64 [s1 + 0x5c0] = a0\n 20862: u64 [s1 + 0x5b0] = a3\n 20866: a0 = s1 + 0x5e0\n 20870: a1 = s1 + 0x5c0\n 20874: a2 = s1 + 0x5a0\n 20878: u64 [s1 + 0x5b8] = a4\n 20882: ra = 796, jump @1009\n      : @725 [@dyn 398] (gas: 13)\n 20888: a1 = s1 + 0x500\n 20892: a0 = u64 [a1 + 0xf8]\n 20896: u64 [s1 + 0x158] = a0\n 20900: a0 = u64 [a1 + 0xf0]\n 20904: u64 [s1 + 0x150] = a0\n 20908: a0 = u64 [a1 + 0xe8]\n 20912: u64 [s1 + 0x160] = a0\n 20916: a0 = u64 [a1 + 0xe0]\n 20920: u64 [s1 + 0x168] = a0\n 20924: a0 = u64 [s1 + 0xb0]\n 20928: ra = 0x31e\n 20932: ecalli 3 // 'caller'\n 20934: fallthrough\n      : @726 [@dyn 399] (gas: 10)\n 20935: a2 = s1 + 0x100\n 20939: a0 = u64 [a2 + 0x70]\n 20942: a0 = a0 + 0xffffffffffffffc0\n 20945: a1 = u64 [a2 + 0x98]\n 20949: a0 = a1 <u a0\n 20952: a1 = u64 [a2 + 0x90]\n 20956: a0 = 0 if a1 != 0\n 20958: a1 = u64 [a2 + 0x78]\n 20961: a0 = 0 if a1 != 0\n 20963: jump @728 if a0 != 0\n      : @727 (gas: 1)\n 20966: jump @534\n      : @728 (gas: 2)\n 20969: a2 = u64 [s1 + 0x108]\n 20973: t0 = 800, jump @1284\n      : @729 [@dyn 400] (gas: 9)\n 20979: a0 = u64 [s1 + 0x198]\n 20983: i32 a0 = a0 + 0x40\n 20986: u64 [s1 + 1432] = 0\n 20990: a4 = s1 + 0x500\n 20994: u64 [a4 + 0x90] = a1\n 20998: u64 [a4 + 0x88] = a2\n 21002: a1 = s1 + 0x580\n 21006: u64 [a4 + 0x80] = a3\n 21010: ra = 802, jump @19\n      : @730 [@dyn 401] (gas: 30)\n 21016: t0 = u64 [s1 + 0x168]\n 21020: ra = u64 [s1 + 0x198]\n 21024: t1 = t0 <u ra\n 21027: a5 = u64 [s1 + 0x190]\n 21031: a1 = u64 [s1 + 0x160]\n 21035: a3 = a1 ^ a5\n 21038: a2 = a1 <u a5\n 21041: a2 = t1 if a3 == 0\n 21044: a3 = u64 [s1 + 0x180]\n 21048: a4 = u64 [s1 + 0x150]\n 21052: a0 = a4 - a3\n 21055: t2 = a4 <u a3\n 21058: a4 = u64 [s1 + 0x188]\n 21062: a3 = u64 [s1 + 0x158]\n 21066: a4 = a3 - a4\n 21069: a4 = a4 - t2\n 21072: a3 = a0 <u a2\n 21075: a4 = a4 - a3\n 21078: a2 = a0 - a2\n 21081: a1 = a1 - a5\n 21084: a0 = a1 - t1\n 21087: a1 = t0 - ra\n 21090: a0 = a0 | a4\n 21093: a3 = a1 | a2\n 21096: a3 = a3 | a0\n 21099: a0 = a0 | a2\n 21102: a3 = a3 >> 0x20\n 21105: a0 = a0 << 0x20\n 21108: a0 = a0 | a3\n 21111: jump @732 if a0 == 0\n      : @731 (gas: 1)\n 21114: jump @534\n      : @732 (gas: 11)\n 21117: a0 = u64 [0x200a8]\n 21122: u64 [s1 + 0x578] = a0\n 21126: a0 = u64 [0x200b0]\n 21131: a2 = u64 [0x200b8]\n 21136: a3 = u64 [0x200c0]\n 21141: u64 [s1 + 0x570] = a0\n 21145: u64 [s1 + 0x568] = a2\n 21149: a2 = s1 + 0x560\n 21153: u64 [s1 + 0x560] = a3\n 21157: a0 = u64 [s1 + 0x198]\n 21161: ra = 804, jump @24\n      : @733 [@dyn 402] (gas: 3)\n 21167: a0 = s1 + 0x540\n 21171: a1 = 0x40\n 21174: ra = 806, jump @17\n      : @734 [@dyn 403] (gas: 13)\n 21180: a3 = s1 + 0x500\n 21184: a0 = u64 [a3 + 0x58]\n 21187: a1 = u64 [a3 + 0x50]\n 21190: a2 = u64 [a3 + 0x48]\n 21193: a4 = u64 [a3 + 0x40]\n 21196: a0 = a0 | a2\n 21199: a2 = a4 | a1\n 21202: a2 = a2 | a0\n 21205: a2 = a2 >> 0x20\n 21208: a0 = a0 | a1\n 21211: a0 = a0 << 0x20\n 21214: a0 = a0 | a2\n 21217: jump @736 if a0 == 0\n      : @735 (gas: 1)\n 21220: jump @534\n      : @736 (gas: 15)\n 21223: a3 = a4\n 21225: a0 = u64 [s1 + 0xf0]\n 21229: a2 = s1 + 0x500\n 21233: u64 [a2 + 0x20] = a0\n 21236: a0 = u64 [s1 + 0xe0]\n 21240: u64 [a2 + 0x28] = a0\n 21243: a0 = u64 [s1 + 0xd8]\n 21247: u64 [a2 + 0x30] = a0\n 21250: a1 = s1 + 0x520\n 21254: a0 = u64 [s1 + 0xe8]\n 21258: u64 [a2 + 0x38] = a0\n 21261: a0 = a3\n 21263: u64 [s1 + 0x198] = a3\n 21267: ra = 0x1fe\n 21271: jump @19\n      : @737 (gas: 6)\n 21274: a1 = 0x201d0\n 21279: i32 a1 = a1 + 0\n 21281: a0 = 0x1\n 21284: a2 = 0\n 21286: ecalli 8 // 'seal_return'\n 21288: jump @837\n      : @738 (gas: 6)\n 21291: a1 = 0x201d0\n 21296: i32 a1 = a1 + 0\n 21298: a0 = 0x1\n 21301: a2 = 0\n 21303: ecalli 8 // 'seal_return'\n 21305: jump @837\n      : @739 (gas: 6)\n 21308: a1 = 0x201d0\n 21313: i32 a1 = a1 + 0\n 21315: a0 = 0x1\n 21318: a2 = 0\n 21320: ecalli 8 // 'seal_return'\n 21322: jump @837\n      : @740 (gas: 6)\n 21325: a1 = 0x201d0\n 21330: i32 a1 = a1 + 0\n 21332: a0 = 0x1\n 21335: a2 = 0\n 21337: ecalli 8 // 'seal_return'\n 21339: jump @837\n      : @741 (gas: 6)\n 21342: a1 = 0x201d0\n 21347: i32 a1 = a1 + 0\n 21349: a0 = 0x1\n 21352: a2 = 0\n 21354: ecalli 8 // 'seal_return'\n 21356: jump @837\n      : @742 (gas: 6)\n 21359: a1 = 0x201d0\n 21364: i32 a1 = a1 + 0\n 21366: a0 = 0x1\n 21369: a2 = 0\n 21371: ecalli 8 // 'seal_return'\n 21373: jump @837\n      : @743 (gas: 6)\n 21376: a1 = 0x201d0\n 21381: i32 a1 = a1 + 0\n 21383: a0 = 0x1\n 21386: a2 = 0\n 21388: ecalli 8 // 'seal_return'\n 21390: jump @837\n      : @744 (gas: 6)\n 21393: a1 = 0x201d0\n 21398: i32 a1 = a1 + 0\n 21400: a0 = 0x1\n 21403: a2 = 0\n 21405: ecalli 8 // 'seal_return'\n 21407: jump @837\n      : @745 (gas: 6)\n 21410: a1 = 0x201d0\n 21415: i32 a1 = a1 + 0\n 21417: a0 = 0x1\n 21420: a2 = 0\n 21422: ecalli 8 // 'seal_return'\n 21424: jump @837\n      : @746 (gas: 6)\n 21427: a1 = 0x201d0\n 21432: i32 a1 = a1 + 0\n 21434: a0 = 0x1\n 21437: a2 = 0\n 21439: ecalli 8 // 'seal_return'\n 21441: jump @837\n      : @747 (gas: 6)\n 21444: a1 = 0x201d0\n 21449: i32 a1 = a1 + 0\n 21451: a0 = 0x1\n 21454: a2 = 0\n 21456: ecalli 8 // 'seal_return'\n 21458: jump @837\n      : @748 (gas: 6)\n 21461: a1 = 0x201d0\n 21466: i32 a1 = a1 + 0\n 21468: a0 = 0x1\n 21471: a2 = 0\n 21473: ecalli 8 // 'seal_return'\n 21475: jump @837\n      : @749 (gas: 6)\n 21478: a1 = 0x201d0\n 21483: i32 a1 = a1 + 0\n 21485: a0 = 0x1\n 21488: a2 = 0\n 21490: ecalli 8 // 'seal_return'\n 21492: jump @837\n      : @750 (gas: 8)\n 21495: u64 [s1 + 944] = 0\n 21499: u64 [s1 + 936] = 0\n 21503: u64 [s1 + 928] = 0\n 21507: a0 = 0xe2517d3f00000000\n 21517: a1 = s1 + 0x3a0\n 21521: u64 [s1 + 0x3b8] = a0\n 21525: a0 = 0\n 21527: ra = 808, jump @19\n      : @751 [@dyn 404] (gas: 6)\n 21533: a0 = u64 [s1 + 0xb0]\n 21537: ra = 0x32a\n 21541: ecalli 3 // 'caller'\n 21543: a2 = u64 [s1 + 0x108]\n 21547: t0 = 0x32c\n 21551: jump @1273\n      : @752 [@dyn 405] (gas: 2)\n 21554: a2 = u64 [s1 + 0x108]\n 21558: t0 = 812, jump @1273\n      : @753 [@dyn 406] (gas: 7)\n 21564: u64 [s1 + 920] = 0\n 21568: u64 [s1 + 0x390] = a1\n 21572: u64 [s1 + 0x388] = a0\n 21576: a0 = 0x4\n 21579: a1 = s1 + 0x380\n 21583: u64 [s1 + 0x380] = a3\n 21587: ra = 814, jump @19\n      : @754 [@dyn 407] (gas: 12)\n 21593: a0 = u64 [s1 + 0x128]\n 21597: a3 = s1 + 0x300\n 21601: u64 [a3 + 0x78] = a0\n 21604: a0 = u64 [s1 + 0x120]\n 21608: u64 [a3 + 0x70] = a0\n 21611: a0 = u64 [s1 + 0x118]\n 21615: u64 [a3 + 0x68] = a0\n 21618: a0 = 0x24\n 21621: a1 = s1 + 0x360\n 21625: a2 = u64 [s1 + 0x130]\n 21629: u64 [a3 + 0x60] = a2\n 21632: ra = 816, jump @19\n      : @755 [@dyn 408] (gas: 3)\n 21638: a0 = u64 [s1 + 0x100]\n 21642: a0 = i32 [a0]\n 21644: jump @757 if a0 >u 95\n      : @756 (gas: 7)\n 21648: a1 = u64 [s1 + 0x100]\n 21652: u32 [a1 + 0] = 0x60\n 21655: a0 = 0x1\n 21658: a2 = 0x44\n 21661: a1 = u64 [s1 + 0xf8]\n 21665: ecalli 8 // 'seal_return'\n 21667: jump @763\n      : @757 (gas: 5)\n 21670: a0 = 0x1\n 21673: a2 = 0x44\n 21676: a1 = u64 [s1 + 0xf8]\n 21680: ecalli 8 // 'seal_return'\n 21682: jump @763\n      : @758 (gas: 8)\n 21684: u64 [s1 + 1008] = 0\n 21688: u64 [s1 + 1000] = 0\n 21692: u64 [s1 + 992] = 0\n 21696: a0 = 0x4e487b7100000000\n 21706: a1 = s1 + 0x3e0\n 21710: u64 [s1 + 0x3f8] = a0\n 21714: a0 = 0\n 21716: ra = 818, jump @19\n      : @759 [@dyn 409] (gas: 7)\n 21722: u64 [s1 + 984] = 0\n 21726: u64 [s1 + 976] = 0\n 21730: u64 [s1 + 960] = 0x11\n 21735: a0 = 0x4\n 21738: a1 = s1 + 0x3c0\n 21742: u64 [s1 + 968] = 0\n 21746: ra = 820, jump @19\n      : @760 [@dyn 410] (gas: 3)\n 21752: a0 = u64 [s1 + 0x100]\n 21756: a0 = i32 [a0]\n 21758: jump @762 if a0 >u 63\n      : @761 (gas: 7)\n 21762: a1 = u64 [s1 + 0x100]\n 21766: u32 [a1 + 0] = 0x40\n 21769: a0 = 0x1\n 21772: a2 = 0x24\n 21775: a1 = u64 [s1 + 0xf8]\n 21779: ecalli 8 // 'seal_return'\n 21781: jump @763\n      : @762 (gas: 5)\n 21783: a0 = 0x1\n 21786: a2 = 0x24\n 21789: a1 = u64 [s1 + 0xf8]\n 21793: ecalli 8 // 'seal_return'\n 21795: fallthrough\n      : @763 (gas: 6)\n 21796: a1 = 0x201d0\n 21801: i32 a1 = a1 + 0\n 21803: a0 = 0x1\n 21806: a2 = 0\n 21808: ecalli 8 // 'seal_return'\n 21810: jump @837\n      : @764 (gas: 6)\n 21813: a1 = 0x201d0\n 21818: i32 a1 = a1 + 0\n 21820: a0 = 0x1\n 21823: a2 = 0\n 21825: ecalli 8 // 'seal_return'\n 21827: jump @837\n      : @765 (gas: 1)\n 21830: jump @780 if a0 != 2395272453\n      : @766 (gas: 11)\n 21838: a0 = s1 + 0x2118\n 21842: u64 [a0 + 1664] = 0\n 21846: u64 [a0 + 1656] = 0\n 21850: u64 [a0 + 1648] = 0\n 21854: u64 [a0 + 1640] = 0\n 21858: a0 = s1 + 0x2000\n 21862: i32 a0 = a0 + 0x780\n 21866: ra = 0x336\n 21870: ecalli 11 // 'value_transferred'\n 21872: t0 = 0x338\n 21876: jump @1314\n      : @767 [@dyn 411] (gas: 1)\n 21879: t0 = 824, jump @1314\n      : @768 [@dyn 412] (gas: 8)\n 21885: a0 = u64 [a4 + 0x78]\n 21888: a1 = u64 [a4 + 0x80]\n 21892: a2 = u64 [a4 + 0x70]\n 21895: a3 = u64 [a4 + 0x68]\n 21898: a1 = a1 | a2\n 21901: a0 = a0 | a3\n 21904: a0 = a0 | a1\n 21907: jump @793 if a0 == 0\n      : @769 (gas: 6)\n 21911: a1 = 0x201d0\n 21916: i32 a1 = a1 + 0\n 21918: a0 = 0x1\n 21921: a2 = 0\n 21923: ecalli 8 // 'seal_return'\n 21925: jump @837\n      : @770 (gas: 6)\n 21928: a1 = 0x201d0\n 21933: i32 a1 = a1 + 0\n 21935: a0 = 0x1\n 21938: a2 = 0\n 21940: ecalli 8 // 'seal_return'\n 21942: jump @837\n      : @771 (gas: 6)\n 21945: a1 = 0x201d0\n 21950: i32 a1 = a1 + 0\n 21952: a0 = 0x1\n 21955: a2 = 0\n 21957: ecalli 8 // 'seal_return'\n 21959: jump @837\n      : @772 (gas: 6)\n 21962: a1 = 0x201d0\n 21967: i32 a1 = a1 + 0\n 21969: a0 = 0x1\n 21972: a2 = 0\n 21974: ecalli 8 // 'seal_return'\n 21976: jump @837\n      : @773 (gas: 6)\n 21979: a1 = 0x201d0\n 21984: i32 a1 = a1 + 0\n 21986: a0 = 0x1\n 21989: a2 = 0\n 21991: ecalli 8 // 'seal_return'\n 21993: jump @837\n      : @774 (gas: 6)\n 21996: a1 = 0x201d0\n 22001: i32 a1 = a1 + 0\n 22003: a0 = 0x1\n 22006: a2 = 0\n 22008: ecalli 8 // 'seal_return'\n 22010: jump @837\n      : @775 (gas: 6)\n 22013: a1 = 0x201d0\n 22018: i32 a1 = a1 + 0\n 22020: a0 = 0x1\n 22023: a2 = 0\n 22025: ecalli 8 // 'seal_return'\n 22027: jump @837\n      : @776 (gas: 6)\n 22030: a1 = 0x201d0\n 22035: i32 a1 = a1 + 0\n 22037: a0 = 0x1\n 22040: a2 = 0\n 22042: ecalli 8 // 'seal_return'\n 22044: jump @837\n      : @777 (gas: 6)\n 22047: a1 = 0x201d0\n 22052: i32 a1 = a1 + 0\n 22054: a0 = 0x1\n 22057: a2 = 0\n 22059: ecalli 8 // 'seal_return'\n 22061: jump @837\n      : @778 (gas: 6)\n 22064: a1 = 0x201d0\n 22069: i32 a1 = a1 + 0\n 22071: a0 = 0x1\n 22074: a2 = 0\n 22076: ecalli 8 // 'seal_return'\n 22078: jump @837\n      : @779 (gas: 6)\n 22081: a1 = 0x201d0\n 22086: i32 a1 = a1 + 0\n 22088: a0 = 0x1\n 22091: a2 = 0\n 22093: ecalli 8 // 'seal_return'\n 22095: jump @837\n      : @780 (gas: 1)\n 22098: jump @789 if a0 != 3578229791\n      : @781 (gas: 11)\n 22106: a0 = s1 + 0x2118\n 22110: u64 [a0 + 2016] = 0\n 22114: u64 [a0 + 2008] = 0\n 22118: u64 [a0 + 2000] = 0\n 22122: u64 [a0 + 1992] = 0\n 22126: a0 = s1 + 0x3000\n 22130: i32 a0 = a0 + 0xfffffffffffff8e0\n 22134: ra = 0x33a\n 22138: ecalli 11 // 'value_transferred'\n 22140: t0 = 0x33c\n 22144: jump @1352\n      : @782 [@dyn 413] (gas: 1)\n 22147: t0 = 828, jump @1352\n      : @783 [@dyn 414] (gas: 8)\n 22153: a0 = u64 [a4 + 0xd8]\n 22157: a1 = u64 [a4 + 0xe0]\n 22161: a2 = u64 [a4 + 0xd0]\n 22165: a3 = u64 [a4 + 0xc8]\n 22169: a1 = a1 | a2\n 22172: a0 = a0 | a3\n 22175: a0 = a0 | a1\n 22178: jump @800 if a0 == 0\n      : @784 (gas: 6)\n 22182: a1 = 0x201d0\n 22187: i32 a1 = a1 + 0\n 22189: a0 = 0x1\n 22192: a2 = 0\n 22194: ecalli 8 // 'seal_return'\n 22196: jump @837\n      : @785 (gas: 2)\n 22199: a2 = u64 [s1 + 0x168]\n 22203: t0 = 830, jump @1284\n      : @786 [@dyn 415] (gas: 11)\n 22209: i32 a0 = a4 + 0x20\n 22212: a5 = s1 + 0x7ff\n 22216: a5 = a5 + 0x119\n 22220: u64 [a5 + 1696] = 0\n 22224: a4 = a5 + 0x600\n 22228: u64 [a4 + 0x98] = a1\n 22232: u64 [a4 + 0x90] = a2\n 22236: a1 = s1 + 0x7ff\n 22240: a1 = a1 + 0x7a1\n 22244: u64 [a4 + 0x88] = a3\n 22248: ra = 832, jump @19\n      : @787 [@dyn 416] (gas: 17)\n 22254: a0 = u64 [0x20060]\n 22259: a1 = u64 [0x20068]\n 22264: a2 = s1 + 0x7ff\n 22268: a2 = a2 + 0x119\n 22272: a4 = a2 + 0x600\n 22276: u64 [a4 + 0x80] = a0\n 22280: a0 = u64 [0x20070]\n 22285: u64 [a4 + 0x78] = a1\n 22288: a3 = u64 [0x20078]\n 22293: u64 [a4 + 0x70] = a0\n 22296: a0 = a2\n 22298: a1 = 0x40\n 22301: a2 = s1 + 0x7ff\n 22305: a2 = a2 + 0x781\n 22309: u64 [a0 + 0x668] = a3\n 22313: a0 = u64 [s1 + 0x160]\n 22317: ra = 834, jump @24\n      : @788 [@dyn 417] (gas: 5)\n 22323: a0 = 0\n 22325: a1 = u64 [s1 + 0x198]\n 22329: a2 = 0\n 22331: ecalli 8 // 'seal_return'\n 22333: jump @837\n      : @789 (gas: 1)\n 22336: jump @796 if a0 != 33540519\n      : @790 (gas: 10)\n 22343: a0 = s1 + 0x2118\n 22347: u64 [a0 + 128] = 0\n 22351: u64 [a0 + 120] = 0\n 22354: u64 [a0 + 112] = 0\n 22357: u64 [a0 + 104] = 0\n 22360: a0 = s1 + 0x2000\n 22364: i32 a0 = a0 + 0x180\n 22368: ra = 0x344\n 22372: ecalli 11 // 'value_transferred'\n 22374: fallthrough\n      : @791 [@dyn 418] (gas: 9)\n 22375: a3 = s1 + 0x2118\n 22379: a0 = u64 [a3 + 0x78]\n 22382: a1 = u64 [a3 + 0x80]\n 22386: a2 = u64 [a3 + 0x70]\n 22389: a3 = u64 [a3 + 0x68]\n 22392: a1 = a1 | a2\n 22395: a0 = a0 | a3\n 22398: a0 = a0 | a1\n 22401: jump @820 if a0 == 0\n      : @792 (gas: 6)\n 22405: a1 = 0x201d0\n 22410: i32 a1 = a1 + 0\n 22412: a0 = 0x1\n 22415: a2 = 0\n 22417: ecalli 8 // 'seal_return'\n 22419: jump @837\n      : @793 (gas: 1)\n 22422: t0 = 838, jump @1349\n      : @794 [@dyn 419] (gas: 1)\n 22428: jump @802 if a1 <u a0\n      : @795 (gas: 6)\n 22432: a1 = 0x201d0\n 22437: i32 a1 = a1 + 0\n 22439: a0 = 0x1\n 22442: a2 = 0\n 22444: ecalli 8 // 'seal_return'\n 22446: jump @837\n      : @796 (gas: 1)\n 22449: jump @815 if a0 != 791671133\n      : @797 (gas: 9)\n 22457: a0 = s1 + 0x2118\n 22461: u64 [a0 + 288] = 0\n 22465: u64 [a0 + 280] = 0\n 22469: u64 [a0 + 272] = 0\n 22473: u64 [a0 + 264] = 0\n 22477: a0 = s1 + 0x2000\n 22481: i32 a0 = a0 + 0x220\n 22485: ecalli 11 // 'value_transferred'\n 22487: fallthrough\n      : @798 (gas: 10)\n 22488: a3 = s1 + 0x2118\n 22492: a4 = a3 + 0x100\n 22496: a0 = u64 [a4 + 0x18]\n 22499: a1 = u64 [a4 + 0x20]\n 22502: a2 = u64 [a4 + 0x10]\n 22505: a3 = u64 [a4 + 0x8]\n 22508: a1 = a1 | a2\n 22511: a0 = a0 | a3\n 22514: a0 = a0 | a1\n 22517: jump @837 if a0 == 0\n      : @799 (gas: 6)\n 22521: a1 = 0x201d0\n 22526: i32 a1 = a1 + 0\n 22528: a0 = 0x1\n 22531: a2 = 0\n 22533: ecalli 8 // 'seal_return'\n 22535: jump @837\n      : @800 (gas: 3)\n 22538: a0 = u64 [s1 + 0x198]\n 22542: a0 = i32 [a0]\n 22544: jump @823 if a0 >u 67\n      : @801 (gas: 6)\n 22549: a1 = 0x201d0\n 22554: i32 a1 = a1 + 0\n 22556: a0 = 0x1\n 22559: a2 = 0\n 22561: ecalli 8 // 'seal_return'\n 22563: jump @837\n      : @802 (gas: 4)\n 22566: a0 = s1 + 0x1740\n 22570: ra = 0x348\n 22574: t0 = 0x3dc\n 22578: jump @1355\n      : @803 [@dyn 420] (gas: 12)\n 22581: a1 = s1 + 0x1118\n 22585: a2 = a1 + 0x600\n 22589: a0 = u64 [a2 + 0x40]\n 22592: a1 = s1 + 0x100\n 22596: u64 [a1 + 0x80] = a0\n 22600: a0 = u64 [a2 + 0x38]\n 22603: u64 [a1 + 0x88] = a0\n 22607: a0 = u64 [a2 + 0x30]\n 22610: u64 [a1 + 0x90] = a0\n 22614: a0 = u64 [a2 + 0x28]\n 22617: u64 [a1 + 0x98] = a0\n 22621: ra = 842, jump @1043\n      : @804 [@dyn 421] (gas: 13)\n 22627: a0 = u64 [0x20040]\n 22632: a3 = s1 + 0x1118\n 22636: a4 = a3 + 0x600\n 22640: u64 [a4 + 0x20] = a0\n 22643: a0 = u64 [0x20048]\n 22648: a1 = u64 [0x20050]\n 22653: a2 = u64 [0x20058]\n 22658: u64 [a4 + 0x18] = a0\n 22661: u64 [a4 + 0x10] = a1\n 22664: a1 = s1 + 0x1720\n 22668: u64 [a4 + 0x8] = a2\n 22671: a0 = 0\n 22673: ra = 844, jump @19\n      : @805 [@dyn 422] (gas: 9)\n 22679: a0 = s1 + 0x1118\n 22683: u64 [a0 + 1536] = 0\n 22687: u64 [a0 + 1528] = 0\n 22691: u64 [a0 + 1520] = 0\n 22695: a2 = a0\n 22697: a0 = 0x20\n 22700: a1 = s1 + 0x1700\n 22704: u64 [a2 + 1512] = 0\n 22708: ra = 846, jump @19\n      : @806 [@dyn 423] (gas: 2)\n 22714: a1 = i32 [0x201bc]\n 22719: jump @808 if a1 >u 63\n      : @807 (gas: 4)\n 22723: a1 = 0x40\n 22726: u32 [0x201bc] = a1\n 22731: t0 = 0x350\n 22735: jump @1343\n      : @808 (gas: 1)\n 22738: t0 = 848, jump @1343\n      : @809 [@dyn 424] (gas: 9)\n 22744: a0 = 0x201d0\n 22749: i32 a0 = a0 + 0\n 22751: u64 [s1 + 0x178] = a0\n 22755: i32 a2 = a2 + 0\n 22757: a1 = 0x40\n 22760: ra = 0x352\n 22764: ecalli 6 // 'hash_keccak_256'\n 22766: t0 = 0x354\n 22770: jump @1287\n      : @810 [@dyn 425] (gas: 1)\n 22773: t0 = 852, jump @1287\n      : @811 [@dyn 426] (gas: 8)\n 22779: a5 = a1 + 0x600\n 22783: u64 [a5 + 0x88] = a3\n 22787: u64 [a5 + 0x90] = a2\n 22791: u64 [a5 + 0x98] = a4\n 22795: u64 [a5 + 0xa0] = a0\n 22799: a0 = s1 + 0x16e0\n 22803: a1 = s1 + 0x27a0\n 22807: ra = 854, jump @21\n      : @812 [@dyn 427] (gas: 12)\n 22813: a4 = s1 + 0x1118\n 22817: a5 = a4 + 0x500\n 22821: a1 = u64 [a5 + 0xc8]\n 22825: a0 = u64 [a5 + 0xd0]\n 22829: a2 = u64 [a5 + 0xd8]\n 22833: a3 = u64 [a5 + 0xe0]\n 22837: u64 [a5 + 0xc0] = a3\n 22841: u64 [a5 + 0xb8] = a2\n 22845: u64 [a5 + 0xb0] = a0\n 22849: a0 = s1 + 0x16c0\n 22853: u64 [a5 + 0xa8] = a1\n 22857: ra = 856, jump @1069\n      : @813 [@dyn 428] (gas: 17)\n 22863: a4 = s1 + 0x100\n 22867: a0 = u64 [a4 + 0x80]\n 22871: a1 = s1 + 0x1118\n 22875: a2 = a1 + 0x500\n 22879: u64 [a2 + 0x80] = a0\n 22883: a0 = u64 [a4 + 0x88]\n 22887: u64 [a2 + 0x78] = a0\n 22890: a0 = u64 [a4 + 0x90]\n 22894: u64 [a2 + 0x70] = a0\n 22897: a3 = a1\n 22899: a0 = s1 + 0x16a0\n 22903: a1 = s1 + 0x1680\n 22907: a2 = u64 [a4 + 0x98]\n 22911: u64 [a3 + 0x568] = a2\n 22915: ra = 0x35a\n 22919: t0 = 0x4d4\n 22923: jump @1309\n      : @814 [@dyn 429] (gas: 5)\n 22926: a0 = 0\n 22928: a1 = u64 [s1 + 0x178]\n 22932: a2 = 0\n 22934: ecalli 8 // 'seal_return'\n 22936: jump @837\n      : @815 (gas: 1)\n 22939: jump @829 if a0 != 911641278\n      : @816 (gas: 10)\n 22947: a0 = s1 + 0x2118\n 22951: u64 [a0 + 1216] = 0\n 22955: u64 [a0 + 1208] = 0\n 22959: u64 [a0 + 1200] = 0\n 22963: u64 [a0 + 1192] = 0\n 22967: a0 = s1 + 0x2000\n 22971: i32 a0 = a0 + 0x5c0\n 22975: ra = 0x35c\n 22979: ecalli 11 // 'value_transferred'\n 22981: fallthrough\n      : @817 [@dyn 430] (gas: 3)\n 22982: a3 = s1 + 0x2118\n 22986: a4 = a3 + 0x400\n 22990: t0 = 862, jump @1342\n      : @818 [@dyn 431] (gas: 1)\n 22996: jump @842 if a0 == 0\n      : @819 (gas: 6)\n 23000: a1 = 0x201d0\n 23005: i32 a1 = a1 + 0\n 23007: a0 = 0x1\n 23010: a2 = 0\n 23012: ecalli 8 // 'seal_return'\n 23014: jump @837\n      : @820 (gas: 1)\n 23017: t0 = 864, jump @1349\n      : @821 [@dyn 432] (gas: 1)\n 23023: jump @839 if a1 <u a0\n      : @822 (gas: 6)\n 23027: a1 = 0x201d0\n 23032: i32 a1 = a1 + 0\n 23034: a0 = 0x1\n 23037: a2 = 0\n 23039: ecalli 8 // 'seal_return'\n 23041: jump @837\n      : @823 (gas: 19)\n 23044: a0 = s1 + 0x3000\n 23048: i32 a0 = a0 + 0xfffffffffffff900\n 23052: a1 = 0x4\n 23055: ecalli 1 // 'call_data_load'\n 23057: a0 = s1 + 0x2118\n 23061: a2 = a0 + 0x700\n 23065: a1 = u64 [a2 + 0xe8]\n 23069: u64 [s1 + 0x198] = a1\n 23073: a1 = u64 [a2 + 0xf0]\n 23077: u64 [s1 + 0x190] = a1\n 23081: a0 = u64 [a2 + 0xf8]\n 23085: u64 [s1 + 0x188] = a0\n 23089: a0 = s1 + 0x2918\n 23093: a0 = u64 [a0]\n 23095: u64 [s1 + 0x180] = a0\n 23099: a0 = s1 + 0x20e0\n 23103: ra = 0x362\n 23107: t0 = 0x3d2\n 23111: jump @1355\n      : @824 [@dyn 433] (gas: 3)\n 23114: t0 = 0x364\n 23118: a1 = s1 + 0x1918\n 23122: fallthrough\n      : @825 [@dyn 434] (gas: 21)\n 23123: a2 = a1 + 0x700\n 23127: a0 = u64 [a2 + 0xc8]\n 23131: u64 [s1 + 0x178] = a0\n 23135: a0 = u64 [a2 + 0xd0]\n 23139: u64 [s1 + 0x170] = a0\n 23143: a0 = u64 [a2 + 0xd8]\n 23147: u64 [s1 + 0x168] = a0\n 23151: a0 = u64 [a2 + 0xe0]\n 23155: u64 [s1 + 0x160] = a0\n 23159: a0 = u64 [s1 + 0x180]\n 23163: u64 [a2 + 0xa0] = a0\n 23167: a0 = u64 [s1 + 0x188]\n 23171: u64 [a2 + 0x98] = a0\n 23175: a0 = u64 [s1 + 0x190]\n 23179: u64 [a2 + 0x90] = a0\n 23183: a3 = a1\n 23185: a0 = s1 + 0x20c0\n 23189: a1 = s1 + 0x20a0\n 23193: a2 = u64 [s1 + 0x198]\n 23197: u64 [a3 + 0x788] = a2\n 23201: ra = 870, jump @1023\n      : @826 [@dyn 435] (gas: 12)\n 23207: a4 = s1 + 0x1918\n 23211: a5 = a4 + 0x700\n 23215: a1 = u64 [a5 + 0xa8]\n 23219: a0 = u64 [a5 + 0xb0]\n 23223: a2 = u64 [a5 + 0xb8]\n 23227: a3 = u64 [a5 + 0xc0]\n 23231: u64 [a5 + 0x80] = a3\n 23235: u64 [a5 + 0x78] = a2\n 23238: u64 [a5 + 0x70] = a0\n 23241: a0 = s1 + 0x2080\n 23245: u64 [a5 + 0x68] = a1\n 23248: ra = 872, jump @1069\n      : @827 [@dyn 436] (gas: 26)\n 23254: a0 = s1 + 0x1918\n 23258: a5 = s1 + 0x100\n 23262: a1 = u64 [a5 + 0x60]\n 23265: a2 = a0 + 0x700\n 23269: u64 [a2 + 0x20] = a1\n 23272: a1 = u64 [a5 + 0x68]\n 23275: u64 [a2 + 0x18] = a1\n 23278: a1 = u64 [a5 + 0x70]\n 23281: u64 [a2 + 0x10] = a1\n 23284: a1 = u64 [a5 + 0x78]\n 23287: u64 [a2 + 0x8] = a1\n 23290: a1 = u64 [a5 + 0x80]\n 23294: u64 [a2 + 0x40] = a1\n 23297: a1 = u64 [a5 + 0x88]\n 23301: u64 [a2 + 0x38] = a1\n 23304: a1 = u64 [a5 + 0x90]\n 23308: u64 [a2 + 0x30] = a1\n 23311: a4 = a0\n 23313: a0 = s1 + 0x2060\n 23317: a1 = s1 + 0x2040\n 23321: a2 = s1 + 0x2020\n 23325: a3 = u64 [a5 + 0x98]\n 23329: u64 [a4 + 0x728] = a3\n 23333: ra = 0x36a\n 23337: t0 = 0x55e\n 23341: jump @1330\n      : @828 [@dyn 437] (gas: 6)\n 23344: a1 = 0x201d0\n 23349: i32 a1 = a1 + 0\n 23351: a0 = 0\n 23353: a2 = 0\n 23355: ecalli 8 // 'seal_return'\n 23357: jump @837\n      : @829 (gas: 2)\n 23359: a2 = s1 + 0x2118\n 23363: jump @835 if a0 != 1917903396\n      : @830 (gas: 10)\n 23370: u64 [a2 + 1472] = 0\n 23374: u64 [a2 + 1464] = 0\n 23378: u64 [a2 + 1456] = 0\n 23382: u64 [a2 + 1448] = 0\n 23386: a0 = s1 + 0x2000\n 23390: i32 a0 = a0 + 0x6c0\n 23394: ra = 0x36c\n 23398: ecalli 11 // 'value_transferred'\n 23400: t0 = 0x36e\n 23404: jump @1351\n      : @831 [@dyn 438] (gas: 1)\n 23407: t0 = 878, jump @1351\n      : @832 [@dyn 439] (gas: 1)\n 23413: t0 = 880, jump @1342\n      : @833 [@dyn 440] (gas: 1)\n 23419: jump @853 if a0 == 0\n      : @834 (gas: 6)\n 23423: a1 = 0x201d0\n 23428: i32 a1 = a1 + 0\n 23430: a0 = 0x1\n 23433: a2 = 0\n 23435: ecalli 8 // 'seal_return'\n 23437: jump @837\n      : @835 (gas: 6)\n 23439: a1 = 0x201d0\n 23444: i32 a1 = a1 + 0\n 23446: a0 = 0x1\n 23449: a2 = 0\n 23451: ecalli 8 // 'seal_return'\n 23453: jump @837\n      : @836 (gas: 5)\n 23455: i32 a1 = a1 + 0\n 23457: a0 = 0x1\n 23460: a2 = 0\n 23462: ecalli 8 // 'seal_return'\n 23464: fallthrough\n      : @837 (gas: 3)\n 23465: a0 = u64 [s1 + 0x198]\n 23469: a0 = i32 [a0]\n 23471: jump @844 if a0 >u 67\n      : @838 (gas: 2)\n 23475: a1 = 0x201d0\n 23480: jump @836\n      : @839 (gas: 5)\n 23482: a0 = s1 + 0x2000\n 23486: i32 a0 = a0 + 0x1a0\n 23490: a1 = 0x4\n 23493: ecalli 1 // 'call_data_load'\n 23495: fallthrough\n      : @840 (gas: 11)\n 23496: a1 = s1 + 0x2118\n 23500: a0 = u64 [a1 + 0xa0]\n 23504: a2 = u64 [a1 + 0x98]\n 23508: a3 = u64 [a1 + 0x88]\n 23512: a1 = u64 [a1 + 0x90]\n 23516: a4 = a0 << 0x20\n 23519: a4 = a4 >> 0x20\n 23522: a2 = a2 | a3\n 23525: a4 = a4 | a1\n 23528: a4 = a4 | a2\n 23531: jump @849 if a4 == 0\n      : @841 (gas: 2)\n 23535: a1 = 0x201d0\n 23540: jump @836\n      : @842 (gas: 4)\n 23542: a0 = u64 [s1 + 0x198]\n 23546: a0 = i32 [a0]\n 23548: a1 = 0x43\n 23551: jump @856 if a1 <u a0\n      : @843 (gas: 2)\n 23555: a1 = 0x201d0\n 23560: jump @836\n      : @844 (gas: 18)\n 23562: a0 = s1 + 0x2000\n 23566: i32 a0 = a0 + 0x240\n 23570: a1 = 0x4\n 23573: ecalli 1 // 'call_data_load'\n 23575: a0 = s1 + 0x2118\n 23579: a2 = a0 + 0x100\n 23583: a1 = u64 [a2 + 0x28]\n 23586: u64 [s1 + 0x198] = a1\n 23590: a1 = u64 [a2 + 0x30]\n 23593: u64 [s1 + 0x190] = a1\n 23597: a1 = u64 [a2 + 0x38]\n 23600: u64 [s1 + 0x188] = a1\n 23604: a0 = u64 [a2 + 0x40]\n 23607: u64 [s1 + 0x180] = a0\n 23611: a0 = s1 + 0x340\n 23615: ra = 0x372\n 23619: t0 = 0x3d2\n 23623: jump @1355\n      : @845 [@dyn 441] (gas: 19)\n 23626: a0 = u64 [s1 + 0x340]\n 23630: u64 [s1 + 0x178] = a0\n 23634: a0 = u64 [s1 + 0x348]\n 23638: u64 [s1 + 0x170] = a0\n 23642: a0 = u64 [s1 + 0x350]\n 23646: u64 [s1 + 0x168] = a0\n 23650: a0 = u64 [s1 + 0x358]\n 23654: u64 [s1 + 0x160] = a0\n 23658: a0 = u64 [s1 + 0x180]\n 23662: u64 [s1 + 0x318] = a0\n 23666: a0 = u64 [s1 + 0x188]\n 23670: u64 [s1 + 0x310] = a0\n 23674: a0 = u64 [s1 + 0x190]\n 23678: u64 [s1 + 0x308] = a0\n 23682: a0 = s1 + 0x320\n 23686: a1 = s1 + 0x300\n 23690: a2 = u64 [s1 + 0x198]\n 23694: u64 [s1 + 0x300] = a2\n 23698: ra = 884, jump @1023\n      : @846 [@dyn 442] (gas: 11)\n 23704: a4 = s1 + 0x300\n 23708: a1 = u64 [a4 + 0x20]\n 23711: a0 = u64 [a4 + 0x28]\n 23714: a2 = u64 [a4 + 0x30]\n 23717: a3 = u64 [a4 + 0x38]\n 23720: u64 [s1 + 0x2f8] = a3\n 23724: u64 [s1 + 0x2f0] = a2\n 23728: u64 [s1 + 0x2e8] = a0\n 23732: a0 = s1 + 0x2e0\n 23736: u64 [s1 + 0x2e0] = a1\n 23740: ra = 886, jump @1069\n      : @847 [@dyn 443] (gas: 24)\n 23746: a4 = s1 + 0x100\n 23750: a0 = u64 [a4 + 0x60]\n 23753: a5 = s1 + 0x200\n 23757: u64 [a5 + 0x98] = a0\n 23761: a0 = u64 [a4 + 0x68]\n 23764: u64 [a5 + 0x90] = a0\n 23768: a0 = u64 [a4 + 0x70]\n 23771: u64 [a5 + 0x88] = a0\n 23775: a0 = u64 [a4 + 0x78]\n 23778: u64 [a5 + 0x80] = a0\n 23782: a0 = u64 [a4 + 0x80]\n 23786: u64 [a5 + 0xb8] = a0\n 23790: a0 = u64 [a4 + 0x88]\n 23794: u64 [a5 + 0xb0] = a0\n 23798: a0 = u64 [a4 + 0x90]\n 23802: u64 [a5 + 0xa8] = a0\n 23806: a0 = s1 + 0x2c0\n 23810: a1 = s1 + 0x2a0\n 23814: a2 = s1 + 0x280\n 23818: a3 = u64 [a4 + 0x98]\n 23822: u64 [a5 + 0xa0] = a3\n 23826: ra = 0x378\n 23830: t0 = 0x51a\n 23834: jump @1330\n      : @848 [@dyn 444] (gas: 6)\n 23837: a1 = 0x201d0\n 23842: i32 a1 = a1 + 0\n 23844: a0 = 0\n 23846: a2 = 0\n 23848: ecalli 8 // 'seal_return'\n 23850: jump @837\n      : @849 (gas: 18)\n 23853: a3 = 0x7965db0b00000000\n 23863: a3 = a3 ^ a0\n 23866: a3 = a3 | a1\n 23869: a3 = a3 | a2\n 23872: a3 = a3 <u 0x1\n 23875: a4 = 0x1ffc9a700000000\n 23885: a0 = a0 ^ a4\n 23888: a0 = a0 | a1\n 23891: a0 = a0 | a2\n 23894: a0 = a0 <u 0x1\n 23897: a0 = a0 | a3\n 23900: u64 [s1 + 440] = 0\n 23904: u64 [s1 + 432] = 0\n 23908: u64 [s1 + 0x1a0] = a0\n 23912: a0 = 0x80\n 23916: a1 = s1 + 0x1a0\n 23920: u64 [s1 + 424] = 0\n 23924: ra = 890, jump @19\n      : @850 [@dyn 445] (gas: 2)\n 23930: a1 = i32 [0x201bc]\n 23935: jump @852 if a1 >u 159\n      : @851 (gas: 4)\n 23940: u32 [0x201bc] = 0xa0\n 23947: a0 = 0x201d0\n 23952: i32 a1 = a0 + 0x80\n 23956: jump @511\n      : @852 (gas: 3)\n 23959: a0 = 0x201d0\n 23964: i32 a1 = a0 + 0x80\n 23968: jump @511\n      : @853 (gas: 1)\n 23971: t0 = 892, jump @1349\n      : @854 [@dyn 446] (gas: 1)\n 23977: jump @863 if a1 <u a0\n      : @855 (gas: 2)\n 23981: a1 = 0x201d0\n 23986: jump @836\n      : @856 (gas: 5)\n 23989: a0 = s1 + 0x7ff\n 23993: a0 = a0 + 0x641\n 23997: ra = 0x37e\n 24001: t0 = 0x3d2\n 24005: jump @1355\n      : @857 [@dyn 447] (gas: 16)\n 24008: a0 = s1 + 0x7ff\n 24012: a0 = a0 + 0x119\n 24016: a2 = a0 + 0x500\n 24020: a1 = u64 [a2 + 0x40]\n 24023: u64 [s1 + 0x178] = a1\n 24027: a1 = u64 [a2 + 0x38]\n 24030: u64 [s1 + 0x188] = a1\n 24034: a1 = u64 [a2 + 0x30]\n 24037: u64 [s1 + 0x190] = a1\n 24041: a0 = u64 [a2 + 0x28]\n 24044: u64 [s1 + 0x198] = a0\n 24048: a0 = 0x301d0\n 24053: u64 [s1 + 0x180] = a0\n 24057: i32 a0 = a0 + 0\n 24059: ecalli 3 // 'caller'\n 24061: fallthrough\n      : @858 (gas: 26)\n 24062: a5 = s1 + 0x100\n 24066: a2 = u64 [a5 + 0x80]\n 24070: a0 = u64 [a2 + 0x8]\n 24073: a1 = u64 [a2]\n 24075: a2 = i32 [a2 + 0x10]\n 24078: a0 = reverse a0\n 24080: a3 = a0 >> 0x20\n 24083: a1 = reverse a1\n 24085: a4 = a1 << 0x20\n 24088: a3 = a3 | a4\n 24091: a0 = a0 << 0x20\n 24094: a2 = reverse a2\n 24096: a2 = a2 >> 0x20\n 24099: a0 = a0 | a2\n 24102: a1 = a1 >> 0x20\n 24105: a2 = u64 [a5 + 0x88]\n 24109: a2 = a2 << 0x20\n 24112: a2 = a2 >> 0x20\n 24115: a1 = a1 ^ a2\n 24118: a2 = u64 [a5 + 0x98]\n 24122: a0 = a0 ^ a2\n 24125: a0 = a0 | a1\n 24128: a1 = u64 [a5 + 0x90]\n 24132: a1 = a1 ^ a3\n 24135: a0 = a0 | a1\n 24138: jump @876 if a0 != 0\n      : @859 (gas: 34)\n 24142: a0 = s1 + 0x2000\n 24146: i32 a0 = a0 + 0x5e0\n 24150: a1 = 0x4\n 24153: ecalli 1 // 'call_data_load'\n 24155: a2 = s1 + 0x2118\n 24159: a4 = a2 + 0x400\n 24163: a3 = u64 [a4 + 0xc8]\n 24167: a0 = u64 [a4 + 0xd0]\n 24171: a1 = u64 [a4 + 0xd8]\n 24175: a2 = u64 [a4 + 0xe0]\n 24179: a4 = s1 + 0x7ff\n 24183: a4 = a4 + 0x119\n 24187: a5 = u64 [s1 + 0x178]\n 24191: u64 [a4 + 0x4c0] = a5\n 24195: a5 = u64 [s1 + 0x188]\n 24199: u64 [a4 + 0x4b8] = a5\n 24203: a5 = u64 [s1 + 0x190]\n 24207: u64 [a4 + 0x4b0] = a5\n 24211: a5 = u64 [s1 + 0x198]\n 24215: u64 [a4 + 0x4a8] = a5\n 24219: a5 = a4 + 0x400\n 24223: u64 [a5 + 0xe0] = a2\n 24227: u64 [a5 + 0xd8] = a1\n 24231: u64 [a5 + 0xd0] = a0\n 24235: a0 = s1 + 0x7ff\n 24239: a0 = a0 + 0x601\n 24243: a1 = s1 + 0x7ff\n 24247: a1 = a1 + 0x5e1\n 24251: a2 = s1 + 0x7ff\n 24255: a2 = a2 + 0x5c1\n 24259: u64 [a5 + 0xc8] = a3\n 24263: ra = 0x380\n 24267: t0 = 0x55e\n 24271: jump @1330\n      : @860 [@dyn 448] (gas: 6)\n 24274: a1 = 0x201d0\n 24279: i32 a1 = a1 + 0\n 24281: a0 = 0\n 24283: a2 = 0\n 24285: ecalli 8 // 'seal_return'\n 24287: jump @837\n      : @861 (gas: 8)\n 24290: u64 [s1 + 1072] = 0\n 24294: u64 [s1 + 1064] = 0\n 24298: u64 [s1 + 1056] = 0\n 24302: a0 = 0x4e487b7100000000\n 24312: a1 = s1 + 0x420\n 24316: u64 [s1 + 0x438] = a0\n 24320: a0 = 0\n 24322: ra = 898, jump @19\n      : @862 [@dyn 449] (gas: 8)\n 24328: u64 [s1 + 1048] = 0\n 24332: u64 [s1 + 1040] = 0\n 24336: u64 [s1 + 1024] = 0x41\n 24341: a0 = 0x4\n 24344: a1 = s1 + 0x400\n 24348: u64 [s1 + 1032] = 0\n 24352: ra = 0x334\n 24356: jump @19\n      : @863 (gas: 4)\n 24359: a0 = s1 + 0x12e0\n 24363: ra = 0x384\n 24367: t0 = 0x3dc\n 24371: jump @1355\n      : @864 [@dyn 450] (gas: 12)\n 24374: a1 = s1 + 0x1118\n 24378: a2 = a1 + 0x100\n 24382: a0 = u64 [a2 + 0xe0]\n 24386: a1 = s1 + 0x100\n 24390: u64 [a1 + 0x80] = a0\n 24394: a0 = u64 [a2 + 0xd8]\n 24398: u64 [a1 + 0x88] = a0\n 24402: a0 = u64 [a2 + 0xd0]\n 24406: u64 [a1 + 0x90] = a0\n 24410: a0 = u64 [a2 + 0xc8]\n 24414: u64 [a1 + 0x98] = a0\n 24418: ra = 902, jump @1043\n      : @865 [@dyn 451] (gas: 13)\n 24424: a0 = u64 [0x20000]\n 24429: a3 = s1 + 0x1118\n 24433: a4 = a3 + 0x100\n 24437: u64 [a4 + 0xc0] = a0\n 24441: a0 = u64 [0x20008]\n 24446: a1 = u64 [0x20010]\n 24451: a2 = u64 [0x20018]\n 24456: u64 [a4 + 0xb8] = a0\n 24460: u64 [a4 + 0xb0] = a1\n 24464: a1 = s1 + 0x12c0\n 24468: u64 [a4 + 0xa8] = a2\n 24472: a0 = 0\n 24474: ra = 904, jump @19\n      : @866 [@dyn 452] (gas: 9)\n 24480: a0 = s1 + 0x1118\n 24484: u64 [a0 + 416] = 0\n 24488: u64 [a0 + 408] = 0\n 24492: u64 [a0 + 400] = 0\n 24496: a2 = a0\n 24498: a0 = 0x20\n 24501: a1 = s1 + 0x12a0\n 24505: u64 [a2 + 392] = 0\n 24509: ra = 906, jump @19\n      : @867 [@dyn 453] (gas: 2)\n 24515: a1 = i32 [0x201bc]\n 24520: jump @869 if a1 >u 63\n      : @868 (gas: 4)\n 24524: a1 = 0x40\n 24527: u32 [0x201bc] = a1\n 24532: t0 = 0x38c\n 24536: jump @1343\n      : @869 (gas: 1)\n 24539: t0 = 908, jump @1343\n      : @870 [@dyn 454] (gas: 9)\n 24545: a0 = 0x201d0\n 24550: i32 a0 = a0 + 0\n 24552: u64 [s1 + 0x178] = a0\n 24556: i32 a2 = a2 + 0\n 24558: a1 = 0x40\n 24561: ra = 0x38e\n 24565: ecalli 6 // 'hash_keccak_256'\n 24567: t0 = 0x390\n 24571: jump @1287\n      : @871 [@dyn 455] (gas: 1)\n 24574: t0 = 912, jump @1287\n      : @872 [@dyn 456] (gas: 8)\n 24580: a5 = a1 + 0x500\n 24584: u64 [a5 + 0xc8] = a3\n 24588: u64 [a5 + 0xd0] = a2\n 24592: u64 [a5 + 0xd8] = a4\n 24596: u64 [a5 + 0xe0] = a0\n 24600: a0 = s1 + 0x1280\n 24604: a1 = s1 + 0x26e0\n 24608: ra = 914, jump @21\n      : @873 [@dyn 457] (gas: 12)\n 24614: a4 = s1 + 0x1118\n 24618: a5 = a4 + 0x100\n 24622: a1 = u64 [a5 + 0x68]\n 24625: a0 = u64 [a5 + 0x70]\n 24628: a2 = u64 [a5 + 0x78]\n 24631: a3 = u64 [a5 + 0x80]\n 24635: u64 [a5 + 0x60] = a3\n 24638: u64 [a5 + 0x58] = a2\n 24641: u64 [a5 + 0x50] = a0\n 24644: a0 = s1 + 0x1260\n 24648: u64 [a5 + 0x48] = a1\n 24651: ra = 916, jump @1069\n      : @874 [@dyn 458] (gas: 17)\n 24657: a4 = s1 + 0x100\n 24661: a0 = u64 [a4 + 0x80]\n 24665: a1 = s1 + 0x1118\n 24669: a2 = a1 + 0x100\n 24673: u64 [a2 + 0x20] = a0\n 24676: a0 = u64 [a4 + 0x88]\n 24680: u64 [a2 + 0x18] = a0\n 24683: a0 = u64 [a4 + 0x90]\n 24687: u64 [a2 + 0x10] = a0\n 24690: a3 = a1\n 24692: a0 = s1 + 0x1240\n 24696: a1 = s1 + 0x1220\n 24700: a2 = u64 [a4 + 0x98]\n 24704: u64 [a3 + 0x108] = a2\n 24708: ra = 0x396\n 24712: t0 = 0x48e\n 24716: jump @1309\n      : @875 [@dyn 459] (gas: 1)\n 24719: jump @814\n      : @876 (gas: 11)\n 24722: a2 = s1 + 0x7ff\n 24726: a2 = a2 + 0x119\n 24730: u64 [a2 + 1304] = 0\n 24734: u64 [a2 + 1296] = 0\n 24738: a0 = 0x6697b23200000000\n 24748: u64 [a2 + 0x520] = a0\n 24752: a1 = s1 + 0x7ff\n 24756: a1 = a1 + 0x621\n 24760: u64 [a2 + 1288] = 0\n 24764: a0 = 0\n 24766: ra = 920, jump @19\n      : @877 [@dyn 460] (gas: 2)\n 24772: a1 = i32 [0x201bc]\n 24777: jump @879 if a1 >u 31\n      : @878 (gas: 2)\n 24781: u32 [0x201bc] = 0x20\n 24787: fallthrough\n      : @879 (gas: 6)\n 24788: a1 = 0x201d0\n 24793: i32 a1 = a1 + 0\n 24795: a0 = 0x1\n 24798: a2 = 0x4\n 24801: ecalli 8 // 'seal_return'\n 24803: fallthrough\n      : @880 (gas: 8)\n 24804: u64 [s1 + 1168] = 0\n 24808: u64 [s1 + 1160] = 0\n 24812: u64 [s1 + 1152] = 0\n 24816: a0 = 0x4e487b7100000000\n 24826: a1 = s1 + 0x480\n 24830: u64 [s1 + 0x498] = a0\n 24834: a0 = 0\n 24836: ra = 922, jump @19\n      : @881 [@dyn 461] (gas: 8)\n 24842: u64 [s1 + 1144] = 0\n 24846: u64 [s1 + 1136] = 0\n 24850: u64 [s1 + 1120] = 0x41\n 24855: a0 = 0x4\n 24858: a1 = s1 + 0x460\n 24862: u64 [s1 + 1128] = 0\n 24866: ra = 0x334\n 24870: jump @19\n      : @882 (gas: 8)\n 24873: u64 [s1 + 1264] = 0\n 24877: u64 [s1 + 1256] = 0\n 24881: u64 [s1 + 1248] = 0\n 24885: a0 = 0x4e487b7100000000\n 24895: a1 = s1 + 0x4e0\n 24899: u64 [s1 + 0x4f8] = a0\n 24903: a0 = 0\n 24905: ra = 924, jump @19\n      : @883 [@dyn 462] (gas: 8)\n 24911: u64 [s1 + 1240] = 0\n 24915: u64 [s1 + 1232] = 0\n 24919: u64 [s1 + 1216] = 0x41\n 24924: a0 = 0x4\n 24927: a1 = s1 + 0x4c0\n 24931: u64 [s1 + 1224] = 0\n 24935: ra = 0x334\n 24939: jump @19\n      : @884 [@dyn 463] (gas: 14)\n 24942: a2 = u64 [a1 + 0x10]\n 24945: u64 [s1 + 0x30] = a2\n 24948: a2 = u64 [a1 + 0x8]\n 24951: u64 [s1 + 0x50] = a2\n 24954: a1 = u64 [a1]\n 24956: u64 [s1 + 0x58] = a1\n 24959: u64 [s1 + 0x38] = a0\n 24962: u64 [s1 + 536] = 0\n 24966: u64 [s1 + 528] = 0\n 24970: u64 [s1 + 520] = 0\n 24974: a1 = s1 + 0x200\n 24978: u64 [s1 + 512] = 0\n 24982: a0 = 0\n 24984: ra = 928, jump @19\n      : @885 [@dyn 464] (gas: 7)\n 24990: u64 [s1 + 504] = 0\n 24994: u64 [s1 + 496] = 0\n 24998: u64 [s1 + 488] = 0\n 25002: a0 = 0x20\n 25005: a1 = s1 + 0x1e0\n 25009: u64 [s1 + 480] = 0\n 25013: ra = 930, jump @19\n      : @886 [@dyn 465] (gas: 3)\n 25019: a1 = 0x201bc\n 25024: a0 = i32 [0x201bc]\n 25029: jump @888 if a0 >u 63\n      : @887 (gas: 2)\n 25033: u32 [0x201bc] = 0x40\n 25039: fallthrough\n      : @888 (gas: 14)\n 25040: a0 = sp + 0xffffffffffffffe0\n 25043: a2 = a0 & 0xffffffffffffffe0\n 25046: u64 [s1 + 0x28] = a2\n 25049: sp = a2\n 25051: a0 = 0x201d0\n 25056: i32 a0 = a0 + 0\n 25058: i32 a2 = a2 + 0\n 25060: u64 [s1 + 0x48] = a1\n 25063: a1 = 0x40\n 25066: u64 [s1 + 0x40] = a0\n 25069: ra = 0x3a4\n 25073: ecalli 6 // 'hash_keccak_256'\n 25075: t0 = 0x3a6\n 25079: jump @1278\n      : @889 [@dyn 466] (gas: 1)\n 25082: t0 = 934, jump @1278\n      : @890 [@dyn 467] (gas: 13)\n 25088: a0 = u64 [s1 + 0x30]\n 25091: a0 = a0 << 0x20\n 25094: a0 = a0 >> 0x20\n 25097: u64 [s1 + 472] = 0\n 25101: u64 [s1] = a0\n 25103: u64 [s1 + 0x1d0] = a0\n 25107: a0 = u64 [s1 + 0x50]\n 25110: u64 [s1 + 0x1c8] = a0\n 25114: a1 = s1 + 0x1c0\n 25118: a0 = u64 [s1 + 0x58]\n 25121: u64 [s1 + 0x1c0] = a0\n 25125: a0 = 0\n 25127: ra = 936, jump @19\n      : @891 [@dyn 468] (gas: 12)\n 25133: a0 = u64 [s1 + 0x8]\n 25136: a3 = s1 + 0x100\n 25140: u64 [a3 + 0xb8] = a0\n 25144: a0 = u64 [s1 + 0x10]\n 25147: u64 [a3 + 0xb0] = a0\n 25151: a0 = u64 [s1 + 0x18]\n 25154: u64 [a3 + 0xa8] = a0\n 25158: a0 = 0x20\n 25161: a1 = s1 + 0x1a0\n 25165: a2 = u64 [s1 + 0x20]\n 25168: u64 [a3 + 0xa0] = a2\n 25172: ra = 938, jump @19\n      : @892 [@dyn 469] (gas: 3)\n 25178: a1 = u64 [s1 + 0x48]\n 25181: a0 = i32 [a1]\n 25183: jump @894 if a0 >u 63\n      : @893 (gas: 3)\n 25187: u32 [a1 + 0] = 0x40\n 25190: t0 = 0x3ac\n 25194: jump @1346\n      : @894 (gas: 1)\n 25197: t0 = 940, jump @1346\n      : @895 [@dyn 470] (gas: 5)\n 25203: ra = 0x3ae\n 25207: ecalli 6 // 'hash_keccak_256'\n 25209: a3 = u64 [s1 + 0x30]\n 25212: t0 = 0x3b0\n 25216: jump @1288\n      : @896 [@dyn 471] (gas: 2)\n 25219: a3 = u64 [s1 + 0x30]\n 25222: t0 = 944, jump @1288\n      : @897 [@dyn 472] (gas: 2)\n 25228: a0 = s1 + 0x180\n 25232: ra = 946, jump @21\n      : @898 [@dyn 473] (gas: 2)\n 25238: a0 = u8 [s1 + 0x180]\n 25242: jump @900 if a0 == 0\n      : @899 (gas: 2)\n 25245: a1 = 0\n 25247: jump @920\n      : @900 (gas: 6)\n 25250: u64 [s1 + 376] = 0\n 25254: u64 [s1 + 368] = 0\n 25258: u64 [s1 + 360] = 0\n 25262: a1 = s1 + 0x160\n 25266: u64 [s1 + 352] = 0\n 25270: ra = 948, jump @19\n      : @901 [@dyn 474] (gas: 1)\n 25276: t0 = 950, jump @1334\n      : @902 [@dyn 475] (gas: 1)\n 25282: ra = 952, jump @19\n      : @903 [@dyn 476] (gas: 3)\n 25288: a1 = u64 [s1 + 0x48]\n 25291: a0 = i32 [a1]\n 25293: jump @905 if a0 >u 63\n      : @904 (gas: 3)\n 25297: u32 [a1 + 0] = 0x40\n 25300: t0 = 0x3ba\n 25304: jump @1346\n      : @905 (gas: 1)\n 25307: t0 = 954, jump @1346\n      : @906 [@dyn 477] (gas: 5)\n 25313: ra = 0x3bc\n 25317: ecalli 6 // 'hash_keccak_256'\n 25319: a3 = u64 [s1 + 0x30]\n 25322: t0 = 0x3be\n 25326: jump @1329\n      : @907 [@dyn 478] (gas: 2)\n 25329: a3 = u64 [s1 + 0x30]\n 25332: t0 = 958, jump @1329\n      : @908 [@dyn 479] (gas: 21)\n 25338: u64 [s1 + 0x28] = a0\n 25341: a0 = reverse a1\n 25343: u64 [s1 + 0x20] = a0\n 25346: a0 = reverse a2\n 25348: u64 [s1 + 0x18] = a0\n 25351: a0 = reverse a3\n 25353: u64 [s1 + 0x10] = a0\n 25356: a0 = sp + 0xffffffffffffffe0\n 25359: a0 = a0 & 0xffffffffffffffe0\n 25362: u64 [s1 + 0x30] = a0\n 25365: sp = a0\n 25367: u64 [s1 + 312] = 0\n 25371: a0 = u64 [s1]\n 25373: u64 [s1 + 0x130] = a0\n 25377: a0 = u64 [s1 + 0x50]\n 25380: u64 [s1 + 0x128] = a0\n 25384: a1 = s1 + 0x120\n 25388: a0 = u64 [s1 + 0x58]\n 25391: u64 [s1 + 0x120] = a0\n 25395: a0 = 0\n 25397: ra = 960, jump @19\n      : @909 [@dyn 480] (gas: 12)\n 25403: a0 = u64 [s1 + 0x10]\n 25406: a3 = s1 + 0x100\n 25410: u64 [a3 + 0x18] = a0\n 25413: a0 = u64 [s1 + 0x18]\n 25416: u64 [a3 + 0x10] = a0\n 25419: a0 = u64 [s1 + 0x20]\n 25422: u64 [a3 + 0x8] = a0\n 25425: a0 = 0x20\n 25428: a1 = s1 + 0x100\n 25432: a2 = u64 [s1 + 0x28]\n 25435: u64 [a3] = a2\n 25437: ra = 962, jump @19\n      : @910 [@dyn 481] (gas: 3)\n 25443: a1 = u64 [s1 + 0x48]\n 25446: a0 = i32 [a1]\n 25448: jump @912 if a0 >u 63\n      : @911 (gas: 2)\n 25452: u32 [a1 + 0] = 0x40\n 25455: fallthrough\n      : @912 (gas: 12)\n 25456: a0 = sp + 0xffffffffffffffe0\n 25459: a0 = a0 & 0xffffffffffffffe0\n 25462: u64 [s1 + 0x48] = a0\n 25465: sp = a0\n 25467: i32 a2 = a0 + 0\n 25469: a1 = 0x40\n 25472: a0 = u64 [s1 + 0x40]\n 25475: ra = 0x3c4\n 25479: ecalli 6 // 'hash_keccak_256'\n 25481: a3 = u64 [s1 + 0x48]\n 25484: t0 = 0x3c6\n 25488: jump @1280\n      : @913 [@dyn 482] (gas: 2)\n 25491: a3 = u64 [s1 + 0x48]\n 25494: t0 = 966, jump @1280\n      : @914 [@dyn 483] (gas: 7)\n 25500: a1 = u64 [s1 + 0x30]\n 25503: u64 [a1 + 0x18] = a3\n 25506: u64 [a1 + 0x10] = a2\n 25509: u64 [a1 + 0x8] = a4\n 25512: u64 [a1] = a0\n 25514: a0 = s1 + 0xe0\n 25518: ra = 968, jump @21\n      : @915 [@dyn 484] (gas: 14)\n 25524: a0 = u64 [s1 + 0xe0]\n 25528: a1 = u64 [s1 + 0xe8]\n 25532: a2 = u64 [s1 + 0xf8]\n 25536: a3 = u64 [s1 + 0xf0]\n 25540: a0 = a0 & 0xffffffffffffff00\n 25544: a0 = a0 | 0x1\n 25547: a4 = s1 + 0x200\n 25551: u64 [a4 + 0x38] = a2\n 25554: u64 [a4 + 0x30] = a3\n 25557: u64 [a4 + 0x28] = a1\n 25560: u64 [a4 + 0x20] = a0\n 25563: a1 = s1 + 0x220\n 25567: a0 = u64 [s1 + 0x30]\n 25570: ra = 970, jump @23\n      : @916 [@dyn 485] (gas: 8)\n 25576: a0 = 0x301d0\n 25581: u64 [s1 + 0x48] = a0\n 25584: i32 a0 = a0 + 0\n 25586: ra = 0x3cc\n 25590: ecalli 3 // 'caller'\n 25592: a2 = u64 [s1 + 0x48]\n 25595: t0 = 0x3ce\n 25599: jump @1291\n      : @917 [@dyn 486] (gas: 2)\n 25602: a2 = u64 [s1 + 0x48]\n 25605: t0 = 974, jump @1291\n      : @918 [@dyn 487] (gas: 36)\n 25611: t0 = a1 | a0\n 25614: a3 = a3 >> 0x20\n 25617: a2 = reverse a2\n 25619: a1 = a2 << 0x20\n 25622: a1 = a1 | a3\n 25625: a2 = a2 >> 0x20\n 25628: u64 [s1 + 120] = 0\n 25631: u64 [s1 + 152] = 0\n 25635: a0 = u64 [s1]\n 25637: u64 [s1 + 0x90] = a0\n 25641: a0 = u64 [s1 + 0x50]\n 25644: u64 [s1 + 0x88] = a0\n 25648: a0 = u64 [s1 + 0x58]\n 25651: u64 [s1 + 0x80] = a0\n 25655: u64 [s1 + 184] = 0\n 25659: u64 [s1 + 176] = 0\n 25663: u64 [s1 + 168] = 0\n 25667: u64 [s1 + 160] = 0\n 25671: a3 = u64 [0x200c8]\n 25676: a4 = u64 [0x200d0]\n 25681: a5 = u64 [0x200d8]\n 25686: a0 = u64 [0x200e0]\n 25691: u64 [s1 + 0xd8] = a3\n 25695: u64 [s1 + 0xd0] = a4\n 25699: u64 [s1 + 0xc8] = a5\n 25703: u64 [s1 + 0xc0] = a0\n 25707: u64 [s1 + 0x70] = a2\n 25710: u64 [s1 + 0x68] = a1\n 25713: a2 = s1 + 0xc0\n 25717: a3 = s1 + 0xa0\n 25721: a4 = s1 + 0x80\n 25725: a5 = s1 + 0x60\n 25728: u64 [s1 + 0x60] = t0\n 25731: a0 = 0\n 25733: a1 = 0\n 25735: ra = 976, jump @27\n      : @919 [@dyn 488] (gas: 2)\n 25741: a1 = 0x1\n 25744: fallthrough\n      : @920 (gas: 12)\n 25745: a2 = u64 [s1 + 0x38]\n 25748: u64 [a2] = a1\n 25750: u64 [a2 + 8] = 0\n 25753: u64 [a2 + 16] = 0\n 25756: u64 [a2 + 24] = 0\n 25759: sp = s0 + 0xfffffffffffffda0\n 25763: a0 = sp + 0x200\n 25767: ra = u64 [a0 + 0x58]\n 25770: s0 = u64 [a0 + 0x50]\n 25773: s1 = u64 [a0 + 0x48]\n 25776: sp = sp + 0x260\n 25780: ret\n      : @921 [@dyn 489] (gas: 5)\n 25782: a1 = 0x24\n 25785: ra = 0x3d4\n 25789: ecalli 1 // 'call_data_load'\n 25791: t0 = 0x3d6\n 25795: jump @1320\n      : @922 [@dyn 490] (gas: 1)\n 25798: t0 = 982, jump @1320\n      : @923 [@dyn 491] (gas: 1)\n 25804: jump @926 if a3 == 0\n      : @924 (gas: 1)\n 25807: t0 = 984, jump @1332\n      : @925 [@dyn 492] (gas: 1)\n 25813: ret\n      : @926 (gas: 8)\n 25815: a1 = 0x201d0\n 25820: i32 a1 = a1 + 0\n 25822: a0 = 0x1\n 25825: a2 = 0\n 25827: ra = 0x3da\n 25831: ecalli 8 // 'seal_return'\n 25833: t0 = 0x3dc\n 25837: jump @1355\n      : @927 [@dyn 493] (gas: 1)\n 25840: t0 = 988, jump @1355\n      : @928 [@dyn 494] (gas: 5)\n 25846: a1 = 0x4\n 25849: ra = 0x3de\n 25853: ecalli 1 // 'call_data_load'\n 25855: t0 = 0x3e0\n 25859: jump @1320\n      : @929 [@dyn 495] (gas: 1)\n 25862: t0 = 992, jump @1320\n      : @930 [@dyn 496] (gas: 1)\n 25868: jump @933 if a3 == 0\n      : @931 (gas: 1)\n 25871: t0 = 994, jump @1332\n      : @932 [@dyn 497] (gas: 1)\n 25877: ret\n      : @933 (gas: 7)\n 25879: a1 = 0x201d0\n 25884: i32 a1 = a1 + 0\n 25886: a0 = 0x1\n 25889: a2 = 0\n 25891: ra = 0x3e4\n 25895: ecalli 8 // 'seal_return'\n 25897: fallthrough\n      : @934 [@dyn 498] (gas: 19)\n 25898: sp = sp + 0xffffffffffffff90\n 25901: u64 [sp + 0x68] = ra\n 25904: u64 [sp + 0x60] = s0\n 25907: s0 = sp + 0x70\n 25910: sp = sp & 0xfffffffffffffff0\n 25913: a3 = u64 [a0 + 0x18]\n 25916: a2 = u64 [a0 + 0x10]\n 25919: t1 = u64 [a0]\n 25921: a0 = u64 [a0 + 0x8]\n 25924: a4 = a3 >u 0\n 25926: a5 = a2 >u 0\n 25928: a5 = a4 if a3 != 0\n 25931: t0 = a0 >u 0\n 25933: a4 = t1 <u 0xffffffffffffff20\n 25937: a4 = a4 ^ 0x1\n 25940: a4 = t0 if a0 != 0\n 25943: a1 = a2 | a3\n 25946: a4 = a5 if a1 != 0\n 25949: jump @937 if a4 != 0\n      : @935 (gas: 15)\n 25952: a1 = t1 + 0xe0\n 25956: a4 = a1 <u t1\n 25959: a5 = a0 + a4\n 25962: a0 = a5 <u a0\n 25965: a0 = a4 if a4 == 0\n 25968: a0 = a0 + a2\n 25971: a2 = a0 <u a2\n 25974: a2 = a2 + a3\n 25977: u64 [sp + 0x40] = a1\n 25980: u64 [sp + 0x48] = a5\n 25983: u64 [sp + 0x50] = a0\n 25986: a0 = 0x40\n 25989: a1 = sp + a0\n 25992: u64 [sp + 0x58] = a2\n 25995: ra = 998, jump @19\n      : @936 [@dyn 499] (gas: 5)\n 26001: sp = s0 + 0xffffffffffffff90\n 26004: ra = u64 [sp + 0x68]\n 26007: s0 = u64 [sp + 0x60]\n 26010: sp = sp + 0x70\n 26013: ret\n      : @937 (gas: 1)\n 26015: t0 = 1000, jump @1337\n      : @938 [@dyn 500] (gas: 1)\n 26021: ra = 1002, jump @19\n      : @939 [@dyn 501] (gas: 7)\n 26027: u64 [sp + 24] = 0\n 26030: u64 [sp + 16] = 0\n 26033: u64 [sp + 0] = 0x41\n 26036: a0 = 0x4\n 26039: a1 = sp\n 26041: u64 [sp + 8] = 0\n 26044: ra = 1004, jump @19\n      : @940 [@dyn 502] (gas: 2)\n 26050: a1 = i32 [0x201bc]\n 26055: jump @942 if a1 >u 63\n      : @941 (gas: 2)\n 26059: u32 [0x201bc] = 0x40\n 26065: fallthrough\n      : @942 (gas: 7)\n 26066: a1 = 0x201d0\n 26071: i32 a1 = a1 + 0\n 26073: a0 = 0x1\n 26076: a2 = 0x24\n 26079: ra = 0x3ee\n 26083: ecalli 8 // 'seal_return'\n 26085: fallthrough\n      : @943 [@dyn 503] (gas: 46)\n 26086: sp = sp + 0xffffffffffffff70\n 26090: u64 [sp + 0x88] = ra\n 26094: u64 [sp + 0x80] = s0\n 26098: u64 [sp + 0x78] = s1\n 26101: s0 = sp + 0x90\n 26105: sp = sp & 0xfffffffffffffff0\n 26108: t0 = a0\n 26110: a2 = u64 [a1]\n 26112: t2 = u64 [a0 + 0x8]\n 26115: a5 = u64 [a1 + 0x8]\n 26118: t1 = u64 [a0]\n 26120: a3 = a2 + 0x1f\n 26123: ra = a3 <u a2\n 26126: a2 = a5 + ra\n 26129: a3 = a3 & 0xffffffffffffffe0\n 26132: u64 [sp + 0x8] = t1\n 26135: t1 = t1 + a3\n 26138: a4 = t1 <u a3\n 26141: a3 = a2 + t2\n 26144: a3 = a3 + a4\n 26147: s1 = a3 ^ a2\n 26150: a0 = a3 <u a2\n 26153: a0 = a4 if s1 == 0\n 26156: a4 = u64 [t0 + 0x18]\n 26159: a5 = a2 <u a5\n 26162: s1 = u64 [a1 + 0x10]\n 26165: t0 = u64 [t0 + 0x10]\n 26168: a1 = u64 [a1 + 0x18]\n 26171: a5 = ra if ra == 0\n 26174: a5 = a5 + s1\n 26177: s1 = a5 <u s1\n 26180: a2 = a5 + t0\n 26183: a0 = a0 + a2\n 26186: a5 = a2 <u a5\n 26189: a2 = a0 <u a2\n 26192: a1 = a1 + a4\n 26195: a1 = a1 + s1\n 26198: a1 = a1 + a5\n 26201: a5 = a1 + a2\n 26204: a1 = a5 >u 0\n 26206: a2 = a0 >u 0\n 26208: a2 = a1 if a5 != 0\n 26211: a1 = a0 | a5\n 26214: s1 = a3 >u 0\n 26216: s1 = a2 if a1 != 0\n 26219: jump @947 if s1 != 0\n      : @944 (gas: 13)\n 26222: a1 = u64 [sp + 0x8]\n 26225: a1 = t1 <u a1\n 26228: a2 = a3 ^ t2\n 26231: s1 = a3 <u t2\n 26234: s1 = a1 if a2 == 0\n 26237: a1 = a0 <u t0\n 26240: a2 = a5 ^ a4\n 26243: a4 = a5 <u a4\n 26246: a4 = a1 if a2 == 0\n 26249: a1 = a0 ^ t0\n 26252: a1 = a1 | a2\n 26255: a4 = s1 if a1 == 0\n 26258: jump @947 if a4 != 0\n      : @945 (gas: 7)\n 26261: u64 [sp + 0x50] = t1\n 26264: u64 [sp + 0x58] = a3\n 26267: u64 [sp + 0x60] = a0\n 26270: a0 = 0x40\n 26273: a1 = sp + 0x50\n 26276: u64 [sp + 0x68] = a5\n 26279: ra = 1008, jump @19\n      : @946 [@dyn 504] (gas: 6)\n 26285: sp = s0 + 0xffffffffffffff70\n 26289: ra = u64 [sp + 0x88]\n 26293: s0 = u64 [sp + 0x80]\n 26297: s1 = u64 [sp + 0x78]\n 26300: sp = sp + 0x90\n 26304: ret\n      : @947 (gas: 8)\n 26306: u64 [sp + 64] = 0\n 26309: u64 [sp + 56] = 0\n 26312: u64 [sp + 48] = 0\n 26315: a0 = 0x4e487b7100000000\n 26325: a1 = sp + 0x30\n 26328: u64 [sp + 0x48] = a0\n 26331: a0 = 0\n 26333: ra = 1010, jump @19\n      : @948 [@dyn 505] (gas: 7)\n 26339: u64 [sp + 40] = 0\n 26342: u64 [sp + 32] = 0\n 26345: u64 [sp + 16] = 0x41\n 26349: a0 = 0x4\n 26352: a1 = sp + 0x10\n 26355: u64 [sp + 24] = 0\n 26358: ra = 1012, jump @19\n      : @949 [@dyn 506] (gas: 2)\n 26364: a1 = i32 [0x201bc]\n 26369: jump @951 if a1 >u 63\n      : @950 (gas: 2)\n 26373: u32 [0x201bc] = 0x40\n 26379: fallthrough\n      : @951 (gas: 7)\n 26380: a1 = 0x201d0\n 26385: i32 a1 = a1 + 0\n 26387: a0 = 0x1\n 26390: a2 = 0x24\n 26393: ra = 0x3f6\n 26397: ecalli 8 // 'seal_return'\n 26399: fallthrough\n      : @952 [@dyn 507] (gas: 37)\n 26400: sp = sp + 0xfffffffffffffe40\n 26404: u64 [sp + 0x1b8] = ra\n 26408: u64 [sp + 0x1b0] = s0\n 26412: u64 [sp + 0x1a8] = s1\n 26416: s0 = sp + 0x1c0\n 26420: sp = sp & 0xffffffffffffffe0\n 26423: ra = u64 [a1]\n 26425: a4 = u64 [a2 + 0x8]\n 26428: t2 = u64 [a1 + 0x8]\n 26431: s1 = u64 [a2]\n 26433: a3 = ra + 0x1f\n 26436: t0 = a3 <u ra\n 26439: a5 = t2 + t0\n 26442: u64 [sp + 0x30] = s1\n 26445: t1 = a3 <u s1\n 26448: a3 = a5 ^ a4\n 26451: u64 [sp + 0x40] = a4\n 26454: a4 = a5 <u a4\n 26457: a4 = t1 if a3 == 0\n 26460: s1 = u64 [a1 + 0x10]\n 26463: a3 = a5 <u t2\n 26466: a3 = t0 if t0 == 0\n 26469: a5 = u64 [a2 + 0x18]\n 26472: t0 = u64 [a1 + 0x18]\n 26475: t1 = u64 [a2 + 0x10]\n 26478: a3 = a3 + s1\n 26481: a1 = a3 <u s1\n 26484: a1 = a1 + t0\n 26487: a2 = a1 ^ a5\n 26490: u64 [sp + 0x20] = a5\n 26493: a1 = a1 <s a5\n 26496: a5 = a3 <u t1\n 26499: a1 = a5 if a2 == 0\n 26502: a3 = a3 ^ t1\n 26505: a2 = a2 | a3\n 26508: a4 = a1 if a2 != 0\n 26511: jump @970 if a4 == 0\n      : @953 (gas: 13)\n 26515: u64 [sp + 0x18] = a0\n 26518: u64 [sp + 0x28] = t1\n 26521: a0 = ra | s1\n 26524: u64 [sp + 0x50] = t2\n 26527: u64 [sp + 0x38] = t0\n 26530: a1 = t2 | t0\n 26533: a0 = a0 | a1\n 26536: a0 = a0 >> 0x20\n 26539: u64 [sp + 0x48] = s1\n 26542: a1 = a1 | s1\n 26545: a1 = a1 << 0x20\n 26548: a0 = a0 | a1\n 26551: jump @969 if a0 != 0\n      : @954 (gas: 6)\n 26555: u64 [sp + 0x60] = ra\n 26558: i32 a1 = ra + 0\n 26560: i32 a0 = sp + 0x180\n 26564: u64 [sp + 0x10] = a1\n 26567: ecalli 1 // 'call_data_load'\n 26569: fallthrough\n      : @955 (gas: 13)\n 26570: a2 = u64 [sp + 0x198]\n 26574: a3 = u64 [sp + 0x190]\n 26578: a4 = u64 [sp + 0x188]\n 26582: a0 = a2 >u 0\n 26584: a1 = a3 >u 0\n 26586: a1 = a0 if a2 != 0\n 26589: u64 [sp + 0x90] = a2\n 26593: u64 [sp + 0x88] = a3\n 26597: a0 = a3 | a2\n 26600: u64 [sp + 0x98] = a4\n 26604: a2 = a4 >u 0\n 26606: a2 = a1 if a0 != 0\n 26609: jump @971 if a2 != 0\n      : @956 (gas: 4)\n 26613: s1 = u64 [sp + 0x180]\n 26617: a0 = sp + 0x160\n 26621: a1 = 0x40\n 26624: ra = 1016, jump @17\n      : @957 [@dyn 508] (gas: 31)\n 26630: t0 = u64 [sp + 0x178]\n 26634: a5 = u64 [sp + 0x170]\n 26638: u64 [sp + 0x78] = a5\n 26641: t1 = u64 [sp + 0x168]\n 26645: u64 [sp + 0x80] = t1\n 26649: t2 = u64 [sp + 0x160]\n 26653: u64 [sp + 0x70] = t2\n 26656: a0 = s1 + 0x1f\n 26659: u64 [sp + 0x58] = s1\n 26662: a1 = a0 <u s1\n 26665: a2 = u64 [sp + 0x98]\n 26669: a1 = a1 + a2\n 26672: a1 = a1 & 0x1\n 26675: a0 = a0 & 0xffffffffffffffe0\n 26678: a2 = a0 + 0x20\n 26681: a0 = a2 <u a0\n 26684: a3 = a1 + a0\n 26687: a4 = a3 <u a1\n 26690: a4 = a0 if a0 == 0\n 26693: u64 [sp + 312] = 0\n 26697: u64 [sp + 0x120] = a2\n 26701: s1 = t0\n 26703: u64 [sp + 0x158] = t0\n 26707: u64 [sp + 0x150] = a5\n 26711: u64 [sp + 0x148] = t1\n 26715: u64 [sp + 0x140] = t2\n 26719: u64 [sp + 0x128] = a3\n 26723: a0 = sp + 0x140\n 26727: a1 = sp + 0x120\n 26731: u64 [sp + 0x130] = a4\n 26735: ra = 1018, jump @943\n      : @958 [@dyn 509] (gas: 12)\n 26741: a2 = u64 [sp + 0x70]\n 26744: u64 [sp + 0x68] = s1\n 26747: a1 = u64 [sp + 0x80]\n 26751: a0 = a1 | s1\n 26754: a3 = u64 [sp + 0x78]\n 26757: a1 = a2 | a3\n 26760: a1 = a1 | a0\n 26763: a1 = a1 >> 0x20\n 26766: a0 = a0 | a3\n 26769: a0 = a0 << 0x20\n 26772: a0 = a0 | a1\n 26775: jump @969 if a0 != 0\n      : @959 (gas: 11)\n 26779: s1 = u64 [sp + 0x58]\n 26782: u64 [sp + 0x100] = s1\n 26786: a0 = u64 [sp + 0x98]\n 26790: u64 [sp + 0x108] = a0\n 26794: a0 = u64 [sp + 0x88]\n 26798: u64 [sp + 0x110] = a0\n 26802: a1 = sp + 0x100\n 26806: a0 = u64 [sp + 0x90]\n 26810: u64 [sp + 0x118] = a0\n 26814: a0 = a2\n 26816: ra = 1020, jump @19\n      : @960 [@dyn 510] (gas: 46)\n 26822: a0 = u64 [sp + 0x60]\n 26825: a3 = a0 + s1\n 26828: a2 = a3 <u a0\n 26831: t2 = u64 [sp + 0x50]\n 26834: a0 = u64 [sp + 0x98]\n 26838: a0 = a0 + t2\n 26841: a0 = a0 + a2\n 26844: a4 = a0 ^ t2\n 26847: a1 = a0 <u t2\n 26850: a1 = a2 if a4 == 0\n 26853: ra = u64 [sp + 0x48]\n 26856: a2 = u64 [sp + 0x88]\n 26860: a2 = a2 + ra\n 26863: a5 = a3 + 0x20\n 26866: t0 = a5 <u a3\n 26869: a4 = a0 + t0\n 26872: a3 = u64 [sp + 0x30]\n 26875: a5 = a3 <u a5\n 26878: a3 = u64 [sp + 0x40]\n 26881: s1 = a4 ^ a3\n 26884: a3 = a3 <u a4\n 26887: a5 = a3 if s1 != 0\n 26890: a3 = a2 <u ra\n 26893: t1 = u64 [sp + 0x38]\n 26896: s1 = u64 [sp + 0x90]\n 26900: s1 = s1 + t1\n 26903: a3 = a3 + s1\n 26906: a1 = a1 + a2\n 26909: a2 = a1 <u a2\n 26912: a2 = a2 + a3\n 26915: a0 = a4 <u a0\n 26918: a0 = t0 if t0 == 0\n 26921: a0 = a0 + a1\n 26924: a1 = a0 <u a1\n 26927: a1 = a1 + a2\n 26930: a3 = u64 [sp + 0x20]\n 26933: a2 = a1 ^ a3\n 26936: a1 = a3 <u a1\n 26939: a4 = u64 [sp + 0x28]\n 26942: a3 = a4 <u a0\n 26945: a1 = a3 if a2 == 0\n 26948: a0 = a0 ^ a4\n 26951: a0 = a0 | a2\n 26954: a5 = a1 if a0 != 0\n 26957: a3 = u64 [sp + 0x98]\n 26961: jump @976 if a5 != 0\n      : @961 (gas: 7)\n 26965: a0 = ra | t1\n 26968: a1 = 0xffffffe0\n 26978: a2 = u64 [sp + 0x60]\n 26981: a1 = a2 <u a1\n 26984: a1 = 0 if t2 != 0\n 26986: a1 = 0 if a0 != 0\n 26988: jump @969 if a1 == 0\n      : @962 (gas: 15)\n 26992: a2 = u64 [sp + 0x88]\n 26996: a5 = u64 [sp + 0x58]\n 26999: a0 = a5 | a2\n 27002: a1 = u64 [sp + 0x90]\n 27006: a1 = a1 | a3\n 27009: a0 = a0 | a1\n 27012: a0 = a0 >> 0x20\n 27015: a1 = a1 | a2\n 27018: a1 = a1 << 0x20\n 27021: a0 = a0 | a1\n 27024: s1 = u64 [sp + 0x70]\n 27027: a2 = u64 [sp + 0x80]\n 27031: a3 = u64 [sp + 0x78]\n 27034: a4 = u64 [sp + 0x68]\n 27037: jump @969 if a0 != 0\n      : @963 (gas: 7)\n 27041: a0 = a3 | a4\n 27044: a1 = 0xffffffe0\n 27054: u64 [sp + 0x60] = a1\n 27057: a1 = s1 <u a1\n 27060: a1 = 0 if a2 != 0\n 27062: a1 = 0 if a0 != 0\n 27064: jump @969 if a1 == 0\n      : @964 (gas: 7)\n 27068: a0 = u64 [sp + 0x10]\n 27071: i32 a0 = a0 + 0x20\n 27074: u64 [sp + 0x50] = a0\n 27077: i32 a0 = s1 + 0x20\n 27080: a1 = a5\n 27082: s1 = a5\n 27084: ra = 1022, jump @30\n      : @965 [@dyn 511] (gas: 5)\n 27090: i32 a0 = a0 + 0\n 27092: i32 a1 = s1 + 0\n 27094: a2 = u64 [sp + 0x50]\n 27097: ecalli 0 // 'call_data_copy'\n 27098: fallthrough\n      : @966 (gas: 27)\n 27099: t0 = u64 [sp + 0x70]\n 27102: a0 = t0 + s1\n 27105: a1 = a0 <u t0\n 27108: a2 = u64 [sp + 0x98]\n 27112: a4 = u64 [sp + 0x80]\n 27116: a2 = a2 + a4\n 27119: a2 = a2 + a1\n 27122: a3 = a2 ^ a4\n 27125: a4 = a2 <u a4\n 27128: a4 = a1 if a3 == 0\n 27131: a1 = u64 [sp + 0x88]\n 27135: a3 = u64 [sp + 0x78]\n 27138: a1 = a1 + a3\n 27141: a3 = a1 <u a3\n 27144: a5 = u64 [sp + 0x90]\n 27148: s1 = u64 [sp + 0x68]\n 27151: a5 = a5 + s1\n 27154: a3 = a3 + a5\n 27157: a4 = a4 + a1\n 27160: a1 = a4 <u a1\n 27163: a1 = a1 + a3\n 27166: a1 = a1 | a4\n 27169: a3 = u64 [sp + 0x60]\n 27172: a3 = a0 <u a3\n 27175: a3 = 0 if a2 != 0\n 27177: a3 = 0 if a1 != 0\n 27179: jump @969 if a3 == 0\n      : @967 (gas: 8)\n 27182: s1 = t0\n 27184: i32 a0 = a0 + 0x20\n 27187: u64 [sp + 248] = 0\n 27191: u64 [sp + 240] = 0\n 27195: u64 [sp + 232] = 0\n 27199: a1 = sp + 0xe0\n 27203: u64 [sp + 224] = 0\n 27207: ra = 1024, jump @19\n      : @968 [@dyn 512] (gas: 14)\n 27213: a0 = u64 [sp + 0x18]\n 27216: a1 = u64 [sp + 0x68]\n 27219: u64 [a0 + 0x18] = a1\n 27222: a1 = u64 [sp + 0x78]\n 27225: u64 [a0 + 0x10] = a1\n 27228: a1 = u64 [sp + 0x80]\n 27232: u64 [a0 + 0x8] = a1\n 27235: u64 [a0] = s1\n 27237: sp = s0 + 0xfffffffffffffe40\n 27241: ra = u64 [sp + 0x1b8]\n 27245: s0 = u64 [sp + 0x1b0]\n 27249: s1 = u64 [sp + 0x1a8]\n 27253: sp = sp + 0x1c0\n 27257: ret\n      : @969 (gas: 1)\n 27259: trap\n      : @970 (gas: 2)\n 27260: a1 = 0x201d0\n 27265: jump @977\n      : @971 (gas: 8)\n 27267: u64 [sp + 208] = 0\n 27271: u64 [sp + 200] = 0\n 27275: u64 [sp + 192] = 0\n 27279: a0 = 0x4e487b7100000000\n 27289: a1 = sp + 0xc0\n 27293: u64 [sp + 0xd8] = a0\n 27297: a0 = 0\n 27299: ra = 1026, jump @19\n      : @972 [@dyn 513] (gas: 7)\n 27305: u64 [sp + 184] = 0\n 27309: u64 [sp + 176] = 0\n 27313: u64 [sp + 160] = 0x41\n 27318: a0 = 0x4\n 27321: a1 = sp + 0xa0\n 27325: u64 [sp + 168] = 0\n 27329: ra = 1028, jump @19\n      : @973 [@dyn 514] (gas: 2)\n 27335: a1 = i32 [0x201bc]\n 27340: jump @975 if a1 >u 63\n      : @974 (gas: 2)\n 27344: u32 [0x201bc] = 0x40\n 27350: fallthrough\n      : @975 (gas: 7)\n 27351: a1 = 0x201d0\n 27356: i32 a1 = a1 + 0\n 27358: a0 = 0x1\n 27361: a2 = 0x24\n 27364: ecalli 8 // 'seal_return'\n 27366: a1 = 0x201d0\n 27371: jump @977\n      : @976 (gas: 2)\n 27373: a1 = 0x201d0\n 27378: fallthrough\n      : @977 (gas: 6)\n 27379: i32 a1 = a1 + 0\n 27381: a0 = 0x1\n 27384: a2 = 0\n 27386: ra = 0x406\n 27390: ecalli 8 // 'seal_return'\n 27392: fallthrough\n      : @978 [@dyn 515] (gas: 33)\n 27393: sp = sp + 0xffffffffffffffa0\n 27396: u64 [sp + 0x58] = ra\n 27399: u64 [sp + 0x50] = s0\n 27402: u64 [sp + 0x48] = s1\n 27405: s0 = sp + 0x60\n 27408: sp = sp & 0xfffffffffffffff0\n 27411: a2 = u64 [a1 + 0x10]\n 27414: a5 = u64 [a1 + 0x8]\n 27417: a4 = u64 [a1]\n 27419: a1 = u64 [a1 + 0x18]\n 27422: t0 = a2 << 0x3f\n 27425: a3 = a5 >> 0x1\n 27428: t0 = a3 | t0\n 27431: a3 = a1 << 0x3f\n 27434: a2 = a2 >> 0x1\n 27437: a3 = a3 | a2\n 27440: a5 = a5 << 0x3f\n 27443: a2 = a4 >> 0x1\n 27446: a5 = a5 | a2\n 27449: t1 = a1 >> 0x1\n 27452: a4 = a4 & 0x1\n 27455: a1 = -a4\n 27457: s1 = a4 <u 0x1\n 27460: a2 = a5 & 0x7f\n 27463: t2 = a1 & a3\n 27466: a3 = a1 & t0\n 27469: a2 = a5 if a4 != 0\n 27472: a4 = a1 & t1\n 27475: a1 = a2 <u 0x20\n 27478: a1 = 0 if a3 != 0\n 27480: a5 = t2 | a4\n 27483: a1 = 0 if a5 != 0\n 27485: jump @981 if s1 != a1\n      : @979 (gas: 5)\n 27488: u64 [a0] = a2\n 27490: u64 [a0 + 0x8] = a3\n 27493: u64 [a0 + 0x10] = t2\n 27496: u64 [a0 + 0x18] = a4\n 27499: t0 = 1032, jump @1340\n      : @980 [@dyn 516] (gas: 1)\n 27505: ret\n      : @981 (gas: 1)\n 27507: t0 = 1034, jump @1337\n      : @982 [@dyn 517] (gas: 1)\n 27513: ra = 1036, jump @19\n      : @983 [@dyn 518] (gas: 7)\n 27519: u64 [sp + 24] = 0\n 27522: u64 [sp + 16] = 0\n 27525: u64 [sp + 0] = 0x22\n 27528: a0 = 0x4\n 27531: a1 = sp\n 27533: u64 [sp + 8] = 0\n 27536: ra = 1038, jump @19\n      : @984 [@dyn 519] (gas: 2)\n 27542: a1 = i32 [0x201bc]\n 27547: jump @986 if a1 >u 63\n      : @985 (gas: 2)\n 27551: u32 [0x201bc] = 0x40\n 27557: fallthrough\n      : @986 (gas: 8)\n 27558: a1 = 0x201d0\n 27563: i32 a1 = a1 + 0\n 27565: a0 = 0x1\n 27568: a2 = 0x24\n 27571: ra = 0x410\n 27575: ecalli 8 // 'seal_return'\n 27577: t0 = 0x412\n 27581: jump @1339\n      : @987 [@dyn 520] (gas: 1)\n 27584: t0 = 1042, jump @1339\n      : @988 [@dyn 521] (gas: 16)\n 27590: u64 [s1 + 0x10] = a0\n 27593: a0 = u64 [a1 + 0x18]\n 27596: a2 = u64 [a1 + 0x10]\n 27599: a3 = u64 [a1 + 0x8]\n 27602: a1 = u64 [a1]\n 27604: u64 [s1 + 0xb0] = a0\n 27608: u64 [s1 + 0x238] = a0\n 27612: u64 [s1 + 0xa8] = a2\n 27616: u64 [s1 + 0x230] = a2\n 27620: u64 [s1 + 0xa0] = a3\n 27624: u64 [s1 + 0x228] = a3\n 27628: u64 [s1 + 0x98] = a1\n 27632: u64 [s1 + 0x220] = a1\n 27636: a0 = s1 + 0x200\n 27640: a1 = 0x40\n 27643: ra = 1044, jump @17\n      : @989 [@dyn 522] (gas: 12)\n 27649: a1 = s1 + 0x200\n 27653: a0 = u64 [a1 + 0x18]\n 27656: u64 [s1 + 0x18] = a0\n 27659: a0 = u64 [a1 + 0x10]\n 27662: u64 [s1 + 0x20] = a0\n 27665: a0 = u64 [a1 + 0x8]\n 27668: u64 [s1 + 0x28] = a0\n 27671: a0 = u64 [a1]\n 27673: u64 [s1 + 0x30] = a0\n 27676: a0 = s1 + 0x1e0\n 27680: a1 = s1 + 0x220\n 27684: ra = 1046, jump @21\n      : @990 [@dyn 523] (gas: 16)\n 27690: a4 = s1 + 0x100\n 27694: a0 = u64 [a4 + 0xf8]\n 27698: a1 = u64 [a4 + 0xf0]\n 27702: a2 = u64 [a4 + 0xe8]\n 27706: a3 = u64 [a4 + 0xe0]\n 27710: u64 [s1 + 0x90] = a0\n 27714: u64 [a4 + 0xb8] = a0\n 27718: u64 [s1 + 0x88] = a1\n 27722: u64 [a4 + 0xb0] = a1\n 27726: u64 [s1 + 0x80] = a2\n 27730: u64 [a4 + 0xa8] = a2\n 27734: a0 = s1 + 0x1c0\n 27738: a1 = s1 + 0x1a0\n 27742: u64 [s1 + 0xb8] = a3\n 27746: u64 [a4 + 0xa0] = a3\n 27750: ra = 1048, jump @978\n      : @991 [@dyn 524] (gas: 12)\n 27756: a0 = u64 [s1 + 0x30]\n 27759: a1 = u64 [s1 + 0x18]\n 27762: a2 = u64 [s1 + 0x28]\n 27765: a2 = a2 | a1\n 27768: a3 = u64 [s1 + 0x20]\n 27771: a1 = a0 | a3\n 27774: a1 = a1 | a2\n 27777: a1 = a1 >> 0x20\n 27780: a2 = a2 | a3\n 27783: a2 = a2 << 0x20\n 27786: a1 = a1 | a2\n 27789: jump @1008 if a1 != 0\n      : @992 (gas: 15)\n 27793: a5 = s1 + 0x100\n 27797: a2 = u64 [a5 + 0xd8]\n 27801: a3 = u64 [a5 + 0xd0]\n 27805: a1 = u64 [a5 + 0xc8]\n 27809: a4 = u64 [a5 + 0xc0]\n 27813: u64 [s1 + 0x60] = a4\n 27816: u64 [a5 + 0x80] = a4\n 27820: u64 [s1 + 0x70] = a1\n 27823: u64 [a5 + 0x88] = a1\n 27827: u64 [s1 + 0x68] = a3\n 27830: u64 [a5 + 0x90] = a3\n 27834: a1 = s1 + 0x180\n 27838: u64 [s1 + 0x78] = a2\n 27841: u64 [a5 + 0x98] = a2\n 27845: ra = 1050, jump @19\n      : @993 [@dyn 525] (gas: 3)\n 27851: a3 = u64 [s1 + 0xb8]\n 27855: a0 = a3 & 0x1\n 27858: jump @999 if a0 != 0\n      : @994 (gas: 10)\n 27862: a0 = u64 [s1 + 0x20]\n 27865: a1 = u64 [s1 + 0x18]\n 27868: a0 = a0 | a1\n 27871: a1 = 0xffffffe0\n 27881: a4 = u64 [s1 + 0x30]\n 27884: a1 = a4 <u a1\n 27887: a2 = u64 [s1 + 0x28]\n 27890: a1 = 0 if a2 != 0\n 27892: a1 = 0 if a0 != 0\n 27894: jump @1008 if a1 == 0\n      : @995 (gas: 12)\n 27898: a1 = a3 & 0xffffffffffffff00\n 27902: i32 a0 = a4 + 0x20\n 27905: a3 = u64 [s1 + 0x80]\n 27909: a2 = s1 + 0x100\n 27913: u64 [a2 + 0x8] = a3\n 27916: u64 [a2] = a1\n 27918: a1 = u64 [s1 + 0x88]\n 27922: u64 [a2 + 0x10] = a1\n 27925: a1 = s1 + 0x100\n 27929: a3 = u64 [s1 + 0x90]\n 27933: u64 [a2 + 0x18] = a3\n 27936: ra = 1052, jump @19\n      : @996 [@dyn 526] (gas: 14)\n 27942: t2 = 0\n 27944: t1 = 0\n 27946: t0 = 0\n 27948: a0 = u64 [s1 + 0x68]\n 27951: a1 = u64 [s1 + 0x60]\n 27954: a0 = a0 | a1\n 27957: a1 = u64 [s1 + 0x78]\n 27960: a2 = u64 [s1 + 0x70]\n 27963: a1 = a1 | a2\n 27966: a0 = a0 | a1\n 27969: a0 = a0 >u 0\n 27971: a0 = a0 << 0x5\n 27974: u64 [s1 + 0xb8] = a0\n 27978: fallthrough\n      : @997 (gas: 24)\n 27979: a1 = u64 [s1 + 0xb8]\n 27983: a0 = a1 + 0x20\n 27986: a1 = a0 <u a1\n 27989: a2 = t2 + a1\n 27992: a3 = a2 <u t2\n 27995: a3 = a1 if a1 == 0\n 27998: a3 = a3 + t1\n 28001: a1 = a3 <u t1\n 28004: a4 = t0 + a1\n 28007: a1 = u64 [s1 + 0x30]\n 28010: u64 [s1 + 0xe0] = a1\n 28014: u64 [s1 + 0xc0] = a0\n 28018: a0 = u64 [s1 + 0x28]\n 28021: u64 [s1 + 0xe8] = a0\n 28025: a0 = u64 [s1 + 0x20]\n 28028: u64 [s1 + 0xf0] = a0\n 28032: u64 [s1 + 0xc8] = a2\n 28036: a0 = u64 [s1 + 0x18]\n 28039: u64 [s1 + 0xf8] = a0\n 28043: u64 [s1 + 0xd0] = a3\n 28047: a0 = s1 + 0xe0\n 28051: a1 = s1 + 0xc0\n 28055: u64 [s1 + 0xd8] = a4\n 28059: ra = 1054, jump @943\n      : @998 [@dyn 527] (gas: 16)\n 28065: a0 = u64 [s1 + 0x10]\n 28068: a1 = u64 [s1 + 0x18]\n 28071: u64 [a0 + 0x18] = a1\n 28074: a1 = u64 [s1 + 0x20]\n 28077: u64 [a0 + 0x10] = a1\n 28080: a1 = u64 [s1 + 0x28]\n 28083: u64 [a0 + 0x8] = a1\n 28086: a1 = u64 [s1 + 0x30]\n 28089: u64 [a0] = a1\n 28091: sp = s0 + 0xfffffffffffffda0\n 28095: a0 = sp + 0x200\n 28099: ra = u64 [a0 + 0x58]\n 28102: s0 = u64 [a0 + 0x50]\n 28105: s1 = u64 [a0 + 0x48]\n 28108: sp = sp + 0x260\n 28112: ret\n      : @999 (gas: 12)\n 28114: a0 = u64 [s1 + 0x98]\n 28118: a2 = s1 + 0x100\n 28122: u64 [a2 + 0x60] = a0\n 28125: a0 = u64 [s1 + 0xa0]\n 28129: u64 [a2 + 0x68] = a0\n 28132: a0 = u64 [s1 + 0xa8]\n 28136: u64 [a2 + 0x70] = a0\n 28139: a1 = s1 + 0x160\n 28143: a0 = u64 [s1 + 0xb0]\n 28147: u64 [a2 + 0x78] = a0\n 28150: a0 = 0\n 28152: ra = 1056, jump @19\n      : @1000 [@dyn 528] (gas: 6)\n 28158: a0 = sp + 0xffffffffffffffe0\n 28161: a0 = a0 & 0xffffffffffffffe0\n 28164: u64 [s1 + 0x58] = a0\n 28167: sp = a0\n 28169: a1 = i32 [0x201bc]\n 28174: jump @1002 if a1 >u 31\n      : @1001 (gas: 2)\n 28178: u32 [0x201bc] = 0x20\n 28184: fallthrough\n      : @1002 (gas: 49)\n 28185: a0 = sp + 0xffffffffffffffe0\n 28188: a2 = a0 & 0xffffffffffffffe0\n 28191: u64 [s1 + 0xb0] = a2\n 28195: sp = a2\n 28197: a0 = 0x201d0\n 28202: i32 a0 = a0 + 0\n 28204: i32 a2 = a2 + 0\n 28206: a1 = 0x20\n 28209: ecalli 6 // 'hash_keccak_256'\n 28211: u64 [s1 + 184] = 0\n 28215: t2 = 0\n 28217: t1 = 0\n 28219: t0 = 0\n 28221: a5 = u64 [s1 + 0xb0]\n 28225: a0 = u64 [a5 + 0x18]\n 28228: a1 = u64 [s1 + 0x30]\n 28231: a2 = a1 + 0x20\n 28234: u64 [s1 + 0x50] = a2\n 28237: a1 = a2 <u a1\n 28240: a2 = u64 [s1 + 0x28]\n 28243: a3 = a2 + a1\n 28246: u64 [s1 + 0x48] = a3\n 28249: a4 = a3 <u a2\n 28252: a4 = a1 if a1 == 0\n 28255: a1 = u64 [a5 + 0x10]\n 28258: a2 = u64 [a5 + 0x8]\n 28261: a3 = u64 [a5]\n 28263: a0 = reverse a0\n 28265: a1 = reverse a1\n 28267: ra = reverse a2\n 28269: a2 = reverse a3\n 28271: a5 = u64 [s1 + 0x58]\n 28274: a3 = a2\n 28276: u64 [a5 + 0x18] = a2\n 28279: a2 = ra\n 28281: u64 [s1 + 0x80] = a2\n 28285: u64 [a5 + 0x10] = a2\n 28288: u64 [s1 + 0x90] = a1\n 28292: u64 [a5 + 0x8] = a1\n 28295: a2 = a0\n 28297: u64 [a5] = a0\n 28299: a0 = u64 [s1 + 0x20]\n 28302: a4 = a4 + a0\n 28305: u64 [s1 + 0x40] = a4\n 28308: a0 = a4 <u a0\n 28311: a1 = u64 [s1 + 0x18]\n 28314: a0 = a0 + a1\n 28317: u64 [s1 + 0x38] = a0\n 28320: fallthrough\n      : @1003 (gas: 19)\n 28321: u64 [s1 + 0x88] = a3\n 28325: u64 [s1 + 0x98] = a2\n 28329: a0 = u64 [s1 + 0x60]\n 28332: a1 = u64 [s1 + 0xb8]\n 28336: a0 = a1 <u a0\n 28339: a2 = u64 [s1 + 0x70]\n 28342: a1 = t2 ^ a2\n 28345: a2 = t2 <u a2\n 28348: a2 = a0 if a1 == 0\n 28351: a4 = u64 [s1 + 0x68]\n 28354: a0 = t1 <u a4\n 28357: a3 = u64 [s1 + 0x78]\n 28360: a1 = t0 ^ a3\n 28363: a3 = t0 <u a3\n 28366: a3 = a0 if a1 == 0\n 28369: a0 = t1 ^ a4\n 28372: a0 = a0 | a1\n 28375: a3 = a2 if a0 == 0\n 28378: jump @997 if a3 == 0\n      : @1004 (gas: 6)\n 28382: a0 = s1 + 0x140\n 28386: a1 = a5\n 28388: u64 [s1 + 0xb0] = t0\n 28392: u64 [s1 + 0xa8] = t1\n 28396: u64 [s1 + 0xa0] = t2\n 28400: ra = 1058, jump @21\n      : @1005 [@dyn 529] (gas: 30)\n 28406: a1 = u64 [s1 + 0x50]\n 28409: a0 = u64 [s1 + 0xb8]\n 28413: a0 = a0 + a1\n 28416: a1 = a0 <u a1\n 28419: a4 = u64 [s1 + 0x48]\n 28422: a2 = u64 [s1 + 0xa0]\n 28426: a2 = a2 + a4\n 28429: a2 = a2 + a1\n 28432: a3 = a2 ^ a4\n 28435: a4 = a2 <u a4\n 28438: a4 = a1 if a3 == 0\n 28441: a3 = u64 [s1 + 0x40]\n 28444: a1 = u64 [s1 + 0xa8]\n 28448: a1 = a1 + a3\n 28451: t0 = a1 <u a3\n 28454: a5 = u64 [s1 + 0x38]\n 28457: a3 = u64 [s1 + 0xb0]\n 28461: a5 = a5 + a3\n 28464: a3 = a5 + t0\n 28467: a4 = a4 + a1\n 28470: a1 = a4 <u a1\n 28473: a1 = a1 + a3\n 28476: a1 = a1 | a2\n 28479: a2 = a0 | a4\n 28482: a2 = a2 | a1\n 28485: a1 = a1 | a4\n 28488: a2 = a2 >> 0x20\n 28491: a1 = a1 << 0x20\n 28494: a1 = a1 | a2\n 28497: jump @1008 if a1 != 0\n      : @1006 (gas: 11)\n 28501: a5 = s1 + 0x100\n 28505: a2 = u64 [a5 + 0x58]\n 28508: a1 = u64 [a5 + 0x50]\n 28511: a3 = u64 [a5 + 0x48]\n 28514: a4 = u64 [a5 + 0x40]\n 28517: u64 [a5 + 0x20] = a4\n 28520: u64 [a5 + 0x28] = a3\n 28523: u64 [a5 + 0x30] = a1\n 28526: a1 = s1 + 0x120\n 28530: u64 [a5 + 0x38] = a2\n 28533: ra = 1060, jump @19\n      : @1007 [@dyn 530] (gas: 38)\n 28539: a3 = u64 [s1 + 0x98]\n 28543: a3 = a3 + 0x1\n 28546: a0 = a3 <u 0x1\n 28549: t2 = u64 [s1 + 0x90]\n 28553: t2 = t2 + a0\n 28556: a0 = a3 | t2\n 28559: a0 = a0 <u 0x1\n 28562: a1 = u64 [s1 + 0x80]\n 28566: t1 = a1 + a0\n 28569: a1 = t1 <u a1\n 28572: a0 = u64 [s1 + 0x88]\n 28576: a0 = a0 + a1\n 28579: a1 = u64 [s1 + 0xb8]\n 28583: ra = a1 + 0x20\n 28586: a2 = ra <u a1\n 28589: a4 = u64 [s1 + 0xa0]\n 28593: a1 = a4 + a2\n 28596: a4 = a1 <u a4\n 28599: a4 = a2 if a2 == 0\n 28602: a2 = u64 [s1 + 0xa8]\n 28606: a4 = a4 + a2\n 28609: a2 = a4 <u a2\n 28612: t0 = u64 [s1 + 0xb0]\n 28616: t0 = t0 + a2\n 28619: a2 = t2\n 28621: u64 [s1 + 0x90] = a2\n 28625: a5 = u64 [s1 + 0x58]\n 28628: u64 [a5 + 0x8] = a2\n 28631: a2 = a3\n 28633: u64 [a5] = a3\n 28635: u64 [a5 + 0x10] = t1\n 28638: a3 = a0\n 28640: u64 [a5 + 0x18] = a0\n 28643: u64 [s1 + 0x80] = t1\n 28647: u64 [s1 + 0xb8] = ra\n 28651: t2 = a1\n 28653: t1 = a4\n 28655: jump @1003\n      : @1008 (gas: 1)\n 28658: trap\n      : @1009 (gas: 21)\n 28659: sp = sp + 0xffffffffffffff10\n 28663: u64 [sp + 0xe8] = ra\n 28667: u64 [sp + 0xe0] = s0\n 28671: u64 [sp + 0xd8] = s1\n 28675: s0 = sp + 0xf0\n 28679: sp = sp & 0xfffffffffffffff0\n 28682: a5 = u64 [a1 + 0x10]\n 28685: a4 = u64 [a1 + 0x18]\n 28688: a3 = u64 [a1 + 0x8]\n 28691: a1 = u64 [a1]\n 28693: u64 [sp + 0x28] = a3\n 28696: u64 [sp + 0x18] = a4\n 28699: a4 = a4 | a3\n 28702: a3 = a1 | a5\n 28705: a3 = a3 | a4\n 28708: a3 = a3 >> 0x20\n 28711: u64 [sp + 0x20] = a5\n 28714: a4 = a4 | a5\n 28717: a4 = a4 << 0x20\n 28720: a3 = a3 | a4\n 28723: jump @1022 if a3 != 0\n      : @1010 (gas: 11)\n 28727: u64 [sp + 0x8] = a0\n 28730: a0 = u64 [a2 + 0x18]\n 28733: u64 [sp + 0x68] = a0\n 28736: s1 = u64 [a2 + 0x10]\n 28739: a0 = u64 [a2 + 0x8]\n 28742: u64 [sp + 0x60] = a0\n 28745: a0 = u64 [a2]\n 28747: u64 [sp + 0x58] = a0\n 28750: a0 = sp + 0xb0\n 28754: u64 [sp + 0x10] = a1\n 28757: ra = 1062, jump @17\n      : @1011 [@dyn 531] (gas: 12)\n 28763: a0 = u64 [sp + 0x58]\n 28766: a2 = a0 | s1\n 28769: a1 = u64 [sp + 0x68]\n 28772: a3 = u64 [sp + 0x60]\n 28775: a1 = a1 | a3\n 28778: a2 = a2 | a1\n 28781: a2 = a2 >> 0x20\n 28784: u64 [sp + 0x50] = s1\n 28787: a1 = a1 | s1\n 28790: a1 = a1 << 0x20\n 28793: a1 = a1 | a2\n 28796: jump @1022 if a1 != 0\n      : @1012 (gas: 15)\n 28800: a2 = u64 [sp + 0xc8]\n 28804: a3 = u64 [sp + 0xc0]\n 28808: a4 = u64 [sp + 0xb8]\n 28812: a1 = u64 [sp + 0xb0]\n 28816: u64 [sp + 0x30] = a1\n 28819: u64 [sp + 0x90] = a1\n 28823: u64 [sp + 0x38] = a4\n 28826: u64 [sp + 0x98] = a4\n 28830: u64 [sp + 0x40] = a3\n 28833: u64 [sp + 0xa0] = a3\n 28837: a1 = sp + 0x90\n 28841: u64 [sp + 0x48] = a2\n 28844: u64 [sp + 0xa8] = a2\n 28848: s1 = a0\n 28850: ra = 1064, jump @19\n      : @1013 [@dyn 532] (gas: 9)\n 28856: a0 = u64 [sp + 0x68]\n 28859: a1 = u64 [sp + 0x50]\n 28862: a1 = a1 | a0\n 28865: a0 = 0xffffffe0\n 28875: a2 = s1 <u a0\n 28878: a3 = u64 [sp + 0x60]\n 28881: a2 = 0 if a3 != 0\n 28883: a2 = 0 if a1 != 0\n 28885: jump @1022 if a2 == 0\n      : @1014 (gas: 9)\n 28889: a1 = u64 [sp + 0x20]\n 28892: a2 = u64 [sp + 0x18]\n 28895: a1 = a1 | a2\n 28898: a2 = u64 [sp + 0x10]\n 28901: a0 = a2 <u a0\n 28904: a3 = u64 [sp + 0x28]\n 28907: a0 = 0 if a3 != 0\n 28909: a0 = 0 if a1 != 0\n 28911: jump @1022 if a0 == 0\n      : @1015 (gas: 13)\n 28915: a5 = s1\n 28917: s1 = u64 [sp + 0x30]\n 28920: a3 = u64 [sp + 0x40]\n 28923: a0 = s1 | a3\n 28926: a1 = u64 [sp + 0x48]\n 28929: a4 = u64 [sp + 0x38]\n 28932: a1 = a1 | a4\n 28935: a0 = a0 | a1\n 28938: a0 = a0 >> 0x20\n 28941: a1 = a1 | a3\n 28944: a1 = a1 << 0x20\n 28947: a0 = a0 | a1\n 28950: jump @1022 if a0 != 0\n      : @1016 (gas: 5)\n 28954: i32 a0 = a5 + 0x20\n 28957: i32 a1 = a2 + 0x20\n 28960: u64 [sp + 0x28] = a1\n 28963: a1 = s1\n 28965: ra = 1066, jump @30\n      : @1017 [@dyn 533] (gas: 4)\n 28971: u64 [sp + 0x20] = a0\n 28974: a0 = u64 [sp + 0x28]\n 28977: a1 = s1\n 28979: ra = 1068, jump @30\n      : @1018 [@dyn 534] (gas: 4)\n 28985: a1 = a0\n 28987: a0 = u64 [sp + 0x20]\n 28990: a2 = s1\n 28992: ra = 1070, jump @0\n      : @1019 [@dyn 535] (gas: 27)\n 28998: a0 = u64 [sp + 0x58]\n 29001: a0 = a0 + s1\n 29004: a1 = a0 <u s1\n 29007: a2 = u64 [sp + 0x60]\n 29010: a4 = u64 [sp + 0x38]\n 29013: a2 = a2 + a4\n 29016: a2 = a2 + a1\n 29019: a3 = a2 ^ a4\n 29022: a4 = a2 <u a4\n 29025: a4 = a1 if a3 == 0\n 29028: a1 = u64 [sp + 0x50]\n 29031: a3 = u64 [sp + 0x40]\n 29034: a1 = a1 + a3\n 29037: a3 = a1 <u a3\n 29040: a5 = u64 [sp + 0x68]\n 29043: s1 = u64 [sp + 0x48]\n 29046: a5 = a5 + s1\n 29049: a3 = a3 + a5\n 29052: a4 = a4 + a1\n 29055: a1 = a4 <u a1\n 29058: a1 = a1 + a3\n 29061: a1 = a1 | a4\n 29064: a3 = 0xffffffe0\n 29074: a3 = a0 <u a3\n 29077: a3 = 0 if a2 != 0\n 29079: a3 = 0 if a1 != 0\n 29081: jump @1022 if a3 == 0\n      : @1020 (gas: 7)\n 29085: i32 a0 = a0 + 0x20\n 29088: u64 [sp + 136] = 0\n 29092: u64 [sp + 128] = 0\n 29096: u64 [sp + 120] = 0\n 29099: a1 = sp + 0x70\n 29102: u64 [sp + 112] = 0\n 29105: ra = 1072, jump @19\n      : @1021 [@dyn 536] (gas: 35)\n 29111: s1 = u64 [sp + 0x30]\n 29114: s1 = s1 + 0x1f\n 29117: a0 = 0x1ffffffe0\n 29127: a0 = a0 & s1\n 29130: a1 = u64 [sp + 0x58]\n 29133: a0 = a0 + a1\n 29136: a1 = a0 <u a1\n 29139: a3 = u64 [sp + 0x60]\n 29142: a2 = a3 + a1\n 29145: a3 = a2 <u a3\n 29148: a3 = a1 if a1 == 0\n 29151: a1 = u64 [sp + 0x50]\n 29154: a3 = a3 + a1\n 29157: a1 = a3 <u a1\n 29160: a4 = u64 [sp + 0x68]\n 29163: a1 = a1 + a4\n 29166: a4 = a0 + 0x20\n 29169: a0 = a4 <u a0\n 29172: a5 = a2 + a0\n 29175: a2 = a5 <u a2\n 29178: a2 = a0 if a0 == 0\n 29181: a2 = a2 + a3\n 29184: a0 = a2 <u a3\n 29187: a0 = a0 + a1\n 29190: a1 = u64 [sp + 0x8]\n 29193: u64 [a1] = a4\n 29195: u64 [a1 + 0x8] = a5\n 29198: u64 [a1 + 0x10] = a2\n 29201: u64 [a1 + 0x18] = a0\n 29204: sp = s0 + 0xffffffffffffff10\n 29208: ra = u64 [sp + 0xe8]\n 29212: s0 = u64 [sp + 0xe0]\n 29216: s1 = u64 [sp + 0xd8]\n 29220: sp = sp + 0xf0\n 29224: ret\n      : @1022 (gas: 1)\n 29226: trap\n      : @1023 (gas: 19)\n 29227: sp = sp + 0xffffffffffffff40\n 29231: u64 [sp + 0xb8] = ra\n 29235: u64 [sp + 0xb0] = s0\n 29239: u64 [sp + 0xa8] = s1\n 29243: s0 = sp + 0xc0\n 29247: sp = sp & 0xffffffffffffffe0\n 29250: s1 = sp\n 29252: a2 = u64 [a1]\n 29254: a3 = u64 [a1 + 0x8]\n 29257: a4 = u64 [a1 + 0x10]\n 29260: a1 = u64 [a1 + 0x18]\n 29263: u64 [s1 + 0x18] = a0\n 29266: u64 [s1 + 0x78] = a1\n 29269: u64 [s1 + 0x70] = a4\n 29272: u64 [s1 + 0x68] = a3\n 29275: a1 = s1 + 0x60\n 29278: u64 [s1 + 0x60] = a2\n 29281: a0 = 0\n 29283: ra = 1074, jump @19\n      : @1024 [@dyn 537] (gas: 7)\n 29289: u64 [s1 + 88] = 0\n 29292: u64 [s1 + 80] = 0\n 29295: u64 [s1 + 72] = 0\n 29298: a0 = 0x20\n 29301: a1 = s1 + 0x40\n 29304: u64 [s1 + 64] = 0\n 29307: ra = 1076, jump @19\n      : @1025 [@dyn 538] (gas: 2)\n 29313: a1 = i32 [0x201bc]\n 29318: jump @1027 if a1 >u 63\n      : @1026 (gas: 2)\n 29322: u32 [0x201bc] = 0x40\n 29328: fallthrough\n      : @1027 (gas: 33)\n 29329: a0 = sp + 0xffffffffffffffe0\n 29332: a2 = a0 & 0xffffffffffffffe0\n 29335: u64 [s1 + 0x10] = a2\n 29338: sp = a2\n 29340: a0 = 0x201d0\n 29345: i32 a0 = a0 + 0\n 29347: i32 a2 = a2 + 0\n 29349: a1 = 0x40\n 29352: ecalli 6 // 'hash_keccak_256'\n 29354: a3 = u64 [s1 + 0x10]\n 29357: a0 = u64 [a3]\n 29359: a1 = u64 [a3 + 0x8]\n 29362: a2 = u64 [a3 + 0x10]\n 29365: a3 = u64 [a3 + 0x18]\n 29368: a0 = reverse a0\n 29370: a1 = reverse a1\n 29372: a2 = reverse a2\n 29374: a3 = reverse a3\n 29376: a3 = a3 + 0x1\n 29379: a4 = a3 <u 0x1\n 29382: a2 = a2 + a4\n 29385: a4 = a3 | a2\n 29388: a4 = a4 <u 0x1\n 29391: a4 = a4 + a1\n 29394: a1 = a4 <u a1\n 29397: a0 = a0 + a1\n 29400: u64 [s1 + 0x80] = a3\n 29404: u64 [s1 + 0x88] = a2\n 29408: u64 [s1 + 0x90] = a4\n 29412: u64 [s1 + 0x98] = a0\n 29416: a0 = s1 + 0x20\n 29419: a1 = s1 + 0x80\n 29423: ra = 1078, jump @21\n      : @1028 [@dyn 539] (gas: 15)\n 29429: a0 = u64 [s1 + 0x30]\n 29432: a1 = u64 [s1 + 0x38]\n 29435: a2 = u64 [s1 + 0x20]\n 29438: a3 = u64 [s1 + 0x28]\n 29441: a4 = u64 [s1 + 0x18]\n 29444: u64 [a4 + 0x10] = a0\n 29447: u64 [a4 + 0x18] = a1\n 29450: u64 [a4] = a2\n 29452: u64 [a4 + 0x8] = a3\n 29455: sp = s0 + 0xffffffffffffff40\n 29459: ra = u64 [sp + 0xb8]\n 29463: s0 = u64 [sp + 0xb0]\n 29467: s1 = u64 [sp + 0xa8]\n 29471: sp = sp + 0xc0\n 29475: ret\n      : @1029 (gas: 14)\n 29477: sp = sp + 0xffffffffffffff20\n 29481: u64 [sp + 0xd8] = ra\n 29485: u64 [sp + 0xd0] = s0\n 29489: u64 [sp + 0xc8] = s1\n 29493: s0 = sp + 0xe0\n 29497: sp = sp & 0xfffffffffffffff0\n 29500: a1 = u64 [a0 + 0x10]\n 29503: a2 = u64 [a0 + 0x18]\n 29506: a3 = u64 [a0 + 0x8]\n 29509: a0 = u64 [a0]\n 29511: a2 = a2 | a3\n 29514: a0 = a0 | a1\n 29517: a0 = a0 | a2\n 29520: jump @1031 if a0 == 0\n      : @1030 (gas: 6)\n 29523: sp = s0 + 0xffffffffffffff20\n 29527: ra = u64 [sp + 0xd8]\n 29531: s0 = u64 [sp + 0xd0]\n 29535: s1 = u64 [sp + 0xc8]\n 29539: sp = sp + 0xe0\n 29543: ret\n      : @1031 (gas: 3)\n 29545: a0 = sp + 0xa0\n 29549: a1 = 0x40\n 29552: ra = 1080, jump @17\n      : @1032 [@dyn 540] (gas: 15)\n 29558: a2 = u64 [sp + 0xb8]\n 29562: s1 = u64 [sp + 0xb0]\n 29566: a0 = u64 [sp + 0xa8]\n 29570: a1 = u64 [sp + 0xa0]\n 29574: u64 [sp + 0x10] = a0\n 29577: u64 [sp + 0x8] = a2\n 29580: a0 = a0 | a2\n 29583: u64 [sp + 0x18] = a1\n 29586: a1 = a1 | s1\n 29589: a1 = a1 | a0\n 29592: a1 = a1 >> 0x20\n 29595: a0 = a0 | s1\n 29598: a0 = a0 << 0x20\n 29601: a0 = a0 | a1\n 29604: jump @1039 if a0 != 0\n      : @1033 (gas: 8)\n 29608: u64 [sp + 144] = 0\n 29612: u64 [sp + 136] = 0\n 29616: u64 [sp + 128] = 0\n 29620: a0 = 0x8c379a000000000\n 29630: a1 = sp + 0x80\n 29634: u64 [sp + 0x98] = a0\n 29638: a0 = u64 [sp + 0x18]\n 29641: ra = 1082, jump @19\n      : @1034 [@dyn 541] (gas: 11)\n 29647: a2 = u64 [sp + 0x8]\n 29650: a2 = a2 | s1\n 29653: s1 = 0x100000000\n 29663: a0 = 0xfffffffc\n 29673: a1 = u64 [sp + 0x18]\n 29676: a0 = a1 <u a0\n 29679: a1 = u64 [sp + 0x10]\n 29682: a0 = 0 if a1 != 0\n 29684: u64 [sp + 0x8] = a2\n 29687: a0 = 0 if a2 != 0\n 29689: jump @1039 if a0 == 0\n      : @1035 (gas: 8)\n 29692: a0 = u64 [sp + 0x18]\n 29695: i32 a0 = a0 + 0x4\n 29698: u64 [sp + 120] = 0\n 29701: u64 [sp + 112] = 0\n 29704: u64 [sp + 96] = 0x20\n 29708: a1 = sp + 0x60\n 29711: u64 [sp + 104] = 0\n 29714: ra = 1084, jump @19\n      : @1036 [@dyn 542] (gas: 8)\n 29720: a0 = s1 + 0xffffffffffffffdc\n 29723: a1 = u64 [sp + 0x18]\n 29726: a0 = a1 <u a0\n 29729: a1 = u64 [sp + 0x10]\n 29732: a0 = 0 if a1 != 0\n 29734: a1 = u64 [sp + 0x8]\n 29737: a0 = 0 if a1 != 0\n 29739: jump @1039 if a0 == 0\n      : @1037 (gas: 8)\n 29742: s1 = u64 [sp + 0x18]\n 29745: i32 a0 = s1 + 0x24\n 29748: u64 [sp + 88] = 0\n 29751: u64 [sp + 80] = 0\n 29754: u64 [sp + 64] = 0x16\n 29758: a1 = sp + 0x40\n 29761: u64 [sp + 72] = 0\n 29764: ra = 1086, jump @19\n      : @1038 [@dyn 543] (gas: 7)\n 29770: a0 = 0xffffffbc\n 29780: a0 = s1 <u a0\n 29783: a1 = u64 [sp + 0x10]\n 29786: a0 = 0 if a1 != 0\n 29788: a1 = u64 [sp + 0x8]\n 29791: a0 = 0 if a1 != 0\n 29793: jump @1040 if a0 != 0\n      : @1039 (gas: 1)\n 29796: trap\n      : @1040 (gas: 11)\n 29797: s1 = u64 [sp + 0x18]\n 29800: i32 a0 = s1 + 0x44\n 29803: a1 = u64 [0x200e8]\n 29808: a2 = u64 [0x200f0]\n 29813: u64 [sp + 0x38] = a1\n 29816: u64 [sp + 0x30] = a2\n 29819: a1 = 0x2065786973740000\n 29829: u64 [sp + 0x28] = a1\n 29832: a1 = sp + 0x20\n 29835: u64 [sp + 32] = 0\n 29838: ra = 1088, jump @19\n      : @1041 [@dyn 544] (gas: 3)\n 29844: a1 = 0x64\n 29847: a0 = s1\n 29849: ra = 1090, jump @30\n      : @1042 [@dyn 545] (gas: 6)\n 29855: i32 a1 = a0 + 0\n 29857: a0 = 0x1\n 29860: a2 = 0x64\n 29863: ra = 0x444\n 29867: ecalli 8 // 'seal_return'\n 29869: fallthrough\n      : @1043 [@dyn 546] (gas: 14)\n 29870: sp = sp + 0xfffffffffffffe80\n 29874: u64 [sp + 0x178] = ra\n 29878: u64 [sp + 0x170] = s0\n 29882: u64 [sp + 0x168] = s1\n 29886: s0 = sp + 0x180\n 29890: sp = sp & 0xffffffffffffffe0\n 29893: s1 = sp\n 29895: u64 [s1 + 344] = 0\n 29899: u64 [s1 + 336] = 0\n 29903: u64 [s1 + 328] = 0\n 29907: a1 = s1 + 0x140\n 29911: u64 [s1 + 320] = 0\n 29915: a0 = 0\n 29917: ra = 1094, jump @19\n      : @1044 [@dyn 547] (gas: 7)\n 29923: u64 [s1 + 312] = 0\n 29927: u64 [s1 + 304] = 0\n 29931: u64 [s1 + 296] = 0\n 29935: a0 = 0x20\n 29938: a1 = s1 + 0x120\n 29942: u64 [s1 + 288] = 0\n 29946: ra = 1096, jump @19\n      : @1045 [@dyn 548] (gas: 3)\n 29952: a1 = 0x201bc\n 29957: a0 = i32 [0x201bc]\n 29962: jump @1047 if a0 >u 63\n      : @1046 (gas: 3)\n 29966: u32 [0x201bc] = 0x40\n 29972: t0 = 0x44a\n 29976: jump @1344\n      : @1047 (gas: 1)\n 29979: t0 = 1098, jump @1344\n      : @1048 [@dyn 549] (gas: 11)\n 29985: a0 = 0x201d0\n 29990: i32 a0 = a0 + 0\n 29992: i32 a2 = a2 + 0\n 29994: u64 [s1 + 0x58] = a1\n 29997: a1 = 0x40\n 30000: u64 [s1 + 0x50] = a0\n 30003: ra = 0x44c\n 30007: ecalli 6 // 'hash_keccak_256'\n 30009: a3 = u64 [s1 + 0x48]\n 30012: t0 = 0x44e\n 30016: jump @1329\n      : @1049 [@dyn 550] (gas: 2)\n 30019: a3 = u64 [s1 + 0x48]\n 30022: t0 = 1102, jump @1329\n      : @1050 [@dyn 551] (gas: 20)\n 30028: u64 [s1 + 0x38] = a0\n 30031: a0 = reverse a1\n 30033: u64 [s1 + 0x30] = a0\n 30036: a0 = reverse a2\n 30038: u64 [s1 + 0x28] = a0\n 30041: a0 = reverse a3\n 30043: u64 [s1 + 0x20] = a0\n 30046: a0 = sp + 0xffffffffffffffe0\n 30049: a0 = a0 & 0xffffffffffffffe0\n 30052: u64 [s1 + 0x40] = a0\n 30055: sp = a0\n 30057: a0 = 0x301d0\n 30062: u64 [s1 + 0x48] = a0\n 30065: i32 a0 = a0 + 0\n 30067: u64 [s1 + 0x18] = a0\n 30070: ra = 0x450\n 30074: ecalli 3 // 'caller'\n 30076: a2 = u64 [s1 + 0x48]\n 30079: t0 = 0x452\n 30083: jump @1273\n      : @1051 [@dyn 552] (gas: 2)\n 30086: a2 = u64 [s1 + 0x48]\n 30089: t0 = 1106, jump @1273\n      : @1052 [@dyn 553] (gas: 8)\n 30095: u64 [s1 + 280] = 0\n 30099: a2 = s1 + 0x100\n 30103: u64 [a2 + 0x10] = a1\n 30106: u64 [a2 + 0x8] = a0\n 30109: a1 = s1 + 0x100\n 30113: u64 [a2] = a3\n 30115: a0 = 0\n 30117: ra = 1108, jump @19\n      : @1053 [@dyn 554] (gas: 11)\n 30123: a0 = u64 [s1 + 0x20]\n 30126: u64 [s1 + 0xf8] = a0\n 30130: a0 = u64 [s1 + 0x28]\n 30133: u64 [s1 + 0xf0] = a0\n 30137: a0 = u64 [s1 + 0x30]\n 30140: u64 [s1 + 0xe8] = a0\n 30144: a0 = 0x20\n 30147: a1 = s1 + 0xe0\n 30151: a2 = u64 [s1 + 0x38]\n 30154: u64 [s1 + 0xe0] = a2\n 30158: ra = 1110, jump @19\n      : @1054 [@dyn 555] (gas: 3)\n 30164: a1 = u64 [s1 + 0x58]\n 30167: a0 = i32 [a1]\n 30169: jump @1056 if a0 >u 63\n      : @1055 (gas: 2)\n 30173: u32 [a1 + 0] = 0x40\n 30176: fallthrough\n      : @1056 (gas: 12)\n 30177: a0 = sp + 0xffffffffffffffe0\n 30180: a0 = a0 & 0xffffffffffffffe0\n 30183: u64 [s1 + 0x38] = a0\n 30186: sp = a0\n 30188: i32 a2 = a0 + 0\n 30190: a1 = 0x40\n 30193: a0 = u64 [s1 + 0x50]\n 30196: ra = 0x458\n 30200: ecalli 6 // 'hash_keccak_256'\n 30202: a3 = u64 [s1 + 0x38]\n 30205: t0 = 0x45a\n 30209: jump @1280\n      : @1057 [@dyn 556] (gas: 2)\n 30212: a3 = u64 [s1 + 0x38]\n 30215: t0 = 1114, jump @1280\n      : @1058 [@dyn 557] (gas: 7)\n 30221: a1 = u64 [s1 + 0x40]\n 30224: u64 [a1 + 0x18] = a3\n 30227: u64 [a1 + 0x10] = a2\n 30230: u64 [a1 + 0x8] = a4\n 30233: u64 [a1] = a0\n 30235: a0 = s1 + 0xc0\n 30239: ra = 1116, jump @21\n      : @1059 [@dyn 558] (gas: 2)\n 30245: a0 = u8 [s1 + 0xc0]\n 30249: jump @1061 if a0 == 0\n      : @1060 (gas: 6)\n 30252: sp = s0 + 0xfffffffffffffe80\n 30256: ra = u64 [sp + 0x178]\n 30260: s0 = u64 [sp + 0x170]\n 30264: s1 = u64 [sp + 0x168]\n 30268: sp = sp + 0x180\n 30272: ret\n      : @1061 (gas: 8)\n 30274: u64 [s1 + 176] = 0\n 30278: u64 [s1 + 168] = 0\n 30282: u64 [s1 + 160] = 0\n 30286: a0 = 0xe2517d3f00000000\n 30296: a1 = s1 + 0xa0\n 30300: u64 [s1 + 0xb8] = a0\n 30304: a0 = 0\n 30306: ra = 1118, jump @19\n      : @1062 [@dyn 559] (gas: 6)\n 30312: a0 = u64 [s1 + 0x18]\n 30315: ra = 0x460\n 30319: ecalli 3 // 'caller'\n 30321: a2 = u64 [s1 + 0x48]\n 30324: t0 = 0x462\n 30328: jump @1273\n      : @1063 [@dyn 560] (gas: 2)\n 30331: a2 = u64 [s1 + 0x48]\n 30334: t0 = 1122, jump @1273\n      : @1064 [@dyn 561] (gas: 7)\n 30340: u64 [s1 + 152] = 0\n 30344: u64 [s1 + 0x90] = a1\n 30348: u64 [s1 + 0x88] = a0\n 30352: a0 = 0x4\n 30355: a1 = s1 + 0x80\n 30359: u64 [s1 + 0x80] = a3\n 30363: ra = 1124, jump @19\n      : @1065 [@dyn 562] (gas: 7)\n 30369: u64 [s1 + 120] = 0\n 30372: u64 [s1 + 112] = 0\n 30375: u64 [s1 + 104] = 0\n 30378: a0 = 0x24\n 30381: a1 = s1 + 0x60\n 30384: u64 [s1 + 96] = 0\n 30387: ra = 1126, jump @19\n      : @1066 [@dyn 563] (gas: 3)\n 30393: a0 = u64 [s1 + 0x58]\n 30396: a0 = i32 [a0]\n 30398: jump @1068 if a0 >u 95\n      : @1067 (gas: 3)\n 30402: a1 = u64 [s1 + 0x58]\n 30405: u32 [a1 + 0] = 0x60\n 30408: fallthrough\n      : @1068 (gas: 6)\n 30409: a0 = 0x1\n 30412: a2 = 0x44\n 30415: a1 = u64 [s1 + 0x50]\n 30418: ra = 0x468\n 30422: ecalli 8 // 'seal_return'\n 30424: fallthrough\n      : @1069 [@dyn 564] (gas: 23)\n 30425: sp = sp + 0xfffffffffffffe60\n 30429: u64 [sp + 0x198] = ra\n 30433: u64 [sp + 0x190] = s0\n 30437: u64 [sp + 0x188] = s1\n 30441: s0 = sp + 0x1a0\n 30445: sp = sp & 0xffffffffffffffe0\n 30448: s1 = sp\n 30450: a2 = u64 [a0]\n 30452: a1 = u64 [a0 + 0x8]\n 30455: a3 = u64 [a0 + 0x10]\n 30458: a0 = u64 [a0 + 0x18]\n 30461: u64 [s1 + 0x20] = a0\n 30464: a4 = s1 + 0x100\n 30468: u64 [a4 + 0x78] = a0\n 30471: u64 [s1 + 0x28] = a3\n 30474: u64 [a4 + 0x70] = a3\n 30477: u64 [s1 + 0x30] = a1\n 30480: u64 [a4 + 0x68] = a1\n 30483: a1 = s1 + 0x160\n 30487: u64 [s1 + 0x38] = a2\n 30490: u64 [a4 + 0x60] = a2\n 30493: a0 = 0\n 30495: ra = 1130, jump @19\n      : @1070 [@dyn 565] (gas: 1)\n 30501: t0 = 1132, jump @1334\n      : @1071 [@dyn 566] (gas: 1)\n 30507: ra = 1134, jump @19\n      : @1072 [@dyn 567] (gas: 3)\n 30513: a1 = 0x201bc\n 30518: a0 = i32 [0x201bc]\n 30523: jump @1074 if a0 >u 63\n      : @1073 (gas: 2)\n 30527: u32 [0x201bc] = 0x40\n 30533: fallthrough\n      : @1074 (gas: 15)\n 30534: a0 = sp + 0xffffffffffffffe0\n 30537: a2 = a0 & 0xffffffffffffffe0\n 30540: u64 [s1 + 0x68] = a2\n 30543: sp = a2\n 30545: a0 = 0x201d0\n 30550: i32 a0 = a0 + 0\n 30552: i32 a2 = a2 + 0\n 30554: u64 [s1 + 0x78] = a1\n 30557: a1 = 0x40\n 30560: u64 [s1 + 0x70] = a0\n 30563: ra = 0x470\n 30567: ecalli 6 // 'hash_keccak_256'\n 30569: a3 = u64 [s1 + 0x68]\n 30572: t0 = 0x472\n 30576: jump @1329\n      : @1075 [@dyn 568] (gas: 2)\n 30579: a3 = u64 [s1 + 0x68]\n 30582: t0 = 1138, jump @1329\n      : @1076 [@dyn 569] (gas: 20)\n 30588: u64 [s1 + 0x58] = a0\n 30591: a0 = reverse a1\n 30593: u64 [s1 + 0x50] = a0\n 30596: a0 = reverse a2\n 30598: u64 [s1 + 0x48] = a0\n 30601: a0 = reverse a3\n 30603: u64 [s1 + 0x40] = a0\n 30606: a0 = sp + 0xffffffffffffffe0\n 30609: a0 = a0 & 0xffffffffffffffe0\n 30612: u64 [s1 + 0x60] = a0\n 30615: sp = a0\n 30617: a0 = 0x301d0\n 30622: u64 [s1 + 0x68] = a0\n 30625: i32 a0 = a0 + 0\n 30627: u64 [s1 + 0x18] = a0\n 30630: ra = 0x474\n 30634: ecalli 3 // 'caller'\n 30636: a2 = u64 [s1 + 0x68]\n 30639: t0 = 0x476\n 30643: jump @1273\n      : @1077 [@dyn 570] (gas: 2)\n 30646: a2 = u64 [s1 + 0x68]\n 30649: t0 = 1142, jump @1273\n      : @1078 [@dyn 571] (gas: 7)\n 30655: u64 [s1 + 312] = 0\n 30659: u64 [s1 + 0x130] = a1\n 30663: u64 [s1 + 0x128] = a0\n 30667: a1 = s1 + 0x120\n 30671: u64 [s1 + 0x120] = a3\n 30675: a0 = 0\n 30677: ra = 1144, jump @19\n      : @1079 [@dyn 572] (gas: 12)\n 30683: a0 = u64 [s1 + 0x40]\n 30686: a3 = s1 + 0x100\n 30690: u64 [a3 + 0x18] = a0\n 30693: a0 = u64 [s1 + 0x48]\n 30696: u64 [a3 + 0x10] = a0\n 30699: a0 = u64 [s1 + 0x50]\n 30702: u64 [a3 + 0x8] = a0\n 30705: a0 = 0x20\n 30708: a1 = s1 + 0x100\n 30712: a2 = u64 [s1 + 0x58]\n 30715: u64 [a3] = a2\n 30717: ra = 1146, jump @19\n      : @1080 [@dyn 573] (gas: 3)\n 30723: a1 = u64 [s1 + 0x78]\n 30726: a0 = i32 [a1]\n 30728: jump @1082 if a0 >u 63\n      : @1081 (gas: 2)\n 30732: u32 [a1 + 0] = 0x40\n 30735: fallthrough\n      : @1082 (gas: 12)\n 30736: a0 = sp + 0xffffffffffffffe0\n 30739: a0 = a0 & 0xffffffffffffffe0\n 30742: u64 [s1 + 0x58] = a0\n 30745: sp = a0\n 30747: i32 a2 = a0 + 0\n 30749: a1 = 0x40\n 30752: a0 = u64 [s1 + 0x70]\n 30755: ra = 0x47c\n 30759: ecalli 6 // 'hash_keccak_256'\n 30761: a3 = u64 [s1 + 0x58]\n 30764: t0 = 0x47e\n 30768: jump @1280\n      : @1083 [@dyn 574] (gas: 2)\n 30771: a3 = u64 [s1 + 0x58]\n 30774: t0 = 1150, jump @1280\n      : @1084 [@dyn 575] (gas: 7)\n 30780: a1 = u64 [s1 + 0x60]\n 30783: u64 [a1 + 0x18] = a3\n 30786: u64 [a1 + 0x10] = a2\n 30789: u64 [a1 + 0x8] = a4\n 30792: u64 [a1] = a0\n 30794: a0 = s1 + 0xe0\n 30798: ra = 1152, jump @21\n      : @1085 [@dyn 576] (gas: 2)\n 30804: a0 = u8 [s1 + 0xe0]\n 30808: jump @1087 if a0 == 0\n      : @1086 (gas: 6)\n 30811: sp = s0 + 0xfffffffffffffe60\n 30815: ra = u64 [sp + 0x198]\n 30819: s0 = u64 [sp + 0x190]\n 30823: s1 = u64 [sp + 0x188]\n 30827: sp = sp + 0x1a0\n 30831: ret\n      : @1087 (gas: 8)\n 30833: u64 [s1 + 208] = 0\n 30837: u64 [s1 + 200] = 0\n 30841: u64 [s1 + 192] = 0\n 30845: a0 = 0xe2517d3f00000000\n 30855: a1 = s1 + 0xc0\n 30859: u64 [s1 + 0xd8] = a0\n 30863: a0 = 0\n 30865: ra = 1154, jump @19\n      : @1088 [@dyn 577] (gas: 6)\n 30871: a0 = u64 [s1 + 0x18]\n 30874: ra = 0x484\n 30878: ecalli 3 // 'caller'\n 30880: a2 = u64 [s1 + 0x68]\n 30883: t0 = 0x486\n 30887: jump @1273\n      : @1089 [@dyn 578] (gas: 2)\n 30890: a2 = u64 [s1 + 0x68]\n 30893: t0 = 1158, jump @1273\n      : @1090 [@dyn 579] (gas: 7)\n 30899: u64 [s1 + 184] = 0\n 30903: u64 [s1 + 0xb0] = a1\n 30907: u64 [s1 + 0xa8] = a0\n 30911: a0 = 0x4\n 30914: a1 = s1 + 0xa0\n 30918: u64 [s1 + 0xa0] = a3\n 30922: ra = 1160, jump @19\n      : @1091 [@dyn 580] (gas: 11)\n 30928: a0 = u64 [s1 + 0x20]\n 30931: u64 [s1 + 0x98] = a0\n 30935: a0 = u64 [s1 + 0x28]\n 30938: u64 [s1 + 0x90] = a0\n 30942: a0 = u64 [s1 + 0x30]\n 30945: u64 [s1 + 0x88] = a0\n 30949: a0 = 0x24\n 30952: a1 = s1 + 0x80\n 30956: a2 = u64 [s1 + 0x38]\n 30959: u64 [s1 + 0x80] = a2\n 30963: ra = 1162, jump @19\n      : @1092 [@dyn 581] (gas: 3)\n 30969: a0 = u64 [s1 + 0x78]\n 30972: a0 = i32 [a0]\n 30974: jump @1094 if a0 >u 95\n      : @1093 (gas: 3)\n 30978: a1 = u64 [s1 + 0x78]\n 30981: u32 [a1 + 0] = 0x60\n 30984: fallthrough\n      : @1094 (gas: 7)\n 30985: a0 = 0x1\n 30988: a2 = 0x44\n 30991: a1 = u64 [s1 + 0x70]\n 30994: ra = 0x48c\n 30998: ecalli 8 // 'seal_return'\n 31000: t0 = 0x48e\n 31004: jump @1309\n      : @1095 [@dyn 582] (gas: 1)\n 31007: t0 = 1166, jump @1309\n      : @1096 [@dyn 583] (gas: 16)\n 31013: a0 = u64 [0x200f8]\n 31018: u64 [s1 + 0x20] = a0\n 31021: a3 = s1 + 0x200\n 31025: u64 [a3 + 0x38] = a0\n 31028: a1 = u64 [0x20100]\n 31033: a2 = u64 [0x20108]\n 31038: a0 = u64 [0x20110]\n 31043: u64 [s1 + 0x18] = a1\n 31046: u64 [a3 + 0x30] = a1\n 31049: u64 [s1 + 0x10] = a2\n 31052: u64 [a3 + 0x28] = a2\n 31055: a1 = s1 + 0x220\n 31059: u64 [s1 + 0x8] = a0\n 31062: u64 [a3 + 0x20] = a0\n 31065: a0 = 0\n 31067: ra = 1168, jump @19\n      : @1097 [@dyn 584] (gas: 1)\n 31073: t0 = 1170, jump @1293\n      : @1098 [@dyn 585] (gas: 1)\n 31079: ra = 1172, jump @19\n      : @1099 [@dyn 586] (gas: 3)\n 31085: a1 = 0x201bc\n 31090: a0 = i32 [0x201bc]\n 31095: jump @1101 if a0 >u 63\n      : @1100 (gas: 3)\n 31099: u32 [0x201bc] = 0x40\n 31105: t0 = 0x496\n 31109: jump @1344\n      : @1101 (gas: 1)\n 31112: t0 = 1174, jump @1344\n      : @1102 [@dyn 587] (gas: 2)\n 31118: a0 = 0x201d0\n 31123: t0 = 1176, jump @1350\n      : @1103 [@dyn 588] (gas: 4)\n 31129: ra = 0x49a\n 31133: ecalli 6 // 'hash_keccak_256'\n 31135: t0 = 0x49c\n 31139: jump @1274\n      : @1104 [@dyn 589] (gas: 1)\n 31142: t0 = 1180, jump @1274\n      : @1105 [@dyn 590] (gas: 1)\n 31148: ra = 1182, jump @19\n      : @1106 [@dyn 591] (gas: 1)\n 31154: t0 = 1184, jump @1298\n      : @1107 [@dyn 592] (gas: 1)\n 31160: ra = 1186, jump @19\n      : @1108 [@dyn 593] (gas: 3)\n 31166: a1 = u64 [s1 + 0x68]\n 31169: a0 = i32 [a1]\n 31171: jump @1110 if a0 >u 63\n      : @1109 (gas: 3)\n 31175: u32 [a1 + 0] = 0x40\n 31178: t0 = 0x4a4\n 31182: jump @1283\n      : @1110 (gas: 1)\n 31185: t0 = 1188, jump @1283\n      : @1111 [@dyn 594] (gas: 4)\n 31191: ra = 0x4a6\n 31195: ecalli 6 // 'hash_keccak_256'\n 31197: t0 = 0x4a8\n 31201: jump @1282\n      : @1112 [@dyn 595] (gas: 1)\n 31204: t0 = 1192, jump @1282\n      : @1113 [@dyn 596] (gas: 1)\n 31210: ra = 1194, jump @21\n      : @1114 [@dyn 597] (gas: 2)\n 31216: a0 = u8 [s1 + 0x1a0]\n 31220: jump @1116 if a0 == 0\n      : @1115 (gas: 5)\n 31223: a1 = 0\n 31225: a0 = 0\n 31227: a2 = u64 [s1 + 0x58]\n 31230: t0 = 0x4d2\n 31234: jump @1286\n      : @1116 (gas: 1)\n 31237: t0 = 1196, jump @1323\n      : @1117 [@dyn 598] (gas: 1)\n 31243: ra = 1198, jump @19\n      : @1118 [@dyn 599] (gas: 1)\n 31249: t0 = 1200, jump @1292\n      : @1119 [@dyn 600] (gas: 1)\n 31255: ra = 1202, jump @19\n      : @1120 [@dyn 601] (gas: 3)\n 31261: a1 = u64 [s1 + 0x68]\n 31264: a0 = i32 [a1]\n 31266: jump @1122 if a0 >u 63\n      : @1121 (gas: 3)\n 31270: u32 [a1 + 0] = 0x40\n 31273: t0 = 0x4b4\n 31277: jump @1283\n      : @1122 (gas: 1)\n 31280: t0 = 1204, jump @1283\n      : @1123 [@dyn 602] (gas: 4)\n 31286: ra = 0x4b6\n 31290: ecalli 6 // 'hash_keccak_256'\n 31292: t0 = 0x4b8\n 31296: jump @1276\n      : @1124 [@dyn 603] (gas: 1)\n 31299: t0 = 1208, jump @1276\n      : @1125 [@dyn 604] (gas: 1)\n 31305: ra = 1210, jump @19\n      : @1126 [@dyn 605] (gas: 1)\n 31311: t0 = 1212, jump @1297\n      : @1127 [@dyn 606] (gas: 1)\n 31317: ra = 1214, jump @19\n      : @1128 [@dyn 607] (gas: 3)\n 31323: a1 = u64 [s1 + 0x68]\n 31326: a0 = i32 [a1]\n 31328: jump @1130 if a0 >u 63\n      : @1129 (gas: 2)\n 31332: u32 [a1 + 0] = 0x40\n 31335: fallthrough\n      : @1130 (gas: 4)\n 31336: a0 = sp + 0xffffffffffffffe0\n 31339: a0 = a0 & 0xffffffffffffffe0\n 31342: u64 [s1 + 0x68] = a0\n 31345: t0 = 1216, jump @1294\n      : @1131 [@dyn 608] (gas: 4)\n 31351: ra = 0x4c2\n 31355: ecalli 6 // 'hash_keccak_256'\n 31357: t0 = 0x4c4\n 31361: jump @1281\n      : @1132 [@dyn 609] (gas: 1)\n 31364: t0 = 1220, jump @1281\n      : @1133 [@dyn 610] (gas: 1)\n 31370: ra = 1222, jump @21\n      : @1134 [@dyn 611] (gas: 1)\n 31376: t0 = 1224, jump @1285\n      : @1135 [@dyn 612] (gas: 1)\n 31382: ra = 1226, jump @23\n      : @1136 [@dyn 613] (gas: 8)\n 31388: a0 = 0x301d0\n 31393: u64 [s1 + 0x68] = a0\n 31396: i32 a0 = a0 + 0\n 31398: ra = 0x4cc\n 31402: ecalli 3 // 'caller'\n 31404: a2 = u64 [s1 + 0x68]\n 31407: t0 = 0x4ce\n 31411: jump @1291\n      : @1137 [@dyn 614] (gas: 2)\n 31414: a2 = u64 [s1 + 0x68]\n 31417: t0 = 1230, jump @1291\n      : @1138 [@dyn 615] (gas: 40)\n 31423: t0 = a1 | a0\n 31426: a3 = a3 >> 0x20\n 31429: a2 = reverse a2\n 31431: a1 = a2 << 0x20\n 31434: a1 = a1 | a3\n 31437: a2 = a2 >> 0x20\n 31440: u64 [s1 + 152] = 0\n 31444: u64 [s1 + 184] = 0\n 31448: a0 = u64 [s1]\n 31450: u64 [s1 + 0xb0] = a0\n 31454: a0 = u64 [s1 + 0x70]\n 31457: u64 [s1 + 0xa8] = a0\n 31461: a0 = u64 [s1 + 0x78]\n 31464: u64 [s1 + 0xa0] = a0\n 31468: a0 = u64 [s1 + 0x20]\n 31471: u64 [s1 + 0xd8] = a0\n 31475: a0 = u64 [s1 + 0x18]\n 31478: u64 [s1 + 0xd0] = a0\n 31482: a0 = u64 [s1 + 0x10]\n 31485: u64 [s1 + 0xc8] = a0\n 31489: a0 = u64 [s1 + 0x8]\n 31492: u64 [s1 + 0xc0] = a0\n 31496: a3 = u64 [0x20118]\n 31501: a4 = u64 [0x20120]\n 31506: a5 = u64 [0x20128]\n 31511: a0 = u64 [0x20130]\n 31516: u64 [s1 + 0xf8] = a3\n 31520: u64 [s1 + 0xf0] = a4\n 31524: u64 [s1 + 0xe8] = a5\n 31528: u64 [s1 + 0xe0] = a0\n 31532: u64 [s1 + 0x90] = a2\n 31536: u64 [s1 + 0x88] = a1\n 31540: a2 = s1 + 0xe0\n 31544: a3 = s1 + 0xc0\n 31548: a4 = s1 + 0xa0\n 31552: a5 = s1 + 0x80\n 31556: u64 [s1 + 0x80] = t0\n 31560: a0 = 0\n 31562: a1 = 0\n 31564: ra = 1232, jump @27\n      : @1139 [@dyn 616] (gas: 4)\n 31570: a0 = 0\n 31572: a1 = 0x1\n 31575: a2 = u64 [s1 + 0x58]\n 31578: t0 = 1234, jump @1286\n      : @1140 [@dyn 617] (gas: 1)\n 31584: ret\n      : @1141 [@dyn 618] (gas: 16)\n 31586: a0 = u64 [0x20138]\n 31591: u64 [s1 + 0x20] = a0\n 31594: a3 = s1 + 0x200\n 31598: u64 [a3 + 0x38] = a0\n 31601: a1 = u64 [0x20140]\n 31606: a2 = u64 [0x20148]\n 31611: a0 = u64 [0x20150]\n 31616: u64 [s1 + 0x18] = a1\n 31619: u64 [a3 + 0x30] = a1\n 31622: u64 [s1 + 0x10] = a2\n 31625: u64 [a3 + 0x28] = a2\n 31628: a1 = s1 + 0x220\n 31632: u64 [s1 + 0x8] = a0\n 31635: u64 [a3 + 0x20] = a0\n 31638: a0 = 0\n 31640: ra = 1238, jump @19\n      : @1142 [@dyn 619] (gas: 1)\n 31646: t0 = 1240, jump @1293\n      : @1143 [@dyn 620] (gas: 1)\n 31652: ra = 1242, jump @19\n      : @1144 [@dyn 621] (gas: 3)\n 31658: a1 = 0x201bc\n 31663: a0 = i32 [0x201bc]\n 31668: jump @1146 if a0 >u 63\n      : @1145 (gas: 3)\n 31672: u32 [0x201bc] = 0x40\n 31678: t0 = 0x4dc\n 31682: jump @1344\n      : @1146 (gas: 1)\n 31685: t0 = 1244, jump @1344\n      : @1147 [@dyn 622] (gas: 2)\n 31691: a0 = 0x201d0\n 31696: t0 = 1246, jump @1350\n      : @1148 [@dyn 623] (gas: 4)\n 31702: ra = 0x4e0\n 31706: ecalli 6 // 'hash_keccak_256'\n 31708: t0 = 0x4e2\n 31712: jump @1274\n      : @1149 [@dyn 624] (gas: 1)\n 31715: t0 = 1250, jump @1274\n      : @1150 [@dyn 625] (gas: 1)\n 31721: ra = 1252, jump @19\n      : @1151 [@dyn 626] (gas: 1)\n 31727: t0 = 1254, jump @1298\n      : @1152 [@dyn 627] (gas: 1)\n 31733: ra = 1256, jump @19\n      : @1153 [@dyn 628] (gas: 3)\n 31739: a1 = u64 [s1 + 0x68]\n 31742: a0 = i32 [a1]\n 31744: jump @1155 if a0 >u 63\n      : @1154 (gas: 3)\n 31748: u32 [a1 + 0] = 0x40\n 31751: t0 = 0x4ea\n 31755: jump @1283\n      : @1155 (gas: 1)\n 31758: t0 = 1258, jump @1283\n      : @1156 [@dyn 629] (gas: 4)\n 31764: ra = 0x4ec\n 31768: ecalli 6 // 'hash_keccak_256'\n 31770: t0 = 0x4ee\n 31774: jump @1282\n      : @1157 [@dyn 630] (gas: 1)\n 31777: t0 = 1262, jump @1282\n      : @1158 [@dyn 631] (gas: 1)\n 31783: ra = 1264, jump @21\n      : @1159 [@dyn 632] (gas: 2)\n 31789: a0 = u8 [s1 + 0x1a0]\n 31793: jump @1161 if a0 == 0\n      : @1160 (gas: 5)\n 31796: a1 = 0\n 31798: a0 = 0\n 31800: a2 = u64 [s1 + 0x58]\n 31803: t0 = 0x518\n 31807: jump @1286\n      : @1161 (gas: 1)\n 31810: t0 = 1266, jump @1323\n      : @1162 [@dyn 633] (gas: 1)\n 31816: ra = 1268, jump @19\n      : @1163 [@dyn 634] (gas: 1)\n 31822: t0 = 1270, jump @1292\n      : @1164 [@dyn 635] (gas: 1)\n 31828: ra = 1272, jump @19\n      : @1165 [@dyn 636] (gas: 3)\n 31834: a1 = u64 [s1 + 0x68]\n 31837: a0 = i32 [a1]\n 31839: jump @1167 if a0 >u 63\n      : @1166 (gas: 3)\n 31843: u32 [a1 + 0] = 0x40\n 31846: t0 = 0x4fa\n 31850: jump @1283\n      : @1167 (gas: 1)\n 31853: t0 = 1274, jump @1283\n      : @1168 [@dyn 637] (gas: 4)\n 31859: ra = 0x4fc\n 31863: ecalli 6 // 'hash_keccak_256'\n 31865: t0 = 0x4fe\n 31869: jump @1276\n      : @1169 [@dyn 638] (gas: 1)\n 31872: t0 = 1278, jump @1276\n      : @1170 [@dyn 639] (gas: 1)\n 31878: ra = 1280, jump @19\n      : @1171 [@dyn 640] (gas: 1)\n 31884: t0 = 1282, jump @1297\n      : @1172 [@dyn 641] (gas: 1)\n 31890: ra = 1284, jump @19\n      : @1173 [@dyn 642] (gas: 3)\n 31896: a1 = u64 [s1 + 0x68]\n 31899: a0 = i32 [a1]\n 31901: jump @1175 if a0 >u 63\n      : @1174 (gas: 2)\n 31905: u32 [a1 + 0] = 0x40\n 31908: fallthrough\n      : @1175 (gas: 4)\n 31909: a0 = sp + 0xffffffffffffffe0\n 31912: a0 = a0 & 0xffffffffffffffe0\n 31915: u64 [s1 + 0x68] = a0\n 31918: t0 = 1286, jump @1294\n      : @1176 [@dyn 643] (gas: 4)\n 31924: ra = 0x508\n 31928: ecalli 6 // 'hash_keccak_256'\n 31930: t0 = 0x50a\n 31934: jump @1281\n      : @1177 [@dyn 644] (gas: 1)\n 31937: t0 = 1290, jump @1281\n      : @1178 [@dyn 645] (gas: 1)\n 31943: ra = 1292, jump @21\n      : @1179 [@dyn 646] (gas: 1)\n 31949: t0 = 1294, jump @1285\n      : @1180 [@dyn 647] (gas: 1)\n 31955: ra = 1296, jump @23\n      : @1181 [@dyn 648] (gas: 8)\n 31961: a0 = 0x301d0\n 31966: u64 [s1 + 0x68] = a0\n 31969: i32 a0 = a0 + 0\n 31971: ra = 0x512\n 31975: ecalli 3 // 'caller'\n 31977: a2 = u64 [s1 + 0x68]\n 31980: t0 = 0x514\n 31984: jump @1291\n      : @1182 [@dyn 649] (gas: 2)\n 31987: a2 = u64 [s1 + 0x68]\n 31990: t0 = 1300, jump @1291\n      : @1183 [@dyn 650] (gas: 40)\n 31996: t0 = a1 | a0\n 31999: a3 = a3 >> 0x20\n 32002: a2 = reverse a2\n 32004: a1 = a2 << 0x20\n 32007: a1 = a1 | a3\n 32010: a2 = a2 >> 0x20\n 32013: u64 [s1 + 152] = 0\n 32017: u64 [s1 + 184] = 0\n 32021: a0 = u64 [s1]\n 32023: u64 [s1 + 0xb0] = a0\n 32027: a0 = u64 [s1 + 0x70]\n 32030: u64 [s1 + 0xa8] = a0\n 32034: a0 = u64 [s1 + 0x78]\n 32037: u64 [s1 + 0xa0] = a0\n 32041: a0 = u64 [s1 + 0x20]\n 32044: u64 [s1 + 0xd8] = a0\n 32048: a0 = u64 [s1 + 0x18]\n 32051: u64 [s1 + 0xd0] = a0\n 32055: a0 = u64 [s1 + 0x10]\n 32058: u64 [s1 + 0xc8] = a0\n 32062: a0 = u64 [s1 + 0x8]\n 32065: u64 [s1 + 0xc0] = a0\n 32069: a3 = u64 [0x20158]\n 32074: a4 = u64 [0x20160]\n 32079: a5 = u64 [0x20168]\n 32084: a0 = u64 [0x20170]\n 32089: u64 [s1 + 0xf8] = a3\n 32093: u64 [s1 + 0xf0] = a4\n 32097: u64 [s1 + 0xe8] = a5\n 32101: u64 [s1 + 0xe0] = a0\n 32105: u64 [s1 + 0x90] = a2\n 32109: u64 [s1 + 0x88] = a1\n 32113: a2 = s1 + 0xe0\n 32117: a3 = s1 + 0xc0\n 32121: a4 = s1 + 0xa0\n 32125: a5 = s1 + 0x80\n 32129: u64 [s1 + 0x80] = t0\n 32133: a0 = 0\n 32135: a1 = 0\n 32137: ra = 1302, jump @27\n      : @1184 [@dyn 651] (gas: 4)\n 32143: a0 = 0\n 32145: a1 = 0x1\n 32148: a2 = u64 [s1 + 0x58]\n 32151: t0 = 1304, jump @1286\n      : @1185 [@dyn 652] (gas: 1)\n 32157: ret\n      : @1186 [@dyn 653] (gas: 22)\n 32159: u64 [s1 + 0x50] = a3\n 32162: a3 = u64 [a2 + 0x8]\n 32165: u64 [s1 + 0x70] = a3\n 32168: a2 = u64 [a2]\n 32170: u64 [s1 + 0x78] = a2\n 32173: a2 = u64 [a1]\n 32175: a3 = u64 [a1 + 0x8]\n 32178: a4 = u64 [a1 + 0x10]\n 32181: a1 = u64 [a1 + 0x18]\n 32184: u64 [s1 + 0x58] = a0\n 32187: u64 [s1 + 0x8] = a1\n 32190: a0 = s1 + 0x200\n 32194: u64 [a0 + 0x38] = a1\n 32197: u64 [s1 + 0x10] = a4\n 32200: u64 [a0 + 0x30] = a4\n 32203: u64 [s1 + 0x18] = a3\n 32206: u64 [a0 + 0x28] = a3\n 32209: a1 = s1 + 0x220\n 32213: u64 [s1 + 0x20] = a2\n 32216: u64 [a0 + 0x20] = a2\n 32219: a0 = 0\n 32221: ra = 1308, jump @19\n      : @1187 [@dyn 654] (gas: 1)\n 32227: t0 = 1310, jump @1293\n      : @1188 [@dyn 655] (gas: 1)\n 32233: ra = 1312, jump @19\n      : @1189 [@dyn 656] (gas: 3)\n 32239: a1 = 0x201bc\n 32244: a0 = i32 [0x201bc]\n 32249: jump @1191 if a0 >u 63\n      : @1190 (gas: 3)\n 32253: u32 [0x201bc] = 0x40\n 32259: t0 = 0x522\n 32263: jump @1344\n      : @1191 (gas: 1)\n 32266: t0 = 1314, jump @1344\n      : @1192 [@dyn 657] (gas: 2)\n 32272: a0 = 0x201d0\n 32277: t0 = 1316, jump @1350\n      : @1193 [@dyn 658] (gas: 4)\n 32283: ra = 0x526\n 32287: ecalli 6 // 'hash_keccak_256'\n 32289: t0 = 0x528\n 32293: jump @1274\n      : @1194 [@dyn 659] (gas: 1)\n 32296: t0 = 1320, jump @1274\n      : @1195 [@dyn 660] (gas: 1)\n 32302: ra = 1322, jump @19\n      : @1196 [@dyn 661] (gas: 1)\n 32308: t0 = 1324, jump @1298\n      : @1197 [@dyn 662] (gas: 1)\n 32314: ra = 1326, jump @19\n      : @1198 [@dyn 663] (gas: 3)\n 32320: a1 = u64 [s1 + 0x68]\n 32323: a0 = i32 [a1]\n 32325: jump @1200 if a0 >u 63\n      : @1199 (gas: 3)\n 32329: u32 [a1 + 0] = 0x40\n 32332: t0 = 0x530\n 32336: jump @1283\n      : @1200 (gas: 1)\n 32339: t0 = 1328, jump @1283\n      : @1201 [@dyn 664] (gas: 4)\n 32345: ra = 0x532\n 32349: ecalli 6 // 'hash_keccak_256'\n 32351: t0 = 0x534\n 32355: jump @1282\n      : @1202 [@dyn 665] (gas: 1)\n 32358: t0 = 1332, jump @1282\n      : @1203 [@dyn 666] (gas: 1)\n 32364: ra = 1334, jump @21\n      : @1204 [@dyn 667] (gas: 2)\n 32370: a0 = u8 [s1 + 0x1a0]\n 32374: jump @1206 if a0 == 0\n      : @1205 (gas: 5)\n 32377: a1 = 0\n 32379: a0 = 0\n 32381: a2 = u64 [s1 + 0x58]\n 32384: t0 = 0x55c\n 32388: jump @1286\n      : @1206 (gas: 12)\n 32391: a0 = u64 [s1 + 0x20]\n 32394: a2 = s1 + 0x100\n 32398: u64 [a2 + 0x80] = a0\n 32402: a0 = u64 [s1 + 0x18]\n 32405: u64 [a2 + 0x88] = a0\n 32409: a0 = u64 [s1 + 0x10]\n 32412: u64 [a2 + 0x90] = a0\n 32416: a1 = s1 + 0x180\n 32420: a0 = u64 [s1 + 0x8]\n 32423: u64 [a2 + 0x98] = a0\n 32427: a0 = 0\n 32429: ra = 1336, jump @19\n      : @1207 [@dyn 668] (gas: 1)\n 32435: t0 = 1338, jump @1292\n      : @1208 [@dyn 669] (gas: 1)\n 32441: ra = 1340, jump @19\n      : @1209 [@dyn 670] (gas: 3)\n 32447: a1 = u64 [s1 + 0x68]\n 32450: a0 = i32 [a1]\n 32452: jump @1211 if a0 >u 63\n      : @1210 (gas: 3)\n 32456: u32 [a1 + 0] = 0x40\n 32459: t0 = 0x53e\n 32463: jump @1283\n      : @1211 (gas: 1)\n 32466: t0 = 1342, jump @1283\n      : @1212 [@dyn 671] (gas: 4)\n 32472: ra = 0x540\n 32476: ecalli 6 // 'hash_keccak_256'\n 32478: t0 = 0x542\n 32482: jump @1276\n      : @1213 [@dyn 672] (gas: 1)\n 32485: t0 = 1346, jump @1276\n      : @1214 [@dyn 673] (gas: 1)\n 32491: ra = 1348, jump @19\n      : @1215 [@dyn 674] (gas: 1)\n 32497: t0 = 1350, jump @1297\n      : @1216 [@dyn 675] (gas: 1)\n 32503: ra = 1352, jump @19\n      : @1217 [@dyn 676] (gas: 3)\n 32509: a1 = u64 [s1 + 0x68]\n 32512: a0 = i32 [a1]\n 32514: jump @1219 if a0 >u 63\n      : @1218 (gas: 2)\n 32518: u32 [a1 + 0] = 0x40\n 32521: fallthrough\n      : @1219 (gas: 4)\n 32522: a0 = sp + 0xffffffffffffffe0\n 32525: a0 = a0 & 0xffffffffffffffe0\n 32528: u64 [s1 + 0x68] = a0\n 32531: t0 = 1354, jump @1294\n      : @1220 [@dyn 677] (gas: 4)\n 32537: ra = 0x54c\n 32541: ecalli 6 // 'hash_keccak_256'\n 32543: t0 = 0x54e\n 32547: jump @1281\n      : @1221 [@dyn 678] (gas: 1)\n 32550: t0 = 1358, jump @1281\n      : @1222 [@dyn 679] (gas: 1)\n 32556: ra = 1360, jump @21\n      : @1223 [@dyn 680] (gas: 1)\n 32562: t0 = 1362, jump @1285\n      : @1224 [@dyn 681] (gas: 1)\n 32568: ra = 1364, jump @23\n      : @1225 [@dyn 682] (gas: 8)\n 32574: a0 = 0x301d0\n 32579: u64 [s1 + 0x68] = a0\n 32582: i32 a0 = a0 + 0\n 32584: ra = 0x556\n 32588: ecalli 3 // 'caller'\n 32590: a2 = u64 [s1 + 0x68]\n 32593: t0 = 0x558\n 32597: jump @1291\n      : @1226 [@dyn 683] (gas: 2)\n 32600: a2 = u64 [s1 + 0x68]\n 32603: t0 = 1368, jump @1291\n      : @1227 [@dyn 684] (gas: 40)\n 32609: t0 = a1 | a0\n 32612: a3 = a3 >> 0x20\n 32615: a2 = reverse a2\n 32617: a1 = a2 << 0x20\n 32620: a1 = a1 | a3\n 32623: a2 = a2 >> 0x20\n 32626: u64 [s1 + 152] = 0\n 32630: u64 [s1 + 184] = 0\n 32634: a0 = u64 [s1]\n 32636: u64 [s1 + 0xb0] = a0\n 32640: a0 = u64 [s1 + 0x70]\n 32643: u64 [s1 + 0xa8] = a0\n 32647: a0 = u64 [s1 + 0x78]\n 32650: u64 [s1 + 0xa0] = a0\n 32654: a0 = u64 [s1 + 0x8]\n 32657: u64 [s1 + 0xd8] = a0\n 32661: a0 = u64 [s1 + 0x10]\n 32664: u64 [s1 + 0xd0] = a0\n 32668: a0 = u64 [s1 + 0x18]\n 32671: u64 [s1 + 0xc8] = a0\n 32675: a0 = u64 [s1 + 0x20]\n 32678: u64 [s1 + 0xc0] = a0\n 32682: a3 = u64 [0x20178]\n 32687: a4 = u64 [0x20180]\n 32692: a5 = u64 [0x20188]\n 32697: a0 = u64 [0x20190]\n 32702: u64 [s1 + 0xf8] = a3\n 32706: u64 [s1 + 0xf0] = a4\n 32710: u64 [s1 + 0xe8] = a5\n 32714: u64 [s1 + 0xe0] = a0\n 32718: u64 [s1 + 0x90] = a2\n 32722: u64 [s1 + 0x88] = a1\n 32726: a2 = s1 + 0xe0\n 32730: a3 = s1 + 0xc0\n 32734: a4 = s1 + 0xa0\n 32738: a5 = s1 + 0x80\n 32742: u64 [s1 + 0x80] = t0\n 32746: a0 = 0\n 32748: a1 = 0\n 32750: ra = 1370, jump @27\n      : @1228 [@dyn 685] (gas: 4)\n 32756: a0 = 0\n 32758: a1 = 0x1\n 32761: a2 = u64 [s1 + 0x58]\n 32764: t0 = 1372, jump @1286\n      : @1229 [@dyn 686] (gas: 1)\n 32770: ret\n      : @1230 [@dyn 687] (gas: 22)\n 32772: u64 [s1 + 0x38] = a3\n 32775: a3 = u64 [a2 + 0x8]\n 32778: u64 [s1 + 0x70] = a3\n 32781: a2 = u64 [a2]\n 32783: u64 [s1 + 0x78] = a2\n 32786: a2 = u64 [a1]\n 32788: a3 = u64 [a1 + 0x8]\n 32791: a4 = u64 [a1 + 0x10]\n 32794: a1 = u64 [a1 + 0x18]\n 32797: u64 [s1 + 0x30] = a0\n 32800: u64 [s1 + 0x40] = a1\n 32803: a0 = s1 + 0x200\n 32807: u64 [a0 + 0x38] = a1\n 32810: u64 [s1 + 0x48] = a4\n 32813: u64 [a0 + 0x30] = a4\n 32816: u64 [s1 + 0x50] = a3\n 32819: u64 [a0 + 0x28] = a3\n 32822: a1 = s1 + 0x220\n 32826: u64 [s1 + 0x58] = a2\n 32829: u64 [a0 + 0x20] = a2\n 32832: a0 = 0\n 32834: ra = 1376, jump @19\n      : @1231 [@dyn 688] (gas: 1)\n 32840: t0 = 1378, jump @1293\n      : @1232 [@dyn 689] (gas: 1)\n 32846: ra = 1380, jump @19\n      : @1233 [@dyn 690] (gas: 3)\n 32852: a1 = 0x201bc\n 32857: a0 = i32 [0x201bc]\n 32862: jump @1235 if a0 >u 63\n      : @1234 (gas: 2)\n 32866: u32 [0x201bc] = 0x40\n 32872: fallthrough\n      : @1235 (gas: 6)\n 32873: a0 = sp + 0xffffffffffffffe0\n 32876: a2 = a0 & 0xffffffffffffffe0\n 32879: u64 [s1 + 0x28] = a2\n 32882: sp = a2\n 32884: a0 = 0x201d0\n 32889: t0 = 1382, jump @1350\n      : @1236 [@dyn 691] (gas: 4)\n 32895: ra = 0x568\n 32899: ecalli 6 // 'hash_keccak_256'\n 32901: t0 = 0x56a\n 32905: jump @1278\n      : @1237 [@dyn 692] (gas: 1)\n 32908: t0 = 1386, jump @1278\n      : @1238 [@dyn 693] (gas: 13)\n 32914: a0 = u64 [s1 + 0x38]\n 32917: a0 = a0 << 0x20\n 32920: a0 = a0 >> 0x20\n 32923: u64 [s1 + 504] = 0\n 32927: u64 [s1 + 0x38] = a0\n 32930: u64 [s1 + 0x1f0] = a0\n 32934: a0 = u64 [s1 + 0x70]\n 32937: u64 [s1 + 0x1e8] = a0\n 32941: a1 = s1 + 0x1e0\n 32945: a0 = u64 [s1 + 0x78]\n 32948: u64 [s1 + 0x1e0] = a0\n 32952: a0 = 0\n 32954: ra = 1388, jump @19\n      : @1239 [@dyn 694] (gas: 12)\n 32960: a0 = u64 [s1 + 0x8]\n 32963: a3 = s1 + 0x100\n 32967: u64 [a3 + 0xd8] = a0\n 32971: a0 = u64 [s1 + 0x10]\n 32974: u64 [a3 + 0xd0] = a0\n 32978: a0 = u64 [s1 + 0x18]\n 32981: u64 [a3 + 0xc8] = a0\n 32985: a0 = 0x20\n 32988: a1 = s1 + 0x1c0\n 32992: a2 = u64 [s1 + 0x20]\n 32995: u64 [a3 + 0xc0] = a2\n 32999: ra = 1390, jump @19\n      : @1240 [@dyn 695] (gas: 3)\n 33005: a1 = u64 [s1 + 0x68]\n 33008: a0 = i32 [a1]\n 33010: jump @1242 if a0 >u 63\n      : @1241 (gas: 2)\n 33014: u32 [a1 + 0] = 0x40\n 33017: fallthrough\n      : @1242 (gas: 4)\n 33018: a0 = sp + 0xffffffffffffffe0\n 33021: a0 = a0 & 0xffffffffffffffe0\n 33024: u64 [s1 + 0x20] = a0\n 33027: t0 = 1392, jump @1294\n      : @1243 [@dyn 696] (gas: 5)\n 33033: ra = 0x572\n 33037: ecalli 6 // 'hash_keccak_256'\n 33039: a3 = u64 [s1 + 0x20]\n 33042: t0 = 0x574\n 33046: jump @1288\n      : @1244 [@dyn 697] (gas: 2)\n 33049: a3 = u64 [s1 + 0x20]\n 33052: t0 = 1396, jump @1288\n      : @1245 [@dyn 698] (gas: 2)\n 33058: a0 = s1 + 0x1a0\n 33062: ra = 1398, jump @21\n      : @1246 [@dyn 699] (gas: 2)\n 33068: a0 = u8 [s1 + 0x1a0]\n 33072: jump @1268 if a0 == 0\n      : @1247 (gas: 12)\n 33076: a0 = u64 [s1 + 0x58]\n 33079: a2 = s1 + 0x100\n 33083: u64 [a2 + 0x80] = a0\n 33087: a0 = u64 [s1 + 0x50]\n 33090: u64 [a2 + 0x88] = a0\n 33094: a0 = u64 [s1 + 0x48]\n 33097: u64 [a2 + 0x90] = a0\n 33101: a1 = s1 + 0x180\n 33105: a0 = u64 [s1 + 0x40]\n 33108: u64 [a2 + 0x98] = a0\n 33112: a0 = 0\n 33114: ra = 1400, jump @19\n      : @1248 [@dyn 700] (gas: 1)\n 33120: t0 = 1402, jump @1292\n      : @1249 [@dyn 701] (gas: 1)\n 33126: ra = 1404, jump @19\n      : @1250 [@dyn 702] (gas: 3)\n 33132: a1 = u64 [s1 + 0x68]\n 33135: a0 = i32 [a1]\n 33137: jump @1252 if a0 >u 63\n      : @1251 (gas: 2)\n 33141: u32 [a1 + 0] = 0x40\n 33144: fallthrough\n      : @1252 (gas: 4)\n 33145: a0 = sp + 0xffffffffffffffe0\n 33148: a0 = a0 & 0xffffffffffffffe0\n 33151: u64 [s1 + 0x28] = a0\n 33154: t0 = 1406, jump @1294\n      : @1253 [@dyn 703] (gas: 4)\n 33160: ra = 0x580\n 33164: ecalli 6 // 'hash_keccak_256'\n 33166: t0 = 0x582\n 33170: jump @1278\n      : @1254 [@dyn 704] (gas: 1)\n 33173: t0 = 1410, jump @1278\n      : @1255 [@dyn 705] (gas: 10)\n 33179: u64 [s1 + 344] = 0\n 33183: a0 = u64 [s1 + 0x38]\n 33186: u64 [s1 + 0x150] = a0\n 33190: a0 = u64 [s1 + 0x70]\n 33193: u64 [s1 + 0x148] = a0\n 33197: a1 = s1 + 0x140\n 33201: a0 = u64 [s1 + 0x78]\n 33204: u64 [s1 + 0x140] = a0\n 33208: a0 = 0\n 33210: ra = 1412, jump @19\n      : @1256 [@dyn 706] (gas: 12)\n 33216: a0 = u64 [s1 + 0x8]\n 33219: a3 = s1 + 0x100\n 33223: u64 [a3 + 0x38] = a0\n 33226: a0 = u64 [s1 + 0x10]\n 33229: u64 [a3 + 0x30] = a0\n 33232: a0 = u64 [s1 + 0x18]\n 33235: u64 [a3 + 0x28] = a0\n 33238: a0 = 0x20\n 33241: a1 = s1 + 0x120\n 33245: a2 = u64 [s1 + 0x20]\n 33248: u64 [a3 + 0x20] = a2\n 33251: ra = 1414, jump @19\n      : @1257 [@dyn 707] (gas: 3)\n 33258: a1 = u64 [s1 + 0x68]\n 33261: a0 = i32 [a1]\n 33263: jump @1259 if a0 >u 63\n      : @1258 (gas: 2)\n 33267: u32 [a1 + 0] = 0x40\n 33270: fallthrough\n      : @1259 (gas: 4)\n 33271: a0 = sp + 0xffffffffffffffe0\n 33274: a0 = a0 & 0xffffffffffffffe0\n 33277: u64 [s1 + 0x68] = a0\n 33280: t0 = 1416, jump @1294\n      : @1260 [@dyn 708] (gas: 5)\n 33286: ra = 0x58a\n 33290: ecalli 6 // 'hash_keccak_256'\n 33292: a3 = u64 [s1 + 0x68]\n 33295: t0 = 0x58c\n 33299: jump @1288\n      : @1261 [@dyn 709] (gas: 2)\n 33302: a3 = u64 [s1 + 0x68]\n 33305: t0 = 1420, jump @1288\n      : @1262 [@dyn 710] (gas: 2)\n 33311: a0 = s1 + 0x100\n 33315: ra = 1422, jump @21\n      : @1263 [@dyn 711] (gas: 14)\n 33321: a4 = s1 + 0x100\n 33325: a0 = u64 [a4]\n 33327: a1 = u64 [a4 + 0x18]\n 33330: a2 = u64 [a4 + 0x10]\n 33333: a3 = u64 [a4 + 0x8]\n 33336: a0 = a0 & 0xffffffffffffff00\n 33340: a4 = s1 + 0x200\n 33344: u64 [a4 + 0x58] = a1\n 33347: u64 [a4 + 0x50] = a2\n 33350: u64 [a4 + 0x48] = a3\n 33353: u64 [a4 + 0x40] = a0\n 33356: a1 = s1 + 0x240\n 33360: a0 = u64 [s1 + 0x28]\n 33363: ra = 1424, jump @23\n      : @1264 [@dyn 712] (gas: 8)\n 33369: a0 = 0x301d0\n 33374: u64 [s1 + 0x68] = a0\n 33377: i32 a0 = a0 + 0\n 33379: ra = 0x592\n 33383: ecalli 3 // 'caller'\n 33385: a2 = u64 [s1 + 0x68]\n 33388: t0 = 0x594\n 33392: jump @1291\n      : @1265 [@dyn 713] (gas: 2)\n 33395: a2 = u64 [s1 + 0x68]\n 33398: t0 = 1428, jump @1291\n      : @1266 [@dyn 714] (gas: 40)\n 33404: t0 = a1 | a0\n 33407: a3 = a3 >> 0x20\n 33410: a2 = reverse a2\n 33412: a1 = a2 << 0x20\n 33415: a1 = a1 | a3\n 33418: a2 = a2 >> 0x20\n 33421: u64 [s1 + 152] = 0\n 33425: u64 [s1 + 184] = 0\n 33429: a0 = u64 [s1 + 0x38]\n 33432: u64 [s1 + 0xb0] = a0\n 33436: a0 = u64 [s1 + 0x70]\n 33439: u64 [s1 + 0xa8] = a0\n 33443: a0 = u64 [s1 + 0x78]\n 33446: u64 [s1 + 0xa0] = a0\n 33450: a0 = u64 [s1 + 0x40]\n 33453: u64 [s1 + 0xd8] = a0\n 33457: a0 = u64 [s1 + 0x48]\n 33460: u64 [s1 + 0xd0] = a0\n 33464: a0 = u64 [s1 + 0x50]\n 33467: u64 [s1 + 0xc8] = a0\n 33471: a0 = u64 [s1 + 0x58]\n 33474: u64 [s1 + 0xc0] = a0\n 33478: a3 = u64 [0x20198]\n 33483: a4 = u64 [0x201a0]\n 33488: a5 = u64 [0x201a8]\n 33493: a0 = u64 [0x201b0]\n 33498: u64 [s1 + 0xf8] = a3\n 33502: u64 [s1 + 0xf0] = a4\n 33506: u64 [s1 + 0xe8] = a5\n 33510: u64 [s1 + 0xe0] = a0\n 33514: u64 [s1 + 0x90] = a2\n 33518: u64 [s1 + 0x88] = a1\n 33522: a2 = s1 + 0xe0\n 33526: a3 = s1 + 0xc0\n 33530: a4 = s1 + 0xa0\n 33534: a5 = s1 + 0x80\n 33538: u64 [s1 + 0x80] = t0\n 33542: a0 = 0\n 33544: a1 = 0\n 33546: ra = 1430, jump @27\n      : @1267 [@dyn 715] (gas: 5)\n 33552: a0 = 0\n 33554: a1 = 0x1\n 33557: a2 = u64 [s1 + 0x30]\n 33560: t0 = 0x598\n 33564: jump @1286\n      : @1268 (gas: 3)\n 33567: a1 = 0\n 33569: a2 = u64 [s1 + 0x30]\n 33572: t0 = 1432, jump @1286\n      : @1269 [@dyn 716] (gas: 1)\n 33578: ret\n      : @1270 [export #0: 'call'] (gas: 2)\n 33580: a0 = 0\n 33582: ra = 1434, jump @36\n      : @1271 [@dyn 717] [export #1: 'deploy'] (gas: 2)\n 33588: a0 = 0x1\n 33591: ra = 1436, jump @36\n      : @1272 [@dyn 718] (gas: 23)\n 33597: a4 = u64 [s1 + 0x198]\n 33601: a2 = a4 <u 0x80\n 33605: a3 = u64 [s1 + 0x150]\n 33609: a1 = a3 if a2 != 0\n 33612: a5 = u64 [s1 + 0x158]\n 33616: a3 = u64 [s1 + 0x168]\n 33620: a3 = a3 | a5\n 33623: a3 = a0 if a2 == 0\n 33626: a1 = 0xffffffffffffffff if a4 == 0\n 33629: a3 = 0xffffffffffffffff if a4 == 0\n 33632: a4 = u64 [s1 + 0x160]\n 33636: a4 = 0 if a2 == 0\n 33638: a5 = 0 if a2 == 0\n 33640: a0 = u64 [s1 + 0x178]\n 33644: a0 = a0 & ~a3\n 33647: a2 = u64 [s1 + 0x180]\n 33651: a1 = a2 & ~a1\n 33654: a2 = u64 [s1 + 0x188]\n 33658: a2 = a2 & ~a5\n 33661: a3 = u64 [s1 + 0x190]\n 33665: a3 = a3 & ~a4\n 33668: a4 = s1 + 0x2118\n 33672: jump [t0]\n      : @1273 (gas: 14)\n 33674: a0 = u64 [a2 + 0x8]\n 33677: a1 = i32 [a2 + 0x10]\n 33680: a2 = u64 [a2]\n 33682: a0 = reverse a0\n 33684: a3 = a0 << 0x20\n 33687: a1 = reverse a1\n 33689: a1 = a1 >> 0x20\n 33692: a3 = a3 | a1\n 33695: a0 = a0 >> 0x20\n 33698: a1 = reverse a2\n 33700: a2 = a1 << 0x20\n 33703: a0 = a0 | a2\n 33706: a1 = a1 >> 0x20\n 33709: jump [t0]\n      : @1274 (gas: 30)\n 33711: a3 = u64 [s1 + 0x48]\n 33714: a0 = u64 [a3 + 0x18]\n 33717: a1 = u64 [a3 + 0x10]\n 33720: a2 = u64 [a3 + 0x8]\n 33723: a3 = u64 [a3]\n 33725: a0 = reverse a0\n 33727: u64 [s1 + 0x40] = a0\n 33730: a0 = reverse a1\n 33732: u64 [s1 + 0x38] = a0\n 33735: a0 = reverse a2\n 33737: u64 [s1 + 0x30] = a0\n 33740: a0 = reverse a3\n 33742: u64 [s1 + 0x28] = a0\n 33745: a0 = sp + 0xffffffffffffffe0\n 33748: a0 = a0 & 0xffffffffffffffe0\n 33751: u64 [s1 + 0x48] = a0\n 33754: sp = a0\n 33756: a0 = u64 [s1 + 0x50]\n 33759: a0 = a0 << 0x20\n 33762: a0 = a0 >> 0x20\n 33765: u64 [s1 + 504] = 0\n 33769: u64 [s1] = a0\n 33771: u64 [s1 + 0x1f0] = a0\n 33775: a0 = u64 [s1 + 0x70]\n 33778: u64 [s1 + 0x1e8] = a0\n 33782: a1 = s1 + 0x1e0\n 33786: a0 = u64 [s1 + 0x78]\n 33789: u64 [s1 + 0x1e0] = a0\n 33793: a0 = 0\n 33795: jump [t0]\n      : @1275 (gas: 38)\n 33797: t1 = u64 [s1 + 0x148]\n 33801: t1 = t1 + 0x1\n 33804: a0 = t1 <u 0x1\n 33807: t2 = u64 [s1 + 0x140]\n 33811: t2 = t2 + a0\n 33814: a0 = t1 | t2\n 33817: a0 = a0 <u 0x1\n 33820: a1 = u64 [s1 + 0x150]\n 33824: ra = a1 + a0\n 33827: a1 = ra <u a1\n 33830: a0 = u64 [s1 + 0x168]\n 33834: a0 = a0 + a1\n 33837: a1 = u64 [s1 + 0x198]\n 33841: a2 = a1 + 0x20\n 33844: u64 [s1 + 0x168] = a2\n 33848: a3 = a2 <u a1\n 33851: a1 = u64 [s1 + 0x138]\n 33855: a2 = a1 + a3\n 33858: u64 [s1 + 0x148] = a2\n 33862: a4 = a2 <u a1\n 33865: a4 = a3 if a3 == 0\n 33868: a1 = u64 [s1 + 0x190]\n 33872: a3 = a1 + a4\n 33875: a4 = a3 <u a1\n 33878: a1 = u64 [s1 + 0x188]\n 33882: a1 = a1 + a4\n 33885: u64 [s1 + 0x188] = a1\n 33889: a1 = u64 [s1 + 0x178]\n 33893: a4 = a1 + 0x20\n 33896: a5 = a4 <u a1\n 33899: a2 = u64 [s1 + 0x158]\n 33903: a1 = a2 + a5\n 33906: a2 = a1 <u a2\n 33909: a2 = a5 if a5 == 0\n 33912: a5 = u64 [s1 + 0x160]\n 33916: a2 = a2 + a5\n 33919: a5 = a2 <u a5\n 33922: jump [t0]\n      : @1276 (gas: 27)\n 33924: a3 = u64 [s1 + 0x50]\n 33927: a0 = u64 [a3 + 0x18]\n 33930: a1 = u64 [a3 + 0x10]\n 33933: a2 = u64 [a3 + 0x8]\n 33936: a3 = u64 [a3]\n 33938: a0 = reverse a0\n 33940: u64 [s1 + 0x48] = a0\n 33943: a0 = reverse a1\n 33945: u64 [s1 + 0x40] = a0\n 33948: a0 = reverse a2\n 33950: u64 [s1 + 0x38] = a0\n 33953: a0 = reverse a3\n 33955: u64 [s1 + 0x30] = a0\n 33958: a0 = sp + 0xffffffffffffffe0\n 33961: a0 = a0 & 0xffffffffffffffe0\n 33964: u64 [s1 + 0x50] = a0\n 33967: sp = a0\n 33969: u64 [s1 + 344] = 0\n 33973: a0 = u64 [s1]\n 33975: u64 [s1 + 0x150] = a0\n 33979: a0 = u64 [s1 + 0x70]\n 33982: u64 [s1 + 0x148] = a0\n 33986: a1 = s1 + 0x140\n 33990: a0 = u64 [s1 + 0x78]\n 33993: u64 [s1 + 0x140] = a0\n 33997: a0 = 0\n 33999: jump [t0]\n      : @1277 (gas: 22)\n 34001: a4 = u64 [s1 + 0x198]\n 34005: a2 = a4 <u 0x80\n 34009: a3 = u64 [s1 + 0x140]\n 34013: a0 = a3 if a2 != 0\n 34016: a5 = u64 [s1 + 0x148]\n 34020: a3 = u64 [s1 + 0x158]\n 34024: a3 = a3 | a5\n 34027: a3 = a1 if a2 == 0\n 34030: a0 = 0xffffffffffffffff if a4 == 0\n 34033: a3 = 0xffffffffffffffff if a4 == 0\n 34036: a5 = 0 if a2 == 0\n 34038: a4 = u64 [s1 + 0x150]\n 34042: a4 = 0 if a2 == 0\n 34044: a1 = u64 [s1 + 0x178]\n 34048: a1 = a1 & ~a3\n 34051: a2 = u64 [s1 + 0x180]\n 34055: a0 = a2 & ~a0\n 34058: a2 = u64 [s1 + 0x188]\n 34062: a2 = a2 & ~a4\n 34065: a3 = u64 [s1 + 0x190]\n 34069: a3 = a3 & ~a5\n 34072: jump [t0]\n      : @1278 (gas: 18)\n 34074: a3 = u64 [s1 + 0x28]\n 34077: a0 = u64 [a3 + 0x18]\n 34080: a1 = u64 [a3 + 0x10]\n 34083: a2 = u64 [a3 + 0x8]\n 34086: a3 = u64 [a3]\n 34088: a0 = reverse a0\n 34090: u64 [s1 + 0x20] = a0\n 34093: a0 = reverse a1\n 34095: u64 [s1 + 0x18] = a0\n 34098: a0 = reverse a2\n 34100: u64 [s1 + 0x10] = a0\n 34103: a0 = reverse a3\n 34105: u64 [s1 + 0x8] = a0\n 34108: a0 = sp + 0xffffffffffffffe0\n 34111: a0 = a0 & 0xffffffffffffffe0\n 34114: u64 [s1 + 0x28] = a0\n 34117: sp = a0\n 34119: jump [t0]\n      : @1279 (gas: 14)\n 34121: u64 [s1 + 384] = 0\n 34125: a3 = u64 [s1 + 0x168]\n 34129: a0 = u64 [a3 + 0x18]\n 34132: a1 = u64 [a3 + 0x10]\n 34135: a2 = u64 [a3 + 0x8]\n 34138: a3 = u64 [a3]\n 34140: t1 = reverse a0\n 34142: t2 = reverse a1\n 34144: ra = reverse a2\n 34146: a2 = 0\n 34148: a4 = u64 [s1 + 0x178]\n 34152: a0 = reverse a3\n 34154: a3 = 0\n 34156: jump [t0]\n      : @1280 (gas: 9)\n 34158: a0 = u64 [a3 + 0x18]\n 34161: a1 = u64 [a3 + 0x10]\n 34164: a2 = u64 [a3 + 0x8]\n 34167: a3 = u64 [a3]\n 34169: a0 = reverse a0\n 34171: a4 = reverse a1\n 34173: a2 = reverse a2\n 34175: a3 = reverse a3\n 34177: jump [t0]\n      : @1281 (gas: 16)\n 34179: a3 = u64 [s1 + 0x68]\n 34182: a0 = u64 [a3 + 0x18]\n 34185: a1 = u64 [a3 + 0x10]\n 34188: a2 = u64 [a3 + 0x8]\n 34191: a3 = u64 [a3]\n 34193: a0 = reverse a0\n 34195: a4 = reverse a1\n 34197: a2 = reverse a2\n 34199: a3 = reverse a3\n 34201: a1 = u64 [s1 + 0x50]\n 34204: u64 [a1 + 0x18] = a3\n 34207: u64 [a1 + 0x10] = a2\n 34210: u64 [a1 + 0x8] = a4\n 34213: u64 [a1] = a0\n 34215: a0 = s1 + 0x100\n 34219: jump [t0]\n      : @1282 (gas: 16)\n 34221: a3 = u64 [s1 + 0x50]\n 34224: a0 = u64 [a3 + 0x18]\n 34227: a1 = u64 [a3 + 0x10]\n 34230: a2 = u64 [a3 + 0x8]\n 34233: a3 = u64 [a3]\n 34235: a0 = reverse a0\n 34237: a4 = reverse a1\n 34239: a2 = reverse a2\n 34241: a3 = reverse a3\n 34243: a1 = u64 [s1 + 0x48]\n 34246: u64 [a1 + 0x18] = a3\n 34249: u64 [a1 + 0x10] = a2\n 34252: u64 [a1 + 0x8] = a4\n 34255: u64 [a1] = a0\n 34257: a0 = s1 + 0x1a0\n 34261: jump [t0]\n      : @1283 (gas: 8)\n 34263: a0 = sp + 0xffffffffffffffe0\n 34266: a0 = a0 & 0xffffffffffffffe0\n 34269: u64 [s1 + 0x50] = a0\n 34272: sp = a0\n 34274: i32 a2 = a0 + 0\n 34276: a1 = 0x40\n 34279: a0 = u64 [s1 + 0x60]\n 34282: jump [t0]\n      : @1284 (gas: 14)\n 34284: a0 = u64 [a2 + 0x8]\n 34287: a1 = i32 [a2 + 0x10]\n 34290: a2 = u64 [a2]\n 34292: a0 = reverse a0\n 34294: a3 = a0 << 0x20\n 34297: a1 = reverse a1\n 34299: a1 = a1 >> 0x20\n 34302: a3 = a3 | a1\n 34305: a0 = a0 >> 0x20\n 34308: a1 = reverse a2\n 34310: a2 = a1 << 0x20\n 34313: a2 = a2 | a0\n 34316: a1 = a1 >> 0x20\n 34319: jump [t0]\n      : @1285 (gas: 15)\n 34321: a4 = s1 + 0x100\n 34325: a0 = u64 [a4]\n 34327: a1 = u64 [a4 + 0x8]\n 34330: a2 = u64 [a4 + 0x18]\n 34333: a3 = u64 [a4 + 0x10]\n 34336: a0 = a0 & 0xffffffffffffff00\n 34340: a0 = a0 | 0x1\n 34343: a4 = s1 + 0x200\n 34347: u64 [a4 + 0x58] = a2\n 34350: u64 [a4 + 0x50] = a3\n 34353: u64 [a4 + 0x48] = a1\n 34356: u64 [a4 + 0x40] = a0\n 34359: a1 = s1 + 0x240\n 34363: a0 = u64 [s1 + 0x50]\n 34366: jump [t0]\n      : @1286 (gas: 11)\n 34368: u64 [a2] = a1\n 34370: u64 [a2 + 0x8] = a0\n 34373: u64 [a2 + 0x10] = a0\n 34376: u64 [a2 + 0x18] = a0\n 34379: sp = s0 + 0xfffffffffffffd80\n 34383: a0 = sp + 0x200\n 34387: ra = u64 [a0 + 0x78]\n 34390: s0 = u64 [a0 + 0x70]\n 34393: s1 = u64 [a0 + 0x68]\n 34396: sp = sp + 0x280\n 34400: jump [t0]\n      : @1287 (gas: 19)\n 34402: a3 = u64 [s1 + 0x170]\n 34406: a0 = u64 [a3]\n 34408: a1 = u64 [a3 + 0x8]\n 34411: a2 = u64 [a3 + 0x10]\n 34414: a3 = u64 [a3 + 0x18]\n 34417: a0 = reverse a0\n 34419: a1 = reverse a1\n 34421: a2 = reverse a2\n 34423: a3 = reverse a3\n 34425: a3 = a3 + 0x1\n 34428: a4 = a3 <u 0x1\n 34431: a2 = a2 + a4\n 34434: a4 = a3 | a2\n 34437: a4 = a4 <u 0x1\n 34440: a4 = a4 + a1\n 34443: a1 = a4 <u a1\n 34446: a0 = a0 + a1\n 34449: a1 = s1 + 0x2118\n 34453: jump [t0]\n      : @1288 (gas: 14)\n 34455: a0 = u64 [a3 + 0x18]\n 34458: a1 = u64 [a3 + 0x10]\n 34461: a2 = u64 [a3 + 0x8]\n 34464: a3 = u64 [a3]\n 34466: a0 = reverse a0\n 34468: a4 = reverse a1\n 34470: a2 = reverse a2\n 34472: a3 = reverse a3\n 34474: a1 = u64 [s1 + 0x28]\n 34477: u64 [a1 + 0x18] = a3\n 34480: u64 [a1 + 0x10] = a2\n 34483: u64 [a1 + 0x8] = a4\n 34486: u64 [a1] = a0\n 34488: jump [t0]\n      : @1289 (gas: 7)\n 34490: a1 = u64 [a2 + 0x90]\n 34494: a0 = a1 <u a0\n 34497: a1 = u64 [a2 + 0x88]\n 34501: a0 = 0 if a1 != 0\n 34503: a1 = u64 [a2 + 0x98]\n 34507: a0 = 0 if a1 != 0\n 34509: jump [t0]\n      : @1290 (gas: 16)\n 34511: a0 = a3 >u 0\n 34513: a1 = a4 >u 0\n 34515: a1 = a0 if a3 != 0\n 34518: a0 = a5 >u 0\n 34520: u64 [s1 + 0x178] = a2\n 34524: a2 = a2 <u 0x20\n 34527: a2 = a2 ^ 0x1\n 34530: u64 [s1 + 0x180] = a5\n 34534: a2 = a0 if a5 != 0\n 34537: u64 [s1 + 0x188] = a3\n 34541: u64 [s1 + 0x190] = a4\n 34545: a0 = a4 | a3\n 34548: a2 = a1 if a0 != 0\n 34551: a0 = u64 [s1 + 0xa8]\n 34555: a0 = a0 <u 0x20\n 34558: jump [t0]\n      : @1291 (gas: 8)\n 34560: a0 = u64 [a2 + 0x8]\n 34563: a1 = i32 [a2 + 0x10]\n 34566: a2 = u64 [a2]\n 34568: a3 = reverse a0\n 34570: a0 = a3 << 0x20\n 34573: a1 = reverse a1\n 34575: a1 = a1 >> 0x20\n 34578: jump [t0]\n      : @1292 (gas: 7)\n 34580: u64 [s1 + 376] = 0\n 34584: u64 [s1 + 368] = 0\n 34588: u64 [s1 + 360] = 0\n 34592: a0 = 0x20\n 34595: a1 = s1 + 0x160\n 34599: u64 [s1 + 352] = 0\n 34603: jump [t0]\n      : @1293 (gas: 7)\n 34605: u64 [s1 + 536] = 0\n 34609: u64 [s1 + 528] = 0\n 34613: u64 [s1 + 520] = 0\n 34617: a0 = 0x20\n 34620: a1 = s1 + 0x200\n 34624: u64 [s1 + 512] = 0\n 34628: jump [t0]\n      : @1294 (gas: 5)\n 34630: sp = a0\n 34632: i32 a2 = a0 + 0\n 34634: a1 = 0x40\n 34637: a0 = u64 [s1 + 0x60]\n 34640: jump [t0]\n      : @1295 (gas: 10)\n 34642: u64 [s1 + 0x158] = a0\n 34646: u64 [s1 + 0x160] = a1\n 34650: a0 = u64 [s1 + 0x150]\n 34654: a0 = a0 | a1\n 34657: u64 [s1 + 0x150] = a0\n 34661: a0 = u64 [s1 + 0x198]\n 34665: a2 = a0 + 0xffffffffffffff80\n 34668: a0 = 0xffffffffffffffff\n 34671: a1 = 0xffffffffffffffff\n 34674: jump [t0]\n      : @1296 (gas: 17)\n 34676: a0 = u64 [a3 + 0x18]\n 34679: a1 = u64 [a3 + 0x10]\n 34682: a2 = u64 [a3 + 0x8]\n 34685: a3 = u64 [a3]\n 34687: a0 = reverse a0\n 34689: u64 [s1 + 0x158] = a0\n 34693: a0 = reverse a1\n 34695: u64 [s1 + 0x150] = a0\n 34699: a0 = reverse a2\n 34701: u64 [s1 + 0x148] = a0\n 34705: a0 = reverse a3\n 34707: u64 [s1 + 0x140] = a0\n 34711: a0 = sp + 0xffffffffffffffe0\n 34714: a0 = a0 & 0xffffffffffffffe0\n 34717: u64 [s1 + 0x160] = a0\n 34721: sp = a0\n 34723: jump [t0]\n      : @1297 (gas: 12)\n 34725: a0 = u64 [s1 + 0x30]\n 34728: a3 = s1 + 0x100\n 34732: u64 [a3 + 0x38] = a0\n 34735: a0 = u64 [s1 + 0x38]\n 34738: u64 [a3 + 0x30] = a0\n 34741: a0 = u64 [s1 + 0x40]\n 34744: u64 [a3 + 0x28] = a0\n 34747: a0 = 0x20\n 34750: a1 = s1 + 0x120\n 34754: a2 = u64 [s1 + 0x48]\n 34757: u64 [a3 + 0x20] = a2\n 34760: jump [t0]\n      : @1298 (gas: 12)\n 34762: a0 = u64 [s1 + 0x28]\n 34765: a3 = s1 + 0x100\n 34769: u64 [a3 + 0xd8] = a0\n 34773: a0 = u64 [s1 + 0x30]\n 34776: u64 [a3 + 0xd0] = a0\n 34780: a0 = u64 [s1 + 0x38]\n 34783: u64 [a3 + 0xc8] = a0\n 34787: a0 = 0x20\n 34790: a1 = s1 + 0x1c0\n 34794: a2 = u64 [s1 + 0x40]\n 34797: u64 [a3 + 0xc0] = a2\n 34801: jump [t0]\n      : @1299 (gas: 16)\n 34803: a2 = u64 [s1 + 0x168]\n 34807: a0 = u64 [a2 + 0x8]\n 34810: a1 = i32 [a2 + 0x10]\n 34813: a2 = u64 [a2]\n 34815: a0 = reverse a0\n 34817: a3 = a0 << 0x20\n 34820: a1 = reverse a1\n 34822: a1 = a1 >> 0x20\n 34825: a3 = a3 | a1\n 34828: a0 = a0 >> 0x20\n 34831: a1 = reverse a2\n 34833: a2 = a1 << 0x20\n 34836: a0 = a0 | a2\n 34839: a1 = a1 >> 0x20\n 34842: a2 = s1 + 0x1118\n 34846: jump [t0]\n      : @1300 (gas: 7)\n 34848: a1 = u64 [a2 + 0x98]\n 34852: a0 = a1 <u a0\n 34855: a1 = u64 [a2 + 0x88]\n 34859: a0 = 0 if a1 != 0\n 34861: a1 = u64 [a2 + 0x90]\n 34865: a0 = 0 if a1 != 0\n 34867: jump [t0]\n      : @1301 (gas: 13)\n 34869: a1 = a0 <u a1\n 34872: a3 = u64 [s1 + 0x160]\n 34876: a2 = a3 + a1\n 34879: a3 = a2 <u a3\n 34882: a3 = a1 if a1 == 0\n 34885: a1 = u64 [s1 + 0x170]\n 34889: a3 = a3 + a1\n 34892: a1 = a3 <u a1\n 34895: a4 = u64 [s1 + 0x168]\n 34899: a1 = a1 + a4\n 34902: a4 = s1 + 0x2118\n 34906: a5 = a4 + 0x700\n 34910: jump [t0]\n      : @1302 (gas: 13)\n 34912: a1 = a0 <u a1\n 34915: a3 = u64 [s1 + 0x190]\n 34919: a2 = a3 + a1\n 34922: a3 = a2 <u a3\n 34925: a3 = a1 if a1 == 0\n 34928: a1 = u64 [s1 + 0x180]\n 34932: a3 = a3 + a1\n 34935: a1 = a3 <u a1\n 34938: a4 = u64 [s1 + 0x198]\n 34942: a1 = a1 + a4\n 34945: a4 = s1 + 0x2118\n 34949: a5 = a4 + 0x600\n 34953: jump [t0]\n      : @1303 (gas: 12)\n 34955: a1 = a0 <u a1\n 34958: a3 = u64 [s1 + 0x160]\n 34962: a2 = a3 + a1\n 34965: a3 = a2 <u a3\n 34968: a3 = a1 if a1 == 0\n 34971: a1 = u64 [s1 + 0x170]\n 34975: a3 = a3 + a1\n 34978: a1 = a3 <u a1\n 34981: a4 = u64 [s1 + 0x168]\n 34985: a4 = a4 + a1\n 34988: a1 = s1 + 0x1918\n 34992: jump [t0]\n      : @1304 (gas: 12)\n 34994: a0 = u64 [s1 + 0x110]\n 34998: u64 [s1 + 0x178] = a4\n 35002: a0 = a4 <u a0\n 35005: a4 = a0 ^ 0x1\n 35008: u64 [s1 + 0x158] = a3\n 35012: a4 = 0x1 if a3 != 0\n 35015: u64 [s1 + 0x160] = a2\n 35019: a0 = u64 [s1 + 0x180]\n 35023: a0 = a0 | a2\n 35026: a4 = 0x1 if a0 != 0\n 35029: a1 = u64 [s1 + 0x118]\n 35033: jump [t0]\n      : @1305 (gas: 16)\n 35035: a3 = u64 [s1 + 0x158]\n 35039: a0 = u64 [a3 + 0x18]\n 35042: a1 = u64 [a3 + 0x10]\n 35045: a2 = u64 [a3 + 0x8]\n 35048: a3 = u64 [a3]\n 35050: a0 = reverse a0\n 35052: a4 = reverse a1\n 35054: a2 = reverse a2\n 35056: a3 = reverse a3\n 35058: a1 = u64 [s1 + 0x160]\n 35062: u64 [a1 + 0x18] = a3\n 35065: u64 [a1 + 0x10] = a2\n 35068: u64 [a1 + 0x8] = a4\n 35071: u64 [a1] = a0\n 35073: a0 = 0x1000\n 35077: jump [t0]\n      : @1306 (gas: 12)\n 35079: a0 = a2 <u a0\n 35082: a3 = u64 [s1 + 0x190]\n 35086: a1 = a3 + a0\n 35089: a3 = a1 <u a3\n 35092: a3 = a0 if a0 == 0\n 35095: a0 = u64 [s1 + 0x180]\n 35099: a3 = a3 + a0\n 35102: a0 = a3 <u a0\n 35105: a4 = u64 [s1 + 0x198]\n 35109: a0 = a0 + a4\n 35112: a4 = a5 + 0x400\n 35116: jump [t0]\n      : @1307 (gas: 14)\n 35118: a3 = a3 + a4\n 35121: u64 [s1 + 0x158] = a3\n 35125: a3 = a3 << 0x3b\n 35128: a4 = a2 >> 0x5\n 35131: a4 = a4 | a3\n 35134: a0 = u64 [s1 + 0x160]\n 35138: t1 = u64 [a0 + 0x18]\n 35141: a2 = a2 << 0x3b\n 35144: a3 = u64 [a0 + 0x10]\n 35147: a1 = a1 >> 0x5\n 35150: a0 = a1 | a2\n 35153: t2 = reverse t1\n 35155: a2 = reverse a3\n 35157: jump [t0]\n      : @1308 (gas: 8)\n 35159: a1 = sp + 0xffffffffffffffe0\n 35162: a1 = a1 & 0xffffffffffffffe0\n 35165: u64 [s1 + 0x168] = a1\n 35169: sp = a1\n 35171: i32 a0 = a0 + 0\n 35173: i32 a2 = a1 + 0\n 35175: a1 = 0x20\n 35178: jump [t0]\n      : @1309 (gas: 16)\n 35180: sp = sp + 0xfffffffffffffd80\n 35184: a2 = sp + 0x200\n 35188: u64 [a2 + 0x78] = ra\n 35191: u64 [a2 + 0x70] = s0\n 35194: u64 [a2 + 0x68] = s1\n 35197: s0 = sp + 0x280\n 35201: sp = sp & 0xffffffffffffffe0\n 35204: s1 = sp\n 35206: a2 = u64 [a1 + 0x10]\n 35209: u64 [s1 + 0x50] = a2\n 35212: a2 = u64 [a1 + 0x8]\n 35215: u64 [s1 + 0x70] = a2\n 35218: a1 = u64 [a1]\n 35220: u64 [s1 + 0x78] = a1\n 35223: u64 [s1 + 0x58] = a0\n 35226: jump [t0]\n      : @1310 (gas: 7)\n 35228: a0 = a0 << 0x3b\n 35231: a1 = a0 >> 0x38\n 35234: u64 [s1 + 0x198] = a1\n 35238: a2 = 0x80 - a1\n 35242: a0 = 0xffffffffffffffff\n 35245: a1 = 0xffffffffffffffff\n 35248: jump [t0]\n      : @1311 (gas: 11)\n 35250: t2 = u64 [s1 + 0x188]\n 35254: t2 = t2 + 0x1\n 35257: a0 = t2 <u 0x1\n 35260: a4 = u64 [s1 + 0x198]\n 35264: a4 = a4 + a0\n 35267: a0 = t2 | a4\n 35270: a0 = a0 <u 0x1\n 35273: a1 = u64 [s1 + 0x178]\n 35277: a0 = a0 + a1\n 35280: a1 = a0 <u a1\n 35283: jump [t0]\n      : @1312 (gas: 5)\n 35285: sp = a0\n 35287: i32 a2 = a0 + 0\n 35289: a1 = 0x40\n 35292: a0 = u64 [s1 + 0x198]\n 35296: jump [t0]\n      : @1313 (gas: 10)\n 35298: a0 = u64 [a3 + 0x18]\n 35301: a1 = u64 [a3 + 0x10]\n 35304: a2 = u64 [a3 + 0x8]\n 35307: a3 = u64 [a3]\n 35309: a0 = reverse a0\n 35311: a1 = reverse a1\n 35313: a2 = reverse a2\n 35315: a3 = reverse a3\n 35317: a4 = s1 + 0x2118\n 35321: jump [t0]\n      : @1314 (gas: 4)\n 35323: a0 = 0x2118\n 35327: a3 = s1 + a0\n 35330: a4 = a3 + 0x600\n 35334: jump [t0]\n      : @1315 (gas: 8)\n 35336: a4 = u64 [a5 + 0x60]\n 35339: a1 = a1 | a4\n 35342: a4 = u64 [a5 + 0x68]\n 35345: a3 = a3 | a4\n 35348: a4 = u64 [a5 + 0x70]\n 35351: a2 = a2 | a4\n 35354: a4 = s1 + 0x2118\n 35358: jump [t0]\n      : @1316 (gas: 8)\n 35360: a2 = a1 | a5\n 35363: a0 = a0 | a3\n 35366: a2 = a2 | a0\n 35369: a2 = a2 >> 0x20\n 35372: a0 = a0 | a5\n 35375: a0 = a0 << 0x20\n 35378: a0 = a0 | a2\n 35381: jump [t0]\n      : @1317 (gas: 10)\n 35383: u64 [s1 + 0x150] = a0\n 35387: u64 [s1 + 0x148] = a1\n 35391: a1 = u64 [s1 + 0x140]\n 35395: a0 = a0 | a1\n 35398: u64 [s1 + 0x140] = a0\n 35402: a0 = u64 [s1 + 0x198]\n 35406: i32 a2 = a0 + 0xffffffffffffff80\n 35409: a0 = 0xffffffffffffffff\n 35412: a1 = 0xffffffffffffffff\n 35415: jump [t0]\n      : @1318 (gas: 9)\n 35417: a2 = a3 + a1\n 35420: a3 = a2 <u a3\n 35423: a3 = a1 if a1 == 0\n 35426: a1 = u64 [s1 + 0x180]\n 35430: a3 = a3 + a1\n 35433: a1 = a3 <u a1\n 35436: a4 = u64 [s1 + 0x188]\n 35440: a4 = a4 + a1\n 35443: jump [t0]\n      : @1319 (gas: 7)\n 35445: a0 = sp + 0xffffffffffffffe0\n 35448: a0 = a0 & 0xffffffffffffffe0\n 35451: u64 [s1 + 0x170] = a0\n 35455: sp = a0\n 35457: a1 = 0x20\n 35460: a0 = 0\n 35462: jump [t0]\n      : @1320 (gas: 10)\n 35464: a0 = u64 [sp + 0x10]\n 35467: a1 = u64 [sp + 0x18]\n 35470: a2 = 0x100000000\n 35480: a2 = a2 ^ a0\n 35483: a2 = a2 | a1\n 35486: a3 = a0 >> 0x20\n 35489: a3 = a3 <u 0x1\n 35492: a3 = 0 if a1 != 0\n 35494: a3 = 0 if a2 == 0\n 35496: jump [t0]\n      : @1321 (gas: 7)\n 35498: a1 = u64 [a2 + 0x98]\n 35502: a0 = a1 <u a0\n 35505: a1 = u64 [a2 + 0x90]\n 35509: a0 = 0 if a1 != 0\n 35511: a1 = u64 [a2 + 0x88]\n 35515: a0 = 0 if a1 != 0\n 35517: jump [t0]\n      : @1322 (gas: 8)\n 35519: a4 = a2 + a0\n 35522: a4 = a4 + a3\n 35525: a3 = a4 ^ a2\n 35528: u64 [s1 + 0x168] = a4\n 35532: a2 = a4 <u a2\n 35535: a2 = a0 if a3 == 0\n 35538: a4 = u64 [s1 + 0x158]\n 35542: jump [t0]\n      : @1323 (gas: 12)\n 35544: a0 = u64 [s1 + 0x20]\n 35547: a2 = s1 + 0x100\n 35551: u64 [a2 + 0x98] = a0\n 35555: a0 = u64 [s1 + 0x18]\n 35558: u64 [a2 + 0x90] = a0\n 35562: a0 = u64 [s1 + 0x10]\n 35565: u64 [a2 + 0x88] = a0\n 35569: a1 = s1 + 0x180\n 35573: a0 = u64 [s1 + 0x8]\n 35576: u64 [a2 + 0x80] = a0\n 35580: a0 = 0\n 35582: jump [t0]\n      : @1324 (gas: 10)\n 35584: a2 = a1 | a5\n 35587: a0 = ra | a0\n 35590: a2 = a2 | a0\n 35593: a2 = a2 >> 0x20\n 35596: a0 = a0 | a5\n 35599: a0 = a0 << 0x20\n 35602: a0 = a0 | a2\n 35605: u64 [s1 + 0x148] = t1\n 35609: u64 [s1 + 0x140] = t2\n 35613: jump [t0]\n      : @1325 (gas: 6)\n 35615: a0 = a1 <u a0\n 35618: a2 = u64 [a3 + 0x98]\n 35622: a0 = 0 if a2 != 0\n 35624: a2 = u64 [a3 + 0x78]\n 35627: a0 = 0 if a2 != 0\n 35629: jump [t0]\n      : @1326 (gas: 6)\n 35631: a0 = a1 <u a0\n 35634: a2 = u64 [a3 + 0x90]\n 35638: a0 = 0 if a2 != 0\n 35640: a2 = u64 [a3 + 0x88]\n 35644: a0 = 0 if a2 != 0\n 35646: jump [t0]\n      : @1327 (gas: 8)\n 35648: a4 = a4 | a2\n 35651: a2 = a0 | a1\n 35654: a2 = a2 | a4\n 35657: a2 = a2 >> 0x20\n 35660: a1 = a1 | a4\n 35663: a1 = a1 << 0x20\n 35666: a1 = a1 | a2\n 35669: jump [t0]\n      : @1328 (gas: 6)\n 35671: u64 [s1 + 0x168] = a0\n 35675: u64 [s1 + 0x150] = a1\n 35679: a0 = 0xffffffffffffffff\n 35682: a1 = 0xffffffffffffffff\n 35685: a2 = u64 [s1 + 0x198]\n 35689: jump [t0]\n      : @1329 (gas: 6)\n 35691: a0 = u64 [a3 + 0x18]\n 35694: a1 = u64 [a3 + 0x10]\n 35697: a2 = u64 [a3 + 0x8]\n 35700: a3 = u64 [a3]\n 35702: a0 = reverse a0\n 35704: jump [t0]\n      : @1330 (gas: 10)\n 35706: sp = sp + 0xfffffffffffffd80\n 35710: a3 = sp + 0x200\n 35714: u64 [a3 + 0x78] = ra\n 35717: u64 [a3 + 0x70] = s0\n 35720: u64 [a3 + 0x68] = s1\n 35723: s0 = sp + 0x280\n 35727: sp = sp & 0xffffffffffffffe0\n 35730: s1 = sp\n 35732: a3 = u64 [a2 + 0x10]\n 35735: jump [t0]\n      : @1331 (gas: 5)\n 35737: a5 = u64 [s1 + 0x170]\n 35741: u64 [a5 + 0x8] = t2\n 35744: u64 [a5] = t1\n 35746: u64 [a5 + 0x10] = ra\n 35749: jump [t0]\n      : @1332 (gas: 12)\n 35751: a2 = u64 [sp]\n 35753: a3 = u64 [sp + 0x8]\n 35756: u64 [s1] = a2\n 35758: u64 [s1 + 0x8] = a3\n 35761: u64 [s1 + 0x10] = a0\n 35764: u64 [s1 + 0x18] = a1\n 35767: sp = s0 + 0xffffffffffffffc0\n 35770: ra = u64 [sp + 0x38]\n 35773: s0 = u64 [sp + 0x30]\n 35776: s1 = u64 [sp + 0x28]\n 35779: sp = sp + 0x40\n 35782: jump [t0]\n      : @1333 (gas: 12)\n 35784: a0 = u64 [a5 + 0x80]\n 35788: a1 = u64 [a5 + 0x78]\n 35791: a2 = u64 [a5 + 0x70]\n 35794: a4 = u64 [a5 + 0x68]\n 35797: a0 = a0 | a2\n 35800: a2 = a4 | a1\n 35803: a2 = a2 | a0\n 35806: a2 = a2 >> 0x20\n 35809: a0 = a0 | a1\n 35812: a0 = a0 << 0x20\n 35815: a0 = a0 | a2\n 35818: jump [t0]\n      : @1334 (gas: 7)\n 35820: u64 [s1 + 344] = 0\n 35824: u64 [s1 + 336] = 0\n 35828: u64 [s1 + 328] = 0\n 35832: a0 = 0x20\n 35835: a1 = s1 + 0x140\n 35839: u64 [s1 + 320] = 0\n 35843: jump [t0]\n      : @1335 (gas: 7)\n 35845: a1 = a0 + 0x1f\n 35848: a0 = a1 <u a0\n 35851: a5 = u64 [s1 + 0x110]\n 35855: a2 = a5 + a0\n 35858: a3 = a2 <u a5\n 35861: a3 = a0 if a0 == 0\n 35864: jump [t0]\n      : @1336 (gas: 7)\n 35866: a0 = 0x20\n 35869: u64 [s1 + 0x198] = a0\n 35873: a5 = 0\n 35875: u64 [s1 + 400] = 0\n 35879: u64 [s1 + 392] = 0\n 35883: u64 [s1 + 376] = 0\n 35887: jump [t0]\n      : @1337 (gas: 8)\n 35889: u64 [sp + 48] = 0\n 35892: u64 [sp + 40] = 0\n 35895: u64 [sp + 32] = 0\n 35898: a0 = 0x4e487b7100000000\n 35908: a1 = sp + 0x20\n 35911: u64 [sp + 0x38] = a0\n 35914: a0 = 0\n 35916: jump [t0]\n      : @1338 (gas: 8)\n 35918: a0 = sp + 0xffffffffffffffe0\n 35921: a0 = a0 & 0xffffffffffffffe0\n 35924: u64 [s1 + 0x160] = a0\n 35928: sp = a0\n 35930: i32 a2 = a0 + 0\n 35932: a1 = 0x20\n 35935: a0 = u64 [s1 + 0xf8]\n 35939: jump [t0]\n      : @1339 (gas: 9)\n 35941: sp = sp + 0xfffffffffffffda0\n 35945: a2 = sp + 0x200\n 35949: u64 [a2 + 0x58] = ra\n 35952: u64 [a2 + 0x50] = s0\n 35955: u64 [a2 + 0x48] = s1\n 35958: s0 = sp + 0x260\n 35962: sp = sp & 0xffffffffffffffe0\n 35965: s1 = sp\n 35967: jump [t0]\n      : @1340 (gas: 6)\n 35969: sp = s0 + 0xffffffffffffffa0\n 35972: ra = u64 [sp + 0x58]\n 35975: s0 = u64 [sp + 0x50]\n 35978: s1 = u64 [sp + 0x48]\n 35981: sp = sp + 0x60\n 35984: jump [t0]\n      : @1341 (gas: 5)\n 35986: a0 = a1 <u a0\n 35989: a2 = u64 [a5 + 0x90]\n 35993: a0 = 0 if a2 != 0\n 35995: a0 = 0 if a3 != 0\n 35997: jump [t0]\n      : @1342 (gas: 8)\n 35999: a0 = u64 [a4 + 0xb8]\n 36003: a1 = u64 [a4 + 0xc0]\n 36007: a2 = u64 [a4 + 0xb0]\n 36011: a3 = u64 [a4 + 0xa8]\n 36015: a1 = a1 | a2\n 36018: a0 = a0 | a3\n 36021: a0 = a0 | a1\n 36024: jump [t0]\n      : @1343 (gas: 5)\n 36026: a0 = sp + 0xffffffffffffffe0\n 36029: a2 = a0 & 0xffffffffffffffe0\n 36032: u64 [s1 + 0x170] = a2\n 36036: sp = a2\n 36038: jump [t0]\n      : @1344 (gas: 5)\n 36040: a0 = sp + 0xffffffffffffffe0\n 36043: a2 = a0 & 0xffffffffffffffe0\n 36046: u64 [s1 + 0x48] = a2\n 36049: sp = a2\n 36051: jump [t0]\n      : @1345 (gas: 7)\n 36053: a0 = sp + 0xffffffffffffffe0\n 36056: a0 = a0 & 0xffffffffffffffe0\n 36059: u64 [s1 + 0x198] = a0\n 36063: sp = a0\n 36065: i32 a2 = a0 + 0\n 36067: a1 = 0x40\n 36070: jump [t0]\n      : @1346 (gas: 8)\n 36072: a0 = sp + 0xffffffffffffffe0\n 36075: a0 = a0 & 0xffffffffffffffe0\n 36078: u64 [s1 + 0x30] = a0\n 36081: sp = a0\n 36083: i32 a2 = a0 + 0\n 36085: a1 = 0x40\n 36088: a0 = u64 [s1 + 0x40]\n 36091: jump [t0]\n      : @1347 (gas: 4)\n 36093: a0 = 0x1118\n 36097: a1 = s1 + a0\n 36100: a2 = a1 + 0x400\n 36104: jump [t0]\n      : @1348 (gas: 6)\n 36106: u64 [a1 + 1344] = 0\n 36110: u64 [a1 + 1336] = 0\n 36114: u64 [a1 + 1320] = 0x1\n 36119: a2 = a1\n 36121: a0 = 0x20\n 36124: jump [t0]\n      : @1349 (gas: 4)\n 36126: a0 = u64 [s1 + 0x198]\n 36130: a0 = i32 [a0]\n 36132: a1 = 0x23\n 36135: jump [t0]\n      : @1350 (gas: 6)\n 36137: i32 a0 = a0 + 0\n 36139: i32 a2 = a2 + 0\n 36141: u64 [s1 + 0x68] = a1\n 36144: a1 = 0x40\n 36147: u64 [s1 + 0x60] = a0\n 36150: jump [t0]\n      : @1351 (gas: 4)\n 36152: a0 = 0x2118\n 36156: a3 = s1 + a0\n 36159: a4 = a3 + 0x500\n 36163: jump [t0]\n      : @1352 (gas: 4)\n 36165: a0 = 0x2118\n 36169: a3 = s1 + a0\n 36172: a4 = a3 + 0x700\n 36176: jump [t0]\n      : @1353 (gas: 4)\n 36178: a0 = 0x2118\n 36182: a2 = s1 + a0\n 36185: a3 = a2 + 0x100\n 36189: jump [t0]\n      : @1354 (gas: 7)\n 36191: a0 = a3 <u a0\n 36194: a1 = u64 [s1 + 0x80]\n 36198: a4 = a1 + a0\n 36201: a1 = a4 <u a1\n 36204: a1 = a0 if a0 == 0\n 36207: a0 = u64 [s1 + 0x90]\n 36211: jump [t0]\n      : @1355 (gas: 9)\n 36213: sp = sp + 0xffffffffffffffc0\n 36216: u64 [sp + 0x38] = ra\n 36219: u64 [sp + 0x30] = s0\n 36222: u64 [sp + 0x28] = s1\n 36225: s0 = sp + 0x40\n 36228: sp = sp & 0xffffffffffffffe0\n 36231: s1 = a0\n 36233: i32 a0 = sp + 0\n 36235: jump [t0]\n      : @1356 (gas: 2)\n 36237: a3 = a2 & 0x40\n 36240: jump @1360 if a3 != 0\n      : @1357 (gas: 1)\n 36243: jump @1359 if a2 == 0\n      : @1358 (gas: 6)\n 36246: i32 a3 = 0x40 - a2\n 36249: a3 = a1 << a3\n 36252: a1 = a1 >> a2\n 36255: a0 = a0 >> a2\n 36258: a0 = a0 | a3\n 36261: ret\n      : @1359 (gas: 1)\n 36263: ret\n      : @1360 (gas: 4)\n 36265: a0 = a2 + 0xffffffffffffffc0\n 36268: a0 = a1 >> a0\n 36271: a1 = 0\n 36273: ret\n      : @1361 (gas: 2)\n 36275: a3 = a2 & 0x40\n 36278: jump @1365 if a3 != 0\n      : @1362 (gas: 1)\n 36281: jump @1364 if a2 == 0\n      : @1363 (gas: 6)\n 36284: i32 a3 = 0x40 - a2\n 36287: a3 = a0 >> a3\n 36290: a0 = a0 << a2\n 36293: a1 = a1 << a2\n 36296: a1 = a1 | a3\n 36299: ret\n      : @1364 (gas: 1)\n 36301: ret\n      : @1365 (gas: 4)\n 36303: a1 = a2 + 0xffffffffffffffc0\n 36306: a1 = a0 << a1\n 36309: a0 = 0\n 36311: ret\n","bytecode":{"object":"50564d0000e9a7000000000000010700c1f001c000800381b8381a7e6af354d4fb4a430db13afcd68bf3bccb1a818f57a43c318674691cfb3a7128a342e895fbee39e50b46b433d9795b328baa11afd5a1ede42dc98d5c5cb4795d6a256c905f2ac0f6e166d0fc94945250b6cde19d6877bf99cebae44d62a1abd3c6eb1b9160ab585409e494056248eb975299f476da347b43259f58a58cc4766168207473754d6972747369642065726f20726f747562656c6961746572200000656c6f7220728a8048028a9910d8cb5917e71802b2330a3598b382a1c12e2c017c5842d706d61dff7e7e1188872fd1014979ec26e982400927504a02787c0d6f6533a740453020746375646f7250746f6e2073656f64381a7e6af354d4fb4a430db13afcd68bf3bccb1a818f57a43c318674691cfb3a1dff7e7e1188872fd1014979ec26e982400927504a02787c0d6f6533a7404530795d6a256c905f2ac0f6e166d0fc94945250b6cde19d6877bf99cebae44d62a11dff7e7e1188872fd1014979ec26e982400927504a02787c0d6f6533a74045301dff7e7e1188872fd1014979ec26e982400927504a02787c0d6f6533a74045309dc6d9325c1f39f67429440b67ea472a64fdc7edd13539b51b1739a847e021eb0480c40c000000000e0000001c0000002a000000300000003d00000048000000570000005a00000065000000770000008200000063616c6c5f646174615f636f707963616c6c5f646174615f6c6f616463616c6c5f646174615f73697a6563616c6c65726465706f7369745f6576656e746765745f73746f72616765686173685f6b656363616b5f3235366e6f777365616c5f72657475726e7365745f696d6d757461626c655f646174617365745f73746f7261676576616c75655f7472616e73666572726564051302c02c830463616c6cc03483066465706c6f7906c037a582ce02c0d98d9b00e3012703c103f2036f04770476057b05ab052f06390679068c069806d306f80683078907aa07160838087c0885089f08a408bf08f1080f091a091f092b09630981099f09ae09b709c609cb09e2090f0a2c0a370a3c0a480a6a0ad50a020b390b4d0b7c0bf10b420c4f0c790ca20ce60c160dac0db10de90df60da70ee80efa0eb00fb60f3d1081108710101150115611e2114b127612bc12c612081312133b137713ab13b513d2130b149014a114eb1453158015cd15e2152516a716b216e016121738176f178517cc1708183418ac18e61845199719ec192a1ab11ae41aed1a931ce91cef1c101d541d961de71d511e621e8e1eea1efb1e271f821f941fc11ff51f19205f2069208820c420f420fe200c2132217b21bb21c9212d227d22f622032329233a237e238b23a923cb230e241b2439244a249124b324f624032529253b257b2588259125f6250426782686269626e226572760278e27af277128c628cf28fe280e294b2959297a29c529d329e429282a362a4a2a052b602b0a2c102c352c532c592c852c8f2c9d2c132d862db72dda2de02d0d2e272e2d2e572e712e9a2eb92ebf2ee82e532fb02fc92f0f302330af300b319231a631e23149325e32d9323433ab331034c434da3438353e3544356835a135a735d735fa351b3640364a36a236d936f336083712372b3744375f37ad37b337e8370638283835388038a838c638d738e13800393d3971399939c3390d3a6d3a7e3af23afd3ab83bbe3bc43bca3be53b043c5e3c6c3c9f3c2d3dc03dd23dff3d053e0b3e113e173e1d3e233e453eca3e343f4e3f543f5a3f603f703f953fa93fe63f32408c40e24008414f416d417e4188419141fd41fd420343ac43b243b843be43cb43d143d743f64350445e4494449a44ab443d454e4588458e4594459a45a045a645ac45ca454246b846d346d946df46e546f54617472847a547f1471748574864489148de48f2482b497449c249f449094a414a5f4a664a874af64af94bff4b654c6b4c714c774c844c8a4c904c2b4d434d744d7a4d8b4d294e394e634e694e6f4e754e7b4e814e874ea54e2d4faa4fc54feb4f425068507550e250425156519851c751f3511852af52bc521d5432543c5459548654da54f85477557d5583568956c156ee56335767579c57355863589758ba58d858f558fb581d594f598e59c659d459ef594a5a535aa75ad65a305b6f5b755b7b5b4a5c985cc25c1d5d7a5da95dc85dd25e085f365f685fa05fc35fe15ffe5f0460266051608f60c4600a614f616e619e61bb61fa6100622d625a62736283628c629662bc62c262c862e162f162fa623b63636393639c63b463e86302640b648d64b664c664cc64d564f064f66406650c6515652a659165a565ab65c265e665ad66e366fc66206706687568c668d2694d6aa96ac76a016b716b796b7f6b966bc06bc66b016c2a6c6c6ccb6c266da16dfe6df66e7b6f5b70b8702b7139714671b77169728172f5727673cf7318744a7494749f74ae74e3740075217543754c7586758f75ab75d47504760d76257668767b768476a176b976d97625772b77317773777c77b677bf77db77037833783c7854789778aa78b378d078f9781f792579617967796d798e799979a679ac79b279b879be79d779e479ea79f0790b7a117a177a1d7a367a437a497a4f7a557a5b7a777a847a8a7a907a967a9c7ab67abf7a527b607b627b9e7ba47baa7bcb7bd67be37be97bef7bf57bfb7b147c217c277c2d7c487c4e7c547c5a7c737c807c867c8c7c927c987cb47cc17cc77ccd7cd37cd97cf37cfc7c8f7d9d7d9f7de37de97def7d107e1b7e287e2e7e347e3a7e407e597e667e6c7e727eb37eb97ebf7ed87ee57eeb7ef17ef77efd7e197f267f2c7f327f387f3e7f587f617ff47f0280048048804e8054807f808c809280c080ed800981198122812c81608166816c81888195819b81c081ea81068216821f822982598273827c8210832a8334833d83aa876e978a2098aa20977b2098bb20c89b0bc9ba0a979b019abbaeab20ae873751094ec87909647a017c8b95880195ac0178ab64caab9cf42836510934c87909647a017c8b95880195ac0178ab64caab9cf4281c51091a839aff01c8a80b7cbb9599ffc8a70c78cb83aaff5209f032003908c0010251080e063307f0010383770a092801069511f07b10087b1564896475330820649750100291047c78017c797c7a027c7b03978808d4980897aa1097bb18d4ba0ad4a8087c79057c7a047c7b067c7c07979908d4a90997bb1097cc18d4cb0bd4b909979920d489027c79097c7a087c7b0a7c7c0b979908d4a90997bb1097cc18d4cb0bd4b9097c7a0d7c7b0c7c7c0e7c780f97aa08d4ba0a97cc10978818d4c808d4a808978820d498037c78117c7a107c7b127c7c13978808d4a80897bb1097cc18d4cb0bd4b8087c7a157c7b147c7c167c791797aa08d4ba0a97cc10979918d4c909d4a909979920d4890a7c78197c79187c7b1a7c7c1b978808d4980897bb1097cc18d4cb0bd4b8087c791d7c7b1c7c7c1e7c771f979908d4b90997cc10977718d4c707d49707977720d487076f776fa86f396f2a7b5a187b59107b58087b57821008821595111032009511d87b10207b15187b161082897b19088289087b1982851082861833082050100449036f686f59821a6faa821b086fbb787b18787a10787908787898bc38787c1f98bc30787c1e98bc28787c1d98bc20787c1c98bc18787c1b98bc10787c1a98bb08787b1998ab38787b1798ab30787b1698ab28787b1598ab20787b1498ab18787b1398ab10787b1298aa08787a11989a38787a0f989a30787a0e989a28787a0d989a20787a0c989a18787a0b989a10787a0a98990878790998893878790798893078790698892878790598892078790498891878790398891078790298880878780182102082151882161095112832009511a07b10587b15507b16489515608411e06476828718828910828a0882886f776f996faa6f887b18187b1a107b19087b17491138491130491128491120481140208318831a20831b403309ff33070a05821738821830821928821a206f776f886f996faa7b6a187b69107b68087b6750120660890032009511a07b10587b15509515608411e08272827a08827b108277188283828908828c108288186f746fbb6faa6f276f826fcc6f996f387b17187b1a107b1b087b147b18387b19307b1c287b12208318831a203309ff330b2033070a0a9551a082105882155095116032009511a07b10587b15507b16489515608411e0829a7b1a18829a087b1a10829a107b1a088299187b1964865010086b0182186f888219086f99821a106faa821b186fbb7b1b387b1a307b19287b18208379836a8317203308010a0450120a95880032009511e0fe7b1018017b1510017b160801951520018411e082c67b166082c6087b166882c6107b167082cc187b1c7882bc7b1c3882bc087b1c4082bc107b1c4882bb187b1b5033020c82ab7b1b1882ab087b1b2082ab107b1b2882aa187b1a308296829a087b1a829a107b1a088299187b191049115833000e28bb007b185850100eb5006f687b18980082186f887b1890008218086f887b1888008218106f887b1880008218186f887b18b8008218206f887b18b0008218286f887b18a8008218306f887b18a0008218386f887b18d8008218406f887b18d0008218486f887b18c8008218506f887b18c0008218606f887b18f8008218686f887b18f0008218706f887b18e8008218786f887b18e0008379811a58831780003308040a049551e0fe8210180182151001821608019511200132008b7910520931c8780883881f8488e05638000001253309bc0102390abc0102ae8a093d08bc0102013308d001028377c887073200009511f07b10087b158475010a02013d07b80102510507501010095010122201951140ff7b10b8007b15b0007b16a8009515c0008411e0491178491170491160800033074095186049116850101419fc49219800492190004921880049218000831780000a0b01821790008218980082198800821a8000d49808d4a707d48707520782003306d0010383670a033a07d801033908e001033a09d001036f77977a206f88988820d48a0a9877206f98978920d497079888204911387b18307b17289517409518207b1a2033001633029e03283a8600641733084050101851fa8217188218108219088216d49707d48609d47909989920d48707977720d49707510717003308d001028388330701330933001e0a08282a6467330850101ab3fe8377330833090a28f0f96467330850101ca0fe83783307330933001e0a0801951110fe7b10e8017b15e0017b16d8019515f001951190d88411e0641695691821491940491938491928800033074095684021491930501020f1fa3307b801027b6798013907b801025517040728aa54956700208377600133083300220a01019569182181976452475448d1910a280d2e5147b08852966c065247dffd17a20a2870305247b415dbb90a28a215956318295247cc87bdf00a28442d5247bfe715210a287e2c5147a39c8a241e05514718b70634f4075147a98d344ae506514762844e520a287f244929400549293805492930054929280595670020837740063300240a0b33022628b98500501226b5850082b73882b84082b93082ba28d49808d4a707d4870751070628794b5012287a8500ac7806287e4b95670020837760063308040a019567182195790005829860956a00017ba888008298587ba880008298507ba8788297487ba7703a07000002956a18117ba700013a070800023a081000023a091800027ba7f8007ba8f000956800127ba9e800330750102aaef9956718114927e0004927d8004927d00064793307209568e0114929c80050102c8cf93308bc01023907bc010256173f0b2003bc010240019517e08479e07b69680164913307d00102837783997b6890013308407b67980133002e0a06826a680133023028fb7e826a6801501230f47e3307d001037b67680183777b6738013300320a0333023428577f501234547f4929c0007b98b8007b97b0009568c0117b9aa800330750103605f982674001956818117b87a000826748017b879800826750017b879000648a3307209568a011826958017ba98800501038d3f882689001818756173f08480840019517e08477e07b67580150123acc800033003c0a0633023e28c47f50123ec17f83778001c867075010408bf9956a18117ca76851070628132f3a074000027ba7603a074800023a085000023a095800027ba7587ba850956860117ba948330750104261f89567181149174049173849173064793307209568401149192850104443f882689001818756173f08480840019517e08477e07b6760015012463c80003300480a06826a600133024a28c97d826a600150124ac27d8267380133004c0a0333024e28307e50124e2d7e4919207b98187b9710956820117b9a083307501050e2f782674001956818117b87826748017b87f8826750017b87f0648a33072095680011826958017ba9e8501052b5f782689001818756173f08480840019517e08477e07b675801501254ae7f3300560a0633025828a77e501258a47e8377e000c8670750105a6ef89567ff07957719017c77c80751070628f12d9567ff079577610733084050105c20f69569ff07959919018292600695980006828c58828b50828748d42b0ad4c708d4a808988820d4ca0a97aa20d4a808510806288b30492938064929300649292806140a00000000a079c3089568ff07958841077b9a40067b6798017b6b90017b6280017b6c880150105eeff6956c000182c8980082c7880082ca8000d47a0a140b00000000010000001407fcffffff000000005012609681005207062821308387049569ff0795991901492920064929180649290806209568ff0795882107492910067b6a88017b6b80015010628bf6956a000182a8980082a780009577dc501264e77f52070628d62f8387249569ff0795991901492900064929f8054929e805269568ff07958801074929f00550106648f695670001827a8800827b900082789800140900000000010000001407bcffffff00000000d8780794b794a7520706287c2f8387443a088000027b698001956cff0795cc190195cb00057bb8e0003a088800023a099000023a0a9800027bb8d8007bb9d0009568ff079588e1067bbac800501068d3f5956a000182a9980082a7800095779cd8790782a89000948782a88800948752070628142f8397643a08a00002956aff0795aa1901492ab805492ab0057ba8c0059568ff079588c106492aa80550106a82f5330884008267980150106cddf88378330701330984000a08014929e0004929d8004929d0004929c800956700208377e00133006e0a0b01956a182182a7d80082a8e00082a9d00082aac800d49808d4a707d4870751070628a346501270828000ac780628a84695670020837700023308040a01956a182182a9e80082a7f00082a8f80082aa00017b6a58027b6850027b67480295676002956840027b6940025010724a6582677802956800017b879800826770027b879000826768027b878800826760027b8780009567200233084050107474f3956b000282b73882b83082b92882ba20d49707d48a09d47909989920d48707977720d4970751070628e82d9569000182978000956b00027bb7829788007bb708829790007bb71095680002829798007bb71864a77b6a98013300fe01284df47b627801956700017b7c80007b7b88007b7a9000492900074929f8064929f0064929e80695670030837700f83300760a0b33027828527c5012784f7c82b7f80082a8000782b9f00082bae800d49808d4a707d48707510706289145826798018177561703072895459567801833084050107aa1f2956a181195ac000750127cd77d510706282d2d3a072000023a082800023a093000027ba760073a0738000295ac00077bc8587bc950956860187bc74864b77b6b98013300fe012890f3492900054929f8044929f0044929e80495670020837700060a0b01956a182195ab000482b7f80082a8000582b9f00082bae800d49808d4a707d48707510706280f45826798018177561703072813459568182149282005492818054928100549280805029567ff079577a1069568202650107e0ff49568ff0795881901958900058297a000956800017b879800829798007b879000829790007b878800829788007b8780009567ff079577810633084050208000a3f1956aff0795aa190195ac000550228200d47c51070628292c956900018297800095ac00057bc748829788007bc750829790007bc7589568ff0795886106829798007bc76064b77b6b98013300fe012889f27b627801956700017b7c80007b7b88007b7a90004929600149295801492950014929480195670020837760020a0b01956a182195ab000182b75882b86082b95082ba48d49808d4a707d48707510706281a4482679801817756176307281e449567002083778002330804330084000a013302860028a57d50228600a27d82a7800082a87882a970d4780a889b0194ab520b0628f943956a182182aa6801826b980180b295ac04d8ac0ac8a90bd89b09daaa09c88909d88908c8870a9567ff07957719014927600449275804492750047b724804957800047b8c687b8b707b8978647b9567ff079577a1059568ff07958881059569ff07959961057bba800450208800e9569568ff0795881901958900048297a0007b67b800829798007b67c000829790007b67c800829788007b67d000956700208377a00233082433008a000a0133028c0028d47c50228c00d17c82a7a00082a8980082a99000d4780a889b0194ab520b06283743956a182182aa8801826b980180b295ac04d8ac0ac8a90bd89b09daaa09c88909d88908c8870a9567ff0795771901492700044927f8034927f0037b72e803957800047b8c087b8b107b8918647b9567ff07957741059568ff07958821059569ff07959901057bba200450208e0016569568ff079588190195890004829740956800017b87708297387b87688297307b87608297287b8758956700208377c002330844330090000a013302920028057c50229200027c82a7c00082a8b80082a9b000d4780a889b0194ab520b06287942956a182182aaa801826b980180b295ac04d8ac0ac8a90bd89b09daaa09c88909d88908c8870a9567ff07957719014927a00349279803492790037b728803957800037b8ca8007b8bb0007b89b800647b9567ff079577e1049568ff079588c1049569ff079599a1047bbac003502094004455956bff0795bb190195bc000382c7e000956b00017bb75082c7d8007bb74882c7d0007bb74082c7c8007bb7383a082000023a092800023a0a3000027bb8287bc880003a073800027bb9207bc9787bba187bca709568ff07958881047bb7307bc7683307502096007aef9567ff079577190149276003492758034927500364793307209568ff079588610449294803502098004fef3308bc01023907bc010256173f0b2003bc010240019517e08479e07b69980164913307d0010283777b68000183993308407b67f80033009a000a06826a980133029c0028b278826a980150229c00ab787b6790016f877b6788016f977b6780016fa77b6778019517e08477e07b67980164713307d001037b67080183777b67b00033009e000a03826908013302a000288570826908015022a0007e709569ff079599190149294003959b00037bb8387bb7309568ff07958841047bba2833075020a2008aee826778019568ff0795881901958900037b9720826780017b9718826788017b9710648a3307209568ff0795882104826990017ba908035020a4004eee82680001818756173f08480840019517e08477e07b679001647183793308408267f8003300a6000a06826a90013302a80028c671826a90015022a800bf71826898017b8a187b89107b8b087b879567ff07957701045020aa00e5ee9567ff07957719017c77e802520706281640956718214927e0014927d8014927d0014927c801029567ff079577e1039568e0225020ac00acee9568ff0795881901958c000282c7e00082c9d80082cad00082cbc8009518e08488e0648195bc0188cb01c8ab0bd4bc0a88aa01c89a0ad89a09c897077b8a107b8b087b8c7b6be000d47b0b7b6cf0007b6ad800d4ac09d4b9097b67e8007b871852090628464095671821492700024927f8014927f0014927e80102956700235020ae009fee9567ff079577c1033308405020b000eaeb9568ff0795881901958c000282c7c0007b67880182c9b8007b69800182cab0007b6a900182cba8007b6b98017bc7a0007bc998007bca90009567ff079577a1037bcb88005020b2004550956b000182ba980082b7880082b89000d4870782b98000d49a08d47808988820d49707977720d48707510706280f268267f0009569ff0795991901959b00027bb7688267e0007bb7708267d8007bb7789568ff07958881038267e8007bb7800064a75020b40072ec956c000182c8980082c7880082ca8000d47a0a140b00000000010000001407e0ffffff000000005022b600187752070628a3257b6a8801838a208267d0009569ff0795991901959c00027bc7488267c8007bc7508267c0007bc7589568ff07958861038267b8007bc7607b6a780164a77b6b80015020b800f8eb956a000182a8980082a780009577c05022ba00537552070628412583874082685801956aff0795aa190195ab00027bb828826860017bb830826868017bb8389568ff0795884103826970017bb9407b67a8005020bc00a0eb95670020837720030a0701956a000182ac9800140900000000010000001407a0ffffff00000000d87c0782a89000948782a88800948752070628c824956a182195a70002827b088278107b698001827918827a2083c760956cff0795cc19017bca200295ca00027ba9187ba8109568ff07958821037bab087b67a0005020be001eeb8267b0003300c0000a030195690001829b980082978000957780d87b07829890009487829888009487520706285324826908015022c200126f83b78000956bff0795bb1901492b000295bc00017bc8f8007bc9f0009568ff07958801037bcae8007b6798005020c400b3ea956c000182ca880082c89800140b0000000001000000140760ffffff000000005022c600607552070628eb238387a0009569ff07959919014929e0014929d8014929d0019568ff079588e1024929c8017b67687b6b80015020c80056ea956a000182a8980082a78000957740ff5022ca00b073520706289e238387c00082683801956aff0795aa190195ab00017bb8a800826840017bb8b000826848017bb8b8009568ff079588c102826950017bb9c0007b67385020cc00f9e98267e8009569ff0795991901959a00017ba7a0008267d8007ba798008267e0007ba790009568ff079588a1028267f0007ba7880033075020ce00bde99568ff07958819014928800149287801492868010164893307209568ff0795888102492970015020d00091e99517e08477e07b679001647182690001819756173f08480940019517e08477e07b678801647183793308408267f8000a06826a880182a71882a81082a90882aa6f7c7b6c786f8b7b6b80006f987b6890006fa77b678800826990017b97187b98107b9b087b9c9567ff0795776102826898015020d200dfe7956aff0795aa190195ab000182b76082b85882b95082ba48956b182195bc00027bc7407bc8387bc9307bca2895684023826790015020d40049ea9517e08478e06481826978959901889701826a8000c87a0ad4a907887701826c9000c87c0bd8cb07826c8800c8c7077b6748017b87187b6b38017b8b107b6a40017b8a087b68607b6950017b899567ff0795774102826878015020d60046e79567ff0795771901957c000182ca4082cb3882c93082c828956c00017bc9307bca28d4a907d4b809d479099899207bcb20d4b707977720d4970751070628a4219567ff07957721027b6818015020d800f4e69569ff079599190195970001827b20827818827a108eb78e8cdbb70c7b6a10018ea77b68587b6b50d4b8087b67287b6c307b6848db8c07510706281145829708017b67709567ff07957701028268605020da00cbe8956bff0795bb190182b9e80082b7f00082b8f80082ba00017bbac0007bb8b8007bb7b0009567ff079577e1019568ff079588c1017bb9a8005020dc00dd509567ff0795771901827ae000827bd800827cd0008272c8008ea78eb8dba7088ec7882920859901dbc709d4ab07db78098267708877207b674052090628c1207b6270017b6c78017b6b90017b6a80019567ff0795771901826850017b788800826840017b789000826838017b7898009568ff079588a101826948017b79a00033075020de0014e782690001819756171f08480920019517e08477e07b678801647183793308208267f8003300e0000a068267703302e2002824718267705022e2001e71826b58c8ba0a7b6a680197aa3b989b05d4ab0b8267880182721897993b827710988805d489096f246f7782684094c8826a4894a8948b9489c89402d84209c8970cc8cb0b7b6b9801d37b0cd87b0adac90a7b6a60018269700195901fd8900b826a7801c8ba09d8a90cdabb0c82639001c8c303973b3b989a05d4ba0a97993b980b05d4b909c849097b697801d8490b6424c8b709c8a909d3790a7b697001d87909daab09826b6801826758d87b07826a50c8a70798ba05977b3bd4ba0a826b880182b282bb08987705948a94876fb86f2bc8b707c88a0ad88a0cc8c70782606001c8a000d8a00ac8a70282679001d87307826a8001c8a707983a05977c3bd4ca0a987705c8b707956c000182cb9800c88a0ad88a08c88707c8a9097bc968d8a908c887077bc7609517e08473e064317b6358010182677801d8740782697001d39b08d89b09da8709826c6801d8c007826a6001d3a208d8a20ada870ad3c007d48707da790a7b347b3b087b30107b3218520a0628c71e95671821492760024927580249275002492748029568602364377b6490017b6b98017b6288017b6080015020e4009ce68263580182628801826b980182649001954401884701c87b0bd4b40788770182688001c88707d88708c8820264702860ff4929400749293807492930074929280795670030837740f83300e6000a0b3302e800285f705022e8005c7082b73882b84082b93082ba28d49808d4a707d48707510706281d385022ea001470ac780628223895670030837760f83308040a0195671821957900078298607b6860018298587b6868018298507b6870018297487b677801956700203308405020ec0037e395681819828700077b678801958c000682c9f8007b69800182cbf0007b6b900182cae8007b6a98017bc7e0007bc9d8007bcbd0009567e01f7bcac8005020ee009a47956a000182a7880082a89000d4870782a9800082a89800d49808d47808988820d49707977720d4870751070628641d956718194927c0064927b8064927b0069568c01f4927a806826798015020f000dee3956b000182b7880082b98000d47909140a00000000010000001407e0ffffff0000000082b89800d8780782b8900094879497520706280a1d82679801837720956818197b69880164894928a0064928980649289006330b609568a01f7b9b88067b6a80015020f20074e395690001829780009577c05022f4004e6c52070628c11c8267980183774095691819492980064929780649296806609568801f492970065020f60037e3140900000000010000001407a0ffffff00000000956a000182a89800d8780782a89000948782a888009487520706286a1c82679801837760956818197b69800164894928600649285806492850069568601f492948065020f800dbe295690001829780009577805022fa00b56b52070628281c8267980183778000956918194929400649293806492930069568401f492928065020fc009ee2956b000182b98800140a0000000001000000140760ffffff0000000082b89800d8780782b890009487949752070628d11b826798018377a000956918194929200649291806492910069568201f492908067b6a80015020fe0043e29569000182978000957740ff502200011c6b520706288f1b826798018377c00095691819492900064929f8054929e805609568001f4929f0055020020104e2956a000182a76095691819959b00057bb7e00082a7687bb7d80082a7707bb7d0009568e01e82a7787bb7c800330750200401d0e1956718194927c0054927b8054927b005647a3307209568c01e492aa8050150200601ace13308bc01023907bc010256173f0b2003bc010240019517e08479e07b69900164913307d00102837783997b6898013308407b678801330008010a06826a900133020a01288669826a900150220a017f6995bc00077bca80007bc9787bc8707bc7689567a01e9568802850200c012fe2956b181995bc000582c7980082c8a00082c9900082ca8800d49808d4a707d487078e77492b8005492b78057bc7689567801e492b700550200e0167528267600195691819959a00057ba760826768017ba758826770017ba7509568601e826778017ba748330750201001d1e09568181950221201126c9568401e4929300550201401b9e0826898019517e08477e07b6790016471818756173f0e4808403302160128ac6b50221601a96b826788010a06826a980182a71882a81082a90882aa6f7c6f8b6f976fa87b686801826990017b98187b6770017b97107b6b60017b9b087b6c58017b9c9567201e3308405020180110df95681819958c000582c7207b67800182c9187b69780182cb107b6b880182ca087b6a98017bc7958c00047bc9f8007bcbf0009567001e7bcae80050201a0175439567e01d8268900150201c01eee0956a000182a7800082a88800d4870782a97882a89800d49808d47808988820d49707977720d48707510706283219956b181995bc000482c7e00082c8d80082c9d00082cac8007bcaa8007bc9b0007bc8b8009568c01d7bc7c0008267980150201e0198df8267580195770188780182696001c89808d48709889901826a7001c8a909d8a90a826b6801c8ba0a956b181995bc00047bc9787bc8707bc7689567a01d9568801d7bca8000330020013302120428eb69956b000182b7800082b978d47909140a00000000010000001407e0ffffff0000000082b89800d8780782b8880094877bb990009497520706287118956b181982b2a00495bc000482c8980082c990007b6a800182ca8800826798018377207bca487bc9507bc8589568601d7bb260047b67780150202201cfde82685801958702502224018e65958c00047bca187bc9107bc70864899567401d9568201d7b9b20043300260133021204283f6995690001829780009577c050222801ec6452070628e917956c181982c2400495c70004827838827930827a288267980183774095cb00037bbae8007bb9f0007bb8f8009568001d7bc200047b67500150202a0147de8268580195870350222c01b0647bc990007bc788007bca98007bc8a0009567e01c9568a02850202e010edf14070000000001000000956900017b9780001407a0ffffff00000000502230015b64520706285817956c181982c2e00395cb000382b8d80082b9d00082bac800826798018377607bbaa8007bb9b0007bb8b8009568c01c7bc2c0037b67480150203201b7dd826858019587045022340120647bc9b0007bc7a8007bcab8007bc8c0009567a01c9568c028502036017ede956900018297800095778050223801dc6352070628d916956a181995ac000382c9980082cb900082c888007b6940019799209899208267980183778000492a80037bc8687bcb709568801c7bc9787b67380150203a0134dd14070000000001000000956900017b978000140760ffffff0000000050223c017363520706287016140700000000ff00000082684001d287078e79826798018377a000956a1819492a6003492a5803492a50039568601c7ba948037b67400150203e01cfdc82685801958705502240018e63958c00037bca187bc9107bc70864899567401c9568201c7b9b20033300420133021204283f679569000182978000957740ff50224401eb6252070628e815956c181982cb400382c8380382c9300382ca2803826798018377c0007bcae8027bc9f0027bc8f8029568001c7bcb00037b676801502046014adc9567e01b3308405020480103db33024a019568181901958b000282b9e00082bad80082b7d00082b8c800956b00017bb788007bb98000d497077bb89000d4a808d478089888207bba70d4a707977720d48707510706285615956918194929c0024929b8024929b0029568c01b4929a802208267900150204c01cfdb9567a01b8268980150204e0187da956a000182a7800082a870d47809140700000000010000007ba7601407e0ffffff0000000082a89000d8780782a8880094877ba99800949752070628e714956c181982c2a00295c9000282989800829a9000829b8800826790018377207b9b687b9a707b98789568801b7bc28002502050014ddb9567601b826878015020520105da956900018297609577c0502254012a60520706288d1495691819959a000282a7607b67300182a7587b67580182a7507b67600182a7487b677801826790018377404929400249293802491a28e0009568401b4929300250205601e3da8268900195870001d88708826a8801c88a09d8a90ada880a82687001c88a0ad88a08826b8001c88b0b95681819958c00017bc9d0007bc7c800826730017b870002826758017bc7f800826760017bc7f000826778017bc7e8007bcad800648a9567201b9568001b9569e01a7babe00150205801a24833025a019568181901958900028297207b6730018297187b6758018297107b6760018297087b6778019567c01a8268500150205c01fdd814070000000001000000956900017b97501407a0ffffff0000000050225e01115f520706287413956818198287c0017b6720018287b8017b6728018267900182687801d878096474826a8801826b6001d3ab02d8ab07da29078263700182625801c93200c9ab0ac99a0bc9480a95a9e0d8a90cc8cb0a95aaffd3ba08d8ba0bda8c0bd83202826c800182683001c9c80cc92c0cd87008c98c0c956218198228b0017b681001c97007887801c98c0c8228a8017b6818019577ffc87b0bd87b07c87c0c8347607b298801952900017b9a90007b9b98009568a01a7b9ca0005020600154d99567181982683001957900017b9840826858017b9838826860017b9830826878017b9828826820017b9860826828017b9858826810017b9850647b9567801a9568601a9569401a826a18017bba480150206201334733026401956818190195890001829780007b6730018297787b6758018297707b6760018297687b6778019567201a82684801502066018dd79569000182975095778050226801b25d520706281512956c181982c2200195c70001827818827a10827b0882679001837780007bcbe8007bcaf0007bc8f8009568001a7bc2000150206a017ad89567e0198268380150206c0132d714070000000001000000956900017b9750140760ffffff0000000050226e01465d52070628a911956c181982c8d80082c9d00082cac800140bffffffff00000000d28b0b8499ff84aaff826790018377a000492cc0007bcaa8007bc9b0009568c0197bcbb8005020700100d89567a0198268400150207201b8d695690001829750957740ff50227401dc5c520706283f11956b181982b7a00082b8980082b9880082ba9000d49808d4a707d487078e78826790018377c000492b8000491b787bb86895688019491b70502076019dd795676019826868015020780155d6140720ffffff000000009569000150227a01765c52070628d910956818198287607b6768018287587b6798018267900182687801d87809648c6474826a8801826b6001d3ab08d8ab07da89078263700182625801c93200c9ab0ac99a0bc94c0a95a9e0d8a90cc8cb0a95aaffd3ba08d8ba0bda8c0bd83202826c800182683001c9c80cc92c0cd87008c98c0c956218198228507b684801c97007887801c98c0c8228487b6850019577ffc87b0bd87b07c87c0c8347e0007b292864297b9a307b9b38956840197b9c4050207c01c0d69567181182683001957900077b98e000826858017b98d800826860017b98d000826878017b98c80095671819826868017b78826898017b78f8826848017b78f0647b95672019956800199569e018826a50017bbae850207e0199449568181901828710828220828308828a1882688801d3870bd8870c648082649001d84308dab80c82697001c99a0bd89a0a82698001c99209c9a909d8cb0ac9a909c9cb0bc90707c98707c94308d497076489d4b808d47808d4b707988820977720d48707510706285f0f8267900164987b6998013300c801284fd95147200bcc7a0a286429492900064929f8054929f0054929e8059567002083770007330080010a0b33028201283161502282012e6182b7f80082a8000682b9f00082bae800d49808d4a707d48707510706287c2950228401ef60ac78062881299567002083772007330804330086010a013302880128ab5d50228801a85d82b70882b81082b91882ba20956b181195bc00057bca607bc9587bc850956860167bc748330750208a0140d59568181150228c018160956840164929300550208e0128d59517e08477e07b67780164713908bc010256183f0b2003bc010240019517e08479e07b69980164913307d00102837783993308400a06826a980182a71882a81082a90882aa6f7c7b6c88016f8b7b6b90016f997b6980016fa77b679801826878017b87187b89107b8b087b8c9567201650209001a4d5956b181195b800058287207b6778018287187b6770018287107b6768018287087b6760018267880195770188780182699001c89808d48709889901826a8001c8a909d8a90a826c9801c8ca0a95bc00047bc8d0007bc7c8007bc9d800956700169568e0157bcae000330092013302120428e25e956c181182c700057b67400182c7f8047b67480182c7f0047b67500182c7e8047b6758018267880195790250229401565b7bb7a0007bba98007bb890009567c0159568a0157bb988003300960133021204288e5e50229801235f8297c0007b6720018297b8007b6728018297b0007b6730018297a8007b6738018268880195870350229a01595a7bc8407bca387bc9307bc728956780159568402750209c0190d450229e01d65e829780007b6718018297787b6710018297707b6708018297687b670001826888019587045022a0010f5a7bc8607bca587bc9507bc74895676015956860275020a20146d4956c181182c758047b67f80082c750047b67f00082c748047b67e800826788019579055022a401735a7bb7207bba187bb81095674015956820157bb9083300a6013302120428af5d5022a801445e8297407b67c8008297387b67d0008297307b67d8008297287b67e000956700153308405020aa01a3d195691811829b0004959a000382acf80082a8f00082a7e8007b689801d4b80ad4c708d4a808988820d4ca0a97aa20d4a80852080d0c826860017b98c803826868017b98d003826870017b98d8039568e014826a78017b9ae0037b6790017b6b88017b6c80015020ac0172d282628001826a880182689001d4a20c140b00000000010000001407e0ffffff00000000d8780782699801949794c75107a50b838720956918114929c0034929b8034929a803e0009568c0144929b0037b6c78017b6b70015020ae0115d2826790019577e00082689001d88708826a98015022b001965a95681811958c00037bc9507bc748826740017bc78000826748017bc778826750017bc770826758017bc7687bca58648a9567a01495688014956960147bab60035020b201ea3f956a000182a8900082a7709577c05022b401025b5107030b9567181182738803827b90038274a0037b64680182709803d883027b635801826a9801d3ab08d8ab0964b77b6b600164acda8209826a80017b607001c9a008d8a00a826b8801c9b40bc9ab0bd8980ac9ab0bc99808c9c709c9290982679001c9730a82679001837740956c18117bca280395ca00037ba9307ba838956840147bab405020b60116d19568181182676801958900027b97e000826770017b97d800826760017b97d000826758017b97c800826720017b870003826728017b97f800826730017b97f000648b95672014956800149569e013826a38017bbae8025020b801ee3e956b000182b89000140a00000000010000001407a0ffffff00000000d8780782b99800949782b97894975107f10995691811959b000382b7207b67500182b7187b67580182b7107b67600182b7087b67680183876082680001959b00027bb8a800826808017bb8b000826810017bb8b8009568c0137b6a7001826a18017bbac0005020ba0133d0956a000182a8900082a7709577805022bc017f59510780098267f80097772098792083878000956a1811492aa0028268e80095ab00027bb888008268f0007bb890009568a0137bb998005020be01e3cf956c000182ca7882c99000140b0000000001000000140760ffffff00000000d8790782c89800948794a751071a09140700000000ff0000008268f800d287078e788397a0009569181149298002492978027b98680295688013492970027b6b70015020c0017ccf956a000182a8900082a770957740ff5022c201c7585107c80882696801d889036492826a9801826b6001d3ab08d8ab0964b764acda8309826a8001826b5801c9ab08d8ab04826b8801826a5001c9ba0bc94b0bd8980ac9ab0bc99808c9c709c9390982679001c9720a826790018377c000956c18117bca480295ca00027ba9507ba858956860137bab605020c401ecce9568181182675001958900027b9782675801958a00017ba7f800826760017ba7f000826768017ba7e8008267c8007b97208267d0007b97188267d8007b9710648b956740139568201395690013826ae0007bba08025020c601c53c95671811827830028272400282732802827a380282679801d3780bd8780c647082679001d87304dab40c82678001c97a0bd87a0a82678801c97209c9a909d8cb0ac9a90982679001c9cb0bc90808c9480ac97308d4a909d4b80ad49a0ad4b90998aa20979920d4a909520989077b6898015020c80182d183788169980133070a082893044929c0004929b8004929b0004929a800956700208377c0010a0b01956a182182a7b80082a8c00082a9b00082aaa800d49808d4a707d4870751070628d7218267980181775617030728db219567e0013308405020ca017bcc956b000182baf80082b8f00082b9e80082b7e000d49a0ad48709d4a909989920d4a808978820d498085208ed063a08400002956b00017bb8d8003a0a4800023a085000023a095800027bbad0007bb8c8009568c0017bb9c0007b6798013300fe01284ecd49132049131849131049130895670030837720f90a0b01956a182982a71882a82082a91082aa08d49808d4a707d4870751070628452182679801817756170307284921956720213308405020cc01c7cb956a182182ab2082a81882a91082a7085022ce016c5652084c063a080000027ba83a0b0800023a081000023a0918000295ac00ff7bcbf8007bc8f000956800217bc9e8007b6798013300fe0128afcc4929c0064929b8064929b0064929a806956700208377c0073300d0010a0b3302d20128c6545022d201c3545022d401615751070628c720826798018177330843ac780628c920956740183300d6013302d2032810589568181195890007829738956800017b8788008297307b8790008297287b879800956700208377e0073308043300d8010a013302da01285d545022da015a5482b7c80082b8d00082b9d80082bae000956b181195bc00077bca207bc9187bc810956820187bc70833075020dc01eecb95671811492700074927f8064927f0066479330720956800184929e8065020de01cbcb3308bc01023907bc010256173f112003bc0102403302e00128a8565022e001a5563307d00102837783997b6880013308407b6778013300e2010a06826a70013302e401282e55826a70015022e40127557b6768016f877b6760016f977b6758016fa77b6750019517e08477e07b677001647182678801977720987720956918114929e006959a00067ba7d800826790017ba7d0009568e017826798017ba7c80033075020e60123cb8267500195681811958900067b97c000826758017b97b800826760017b97b000648a3307209568c017826968017ba9a8065020e801ecca82688001818756173f0e4808403302ea0128eb555022ea01e855826778013300ec010a06826a98013302ee0128694e826a98015022ee01624e826870017b8a187b89107b8b087b879567a0175020f0018ccb95671811827788067b679801956780173308405020f20147c9956a181195ac000682cb800082c87882c97082c7685022f401e7535208c7037c6898018e88492a6006492a58067ba8480695686017492a50067b6798013300fe01283aca4929200749291807492910074929080795670030837720f83300f6010a0b3302f801289b555022f801985582b71882b82082b91082ba08d49808d4a707d4870751070628651e8267980181775617030728691e9567c0183308405020fa01a3c8956a181195ac000782cbc00082c8b80082c9b00082c7a8005022fc01405352082003492aa007492a9807492a90079568a018492a88077b6798015020fe019dc93308208267980150200002f8cc837833092033070a08280a33092033070a08019569ff079599190182677001959a00077ba7a800826778017ba7b000826780017ba7b8009568c010826788017ba7c00033075020020245c99567ff07957719014927a0074927980749279007647a3307209568a010492a880701502004021dc982689001818756173f08480840019517e08477e07b676001502206021551330008020a06826a600133020a02280e51826a600150220a02075195bc00057bca80007bc9787bc8707bc768956780109568802650200c02b7c9956bff0795bb190195bc000782c77882c8800082c97082ca68d49808d4a707d487078e77492b6007492b58077bc74895676010492b500750200e02ee39826788019569ff0795991901959a00077ba740826780017ba738826778017ba73095684010826770017ba72833075020100254c89568ff07958819014928200749281807492808070164893307209568201049291007502012022cc8826890019517e08477e07b6760016471818756173f08480840019517e08477e07b6790015022140218500a06826a900182a782a80882a91082aa186f776f886f996faa95ab04d8ab0ac8a90cd89c09daaa09c88909d88908c88707826860017b8b7b8c087b89107b87189567001050201602aac8956aff0795aa190195ab000682b7e80082b8f00082b9f80082aa0007140bffffffff00ffffffd2b909140b00000000010000007b6b9001d4b909956b182195bc00057bcaa0007bc890007bc788007bc998009568a0268267600150201802c2c89567ff079577e10733084050201a020dc69569ff07959919018292e00695970006827cd800827bd000827ac800d42b07d4ca08d47808988820d4c707977720d48707520777826770017b97a806826778017b97b006826780017b97b8069568ff079588c107826788017b97c00664a77b6a60017b6b88017b6280017b6c780150201c02d3c68267380133001e020a0301956a000182ab6082a7800082a878d4870782a890009588e0d88b0882a988009498947851080628941b00826740857701826b1001826828dbb807826830826948db9807826350d43b0482695898983f7b684897330198bc3f97920182687098803f97bb01978a017b6a507b6c405107e9017b64107b62187b6b207b60287b63308488e07b6810019567ff0795771901826850017b7848826840017b7850826838017b78589568ff0795886101826948017b79603307502020020dc650222202bd4e5020240269c950222602934d0a064926900120330c492698014926880149267801502228026a496472826870017b87187b6050017b80107b84087b837b62680150222a02b44c82679001c87808826a3001c8ac008269200182679801c879098267280164ca826c8801c8c707520b4e01826b9001d8b80bc8b000d3a0027b6a3801d8a00cda2b0cc89c0cd89c02826a9801d8a909c89707c8270750222c02a84e5207c8fe9567400450202e021fc4956b000482b75882b85082b94882ba40956b182195bc00027bc780007bc8787bc9707bca6895688023826770015020300290c68263480195330188370182644001c87404d4430788770182685001c87800d8800882676801c88707826890019589207b696801d8890a82683801c8a8097b694801d8890bdaaa0b82689801c8b80ad88a0b82688801c8b8087b68880182687801958b20d88b0c82695801c8c908d89809dacc09826c6001c8c909d8c90c82628001c8c2027b62800150223202724e64727bc7187b605001826768017b679001826c48017b6a9801648a7b62680133022a0228624b826c48d49807d44707520729014926800149267801492688014926900164c4826740289301826b70826c1001d3cb0b826c58d4cb0b826c10d4cb0b510bb70064a3826b9001d8b80bc8b00ad33a02d83a0cda2b0cc89c0cd89c02826b9801d8b909c89707c8270750223402664c520766fd9567ff079577410150203602b9c29567ff07957719018278407b6890018278387b6888018278307b6880018277287b67780182677050223802a34b50203a02b44f50223c02524d50203e02824f50224002414950204202764f50224402204595bc00027bcaa0007bc998007bc890007bc788009568a0238267700150204602eac4826748826830d48707826840826918d49808826928826a20d4a909826a5095aa01956b182195bc00027bcaa8007bc9b0007bc8b8007bc7c0003307c0232807017b62187b6b207b60287b6330956b000182b72882b820d487071408e0ffffff0000000082b918d8890882ba3094a89478510871fc8398209567ff079577810150204802c1c19567ff079577190182788000956900017b9890008278787b9888008278707b98788277687b978000826870826448826330826028826740826b2082621801d472077b677001d443077b676801d40b077b6760019789037b6998018d9980003307ff3308ff50204a02854e7b6740017b6858018267708a79033307ff3308ff50204c02454e50224e02e94a50205002394e502252027745826b50d4b707956c0001502254029e4a95bc00027bc9d8007bcae0007bc8d0007bc7c8003307e02301c87608826760502056029ac39517e08479e06491826778957a0250225802bc4dc8870cd87c0782688800c887077b6c38017b9c107b6b48017b9b087b6a50017b9a7b69607b6740017b97189567ff07957721018268a80050205a02a5c09568ff0795881901828920828a18828710828808956b00017bb7307bb928d49707d4a809d479099899207bba20d4a707977720d4970752070afb9567ff07957701017b68180150205c0259c09567ff0795771901827a8278f895670010827908f98ea78e8bdba70b7b6910018e977b68707b6a58d4a8087b67307b6b407b6850db8b0751070628782095670010827700f97b67a8009567ff079577e10082686050205e022bc2956700108279e0f8956700108277e8f8956800108288f0f8956a001082aaf8f8956b00107bbab8f8956a00107ba8b0f8956800107b87a8f89567ff079577c1009568ff079588a100956a00107ba9a0f850206002252a95670010827ad8f895670010827bd0f895670010827cc8f8956700108279c0f850226202cd457b67485109040282675001956800107b8780f882674801956800107b8788f882673801956800107b8790f89568ff079588810082674001956900107b9798f833075020640276c082670001817756171f12826800014808203302660228ea4a50226602e74a330068020a068267a80033026a02288a4a8267a80050226a02834a826b7050226c02a34782684894c8826a5094a8948b9487c87402d84207c8790cc8cb0b7b6b9801d39b0cd89b0adac70a7b6a288267780195701fd8700b826a8001c8ba07d8a70cdabb0c82639001c8c303973b3b987a05d4ba0a97773b980b05d4b707c847077b677001d84707642450226e02c848826770d87b07826a58c8a70798ba05977b3bd4ba0a826b600182b282bb08987705948a94876fb86f2bc8b707c88a0ad88a0cc8c707826028c8a000d8a00ac8a70282679001d87307826a8801c8a707983a05977c3bd4ca0a987705c8b707956c000182cb9800c88a0ad88a08c88707c8a9097bc960d8a908c887077bc7589517e08477e07bc7900064710182677001d8740782696801d39b08d89b09da8709826c6001d8c007826a5801d3a208d8a20ada870ad3c007d48707da790a7b648801826790017b747b6b98017b7b087b6078017b70107b6280017b7218510a3795671821492700034927f8024927f0024927e80295680024826790015020700232c050227202b54682628001c882026470287cff826748857701826a1001826830dba807826840826950db9807826b58d4ba087b685082687098893f7b694897b9017b694098a93f7b69289788017b68188268a80098893f7b693097a9017b69209789017b695851076f018488e07b68100182675001956800107b8740f882674801956800107b8748f882673801956800107b8750f89568ff0795884182674001956900107b9758f833075020740219be50227602c9465020780275c150227a029f4533007c020a0633027e0228524850227e024f485022800278416472826870017b87187b6050017b80107b84087b837b62680150228202c24482679801c87808826a3001c8ac008269200182679001c879098267280164ca826c8801c8c707520bd800826b9801d8b80bc8b000d3a0027b6a3801d8a00cda2b0cc89c0cd89c02826a9001d8a909c89707c8270750228402b6465207d6f69567a004502086022dbc956b000482b7b80082b8b00082b9a80082baa000956b182195bc00037bc7207bc8187bc9107bca089568202482677001502088029bbe50228a02713f82628001c8c2027b62800150228c02f44664727bc7187b605001826768017b679801826c48017b6a9001648a7b6268013302820228e443826770d48707826850d4870752072901492680014926780149268801492690012885018263900182629801826ba800826c1001d3cb0b826c70d4cb0b826c50d4cb0b510bb70064a4d8280bc8b00ad34a02d84a0cda2b0cc89c0cd89c0bd83909c89707c8b70750228e02e9445207e9f59567ff07957721502090023dbb95670010827738f87b67900195670010827730f87b67880195670010827728f87b67800195670010827720f87b6778018267a800502292021a44502094022b4850229602c94550209802f94750229a02b84150209c02ed4750229e02973d95bc00037bca407bc9387bc8307bc72895684024826770015020a00265bd826748826840d48707826828826918d49808826930826a20d4a909826a5895aa01956b182195bc00037bca487bc9507bc8587bc76033076024280801956a000182a72882a820d487071408e0ffffff0000000082a918d8890882a930949894785108fcf4826718018378209567ff079577615020a20249ba95670010827778f8956800017b87900095670010827770f87b87880095670010827768f87b877895670010827760f87b87800001826728826818d487077b677001826748826840d487077b676801826730826820d487077b6760018268a8009788037b6898018d8980003307ff3308ff5020a40201477b6740017b6858018267a8008a79033307ff3308ff5020a602c0465022a80264435020aa02b4465022ac02f23d826b58d4b707956c00015022ae02194395bc00037bc9787bca80007bc8707bc7683307802401c876088267605020b00218bc9567ff079577018268a0005020b20263b995670010827200f895670010827308f895670010827410f8826778957a03d87a0b82678000c8b70cd87c07dabb0795680010828b18f8956918217b9c9003959c00037bca880082689000c887077bc79800d8870782688800c887077bc7a0007bcbc0007b94b8037b93b0037b92a8039567a0249568c0245020b4028abb9517e0847ce064c1826878958704d88708826a8000c88a09d8a90ada880a82689000c88a0ad88a08826b8800c8b8087b6c98017bc8187bca107bc9087bc79567e007826898005020b6029ab88267e0077b6790018267e8077b6788018067f0077b6780019567c007826898015020b802a0ba8067d4079777208268d80782698001d4970795691821826a8801959b00037bbad000826a90017bbac8007bb8e0007bb7d8009568e024826798015020ba02d8ba9567a0078268685020bc0227b88267b8078268a8078269b007826aa007d48707d4a909d497078e777b67900195678007826898015020be0226ba826780078268880782699807826a9007826b900197bb20140cffffffff00ffffffd2ca0ad4ba0a956b18217bb9000495b900037b98f0007b97e8007b9af80095680025826798015020c00251ba9517e08479e06491826778957a055022c2027344c87808d87807826c8800c8c7077b6740017b97187b6838017b98107b6b48017b9b087b6998007b6a50017b9a956760078268385020c40260b7956b000782b97882ba7082b76882b860956b00017bb7287bb920d497077bb830d4a808d478089888207bba18d4a707977720d4870751070628c3f195674007826830015020c60217b795670007827a588279508278488ea78e9bdba70b7b68a0008e877b6990007b6a8800d4a9097b67707b6b787b691001db9b07510706288017826740077b67a80095672007826898005020c802f5b8826920078267280782683007826a3807956b00067bbaf8007bb8f0007bb7e800956700079568e0067bb9e0005020ca02132195670007827a18827b10827c0882795022cc02cc3c7b6780005109fe0182675001956900067b97c000826748017b97c800826738017b97d0009568c006826740017b97d80033075020ce0284b782670001817756171f12826800014808203302d00228f8415022d002f5413300d2020a06018267a80095781fd87807826ca000c87c09d8c90ada770a826b90005022d402ad3e8268800094c8826a100194a8948b9487c87402d84207c8790cc8cb0b7b6b9801d39b0cd89b0adac70a7b6a00018267780195701fd8700b826a8001c8ba07d8a70cdabb0c82639001c8c303973b3b987a05d4ba0a97773b980b05d4b707c847077b677001d8470764245022d602cf3f82679000d87b07826a8800c8a70798ba05977b3bd4ba0a826b600182b282bb08987705948a94876fb86f2bc8b707c88a0ad88a0cc8c70782600001c8a000d8a00ac8a70282679001d87307826a8801c8a707983a05977c3bd4ca0a987705c8b707956c000182cb9800c88a0ad88a08c88707c8a9097bc960d8a908c887077bc7589517e08477e07bc7900064710182677001d8740782696801d39b08d89b09da8709826c6001d8c007826a5801d3a208d8a20ada870ad3c007d48707da790a7b648801826790017b747b6b98017b7b087b6078017b70107b6280017b7218510a37956718214927200449271804492710044927080495682025826790015020d80236b75022da02b93d82628001c882026470287cff826780008577018268a000826970db890782687882691001db9807510783018267a8008477e07b67100182675001956900067b978000826748017b978800826738017b97900095688006826740017b97980033075020dc0260b55022de02103e5020e002bcb85022e202e63c3300e4020a063302e60228993f5022e602963f5022e802bf386472826870017b87187b6050017b80107b84087b83017b626801826710017b6b7801d87b07857b017b6a580194ab017b69600182678001d49707947b018268300182679801c87808826a2801c8ca0a8269180182679001c879098267200164c0826c8801c8c707520be200826b9801d8b80bc8ba0ad30a027b603801d80a0cda2b0cc89c0cd89c02826b9001d8b909c89707c827075022ea02fb3c7b6348017b64400151070628f0ed956700055020ec0248b3956b000582b71882b81082b90882ba956b182195bc00047bc7407bc8387bc9307bca2895684025826770015020ee02bbb55022f002913682628001c8c2027b6280015022f202143e64727bc7187b605001826768017b679801826c48017b6a9001648a2800ff8267a80082689000d487078268a00082698800d49808d487075207300149268001492678014926880149269001287f018264900182639801826ba800826c1001d3cb0b826c9000d4cb02826ca000826b8800d4bc0cd4c20b510ba400d8380bc8ba0ad30a02d80a0cda2b0cc89c0cd89c0bd84909c89707c8b7075022f402fd3b51070628faec956760065020f60252b2956800068287787b6790018287707b6788018287687b6780018287607b6778018267a8005022f8023f3b5020fa02503f5022fc02ee3c5020fe021e3f50220003dd3850200203123f50220403bc3495bc00047bca607bc9587bc8507bc7489568602582677001502006038ab48269900098973f82688800978801d48707826aa00098a83f979901d49808826ba80098b93f97aa01d4a90997ba0195aa01956b182195bc00047bca687bc9707bc8787bc7800033078025286c01956a000182a72082a818d487071408e0ffffff0000000082a930d8890882a92894989478520806280dec826730018378209567a006502008035eb1956800068287b800956900017b9790008287b0007b9788008287a8007b97788287a0007b978000018269a00098973f826a900097a801d487077b67700198a73f82688800978801d487077b676801826aa80098a73f979801d487077b67600197a7017b67580197a8037b6898018d8980003307ff3308ff50200a030f3e7b6738017b6850018267a8008a79033307ff3308ff50200c03ce3d7b6748017b68400182683801d487077b673801826798018379803307ff3308ff50200e03a83d826b980188b98000826a3801db9a07826c4001826a5001d4ca0ada980a93b7ff93baff939c826b4801939b82687801e0a80882698001e0790782698801e0b909826a9001e0ca0a956c000182cb58d4b70750221003cc3995bc00047bc998007bcaa0007bc890007bc788003307a02501c876088267980050201203c7b2956740063308405020140316b0956b000682b95882ba5082b74882b840956b00017bb790007bb98800d497077bb89800d4a808d478089888207bba8000d4a707977720d487075107062875ea8267f000956900067b97208267e0007b97288267d8007b9730956820068267e8007b97388267980150201603e3b0956a000182a7880082a88000d47809140700000000010000007ba7701407e0ffffff0000000082a89800d8780782a8900094877ba97894975207062809ea826798018377204926180649261006492600066095680006492608065020180383b082689801958760d88708826a900150221a0309397b69a8057b67a0058267b8007b67d8058267c0007b67d0058267c8007b67c8058267d0007b67c0057b6ab0059567e0059568c0059569a0057b6bb80550201c03611e956800058287f8007b6758018287f0007b6750018287e8007b6760018287e0007b6768018267b00033001e030a0301956900018297709577c082989800d8780782989000948782987894875207062840e98269080150222003ff338267980183774049269805956b00057bb890007bb98800956880057bba800050202203adaf8262680182609801d80203826c900182686001d3c80ad8c809daa309826a8001826b5001c9ab07d8ab04826b8801826a5801c9ba0bc94b0bd8970ac9ab0bc99709c9c808c93807c90208d4b707d4980ad47a0ad4970798aa20977720d4a70751070628ace83a07a800027b6778053a07b000023a09b800023a0ac000027b6770057b696805956960057b6a60058267980150202403e9b09567400533084050202603cfad956a000582a75882a85082a94882ab40d49707d48b09d47909989920d48707977720d497075107062842e864ba8267f000956900057b97208267e0007b97288267d8007b9730956820058267e8007b973864a77b6a98013300fe0128a8ae3308d00102838833070133090a082881083308d00102838833070133090a082870083308d00102838833070133090a08285f083308d00102838833070133090a08284e083308d00102838833070133090a08283d083308d00102838833070133090a08282c083308d00102838833070133090a08281b083308d00102838833070133090a08280a083308d00102838833070133090a0828f9073308d00102838833070133090a0828e8073308d00102838833070133090a0828d7073308d00102838833070133090a0828c6073308d00102838833070133090a0828b5074926b0034926a8034926a0031407000000003f7d51e29568a0037b67b803330750202803a8ad8267b00033002a030a038269080133022c03285b2f8269080150222c03542f492698037b6890037b678803330704956880037b6a800350202e036cad82672801956a00037ba778826720017ba770826718017ba76833072495686003826930017ba960502030033fad82670001817756175f1a826800014808603307013309448268f8000a082881003307013309448268f8000a0828724926f0034926e8034926e003140700000000717b484e9568e0037b67f803330750203203ebac4926d8034926d0034926c003113307049568c0034926c80350203403cdac82670001817756173f19826800014808403307013309248268f8000a08280f3307013309248268f8000a08013308d00102838833070133090a082877063308d00102838833070133090a08286606524705f5c48e0c0195671821492780064927780649277006492768069567002083778007330036030a0b3302380328873450223803843482b77882b8800082b97082ba68d49808d4a707d48707510703023308d00102838833070133090a082804063308d00102838833070133090a0828f3053308d00102838833070133090a0828e2053308d00102838833070133090a0828d1053308d00102838833070133090a0828c0053308d00102838833070133090a0828af053308d00102838833070133090a08289e053308d00102838833070133090a08288d053308d00102838833070133090a08287c053308d00102838833070133090a08286b053308d00102838833070133090a08285a0552471f7447d5ee00956718214927e0074927d8074927d0074927c807956700308377e0f833003a030a0b33023c0328c53650223c03c23682b7d80082b8e00082b9d00082bac800d49808d4a707d48707510768013308d00102838833070133090a0828f5048269680150223e03312f83b720956cff0795cc1901492ca00695cb00067bb898007bb990009568ff079588a1077bba880050204003d7aa3a076000023a086800029569ff0795991901959b00067bb780003a077000027bb8783a0a7800027bb77064973308409569ff07959981077b7a6806826760015020420365ac33078268980133090a08286c045247a7c9ff017195671821492780004917784917704917689567002083778001330044030a0b01956a182182a77882a8800082a97082aa68d49808d4a707d48707510768023308d00102838833070133090a08281604502246038835ac788a003308d00102838833070133090a0828fb0352475df12f2fea01956718214927200149271801492710014927080195670020837720020a0b01956a182195ab000182b71882b82082b91082ba08d49808d4a707d487075107b4033308d00102838833070133090a0828a203826798018177561743f4013308d00102838833070133090a0828860395674017330048033302dc032843359568181195890006829740956800017b8780008297387b8788008297307b8790008297287b87980050204a03511c3a07400002956a181195ab00067bb7203a074800023a085000023a095800027bb7187bb810956820177bb908330750204c032ea995671811492700064927f8054927f0056479330720956800174929e80550204e030ba93908bc010256183f133308403d08bc01023302500328eb3350225003e8333307d0010283777b6778018399330840330052030a063302540328702d502254036d2d958c00067bca88007bc990007bcb98007bc7a0009567e0169568a027502056039aa9956b181195bc000582c8c80082c7d00082c9d80082cae0007bcac0007bc9b8007bc7b0009567c0167bc8a80050205803901d956b000182b7800095681811958900057b97800082b788007b977882b790007b9770648a9567a0169568801682b998007ba9680533005a033302d40428e12f33078268780133090a082811025247be8a5636a401956718214927c0044927b8044927b0044927a804956700208377c00533005c030a0b01956a182195ab000450225e03d132510722023308d00102838833070133090a0828c301502260033533ac78cb013308d00102838833070133090a0828a80195670030837700f93308040a0195671821957900078298e8007b6898018298f0007b6890018297f8007b6788019567182982777b6780019567e020330062033302d203282e33330264039568181901958900078297c8007b6778018297d0007b6770018297d8007b6768018297e0007b676001826780017b97a000826788017b979800826790017b979000648a9567c0209568a020826998017ba98807502066038a17956b181995bc000782c8a80082c7b00082c9b80082cac0007bca80007bc9787bc770956780207bc86850206803091c95671819956c000182c860957900077b982082c8687b981882c8707b981082c8787b980882c880007b984082c888007b983882c890007b9830647b95676020956840209569202082ca98007bba280733006a0333025e05284d303308d001028388330733090a08286c95691821524724e250724c4929c0054929b8054929b0054929a805956700208377c00633006c030a0b33026e0328cc3150226e03c931502270032a31510728023308d00102838833070133090a08281c3308d00102838833070133090a08280c838833070133090a08018267980181775617435b3308d0010228e7956700208377a0013308040a0101956818218287a00082899800828a880082889000977b2098bb20d4a909d48b0bd49b0b510b42013308d0010228ab826798018177330843ac78b6013308d00102289795670020837740023308040a0195671821957900018298287b6898018298307b6890018298387b6888018297407b67800195674003330072033302d203282e31826740037b677801826748037b677001826750037b676801826758037b676001826780017b671803826788017b671003826790017b6708039567200395680003826998017b690003502074039915956b000382b82082b72882b93082ba387b6af8027b69f0027b67e8029567e0027b68e002502076031d1a956b000182b760956c00027bc7980082b7687bc7900082b7707bc7880082b7787bc7800082b780007bc7b80082b788007bc7b00082b790007bc7a8009567c0029568a0029569800282ba98007bcaa0003300780333021a0528602e3308d001028388330733090a08287ffe140a000000000bdb6579d37a0ad48a0ad49a0a88aa01140b00000000a7c9ff01d3b707d48707d49707887701d4a7074926b8014926b0017b67a001330780009568a0014926a80150207a034ba43908bc010256289f00182003bc0102a0003307d001028378800028acda3307d001028378800028a0da50227c037b2fac787e013308d0010228edfd9567ff079577410633007e033302d20328b02f9567ff0795771901957900058298407b6878018298387b6888018298307b6890018297287b6798013307d001037b67800183770a0301956c000182c9800082970882988199106f77987a206f88978b20d4ba0a9777206f99989920d4970798882082c98800979920989920d3980882c99800d39707d4870782c89000d3a808d4870752074802956700208377e0053308040a0195691821959b000482bac80082b7d00082b8d80082b9e000956bff0795bb1901826c78017bbcc004826c88017bbcb804826c90017bbcb004826c98017bbca80495bc00047bc9e0007bc8d8007bc7d0009567ff07957701069568ff079588e1059569ff079599c1057bcac8003300800333025e0528ab2c3308d001028388330733090a0828cafc492630044926280449262004140700000000717b484e956820047b673804330750208203bda249261804492610044926000441330704956800044926080433003403289ba29567e012330084033302dc0328422e95681811958900018297e000956800017b8780008297d8007b8788008297d0007b8790008297c8007b879800502086034c153a07000002956a181195ab00017bb7c0003a070800023a081000023a091800027bb7b8007bb8b0009568c0127bb9a80033075020880325a2956718114927a001492798014927900164793307209568a0124929880150208a0302a23908bc010256183f133308403d08bc010233028c0328e22c50228c03df2c3307d0010283777b677801839933084033008e030a0633029003286726502290036426958c00057bcac8007bc9d0007bcbd8007bc7e000956780129568e0265020920391a2956b181195bc000182c86882c77082c97882ca80007bca607bc9587bc750956760127bc848502094038e16956b000182b7800095681811958900017b972082b788007b971882b790007b9710648a956740129568201282b998007ba908013300960333028e0428e02828fff89569ff0795991901492918054929100514070000000032b297667b9720059568ff07958821064929080533075020980301a13908bc010256181f0b2003bc010220013308d0010283883307013309040a0801492690044926880449268004140700000000717b484e956880047b679804330750209a03bba0492678044926700449266004413307049568600449266804330034032899a04926f0044926e8044926e004140700000000717b484e9568e0047b67f804330750209c0376a04926d8044926d0044926c004413307049568c0044926c804330034032854a08289107b69308289087b695082887b68587b6738492618024926100249260802956800024926000233075020a00327a04926f8014926f0014926e8013307209568e0014926e0015020a2030aa03308bc01023907bc010256173f0b2003bc010240019517e08479e07b692864913307d00102837783997b68483308407b67403300a4030a063302a6032823235022a60320238267309777209877204926d8017b677b67d0018267507b67c8019568c0018267587b67c00133075020a803989f826708956a00017ba7b8008267107ba7b0008267187ba7a8003307209568a0018269207ba9a0005020aa036b9f826848818756173f0e4808403302ac03287e2a5022ac037b2a3300ae030a06826a303302b003281724826a305022b0031124956780015020b20321a07c678001510708330828f20149267801492670014926680195686001492660015020b403099f5022b60330295020b803fd9e826848818756173f0e4808403302ba0328102a5022ba030d2a3300bc030a06826a303302be03287d28826a305022be0377287b67286f877b67206f977b67186fa77b67109517e08477e07b673064714926380182677b6730018267507b672801956820018267587b67200133075020c0038a9e826710956a00017ba7188267187ba7108267207ba708330720956800018269287ba95020c203629e826848818756173f08480840019517e08477e07b6748647183793308408267403300c4030a06826a483302c60328de21826a485022c603d8218268307b8a187b89107b8b087b879567e0005020c803039f8267e0008268e8008269f800826af000847700ff867701956b00027bb9387bba307bb8287bb720956820028267305020ca03479f3307d001037b674883773300cc030a038269483302ce032801238269485022ce03fb22d4780298aa206f99979820d4a8089899204916784926980082677b6790008267507b6788008267587b6780004926b8004926b0004926a8004926a0003a0ac800023a0bd000023a0cd800023a07e000027b6ad8007b6bd0007b6cc8007b67c0007b69707b68689569c000956aa000956b8000956c607b6260330733085020d0036d9f330801018269387b984919084919104919189551a0fd951700028270588275508276489511600232003308243300d4030a013302d60328c5255022d603c225510a0b5022d803d82632003308d00102838833070133093300da030a083302dc032888285022dc0385283308043300de030a013302e0032885255022e0038225510a0b5022e203982632003308d00102838833070133093300e4030a08019511907b10687b15609515708411f0827a1882791082738277088eab8e9cdbab0c8e72883b20ff85bb01db720bd4a908db8c0b520b429538e000d8380bc8b70cd87c07dabb07c89707d89709c8a9097b18407b1c487b1750330740c871087b19585020e603349c95519082106882156095117032005022e80392265020ea031a9c49111849111049014133070464184911085020ec03039c3908bc010256183f0b2003bc010240013308d0010283883307013309243300ee030a0801951170ff7b1088007b1580007b1678951590008411f064728289827408828c088273959a1fd89a00c80c0984aae07b1308c8a303d8a30bc8490ac8ba0ad39a06d89a07da6b07822b18d8c90c828610822210828818da000cc86c0cd86c06c82c09c89707d8c90cd89709c8b808c86808c8c808c8980c8ec88e79dbc809d4c7088ea6db8906520657821808d88308d34a09d84a06da9806d82708d3bc09d8bc0bda980bd32708d49808da860b520b307b13507b1a587b17603307409518507b1c685020f003189b955170ff8210880082158000821678951190003200491140491138491130140700000000717b484e9518307b174833075020f203e29a491128491120491110413307049518104911185020f403c99a3908bc010256183f0b2003bc010240013308d0010283883307013309243300f6030a0801951140fe7b10b8017b15b0017b16a8019515c0018411e08280829b088284088296950a1fd80a02c8240c7b1630d86a03d3bc0a7b1b40d8bc0bdaa30b828610d84c0ada220a829c18828218829310c86a0ad86a08c82808d3c8097b1c20d9c808d83a0cda9c08d33a0ad4a909db980b510bed027b17187b1328d460077b14507b1238d42408d487079877207b1648d46808978820d487075207c4027b10608308831780017b18100a010182199801821a9001821b88018e978ea8db97087b1990007b1a8800d49a077b1b98008eb9db78095209920282168001951760013308405020f803859882127801821c70017b1c78821368017b138000821460017b147095671f7b1658d8670882199800c898088488018477e0957920d87907c8780ad88a0bda770b492138017b19200164267b1258017b1c50017b1348017b1440017b1a280195174001951820017b1b30015020fa0377fd8219707b166882188000d46807821a78d4a908d47808988820d4a707977720d487075207e4018216587b160001821798007b170801821788007b17100195180001821790007b17180164975020fc03ff98821760c8670ad87a0982145082179800c84707c89707d3470bd84708dab90882104882198800c8090995ac20d8ac02c8270b821a30d8ca0c821a40d3ab06d8ba0adb6a0cd8090a82133882169000c83606c86a0ac89808d89809c8a909d87b07da2207c88707d88708c89808821a20d3a809d88a08821b28d87b0ada9a08d3b707d49707db780c821a9800520c9c01d430071408e0ffffff00000000821960d889089448947851080f0182198800821c58d49c0782189000d4a808d48707987720d49808978820d4870782167082198000821a78821b685207de00d4ba071408e0ffffff000000007b1860d88608949894785108c3008217108377207b175083672064c864c65020fe035b9b837783688219500a01821270c86207d8270882199800821b8000c8b909c88909d3b90ad8b90bdaa80b82188800821a78c8a808d8a80a821c9000821668c86c0cc8ca0ac88b0bd88b08c8a808d4b808821a60d8a70a949a948a510a5064268377204921f8004921f0004921e8009518e0004921e0005020000478978217188218687b78188218787b7810821880007b78087b76955140fe8210b8018215b0018216a8019511c0013200003308d0010228724921d0004921c8004921c000140700000000717b484e9518c0007b17d8003307502002041c974921b8004921b0004921a000413307049518a0004921a80050200404fe963908bc010256183f0b2003bc010240013308d0010283883307013309240a083308d0010228083308d001020183883307013309330006040a08019511a07b10587b15507b16489515608411f0828910828c08828b82881897923f98ca01d42a02978a3f989901d49a0a97cc3f98b901d49c0c98830184bb019ab888b60184c97fd2a804d2280adbbc09d2380b88982094a8d4b40c94c8ab86167b797b7a087b74107b7b18502208041621320050220a04be2050200c044696491118491110490122330704641849110850200e042f963908bc010256183f0b2003bc010240013308d001028388330701330924330010040a083302120428a82050221204a5207b6710828718828910828a0882887b67b0007b6738027b69a8007b6930027b6aa0007b6a28027b6898007b68200295670002330840502014048a94956800028287187b67188287107b67208287087b672882877b67309567e00195682002502016048d96956b000182b7f80082b8f00082b9e80082bae0007b6790007bb7b8007b6888007bb8b0007b6980007bb9a8009567c0019568a0017b6ab8007bbaa000502018049bfe826730826818826928d48909826a20d4a708d49808988820d4a909979920d4980852086503956c000182c9d80082cad00082c8c80082cbc0007b6b607bcb80007b68707bc888007b6a687bca9000956880017b69787bc9980050201a04fa94826ab80084a70152070001826720826818d487071408e0ffffff00000000826b30d88b08826928949894785108fc0284a800ff83b720826a8000956900017b9a087b98826888007b981095680001826a90007b9a1850201c049f94330433033302826768826860d48707826878826970d49808d487078e779777057b67b800018268b800958720d88708c88409d8490ada880ac83a0ad83a08c8820b8268307b68e0007b67c0008267287b67e8008267207b67f0007b69c8008267187b67f8007b6ad0009567e0009568c0007b6bd80050201e044bf88267108268187b78188268207b78108268287b78088268307b789551a0fd9517000282705882755082764895116002320082679800956900017b97608267a0007b97688267a8007b9770956860018267b0007b9778330750202004c7939517e08477e07b675864713908bc010256181f0b2003bc010220019517e08479e07b69b00064913307d00102837783993308200a064926b800330433033302826cb00082c7188268309589207b6950d88908826928c8890a7b6a48d89a0bda880b82c81082c90882ca6f776f886f906fa9826c58649a7bc91864097b6980007bc9107b6890007bc80864797bc7826720c87b0b7b6b40d87b07826818c887077b6738017b6a88007b6998008267608268b800d87807826970d39408d89409da8709826b68d8b307826a78d3a208d8a20ada870ad3b307d48707da790a510a71fe9567400164c87b62b0007b63a8007b64a00050202204c1938268508267b800c88707d88708826b488269a000c8b909c88909d3b90ad8b90bdaa80b826a408268a800c8a808d8a802826c38826ab000c8ac0cc82c0ac88b0bd88b08c8a808d49808d4b709d48909d4b808989920978820d498085208a100956c000182c95882c85082ca4882cb407bcb207bca287bc830956820017bc938502024044a92826a980095aa0188a70182649000c87404d44a0788770182688000c87803d8830882678800c887078268b800958020d88009826ba000c89b08d8b80bda990b8269a800c89b0bd89b098262b000c8920264497b699000826c587bc90864a97bca7bc310647a7bc7187b6380007b60b800648464b328b2fe00951110ff7b10e8007b15e0007b16d8009515f0008411f0828c10828b18828a0882887b1a287b1b18d4ab0bd4c80ad4ba0a98aa207b1c20d4cb0b97bb20d4ba0a520af7017b17088297187b17688296108297087b176082977b17589517b0007b1810502026043090821758d46709821868821a60d4a808d489099899207b1650d46808978820d498085208ae018219c800821ac000821bb8008218b0007b18307b1890007b1b387b1b98007b1a407b1aa000951890007b19487b19a8006476502028040d91821768821850d478081407e0ffffff00000000d87609821a6094a9948951095501821820821918d49808821910d87907821a2894a7948751073b01646c821630821a40d4a607821848821b38d4b808d48707987720d4a808978820d487075207140183c7208398207b1828646850202a0402947b1720821728646850202c04f4936478821720646950202e04c08e821758c86707d86708821960821b38c8b909c88909d3b90ad8b90bdaa80b821850821a40c8a808d8a80a821c68821648c86c0cc8ca0ac88b0bd88b08c8a808d4b808140ae0ffffff00000000d8a70a949a948a510a91008377204921880049218000491178951870491170502030040e9082163095661f1407e0ffffff01000000d26707821858c88707d88708821a60c88a09d8a90ada880a821850c88a0ad88a08821b68c8b808957b20d87b07c8790cd89c09da7709c8a909d8a907c887078218087b8b7b8c087b89107b8718955110ff8210e8008215e0008216d8009511f000320000951140ff7b10b8007b15b0007b16a8009515c0008411e064168289828a08828b108288187b67187b68787b6b707b6a689568607b69603307502032045c8f49165849165049164833072095684049164050203404448f3908bc010256183f0b2003bc010240019517e08479e07b691064913307d00102837783993308400a06826a1082a782a80882a91082aa186f776f886f996faa95aa0188ab01c8b909d49a0b88bb01c88b0bd88b08c887077b6a80007b6988007b6b90007b6798009567209568800050203604c28f826730826838826920826a28826b187bb7107bb8187bb97bba08955140ff8210b8008215b0008216a8009511c0003200951120ff7b10d8007b15d0007b16c8009515e0008411f0827810827918827a088277d4a909d48707d49707510719955120ff8210d8008215d0008216c8009511e00032009517a00033084050203804158d8219b8008216b0008217a8008218a0007b17107b1908d497077b1818d46808d47808988820d46707977720d487075207c000492190004921880049218000140700000000a079c308951880007b17980082171850203a04f68d821908d46909140600000000010000001407fcffffff00000000821818d8780782181094877b1908949751076b8217188377044911784911704911602095186049116850203c04ad8d9567dc821818d87807821810948782180894875107398216188367244911584911504911401695184049114850203e047b8d1407bcffffff00000000d8760782181094878218089487520704008216188367443a08e800023a09f000027b18387b1930140800007473697865207b182895182049112050204004318d3308646467502042048e908378330701330964330044040a0801951180fe7b1078017b1570017b166801951580018411e064164926580149265001492648019568400149264001330750204604e28c492638014926300149262801330720956820014926200150204804c58c3308bc01023907bc010256173f112003bc01024033024a0428b01750224a04ad173307d00102837783997b68583308407b675033004c040a06826a4833024e04282b16826a4850224e0425167b67386f877b67306f977b67286fa77b67209517e08477e07b674064713307d001037b674883777b6718330050040a038269483302520428070e82694850225204010e49261801956900017b98107b9708956800017b9a3307502054041a8c8267207b67f8008267287b67f0008267307b67e8003307209568e0008269387b69e00050205604f18b826858818756173f08480840019517e08477e07b673864718379330840826750330058040a06826a3833025a04286d0f826a3850225a04670f8268407b8a187b89107b8b087b879567c00050205c04928c7c67c000510719955180fe8210780182157001821668019511800132004926b0004926a8004926a0001407000000003f7d51e29568a0007b67b800330750205e045d8b826718330060040a038269483302620428120d826948502262040c0d492698007b6890007b678800330704956880007b6a800050206404248b491678491670491668330724956860491660502066040c8b826758817756175f0b82685848086001330701330944826850330068040a0801951160fe7b1098017b1590017b1688019515a0018411e064168279827808827a108277187b6720956b00017bb7787b6a287bba707b68307bb868956860017b69387bb960330750206a04a08a50226c04c71450206e04948a3308bc01023907bc010256173f0b2003bc010240019517e08479e07b696864913307d00102837783997b68783308407b6770330070040a06826a683302720428fb13826a6850227204f5137b67586f877b67506f977b67486fa77b67409517e08477e07b676064713307d001037b676883777b6718330074040a038269683302760428d70b82696850227604d10b492638017b6830017b672801956820017b6a2001330750207804ea89826740956a00017ba7188267487ba7108267507ba708330720956800018269587ba950207a04c289826878818756173f08480840019517e08477e07b67586471837933084082677033007c040a06826a5833027e04283e0d826a5850227e04380d8268607b8a187b89107b8b087b879567e00050208004638a7c67e000510719955160fe8210980182159001821688019511a00132004926d0004926c8004926c0001407000000003f7d51e29568c0007b67d8003307502082042e89826718330084040a038269683302860428e30a82696850228604dd0a4926b8007b68b0007b67a8003307049568a0007b6aa00050208804f5888267207b6798008267287b6790008267307b678800330724956880008269387b69800050208a04cc88826778817756175f0b8268784808600133070133094482687033008c040a0833028e0428501050228e044d103a07f800027b6720956a00027ba7383a080001023a090801023a071001027b68187ba8307b69107ba928956820027b67087ba720330750209004648850229204cc0d5020940458883308bc01023907bc010256173f112003bc010240330296042843135022960440133307d0010250229804961333009a040a0633029c04280c0a50229c04090a50209e0413885022a004180e5020a2040788826868818756173f0e4808403302a40428090c5022a404060c3300a6040a063302a80428cc0b5022a804c90b5020aa04c7887c67a001510711330833078269583302d204283e0c5022ac04d3105020ae04b4875022b004030d5020b204a887826868818756173f0e4808403302b40428aa0b5022b404a70b3300b6040a063302b80428440a5022b804410a5020ba0476875022bc04560d5020be046a87826868818756173f08480840019517e08477e07b67685022c004d50c3300c2040a063302c40428020b5022c404ff0a5020c60427885022c804810b5020ca0493883307d001037b676883773300cc040a038269683302ce04284d0c8269685022ce04470cd4780298aa206f99979820d4a808989920492698004926b80082677b67b0008267707b67a8008267787b67a0008267207b67d8008267187b67d0008267107b67c8008267087b67c0003a0a1801023a0b2001023a0c2801023a073001027b6af8007b6bf0007b6ce8007b67e0007b6990007b6888009569e000956ac000956ba000956c80007b628000330733085020d004a88833073308018269585022d204e60a32003a073801027b6720956a00027ba7383a084001023a094801023a075001027b68187ba8307b69107ba928956820027b67087ba72033075020d60427865022d8048f0b5020da041b863308bc01023907bc010256173f112003bc0102403302dc042806115022dc0403113307d001025022de0459113300e0040a063302e20428cf075022e204cc075020e404d6855022e604db0b5020e804ca85826868818756173f0e4808403302ea0428cc095022ea04c9093300ec040a063302ee04288f095022ee048c095020f0048a867c67a001510711330833078269583302180528010a5022f204960e5020f40477855022f604c60a5020f8046b85826868818756173f0e4808403302fa04286d095022fa046a093300fc040a063302fe042807085022fe04040850200005398550220205190b502004052d85826868818756173f08480840019517e08477e07b676850220605980a330008050a0633020a0528c50850220a05c20850200c05ea8550220e0544095020100556863307d001037b67688377330012050a038269683302140528100a826968502214050a0ad4780298aa206f99979820d4a808989920492698004926b80082677b67b0008267707b67a8008267787b67a0008267207b67d8008267187b67d0008267107b67c8008267087b67c0003a0a5801023a0b6001023a0c6801023a077001027b6af8007b6bf0007b6ce8007b67e0007b6990007b6888009569e000956ac000956ba000956c80007b62800033073308502016056b86330733080182695850221805a90832007b6a50829a087b6a7082997b69788289828a08828b108288187b67587b6808956700027b78387b6b107b7b307b6a187b7a28956820027b69207b7920330750201c05e28350221e054a0950202005d6833308bc01023907bc010256173f112003bc0102403302220528c10e50222205be0e3307d0010250222405140f330026050a0633022805288a0550222805870550202a05918350222c05960950202e058583826868818756173f0e48084033023005288707502230058407330032050a0633023405284a075022340547075020360545847c67a0015107113308330782695833025c0528bc07826720956900017b9780008267187b9788008267107b979000956880018267087b979800330750203805128350223a05610850203c050683826868818756173f0e48084033023e0528080750223e050507330040050a063302420528a205502242059f0550204405d48250224605b40850204805c882826868818756173f08480840019517e08477e07b676850224a05330833004c050a0633024e0528600650224e055d0650205005858350225205df0650205405f1833307d001037b67688377330056050a038269683302580528ab0782696850225805a507d4780298aa206f99979820d4a808989920492698004926b80082677b67b0008267707b67a8008267787b67a0008267087b67d8008267107b67d0008267187b67c8008267207b67c0003a0a7801023a0b8001023a0c8801023a079001027b6af8007b6bf0007b6ce8007b67e0007b6990007b6888009569e000956ac000956ba000956c80007b6280003307330850205a050684330733080182695850225c05440632007b6a38829a087b6a7082997b69788289828a08828b108288187b67307b6840956700027b78387b6b487b7b307b6a507b7a28956820027b69587b79203307502060057d8150226205e5065020640571813308bc01023907bc010256173f0b2003bc010240019517e08479e07b692864913307d0010250226605b00c330068050a0633026a0528910450226a058e048267389777209877204926f8017b67387b67f0018267707b67e8019568e0018267787b67e001330750206c050581826708956a00017ba7d8008267107ba7d0008267187ba7c8003307209568c0018269207ba9c00050206e05d880826868818756173f08480840019517e08477e07b6720502270054306330072050a06826a2033027405288105826a20502274057b059567a001502076058b817c67a0015107ef01826758956900017b9780008267507b9788008267487b979000956880018267407b979800330750207805658050227a05b40550207c055980826868818756173f08480840019517e08477e07b672850227e05c405330080050a0633028205288803502282058503492658018267387b6750018267707b674801956840018267787b6740013307502084050580826708956a00017ba7388267107ba7308267187ba728330720956820018269207ba92050208605dc7fff826868818756173f08480840019517e08477e07b676850228805460533008a050a06826a6833028c05288404826a6850228c057e049567000150208e058e80956b000182b782b81882b91082ba08847700ff956b00027bb8587bb9507bba487bb7409568400282672850209005d6803307d001037b67688377330092050a0382696833029405289004826968502294058a04d4780298aa206f99979820d4a808989920492698004926b8008267387b67b0008267707b67a8008267787b67a0008267407b67d8008267487b67d0008267507b67c8008267587b67c0003a0a9801023a0ba001023a0ca801023a07b001027b6af8007b6bf0007b6ce8007b67e0007b6990007b6888009569e000956ac000956ba000956c80007b6280003307330850209605ea803307330801826930330298052824033308826930502298051c033200330750209a052e8233070150209c052582826b980188b98000826a5001db9a08826c5801826a6801d4ca0ada970a93b8ff93baff826b6001939b939c82677801e0a70782698001e0890882698801e0c909826a9001e0ba0a956b1821320282970881981082996f77977a206f88988820d48a0a9877206f98978920d497079888203202826a4882a71882a81082a90882aa6f777b67406f877b67386f977b67306fa77b67289517e08477e07b674864718267509777209877204926f8017b677b67f0018267707b67e8019568e0018267787b67e001330732028263480195330188370182644001c87404d4430788770182685001c87800d8800882676801c88707826898019589207b696801d8890a82683801c8a8097b694801d8890bdaaa0b82689001c8b80ad88a0b82688801c8b8087b68880182687801958b20d88b0c82695801c8c908d89809dacc09826c6001c8c909d8c90c3202826a5082a71882a81082a90882aa6f777b67486f877b67406f977b67386fa77b67309517e08477e07b675064714926580182677b6750018267707b674801956840018267787b67400133073202826b980188b98000826a4001db9a07826c4801826a5801d4ca0ada980a93b7ff93baff939c826b5001939b82687801e0a80882698001e0790782698801e0b909826a9001e0ca0a3202826a2882a71882a81082a90882aa6f777b67206f877b67186f977b67106fa77b67089517e08477e07b67286471320249268001826a680182a71882a81082a90882aa6f736f846f903309826b78016fa7330a320282a71882a81082a90882aa6f776f8b6f996faa3202826a6882a71882a81082a90882aa6f776f8b6f996faa8268507b8a187b89107b8b087b87956700013202826a5082a71882a81082a90882aa6f776f8b6f996faa8268487b8a187b89107b8b087b879567a00132029517e08477e07b675064718379330840826760320282970881981082996f77977a206f88988820d48a0a9877206f98978920d479099888203202956b000182b782b80882b91882ba10847700ff867701956b00027bb9587bba507bb8487bb7409568400282675032027b987b97087b97107b9718955180fd95170002827078827570827668951180023202826a700182a782a80882a91082aa186f776f886f996faa95aa0188ab01c8b909d49a0b88bb01c88b0bd88b08c8870795681821320282a71882a81082a90882aa6f776f8b6f996faa8268287b8a187b89107b8b087b87320282989000d8780782988800948782989800948732028ea78eb8dba7088ec77b6978018899208599017b6c8001dbc7097b6a88017b6b9001d4ab07db78098267a800887720320282970881981082996f7a97a7206f88988820320249267801492670014926680133072095686001492660013202492618024926100249260802330720956800024926000232026471837933084082676032027b6758017b68600182675001d487077b675001826798019579803307ff3308ff320282a71882a81082a90882aa6f777b6758016f877b6750016f977b6748016fa77b6740019517e08477e07b67600164713202826730956a00017ba7388267387ba7308267407ba728330720956820018269487ba9203202826728956a00017ba7d8008267307ba7d0008267387ba7c8003307209568c0018269407ba9c00032028269680182970881981082996f77977a206f88988820d48a0a9877206f98978920d4970798882095691811320282989800d878078298880094878298900094873202d88708826a6001c88a09d8a90ada880a82687001c88a0ad88a08826b6801c8b808956b182195bc00073202d88708826a9001c88a09d8a90ada880a82688001c88a0ad88a08826b9801c8b808956b182195bc00063202d88708826a6001c88a09d8a90ada880a82687001c88a0ad88a08826b6801c88b0b956818193202826710017b6b7801d87b07857b017b6a580194ab017b69600182678001d49707947b01826818013202826a580182a71882a81082a90882aa6f776f8b6f996faa826860017b8a187b89107b8b087b87330700103202d87907826a9001c87a08d8a80ada770a82678001c87a0ad87a07826b9801c8b70795cb00043202c8ba0a7b6a580197aa3b989b05d4ab0b8267600182731897993b827a10988805d498076f346fa932029518e08488e07b6868016481837783893308203202951180fd951900027b90787b95707b9668951580028411e064168289107b69508289087b697082887b68787b6758320297773b9878387b6898019a8980003307ff3308ff320282648801954401884701826b9801c87b0bd4b40788770182687801c88707d8870832026471837933084082679801320282a71882a81082a90882aa6f776f886f996faa956b1821320233071821c8760a95ab0006320282cb60d4b80882cb68d4ba0a82cb70d4b909956b18213202d4c809d4a707d47909989920d4c707977720d4970732027b6750017b68480182684001d487077b674001826798018379803307ff3308ff3202c88a09d8a90ada880a82688001c88a0ad88a08826b8801c88b0b32029517e08477e07b67700164713308203307320282171082181814090000000001000000d37909d48909987a2088aa01948a939a320282989800d878078298900094878298880094873202c8790bc8ab0bd39b0a7b6b6801d89b09daa709826b58013202826720956900017b9798008267187b9790008267107b978800956880018267087b97800033073202d4c809d47007d47909989920d4c707977720d497077b6348017b6440013202d8780782a99800949782a97894973202d8780782a99000949782a9880094973202d49b0bd48709d4b909989920d4b808978820d4980832027b6768017b6850013307ff3308ff82699801320282a71882a81082a90882aa6f773202951180fd951a00027ba0787ba5707ba668951580028411e06416829a103202826c70017bc4087bc37bc01032028219821a087b697b6a087b67107b68189551c0821038821530821628951140320282c7800082c87882c97082cb68d49707d48b09d47909989920d48707977720d4970732024926580149265001492648013307209568400149264001320295781fd87807826c1001c87c09d8c90ada770a32023307207b679801330c4926900149268801492678013202491130491128491120140700000000717b484e9518207b1738330732029517e08477e07b676001647183793308208267f80032029511a0fd951900027b90587b95507b9648951560028411e0641632029551a08210588215508216489511603202d8780782c99000949794a7320282b7b80082b8c00082b9b00082baa800d49808d4a707d4870732029517e08479e07b697001649132029517e08479e07b6948649132029517e08477e07b6798016471837933084032029517e08477e07b673064718379330840826740320233071811c8760895890004320249284005492838054928280501648933072032028267980181773308233202837783997b68683308407b6760320233071821c8760a95ab0005320233071821c8760a95ab0007320233071821c87609959a00013202d87a0782688000c8780bd88b08da77088267900032029511c07b10387b15307b16289515408411e0647683173202849a40520a195109148d9a40cfa80ad09808d09707d4a707320032009597c0d0780733083200849a40520a195109148d9a40d0a70acf9707cf9808d4a808320032009598c0cf87083307320049922425494b2a252da9944c4949214225a952484992244992244992244992244992244992244992244992244992244992244992542529a524292949a84a494a922449922449922449922449922449922449922449929224294955494a9228492549559282922425294955559292a42495242549529224152aa5942495141411112949929424495292242925499284a222458a142952a4489122458a142952a428912222a224491042c2509a9486448888882421498888884644248950218452929224499288129294244932945215aaa950a51111112992904808112211a5914002020924020924202020908888889408922449122411292211892409112184888842444489082144308942452245122144919210111185888888281111a2c824829484488824212184245288242512a2c8248214498448494812294414899488842832899092100911914424444424499224494404101111112122220104102489880811111122222149444488881011114000a9242122224208111111222289a22421222222224484128d8888482322224912241129222222222242444444444442244992244922a24824224524222222222252122222922451241222421242881049a4884444443422222249124522224244848888888888888804111124119148242252442222222222a2114992248922118922412449494494244912111111498a8888882022222222222212458288484a22a224499288888848524444440411914892241189224144242511519224494444444444111111114444442291480821119224222988888812114108114ca250948822124114459144218a282211444424112988884824522222822832894a441189209214114444121111222288888888a4244992a4484412492222420411092222222222222222228888482449924444241289882888884800010449242222914844248a202212248988482412118920a211010490284a22924812119144248288464412454904111111111111444400010449444444442482888820898888888888884810111111111111051111a144449044516412952892548aa28824454410114912912411415292481249241289248a882022922492244992242282884852899224491289481011111111111111444444544a92244922222222222222220aa2c8242a1125922089249124a9942a4922494412492249922452924822499244495592449248244912912449921423912412499294248988882822228888489244921211111145822449920449448a4824128948101111111111111141442422499224222222828848000144a2924844119188082212249188081141000144248a9248441111114424482222222282880002884425111111111144449044444488082211914844a22022a2440842886012858a4414910822924404111111498a484410118944225210414410495424124491a4aa8844225124884824128922222288082222892449928888888888882092481249242249444424220920804814251111111149121141248824454444221224119124121111114124888888080288082048222222221111114124888888082212241111114944249108028808204802881411111111412488244544442222482222222222222288041123222222124992248988881041441091049000225194444444449244041141244112914824129188101144249244128988888888888822228288914824121141009100822422222252449288244992248948928848129124898888082222914824128914111141c4884824121141244112114922222222880802880410241111012489888888202288449044444492222289041141001124914844a4229244244992244944924422492249222591202222222222a248a488880431492229924822499224254992441109242222228a0411114992208948140992242249a4208288208942049328548a241545514492228848241289482249249188888888484444444444828888888804111111119120492282202291484482248908222222221224894844824422918804111111912449222222222222228888041040a22211114444041191082292884824922222828824888888884424458948224992442211914482888888888888888822222288082080442922128944221111111111114424414412111111111144228000121501448a88888808221241448a482a114944922489444444120922a2888888884422454444101111911449249124912449922422282a1111118d888824491489041111912449224484102222229224118d24499244914810491244288410111111898888882241904449222211894824221245828888882491828888121184104124081589282211445114491449444444441444444444948808a2482488282211449222888848101149828822222222111111512448922449148904111111414444440489a054a91111111111110511115122045164124114910822924404119148921491882022229148440a222242890822898a4c22284a529524491225892022222202480091888888882022414444442449924444444444141111443412492451c92492244992244992449224111189442222054110148a88a0482445108944248a4424892489244144104912114922824822492491482412492491882492441289a04444441149121111258924491449922492041111442412894482200882208888888820499224494444442449224900492a12114444442249244992894422114910912441100449041111119320290992482412251211414492449224491211114494884a9424499288884810111111111111111111114444444404898888888888888882282291208a48040952aa24892489249244922449a42049924449559224492492248948922449a2914812892449228a442289888888208894249224499224491249924422222222222211511004411409822291144124129128129124922492041141444444244944104422281111514492242222121191248992244992202241444444444444044110044110491211244992248948924824092049452412444444444422629248124922129104119124088220892012494c82480411111149224944444424128988888820294924892412498a082222222282484422222222228248101191a488082222220124111111114152122491482412512488248924499224494410492a5144924812111144444444444410490a2222222222220aa2884482682491248228aa2489241149248924499248412492244aaa9224924422499288244992241a892491489224a248249288888808824889449248442222222222a2200882281204452269442491882422918844918824912491248848228824452449441044222811115122129144444422221289482249922409920822914824220882200882489288201249248924494492884492009254128920222222123112492492882491484412444492202212912488884424495124128944124444444c0491209224221249224912914824221144440248009128259188101144124144444444444444041111111111d14822514a228844444404118948129144244992244992244408212222824810499224499222128944a488845209a5124a25944a2895502aa15442a9845209a5124a25944a2895880820a220a28844101189082212892422411491244a12151101441444844404514492a8241a4a25944a40444444449120912489502aa15442a9845209a5124a25944a2895502aa15442a904444444441409222292442895081211111111410811112121252222282a81882411d148244922944a10a15402222222a21149922442a94421944a44242211894422081109212491828888121184488804a12851248888888820222222222282888888448a888848510988888888684410a1548208a5129122222222a28888448c888888888888882222828888884822414422499244229122222222a1aa084444444491208850aa50aa52a30845a4111191248950940845a48844229188884444444444444444440491241111114422128944444444444444245425802409204912111111841008911009222422221191482412216a444a2949492249249144448a888888888888888888888888888884aa44440011051121119188484444444444042122420811110511112522089110094251a2481011111141449248120922221289141111914444041011511022184a1a1101441444844444222280888288908848929444444441442422082182490a95248a0449a24844a2201189442211a448248812491041a44444441004291209a24412a49492a42812912848244912294891492a8912499024451011118924890421458924484a92281289888810428888482222a9205392882451a24890a0508a2241a24890a0508a2649925229922491244992240992a4204892128408869268442452494992244992244992244952494992244992244992202212250920294822491022184aa211119192922449922449922449924892244992489146442522512222414422224922499224a2888888882089244992484444444441924492249124499224912449922449922422012415914492248924124052912415544e1291248924912449924a8988882049122922221a8a8800220a2242228210c15052282c459324494a922449929224492925090a8224294188602889224192141111111109224992121144444444444444449024499224222222914844228844920092544422522422419524494a8c244992442412918888089224498a48124524128948419242049328548a2a92244992a4aa9422914a92242312499224499244141141224924491249224992244922922449248824924412892492441229924a89a88c888824294992248924494a244892244912111189442212054902482a9224a928499224492429480a4a41922449922449922401a422114982248024499224499224494a1211118d8888549224490a922409420493142aa5245549922411118920499294888828222292a4248988882241444492244912111140448224800092949224910449524a924412049094320921092049908292684444a48888288888440421441009422589124990524a92424a94488288242a48241289449022935412259220498a20121111454400110589124910118908922409522493442322229524912489a4200842886092422589124990524a92424a94488288882848244912294891492a8912499024451089888822228088824489248888440489442291085224934491202412424892480a82208408224108a2481004418a4482281204914a240882204522411409822048914982281204411052944882a42411452291482412218410111111111115940485444208491249411084104124084114098220489148104582205289044110a4482488224110042932491045822008428a1249909424a248241289442284102222222222a28292a024a5244924492229088210228804218822411004291209a24810442a91442412912808821489045124088220452609a24810044148512209929244148944229148841042444444444454501294a494248924492405411042049314822812248944221205894824128920452609a2441244109188442212054190229304512488442212058924492209a4c8244194488208a22411491209428a12499094242291482412894408214444444444440525911254902022129124519148241225959294a424a994529294248a44242a924812492412894412492422892491942495524a92a24844a22222114952148944222549a59492a4229254155592aa4a92aa92a42849aa4a92a2249594544a5292a22491489248258948124549aa922449a22455254945a2a84a914422924849a514118928221251254544229294a4a2288a242a9124492425229148248aa45292924491282a912492484489249144224a2489241245249188248a24554592a2449248225122492449aa24aa14912452929494442445124922a91225a92a8a444992444992a4884844929244122989524900495245a2a82491448948242251499224a244a944514992a488244a524524899422a55292244991244992141189288924258a88920490541295282249a4922425aa8888242551492a894a492a2912458452942a4991281245a244922849922a4992a4924a9224a9a40000"},"methodIdentifiers":{"DEFAULT_ADMIN_ROLE()":"a217fddf","DISTRIBUTOR_ROLE()":"f0bd87cc","MANUFACTURER_ROLE()":"965288b0","RETAILER_ROLE()":"2115e7bf","addDistributor(address)":"7250e224","addRetailer(address)":"8ec4f505","getProduct(uint256)":"b9db15b4","getProductCount()":"4a348da9","getRoleAdmin(bytes32)":"248a9ca3","grantRole(bytes32,address)":"2f2ff15d","hasRole(bytes32,address)":"91d14854","products(uint256)":"7acc0b20","registerProduct(string,string,string)":"3406b718","renounceRole(bytes32,address)":"36568abe","revokeRole(bytes32,address)":"d547741f","supportsInterface(bytes4)":"01ffc9a7","verifyProduct(uint256)":"524e8462"}},"hash":"39cef3d63b0d8b6688b423ee534a445fc2c1293aad74a6f22eb755feb61e5886","factoryDependencies":{}}}}